:0A00000002605EE4FD7F8002688666
:10000B000264D47BC0BF01027B80ED2BFFE4FD12A9
:10001B006886E47F0F02688602616E7402F07FE6E9
:10002B007E008E268F27126DD3AF27AE26122FC2DE
:10003B00AF27AE26126BCA900065E0FFA3E09000DD
:10004B0063CFF0A3EFF0A3E526F0A3E527F0126C46
:10005B00D2900092E09000A7F09000507402F07BD9
:10006B0013E4FD7F01126774126770E4FD7F0312C6
:10007B006774E4FD7F04126774E5278526F0122F61
:10008B00950158000A0183001401B9001E01F50007
:10009B0032020F003C0286004602A0005002BA005A
:1000AB005A02FE0064031A006E03390078035600EF
:1000BB00820380008C039A009603B400A004000016
:1000CB00AA041E00B4043D00BE045100C804650020
:1000DB00D2047900DC04C800E6051100F0053600F7
:1000EB00FA0585010405B8010E05FC0118062F0160
:1000FB00220662012C06F701400711014A08EE01A6
:10010B005E072B016807EE01720A5501860A36015C
:10011B0090083F019A086901A40A1A01AE0A00016E
:10012B00B8089101C2093F01CC096901D609B30195
:10013B00E007AD01EA076C01F408BB01FE0AA80257
:10014B00120AEC021C0B1F022600000B60124CA8BB
:10015B007BFF7A0B7979E4F52E7D01125A4D7BFFEB
:10016B007A0B7964E4F52E7D03125A4D7BFF7A0BE3
:10017B0079A1125A48026B9F7BFF7A0B79D1E4F578
:10018B002E7D01125A4D7BFF7A117902E4F52E7DFB
:10019B0002125A4D7BFF7A117912E4F52E7D031270
:1001AB005A4D7BFF7A0B79A1125A4802693E7BFFAD
:1001BB007A0C792BE4F52E7D01125A4D7BFF7A11C7
:1001CB00794DE4F52E7D02125A4D7BFF7A11797031
:1001DB00E4F52E7D03125A4D7BFF7A0B79A1125A4F
:1001EB00489003797402F00268C27BFF7A0C79485D
:1001FB00E4F52E7D01125A4D126AE57BFF7A1279D6
:10020B0019025A48900375E0FFB401069000A074E0
:10021B0001F0EFB402069000A07402F0900279E0B6
:10022B00FFB401069003747401F0EFB4020690035F
:10023B00747402F0EFB403069003747403F0C2AF4E
:10024B0012684BD2AFE4FF7F119000BD7420F0A376
:10025B00DFFC7F1190027D7401F07BFF7A0C7972C9
:10026B00752E02FD125A4D12676E7B017A0079775B
:10027B00E4F52E7D02125A4D025A427BFF7A0C791D
:10028B0081E4F52E7D01125A4D126A4F7BFF7A0BDA
:10029B0079A1025A487BFF7A0C79A1E4F52E7D01F6
:1002AB00125A4D126A817BFF7A0B79A1025A487B55
:1002BB00FF7A0C79C3752E047D01125A4DE490031D
:1002CB0091F09000E204F0E490021FF09000DBF05C
:1002DB0090024DF09003967406F0E4A3F0A3F0A304
:1002EB00F0A3F0A3F0A3F0A3F090009D04F0900313
:1002FB0076F0227BFF7A0C79CF752E027D01125A94
:10030B004D7BFF7A0C79DFE4F52E7D02025A4D7B93
:10031B00FF7A0C79F1752E047D01125A4D90037BF7
:10032B00E0FF126C697BFF7A127919025A487BFF46
:10033B007A0D7901752E047D01125A4D1262EF125E
:10034B0069B27BFF7A0D7925025A487BFF7A0D79CA
:10035B0046752E027D01125A4D7BFF7A0D7956752B
:10036B002E027D02125A4D7BFF7A0D7968752E0293
:10037B007D03025A4D7BFF7A0D7901752E047D01A9
:10038B00125A4D7BFF7A0D7910125A480262EF7B9D
:10039B00FF7A0D7977E4F52E7D01125A4D7BFF7AAA
:1003AB000D7984125A48026A1D9002207402F09053
:1003BB000379F090027AF07BFF7A0D7996E4F52EB3
:1003CB007D01125A4D7B007A007942752E047D0116
:1003DB00125A4D7BFF7A0D799BE4F52E7D02125A52
:1003EB004D7BFF7A0D79B0E4F52E7D03125A4D1239
:1003FB005A42025D7FE4900372F07BFF7A0D79C560
:10040B00F52E7D01125A4D7BFF7A0F790C125A484B
:10041B000266117BFF7A0D79E8752E047D01125A65
:10042B004D7BFF7A0E7903752E047D03125A4D0214
:10043B0066CC7BFF7A0E7910752E047D01125A4D16
:10044B00126CF3025A427BFF7A0E791A752E047DD9
:10045B0001125A4D126D12025A427BFF7A0E792409
:10046B00752E047D01125A4D1267B6025A427BFF5C
:10047B007A0E7930E4F52E7D01125A4D7BFF7A0E00
:10048B007942E4F52E7D02125A4D9000E27401F090
:10049B00E490021FF090027A04F0E49000DBF090FD
:1004AB000391F090039604F0E4A3F0A3F0A3F0A360
:1004BB00F0A3F0A3F0A3F090009D04F02290022093
:1004CB007403F090037914F07BFF7A0D7996E4F5C1
:1004DB002E7D01125A4D7B007A007942752E047DD8
:1004EB0001125A4D7BFF7A0D799BE4F52E7D02129A
:1004FB005A4D7BFF7A0D79B0E4F52E7D03125A4DE0
:10050B00125A42025E137BFF7A0E796BE4F52E7D55
:10051B0002125A4D7BFF7A0E795BE4F52E7D0312A6
:10052B005A4D7BFF7A0F790C025A489002207401C6
:10053B00F090037904F07BFF7A0D7996E4F52E7D2C
:10054B0001125A4D7B007A007942752E047D0112FF
:10055B005A4D7BFF7A0D799BE4F52E7D02125A4D95
:10056B007BFF7A0D79B0E4F52E7D03125A4D125AAA
:10057B004290027A7403F0025EA77BFF7A0E796BCE
:10058B00E4F52E7D01125A4D7BFF7A0E7999E4F535
:10059B002E7D02125A4D7BFF7A0E79ABE4F52E7D40
:1005AB0003125A4D7BFF7A0E79C0025A487BFF7AB1
:1005BB000E79D5E4F52E7D01125A4D7BFF7A0E791B
:1005CB0056E4F52E7D02125A4D7BFF7A0E79EAE442
:1005DB00F52E7D03125A4D7B017A037980752E041B
:1005EB007D02125A4D7BFF7A0F790C125A48026129
:1005FB00EF7BFF7A0F7979E4F52E7D01125A4D7B53
:10060B00FF7A0F798EE4F52E7D02125A4D7BFF7A1D
:10061B000F7950E4F52E7D03125A4D7BFF7A0F793B
:10062B000C025A487BFF7A0F7928E4F52E7D0112D4
:10063B005A4D7BFF7A0F793CE4F52E7D02125A4D11
:10064B007BFF7A0F7965E4F52E7D03125A4D7BFF04
:10065B007A0F790C025A487BFF7A0F79A1E4F52EB9
:10066B007D01125A4D900276E06401702B7BFF7A6C
:10067B000C79B3752E0A7D01125A4D90005F7401EF
:10068B00F09000AAE075F01FA424F4F9740035F083
:10069B00FA7B01125A4880357BFF7A0C79BA752E9A
:1006AB000A7D01125A4D900262E090005FF09000BB
:1006BB00E3E0243BF582E43402F583E075F01FA4FC
:1006CB0024F4F9740035F0FA7B01125A487BFF7A57
:1006DB000F79B5E4F52E7D02125A4D7BFF7A0F7917
:1006EB00C5E4F52E7D03125A4D026CB07BFF7A10D8
:1006FB007963E4F52E7D01125A4D126AB37BFF7AB2
:10070B00127919025A487BFF7A107977E4F52E7D1E
:10071B0001125A4D1265AB7BFF7A127919025A48B6
:10072B007BFF7A1079ACE4F52E7D01125A4D7BFFDD
:10073B007A1079BA752E0D7D01125A4D7B017A0212
:10074B007926752E037D02125A4D7BFF7A1079C2E2
:10075B00E4F52E7D03125A4D7BFF7A0E798A025AED
:10076B00487BFF7A107984E4F52E7D01125A4D7B7C
:10077B00FF7A1079BA752E087D01125A4D7B017ADA
:10078B00027926752E037D02125A4D7BFF7A107962
:10079B00C2E4F52E7D03125A4D7BFF7A0E798A0245
:1007AB005A487BFF7A107998E4F52E7D01125A4D49
:1007BB007BFF7A1079BA752E087D01125A4D7B0199
:1007CB007A027926752E037D02125A4D7BFF7A1021
:1007DB0079C2E4F52E7D03125A4D7BFF7A0E798A8E
:1007EB00025A489000E67402F0E4F5287426252896
:1007FB00F582E43402F5837420F00528E528B41162
:10080B00EB7BFF7A1079D5E4F52E7D01125A4D7BE7
:10081B00017A007977E4F52E7D02125A4D7BFF7A2F
:10082B0011791DE4F52E7D03125A4D7BFF7A107959
:10083B00E4025A487BFF7A10798BE4F52E7D011286
:10084B005A4D7BFF7A11797FE4F52E7D02125A4DBA
:10085B007BFF7A0E797BE4F52E7D03025A4D7BFFED
:10086B007A117994E4F52E7D01125A4D7BFF7A0BA8
:10087B007964E4F52E7D03125A4D7BFF7A0B79A137
:10088B00125A48026C447BFF7A107984E4F52E7D72
:10089B0001125A4D7BFF7A1179A9E4F52E7D0212D4
:1008AB005A4D7BFF7A0E797BE4F52E7D03025A4D70
:1008BB007BFF7A12792DE4F52E7D01125A4D7B01C7
:1008CB007A0079BDE4F52E7D02125A4D7BFF7A1228
:1008DB00793EE4F52E7D03125A4D7BFF7A0E798A11
:1008EB00025A489000E67401F0E4F5287465252857
:1008FB00F582E43402F5837420F00528E528B41161
:10090B00EB7BFF7A0C7972E4F52E7D01125A4D7B4D
:10091B00017A007977E4F52E7D02125A4D7BFF7A2E
:10092B0011791DE4F52E7D03125A4D7BFF7A107958
:10093B00E4025A487BFF7A107998E4F52E7D011278
:10094B005A4D7BFF7A1179CFE4F52E7D02125A4D69
:10095B007BFF7A0E797BE4F52E7D03025A4D9002D4
:10096B00207404F07BFF7A0D7996E4F52E7D01124D
:10097B005A4D7B017A0079BD752E047D01125A4DBB
:10098B007BFF7A0D799BE4F52E7D02125A4D7BFF8E
:10099B007A0D79B0E4F52E7D03125A4D7BFF7A0B5D
:1009AB0079C1125A48025F3B7BFF7A0E79D5E4F589
:1009BB002E7D01125A4D7BFF7A0E7956E4F52E7D72
:1009CB0002125A4D900377E0D39400400E7B017ACC
:1009DB00037980752E047D02125A4D7BFF7A0E79B6
:1009EB00FFE4F52E7D03125A4D7BFF7A0F790C1223
:1009FB005A48025FCF7BFF7A0F79E7E4F52E7D0132
:100A0B00125A4D7BFF7A0D7910125A48026BF47B08
:100A1B00FF7A0C79CF752E027D01125A4D7BFF7A2E
:100A2B000F790CE4F52E7D02025A4D7BFF7A11797A
:100A3B00F7752E047D01125A4D9000E1E0FF126C08
:100A4B00697BFF7A127919025A487BFF7A0C79C3BA
:100A5B00752E047D01125A4DE4900391F09000E243
:100A6B007406F0E490021FF090027E7402F0E490A2
:100A7B0000DBF09003967415F0A37423F0A3742F8E
:100A8B00F0A3742AF0A304F0A37424F0E4A3F0A35E
:100A9B00F0A3F090009D04F0900376F0227BFF7A98
:100AAB000E7956E4F52E7D01125A4D7B017A0379AE
:100ABB0080752E047D01125A4D7BFF7A0D799BE4D4
:100ACB00F52E7D02125A4D7BFF7A0D79B0E4F52E8F
:100ADB007D03125A4D7BFF7A0F790C125A48025C38
:100AEB00E27BFF7A0F79F5E4F52E7D01125A4D7BEF
:100AFB00FF7A0F7917E4F52E7D02125A4D7BFF7AA0
:100B0B00107909E4F52E7D03125A4D7BFF7A10798B
:100B1B0019025A487BFF7A0D7996E4F52E7D011266
:100B2B005A4D7B017A0079BD752E047D01125A4D09
:100B3B007BFF7A127923E4F52E7D03125A4D7BFF4E
:100B4B007A0B79FE752E0A7D03125A4D7BFF7A0CB8
:100B5B007907125A4822487A0053323A496E637227
:100B6B006D6E7453333A446563726D6E7400534506
:100B7B004C45435420572F4C2050524F544F434F0A
:100B8B004C3A00424C55455F544F4F5448005A491C
:100B9B00475F4245450053343A2053415645202682
:100BAB00204E4558540053353A2053415645202684
:100BBB00204E4558540053353A2053415645202674
:100BCB002053454E440053454C4543542042415518
:100BDB00442D52415445203A0039363030003139DA
:100BEB00323030003338343030004D5347205345CA
:100BFB004E54004D534720524356440053323A2033
:100C0B0053484F572052435644204D5347004143BE
:100C1B004B2053454E540041434B20524356440006
:100C2B0053454C454354205041524954593A004F77
:100C3B004444004556454E004E4F4E45004254200D
:100C4B004D4F44554C452050524553454E43453A24
:100C5B00004445544543544544004E4F545F44456E
:100C6B00544543544544004544495420444556207B
:100C7B004E414D453A0053454C2044455620434F79
:100C8B004E4E204D4F44453A004D41535445520072
:100C9B00534C4156450053454C20425420434F4E34
:100CAB004E204D4F44453A0053494E474C45004D5D
:100CBB00554C5449504C45005343414E4E494E47B9
:100CCB002E2E2E004E4F2044455649434520464F6D
:100CDB00554E440053323A5363616E2053333A43BB
:100CEB006F6E666967004254204445562044455454
:100CFB0045435445440042542053454C45435420EE
:100D0B004445563A0053323A436F6E6E6563742016
:100D1B0053333A49676E6F72650053323A436F6EC5
:100D2B006E53333A49676E7253343A4E78740043BC
:100D3B006F6E6E20436F756E743A00546F6F204662
:100D4B0065772044657620666F72004D756C74690B
:100D5B004D6F646520425420436F6E6E0053323AE0
:100D6B005265742053333A457869740053454C45AA
:100D7B00435420534C4156450053323A53454C454E
:100D8B0043542053333A4E45585400462F4E3A00A5
:100D9B003A2020202020202020203A202020202014
:100DAB0020202020004C333A2020204C343A2020A5
:100DBB0020465245513A202020004552524F523A7C
:100DCB00204D657373616765004E4F2041434B2087
:100DDB00524356440054494D454F5554004C4544DD
:100DEB0033205354415455533A004F6E004F6E000D
:100DFB004F6666004F6666004C45443420535441A1
:100E0B005455533A004D455353414745313A004DE4
:100E1B00455353414745323A004652455120434FC3
:100E2B00554E543A0041574149545320434F4E4E6F
:100E3B00454354494F4E002E20202E20202E20209B
:100E4B002E20202E20202E20202E0053464E3A00FE
:100E5B0053333A444953434F4E4E454354203F007E
:100E6B0053323A5345452052435644204D53470085
:100E7B0053343A59455320202053353A4E4F0053A3
:100E8B00343A4E4F20202053353A594553005333B3
:100E9B003A53454C204F54485220534C4156450031
:100EAB0053343A444953434F4E20435552522053E7
:100EBB004C4156450053353A444953434F4E4E200F
:100ECB00414C4C20534C41564500422F523A202066
:100EDB0020202020202020503A2020202020004CB1
:100EEB00494E4B514C54593A2020202052535349D0
:100EFB003A202000525353493A2020202064426D5F
:100F0B000053343A2052455455524E0053333A4213
:100F1B00726F6164636173742074782E0042542085
:100F2B004D554C544920434F4E4E204552524F5233
:100F3B000041746C656173742074776F20646576FF
:100F4B0069636573006E6565647320746F206265F9
:100F5B00206465746563746564006E6565642074F4
:100F6B006F20626520646574656374656400425428
:100F7B002053494E474C4520434F4E4E204552522D
:100F8B004F520041746C65617374206F6E65206401
:100F9B00657669636500434F4E4E204D4F44453A8D
:100FAB002020202020202020200044455649434566
:100FBB0020434F554E543A20200043555252454E34
:100FCB005420434F4E4E3A0057616E7420746F207D
:100FDB006473637672206E6F64653F0053454C45B6
:100FEB004354204E4F4445203A0053323A53656CDC
:100FFB002064657374692064657669636500533496
:10100B003A446973636F6E6E656374203F005335AA
:10101B003A2052455455524E0054696D656F7574A4
:10102B002C636865636B2042544D3F0054696D65BA
:10103B006F75742C636865636B205A424D3F004299
:10104B00542072657475726E6564206572726F726E
:10105B0021005431005432005A42204D4F44554C1C
:10106B00452050524553454E43453A005A42204481
:10107B00455620545950453A00524F55544552004D
:10108B00434F2D4F5244494E41544F5200454E440D
:10109B002D44455600554E4B4E4F574E2D444556FD
:1010AB0000434F2D4F5244494E41544F523A00503A
:1010BB00414E2D49443A0057616E7420746F206382
:1010CB0068616E67652049443F004348414E474580
:1010DB002050414E2049443A0053353A204150505C
:1010EB004C59204348414E4745005A4220424155F6
:1010FB004420524154450044454641554C542042EE
:10110B00443A39363030004348414E47452042443B
:10111B003A0053323A496E6353333A44656353345E
:10112B003A4D4F56450053343A4150504C592020BC
:10113B002053353A204E4F005A42205041524954C9
:10114B00590044454641554C54205041524954593D
:10115B003A204E4F4E45004E4F4E45004556454E9C
:10116B00004F4444004348414E47452050415249AB
:10117B0054593A005343414E20464F52204E455747
:10118B00204E455457524B3F0053454C204E4F2059
:10119B004F4620434820544F205343414E00534366
:1011AB00414E20464F52204E455720434F4E4E2026
:1011BB003F0053343A20434F4E4E20544F20464964
:1011CB00525354005343414E20464F52204E4557E5
:1011DB0020434F4E4E203F0053454C454354204433
:1011EB00455354494E4154494F4E3A004E4F444596
:1011FB00204445544543544544203A005334203A47
:10120B002053484F57204D455353414745005334C6
:10121B00203A204E455854004D53472053544154C7
:10122B003A005A4220444556494345204E414D45CC
:10123B00203A0057616E7420746F206368616E678B
:10124B0065206E616D653F0000C0C101C30302C222
:10125B00C60607C705C5C404CC0C0DCD0FCFCE0EEB
:10126B000ACACB0BC90908C8D81819D91BDBDA1A5B
:10127B001EDEDF1FDD1D1CDC14D4D515D71716D6CB
:10128B00D21213D311D1D010F03031F133F3F2323B
:10129B0036F6F737F53534F43CFCFD3DFF3F3EFEAB
:1012AB00FA3A3BFB39F9F83828E8E929EB2B2AEA1B
:1012BB00EE2E2FEF2DEDEC2CE42425E527E7E6268B
:1012CB0022E2E323E12120E0A06061A163A3A262FB
:1012DB0066A6A767A56564A46CACAD6DAF6F6EAE6B
:1012EB00AA6A6BAB69A9A86878B8B979BB7B7ABADB
:1012FB00BE7E7FBF7DBDBC7CB47475B577B7B6764B
:10130B0072B2B373B17170B05090915193535292BA
:10131B0096565797559594549C5C5D9D5F9F9E5E2A
:10132B005A9A9B5B99595898884849894B8B8A4A9A
:10133B004E8E8F4F8D4D4C8C44848545874746860A
:10134B00824243834181804000C0C101C30302C27A
:10135B00C60607C705C5C404CC0C0DCD0FCFCE0EEA
:10136B000ACACB0BC90908C8D81819D91BDBDA1A5A
:10137B001EDEDF1FDD1D1CDC14D4D515D71716D6CA
:10138B00D21213D311D1D010F03031F133F3F2323A
:10139B0036F6F737F53534F43CFCFD3DFF3F3EFEAA
:1013AB00FA3A3BFB39F9F83828E8E929EB2B2AEA1A
:1013BB00EE2E2FEF2DEDEC2CE42425E527E7E6268A
:1013CB0022E2E323E12120E0A06061A163A3A262FA
:1013DB0066A6A767A56564A46CACAD6DAF6F6EAE6A
:1013EB00AA6A6BAB69A9A86878B8B979BB7B7ABADA
:1013FB00BE7E7FBF7DBDBC7CB47475B577B7B6764A
:10140B0072B2B373B17170B05090915193535292B9
:10141B0096565797559594549C5C5D9D5F9F9E5E29
:10142B005A9A9B5B99595898884849894B8B8A4A99
:10143B004E8E8F4F8D4D4C8C448485458747468609
:10144B008242438341818040EF8EF0122F951575B8
:10145B000036158A003E1593003F159C0040159FE2
:10146B00004115DA004815EC004915FE004A1675C7
:10147B000052168700531699005416A0006616A743
:10148B00006716AE00721703007A1780007B179760
:10149B00007C17AE008417B5008517BC008E17EFC4
:1014AB00008F18170098188B009918A300A218AA80
:1014BB0000A318B100A418B800A518C900A618D02D
:1014CB0000A718D700A818DE00AE191600B7192808
:1014DB0000B8193A00B9197200C0197500C1197812
:1014EB0000C2197B00C319B300CA19BC00CB19C5C4
:1014FB0000CC19C800CD1A0000D71A3800DE1A3EEE
:10150B0000E81A4500E91A8900EA1A9000EB1AA1C3
:10151B0000EC1AA800ED1AAF00EE1AB600F21AC9C9
:10152B0000F31AF800F41AFB00FC1B0200FD1B0968
:10153B0000FE1B1000FF1B2101001B2801011B2FAC
:10154B0001021B3601061B4901071B5001081B84B6
:10155B0001091BB901121BBC011C1BC301261BCAB1
:10156B0001301BE6021600001C1A90009EE0B4012D
:10157B00077F3C7E0002002D7F0A7E0002002D7B40
:10158B00017A0079BD02535B7B017A0079BD02566B
:10159B0045026D4FE4900391F09000E27402F0E489
:1015AB0090021FF09000DBF090037D7402F090032B
:1015BB00967405F0A37401F0E4A3F0A3F0A3F0A3D9
:1015CB00F0A3F0A3F090009D04F0900376F022902E
:1015DB00027DE004F0E0D3940240037401F0026A50
:1015EB004F90027DE014F0E0C3940150037402F0BD
:1015FB00026A4F90027DE0640170349000E2740245
:10160B00F0E490021FF09000DBF0900391F0900358
:10161B00967413F0A37404F0E4A3F0A3F0A3F0A367
:10162B00F0A3F0A3F090009D04F0900376F02290CD
:10163B0000E27402F0E490021FF09000A97403F032
:10164B00E49000DBF0900391F09003967404F0A308
:10165B007407F0E4A3F0A3F0A3F0A3F0A3F0A3F0BE
:10166B0090009D04F0900376F022900276E004F057
:10167B00E0D3940240037401F0026A81900276E099
:10168B0014F0E0C3940150037402F0026A817F5A94
:10169B007E0002002D7F507E0002002D7F467E00D3
:1016AB0002002D900276E0B4022390037BE0B4019C
:1016BB00077F227E0112002D90037BE0D394014023
:1016CB00077F787E0012002DE4900262F090027684
:1016DB00E064016003021C1A90037BE070077F1823
:1016EB007E0112002D90037BE0C394015003021C7A
:1016FB001A7F8C7E0002002D900262E0FF70339007
:10170B0000E27402F0E490021FF0900391F090005D
:10171B00DBF09003967410F0A37409F0E4A3F0A32C
:10172B00F0A3F0A3F0A3F0A3F090009D04F09003BE
:10173B0076F0EFD394005003021C1AEF640470038D
:10174B00021C1A9000E27401F0E490021FF0900367
:10175B0091F09000DBF09003967409F0E4A3F0A3F2
:10176B00F0A3F0A3F0A3F0A3F0A3F090009D04F07E
:10177B00900376F0229000AAE004F01262EF7BFF58
:10178B007A0D7925E4F52E7D04025A4D900262E024
:10179B00D3940150077F827E0002002D7F967E003E
:1017AB0002002D7F787E0002002D7F467E00020016
:1017BB002D9000E27402F0E490021FF0900391F080
:1017CB009000DBF09003967408F0A304F0E4A3F010
:1017DB00A3F0A3F0A3F0A3F0A3F090009D04F0906E
:1017EB000376F02290024DE0B40108E4F07F46FE50
:1017FB0002002D9000AAE004F090024DE0FF900053
:10180B00AAE0D39F40037401F00262EF900240E024
:10181B00FF70309000E204F0E490021FF09003910F
:10182B00F09000DBF09003967411F0E4A3F0A3F0BA
:10183B00A3F0A3F0A3F0A3F0A3F090009D04F0900D
:10184B000376F0EFD394005003021C1A9000E2745D
:10185B0002F0E490021FF0900391F09000DBF09007
:10186B000396740AF0A37411F0E4A3F0A3F0A3F0B1
:10187B00A3F0A3F0A3F090009D04F0900376F02268
:10188B009000E3E004F0900262E0FF9000E3E0C31D
:10189B009F4002E4F0026A1D7FF07E0002002D7F64
:1018AB002C7E0102002D7FB47E0002002D125240CF
:1018BB0090005C7401F0E4900277F0A3F0227FD2E9
:1018CB007E0002002D7FBE7E0002002D7FC87E00B1
:1018DB0002002D900220E0B401077FFA7E00120077
:1018EB002D900220E0B402077FA07E0012002D9005
:1018FB000220E0B40303120029900220E06404608C
:10190B0003021C1A7FD67E0102002D90005BE07053
:10191B000404F08005E490005BF00266CC90005E5E
:10192B00E0700404F08005E490005EF00266CC9059
:10193B000220E0B401077FFA7E0012002D900220F6
:10194B00E0B402077FA07E0012002D900220E0B4CD
:10195B000303120029900220E064046003021C1AA6
:10196B007FD67E0102002D02535502563F026D4F6A
:10197B00900220E0B401077FFA7E0012002D900246
:10198B0020E0B402077FA07E0012002D900220E021
:10199B00B40303120029900220E064046003021CCC
:1019AB001A7FD67E0102002D7B017A02794E0253FB
:1019BB005B7B017A02794E025645026D4F900220F5
:1019CB00E0B401077FFA7E0012002D900220E0B4F4
:1019DB0002077FA07E0012002D900220E0B40303CB
:1019EB00120029900220E064046003021C1A7FD6C7
:1019FB007E0102002D900220E0B401077FFA7E00E9
:101A0B0012002D900220E0B402077FA07E0012008E
:101A1B002D900220E0B40303120029900220E06411
:101A2B00046003021C1A7FD67E0102002D900379FD
:101A3B000200267FF07E0002002D900276E064010A
:101A4B006003021C1A9000E27404F0E490021FF091
:101A5B009000DBF0900396740AF0A3740DF0A3745E
:101A6B000FF0A314F0E4A3F0A3F0A3F0A3F0900005
:101A7B009D04F0E4900391F090037604F0227FB480
:101A8B007E0002002D12524090005C7401F0E49035
:101A9B000277F0A3F0227FD27E0002002D7FBE7E64
:101AAB000002002D7FC87E0002002D900377E0D34B
:101ABB0094005003021C1A7F127E0202002D90002C
:101ACB00E27402F0E490021FF0900391F09000DBBF
:101ADB00F0900396740AF0A304F0E4A3F0A3F0A330
:101AEB00F0A3F0A3F0A3F090009D04F022020029D4
:101AFB007F047E0102002D7F2C7E0102002D7FB41E
:101B0B007E0002002D12524090005C7401F0E490B4
:101B1B000277F0A3F0227FD27E0002002D7FBE7EE3
:101B2B000002002D7FC87E0002002D900377E0D3CA
:101B3B0094005003021C1A7F127E0202002D7F9626
:101B4B007E0002002D9000E27402F0E490021FF080
:101B5B00900391F09000DBF0900396740AF0A3745D
:101B6B0012F0E4A3F0A3F0A3F0A3F0A3F0A3F09082
:101B7B00009D04F0900376F0229000E27402F0E4F2
:101B8B0090021FF0900391F09000DBF0900396749D
:101B9B000AF0A304F0E4A3F0A3F0A3F0A3F0A3F0E6
:101BAB00A3F090009D04F090027A7403F0220200DF
:101BBB00297F507E0002002D7F507E0002002D9069
:101BCB000220E0B401077FFA7E0012002D90022064
:101BDB00E06402703A7FA0FE02002D900220E0B478
:101BEB0001077FFA7E0012002D900220E0B402075D
:101BFB007FA07E0012002D900220E0B403031200A0
:101C0B0029900220E0B404077FD67E0112002D221A
:101C1B00EF8EF0122F95207C00AE20B400B720C6BB
:101C2B0000B820D800B9211000C0211300C1211623
:101C3B0000C2211900C3215100CA215A00CB2163D4
:101C4B0000CC216600CD219E00D71D0901441D2922
:101C5B00014E1DCB01601DD401611DDD01621DE034
:101C6B0001631D4E016C1D55016D1D7801741D81A5
:101C7B0001751D8A01761D8D01771FA801941E68C1
:101C8B00019E1E6F019F1E7601A61E8801A71E9A3C
:101C9B0001A81FEA01B2202C01BA205B01BB1EE593
:101CAB0001C61EEC01C71EF301D01EFA01D11F01A4
:101CBB0001D81F1401D91F4601DA1F4D01DB1F5438
:101CCB0001DC1F5B01DD1F6201DE1F6901E41D6A80
:101CDB0001EE1D7101EF1D5C01F81D6301F91E2062
:101CEB0002021E6102031F70021621D6021E21E69C
:101CFB00021F22200220225E02210000226590009A
:101D0B00B0E0B401077F0A7E0012002D9000B0E016
:101D1B00640260030222657F4A7E0102002D90035C
:101D2B0071E0601824FE600D0460030222657F6879
:101D3B007E0102002D7FF47E0102002D7FEA7E01E1
:101D4B0002002D7FFE7E0102002D7F727E010200BC
:101D5B002D7FFE7E0102002D7F727E0102002D7F02
:101D6B00FE7E0102002D7F727E0102002D7B017A27
:101D7B0002792602535B7B017A02792602564502D1
:101D8B006D4FE4900391F09000E27404F0E4900244
:101D9B001FF090023F04F0E49000DBF09003967488
:101DAB0015F0A37436F0A3742AF0A304F0E4A3F0A7
:101DBB00A3F0A3F0A3F090009D04F0900376F02223
:101DCB007B017A02796502535B7B017A02796502AA
:101DDB005645026D4FE4900391F09000E27408F0C9
:101DEB00E490021FF09000DBF09003967415F0A3C3
:101DFB00741FF0A37437F0A304F0A304F0A3742AA8
:101E0B00F0A304F0A3743AF0E4A3F090009D04F067
:101E1B00900376F022E4900391F09000E27406F0C8
:101E2B00E490021FF090023F7403F0E49000DBF0AB
:101E3B009003967415F0A37437F0A304F0A304F089
:101E4B00A3742AF0A304F0E4A3F0A3F090009D0484
:101E5B00F0900376F0227F5E7E0102002D7FA47E40
:101E6B000102002D7F687E0102002D90027FE004AD
:101E7B00F0E0D3940E40037401F0026C4490027FA7
:101E8B00E014F0E0C394015003740EF0026C4412A2
:101E9B00545CE4900391F09000E27406F0E490023D
:101EAB001FF090023F7402F090009B14F0E490003E
:101EBB00DBF09003967415F0A37433F0A37431F038
:101ECB00A37435F0A3742AF0A304F0E4A3F0A3F0F9
:101EDB0090009D04F0900376F0227FA47E01020017
:101EEB002D7FF47E0102002D7FA47E0102002D7F49
:101EFB00EA7E0102002D900377E0D3940050030299
:101F0B0022657F127E0202002D9000E27402F0E443
:101F1B0090021FF0900391F09000DBF09003967409
:101F2B0015F0A3742EF0E4A3F0A3F0A3F0A3F0A399
:101F3B00F090009D04F0900376F0227FB47E0002B7
:101F4B00002D7F1C7E0202002D7FD27E0002002D11
:101F5B007FBE7E0002002D7FC87E0002002D7FD643
:101F6B007E0102002D900220E0B401077FFA7E0073
:101F7B0012002D900220E0B402077FA07E00120019
:101F8B002D900220E0B40303120029900220E0649C
:101F9B000460030222657FD67E0102002DE49003CC
:101FAB0091F09000E27404F0E490021FF090027E36
:101FBB0004F090023F7404F0E49000DBF090039681
:101FCB007415F0A3742FF0A3742AF0A304F0E4A308
:101FDB00F0A3F0A3F090009D04F0900376F022E4C0
:101FEB00900391F09000E27404F0E490021FF090E3
:101FFB00027E04F090023F7405F0E49000DBF09059
:10200B0003967415F0A3742FF0A3742AF0A304F0B5
:10201B00E4A3F0A3F0A3F090009D04F0900376F0FE
:10202B0022E4900391F09000E27402F0E490021F1E
:10203B00F09000DBF09003967415F0A37425F0E498
:10204B00A3F0A3F0A3F090009D04F0900376F02290
:10205B009000E0E0FFB40108E4A3F09000E0F02270
:10206B009000AAE004F0E0D39F40037401F0026BF0
:10207B00F4900220E0B401077FFA7E0012002D904D
:10208B000220E0B402077FA07E0012002D900220F8
:10209B00E0B40303120029900220E0640460030201
:1020AB0022657FD67E0102002D90005BE070040458
:1020BB00F08005E490005BF00266CC90005EE0706F
:1020CB000404F08005E490005EF00266CC900220E0
:1020DB00E0B401077FFA7E0012002D900220E0B4DD
:1020EB0002077FA07E0012002D900220E0B40303B4
:1020FB00120029900220E0640460030222657FD65F
:10210B007E0102002D02535502563F026D4F900285
:10211B0020E0B401077FFA7E0012002D900220E030
:10212B00B402077FA07E0012002D900220E0B403C2
:10213B0003120029900220E0640460030222657FF1
:10214B00D67E0102002D7B017A02794E02535B7B16
:10215B00017A02794E025645026D4F900220E0B48F
:10216B0001077FFA7E0012002D900220E0B40207D7
:10217B007FA07E0012002D900220E0B4030312001A
:10218B0029900220E0640460030222657FD67E0161
:10219B0002002D900220E0B401077FFA7E001200AE
:1021AB002D900220E0B402077FA07E0012002D903C
:1021BB000220E0B40303120029900220E0640460C3
:1021CB00030222657FD67E0102002DE49000E1F030
:1021DB009000E0F07F867E0102002DE4900391F0E9
:1021EB009000E27404F0E490021FF090025A04F0A5
:1021FB00E49000DBF09003967415F0A37417F0A332
:10220B0004F0A37429F0E4A3F0A3F090009D04F074
:10221B00900376F022E4900391F09000E27403F0C7
:10222B00E490021FF090009B7402F090023F740642
:10223B00F0E49000DBF09003967415F0A37431F08A
:10224B00A3742BF0E4A3F0A3F090009D04F0900393
:10225B0076F0227FD67E0112002D228F22E4F52309
:10226B00E522122F6F22F20122FD02230D04234ED1
:10227B0005237C0623A50723CB0823F80924060B8B
:10228B0024110C241C0D244A1024551124831324CF
:10229B00B31424E115250317251118252119253B06
:1022AB001A255E21256E23257E24258E2525AD2618
:1022BB0025BD2725CD2925DD2B25ED2C25FD2D260F
:1022CB000D2E261D30262D31266D32267D3326B35D
:1022DB003526C33726DD3926F93A270D3B27423EF3
:1022EB0027513F0000275E126DB07F5A126805021E
:1022FB00275E126DB07F2612680A7F4612680502B0
:10230B00275E126DB07F2B12680A7F5512680A7F09
:10231B004112680A7F5212680A7F5412680A7F437F
:10232B0012680A7F4F12680A1F12680A7F461268EA
:10233B000A7F4912680A7F4712680A7F2C12680AC3
:10234B0002275E126DB07F2B12680A7F4212680A59
:10235B007F5412680A7F4912680A7F4E12680A7FFF
:10236B004612680A7F4F12680A7F3F1268050227E0
:10237B005E126DB07F2B12680A7F4212680A7F547F
:10238B0012680A7F4912680A7F4E12680A7F51123F
:10239B00680A7F3F12680502275E126DB07F2B1211
:1023AB00680A7F4212680A7F5412680A7F521268C9
:1023BB000A0F12680A12680A7F491267FB02275E2E
:1023CB00126DB07F2B12680A7F4212680A7F54127B
:1023DB00680A7F4D12680A7F4F12680A7F441268A1
:1023EB000A0F12680A7F2C12680A02275E7F2B12D3
:1023FB00680A12680A12680502275E126DB07F44E4
:10240B0012680A02275E126DB07F4812680A022713
:10241B005E126DB07F2B12680A7F4212680A7F54DE
:10242B0012680A7F4E12680A7F4112680A7F4D12AA
:10243B00680A7F4512680A7F3D12680A02275E12FE
:10244B006DB07F4F12680A02275E126DB07F2B12A0
:10245B00680A7F4D12680A7F5512680A7F4C126812
:10246B000A7F5412680A7F4912680A7F2C12680A85
:10247B007F3012680502275E126DB07F2B12680A3F
:10248B007F4212680A7F5412680A7F5212680A0F41
:10249B0012680A12680A7F4912680A7F2C12680AAE
:1024AB007F3012680502275E126DB07F2B12680A0F
:1024BB007F4D12680A7F5512680A7F4C12680A7F9B
:1024CB005412680A7F4912680A7F2C12680A7F32FD
:1024DB0012680502275E126DB07F5312680A7F33B4
:1024EB0012680A12680A7F3D12680A7F3112680A65
:1024FB007F3512680502275E7F2B12680A12680A65
:10250B0012680A02275E126DB07F5212680A7F456D
:10251B0012680502275E126DB07F4412680A7F486D
:10252B0012680A7F2012680A7F3012680502275E44
:10253B00126DB07F4412680A7F4C12680A7F20121A
:10254B00680A7F4612680A12680A12680A1268053E
:10255B0002275E126DB07F4E12680A7F4912680A1D
:10256B0002275E126DB07F4912680A7F4412680A17
:10257B0002275E126DB07F4212680A7F481268050F
:10258B0002275E126DB07F4E12680A7F5412680AE2
:10259B007F2012680A7F3312680A7F431268050294
:1025AB00275E126DB07F4E12680A7F4412680502D7
:1025BB00275E126DB07F4412680A7F4E12680A02C2
:1025CB00275E126DB07F4212680A7F4412680A02BE
:1025DB00275E126DB07F4312680A7F4E12680502A8
:1025EB00275E126DB07F5712680A7F521268050280
:1025FB00275E126DB07F4112680A7F431268050295
:10260B00275E126DB07F4E12680A7F4212680A0273
:10261B00275E126DB07F4412680A7F421268050272
:10262B00275E126DB07F4312680A7F5412680A7FCF
:10263B002012680A90027EE0B4010CE4F07F3112A4
:10264B00680A7F4512680A90027EE0B4020CE4F03F
:10265B007F3312680A7F4312680A7F0D12680A02E1
:10266B00275E126DB07F5612680A7F521268050200
:10267B00275E126DB07F5A12680A7F5312680A7F69
:10268B002012680A90009BE0B40107E4F07F30123F
:10269B00680A90009BE0B40207E4F07F3112680AED
:1026AB007F0D12680A02275E126DB07F5312680A03
:1026BB007F4312680A02275E126DB07F5312680ABD
:1026CB007F4412680A7F2012680A7F351268050260
:1026DB00275E126DB07F4E12680A7F4A12680A7F1E
:1026EB002012680A7F4612680A1268058065126D0F
:1026FB00B07F4412680A7F3512680A7F2012680087
:10270B008051126DB07F4C12680A7F5412680A7F99
:10271B002012680A900371E0B4010C7F3612680A2C
:10272B007F3412680A80097F3312680A1F12680A05
:10273B007F0D12680A801C126DB07F5312680A7FDE
:10274B004D126800800D126DB07F4312680A7F45F1
:10275B00126805E4900277F0A3F0900280F09000ED
:10276B009AF0752301E52264066023E5226410606C
:10277B001DE52264146017E52264266011E52264CE
:10278B0027600B9003947401F0E4900094F0AF2356
:10279B0022124CA81258C6126CD2126D319000A0A6
:1027AB007401F0900374F012684BE49000DCF0A31A
:1027BB00F09000DDE004F070069000DCE004F09097
:1027CB0000DCE07004A3E064C870E6C2B6E49000DD
:1027DB00DCF0A3F0E49000DEF0A3F09000DFE00467
:1027EB00F070069000DEE004F09000DEE0B427EB22
:1027FB00A3E0B410E69000DDE004F070069000DC7E
:10280B00E004F09000DCE07004A3E0641470C5D227
:10281B00B67F0A7E0012002DD2AF90008FE0B4017C
:10282B000D900050E0FF9000A7E0FD12000E90000D
:10283B0065E07004A3E064D2701D9000AEE0B401BB
:10284B00161267B67BFF7A0B79B1E4F52E7D041275
:10285B005A4DE49000AEF0123DCB900060EEF0A329
:10286B00EFF04E600312493E900065E0FEA3E0FFDF
:10287B00900063E06E7003A3E06F600B900063EE5B
:10288B00F0A3EFF012002D90009CE0B4010FE4F0E8
:10289B00FB7A007953900046E0FD126C8D90009D01
:1028AB00E0B4010C9000E2E0D39400400312387FB7
:1028BB0090009FE064016003022A9C90027AE0641E
:1028CB0001705590027DE06402704D20B74A900074
:1028DB00DCF0A3F0E49000DEF0A3F09000DFE00466
:1028EB00F070069000DEE004F09000DEE0B407EB41
:1028FB00A3E0B4D0E69000DDE004F070069000DCBD
:10290B00E004F09000DCE07004A3E0640A70C520E2
:10291B00B70690027A12002690027AE064026003F6
:10292B00022A4020B703022A40D2B79000DCF0A362
:10293B00F0E49000DEF0A3F09000DFE004F070060E
:10294B009000DEE004F09000DEE0B407EBA3E0B40F
:10295B00D0E69000DDE004F070069000DCE004F0BF
:10296B009000DCE07004A3E0640A70C520B703029A
:10297B002A40E490027AF090027DE06402704FC22C
:10298B00B69000DCF0A3F0E49000DEF0A3F0900032
:10299B00DFE004F070069000DEE004F09000DEE073
:1029AB00B427EBA3E0B410E69000DDE004F0700672
:1029BB009000DCE004F09000DCE07004A3E0641411
:1029CB0070C512683F7F0A7E0012002D806790034E
:1029DB007BE0D394014010900276E0B402097F783B
:1029EB007E0012002D804EC2B6E49000DCF0A3F006
:1029FB00E49000DEF0A3F09000DFE004F0700690AE
:102A0B0000DEE004F09000DEE0B427EBA3E0B410AE
:102A1B00E69000DDE004F070069000DCE004F0903E
:102A2B0000DCE07004A3E0641470C512683F7F0AF9
:102A3B007E0012002D90027AE06403705430B7517F
:102A4B00D2B79000DCF0A3F0E49000DEF0A3F0909E
:102A5B0000DFE004F070069000DEE004F09000DE92
:102A6B00E0B407EBA3E0B4D0E69000DDE004F07037
:102A7B00069000DCE004F09000DCE07004A3E0645E
:102A8B000A70C530B70BE490027AF07F14FE120087
:102A9B002D900391E0B4010A900376E0B401031288
:102AAB0035B190009FE064016003022B54D3900278
:102ABB0078E09410900277E09400405BE4F0A3F090
:102ACB0090023AE0B4012790009AE0C39401401EB3
:102ADB001263E5EF700C7F061244F7E4900395F058
:102AEB0080129003957401F0900391F0800690038F
:102AFB00957401F0E490021FF090023AF09003916C
:102B0B0004F09000DB7414F0E490009DF090005CF6
:102B1B00F0900277F0A3F0900065E07004A3E064FE
:102B2B005A7026900277E0FEA3E0FFE4FCFDFB7AEF
:102B3B00007983F5287529021260EA7B007A007907
:102B4B0083752E0F7D01125A4D90009FE064027029
:102B5B006C900065E064017004A3E064B8605ED320
:102B6B00900278E09406900277E09400404FE4F0F6
:102B7B00A3F090023AE0B401189000E0E0D3940087
:102B8B00400FE490023AF090021FF0900395F08012
:102B9B000B9003957401F0E490023AF090021F74CD
:102BAB0005F09000DB7414F09003917401F0E49045
:102BBB00009DF090005CF0900277F0A3F090037210
:102BCB00E0FFB40120D3900278E0940B900277E001
:102BDB0094004011EFB4010D9003A07402F07FAA92
:102BEB007E0012002D900239E0B40117E4F0900042
:102BFB005CE0B4010E900278E004F070069002776E
:102C0B00E004F0900394E0640170329003A0E06460
:102C1B0003702A90009FE0B40123E49003A0F0908E
:102C2B00009EE070127F32FE12002DE490009DF0AA
:102C3B00900394F002282512661102282590039424
:102C4B00E06401600302282590005DE064036003EB
:102C5B0002282590009FE064026003022825900063
:102C6B005DF09000B0E0B401137F407E0112002DA7
:102C7B00E490009DF0900394F00228257BFF7A10DE
:102C8B007937E4F52E7D04125A4D022825E709F613
:102C9B0008DFFA8046E709F208DFFA803E88828C6B
:102CAB0083E709F0A3DFFA8032E309F608DFFA8045
:102CBB0078E309F208DFFA807088828C83E309F0ED
:102CCB00A3DFFA806489828A83E0A3F608DFFA80A7
:102CDB005889828A83E0A3F208DFFA804C80D28085
:102CEB00FA80C680D4806980F28033801080A68001
:102CFB00EA809A80A880DA80E280CA803389828A4F
:102D0B0083ECFAE493A3C8C582C8CCC583CCF0A3EB
:102D1B00C8C582C8CCC583CCDFE9DEE7800D8982CC
:102D2B008A83E493A3F608DFF9ECFAA9F0EDFB2212
:102D3B0089828A83ECFAE0A3C8C582C8CCC583CC50
:102D4B00F0A3C8C582C8CCC583CCDFEADEE880DB44
:102D5B0089828A83E493A3F208DFF980CC88F0EFB1
:102D6B0060010E4E60C388F0ED2402B4040050B92C
:102D7B00F582EB2402B4040050AF23234582239049
:102D8B002CE873BB010689828A83E0225002E7227A
:102D9B00BBFE02E32289828A83E49322BB010CE50A
:102DAB008229F582E5833AF583E0225006E92582F4
:102DBB00F8E622BBFE06E92582F8E222E58229F538
:102DCB0082E5833AF583E49322BB010FF8E5822970
:102DDB00F582E5833AF583E028F0225009C5822974
:102DEB00F8E58226F622BBFE09C58229F8E2258288
:102DFB00F222F8EA2583F583E9932822F8BB010D2B
:102E0B00E58229F582E5833AF583E8F0225006E95D
:102E1B002582C8F622BBFE05E92582C8F222EF8D7A
:102E2B00F0A4A8F0CF8CF0A428CE8DF0A42EFE2217
:102E3B00BC000BBE0029EF8DF084FFADF022E4CC7B
:102E4B00F875F008EF2FFFEE33FEEC33FCEE9DEC44
:102E5B00984005FCEE9DFE0FD5F0E9E4CEFD22ED8A
:102E6B00F8F5F0EE8420D21CFEADF075F008EF2FD4
:102E7B00FFED33FD4007985006D5F0F222C398FDC5
:102E8B000FD5F0EA2275F008758200EF2FFFEE33B5
:102E9B00FECD33CDCC33CCC58233C5829BED9AECC2
:102EAB0099E58298400CF582EE9BFEED9AFDEC992C
:102EBB00FC0FD5F0D6E4CEFBE4CDFAE4CCF9A88236
:102ECB0022B800C1B90059BA002DEC8BF084CFCEDB
:102EDB00CDFCE5F0CBF97818EF2FFFEE33FEED3399
:102EEB00FDEC33FCEB33FB10D703994004EB99FB60
:102EFB000FD8E5E4F9FA227818EF2FFFEE33FEED49
:102F0B0033FDEC33FCC933C910D7059BE99A400755
:102F1B00EC9BFCE99AF90FD8E0E4C9FAE4CCFB226C
:102F2B0075F010EF2FFFEE33FEED33FDCC33CCC835
:102F3B0033C810D7079BEC9AE899400AED9BFDEC40
:102F4B009AFCE899F80FD5F0DAE4CDFBE4CCFAE47F
:102F5B00C8F922EB9FF5F0EA9E42F0E99D42F0E8BA
:102F6B009C45F022D083D082F8E4937012740193C5
:102F7B00700DA3A393F8740193F5828883E47374A3
:102F8B0002936860EFA3A3A380DFD083D082F8E421
:102F9B00937012740193700DA3A393F8740193F5BE
:102FAB00828883E473740293B5F0067403936860AC
:102FBB00E9A3A3A3A380D8AD07AC06126B16ED8EC5
:102FCB00F0122F953093000A309E001430A9001E8A
:102FDB0030B4003230BB003C30DB004630E60050F2
:102FEB0030F1006430FA006E31010078310C008250
:102FFB003115008C311E0096312700A0313A00AA02
:10300B00314100B4314C00BE316C00C8318C00D260
:10301B00319300DC319A00E631AD00F031B800FAA3
:10302B0031CB010431D8010E31DF011831E6012219
:10303B0031ED012C31F4014031FB014A327A015E52
:10304B0032060168320F017232A10190322F019AC0
:10305B00324A01A432A801AE32AF01B8325501C2D7
:10306B00325E01CC326701D6329A01E0324101EA7D
:10307B00323801F432CC01FE32B8021232BF021CDC
:10308B0032D50226000032DB9000887401F0A3F0E9
:10309B00A3F0229000887401F0A3F0A3F02290001B
:1030AB00887401F0A3F0A3F02290008A7401F0223F
:1030BB009000887401F0A3F0A3F0A3F0900090F0BF
:1030CB00E4900092F0A3740FF090008F7401F02243
:1030DB009000887401F0A3F0A3F022900088740193
:1030EB00F0A3F0A3F0229000887401F0A3F02290DB
:1030FB00008A7401F0229000887401F0A3F0A3F011
:10310B00229000887401F0A3F0229000887401F0E3
:10311B00A3F0229000887401F0A3F0229000887431
:10312B0001F0A3F0A3F0A3F0A3F0A3F0A3F022907F
:10313B00008A7401F0229000897401F0A3F0A3F0CF
:10314B00229000887401F0A3F0A3F0A3F0900090FC
:10315B00F0E4900092F0A37407F090008F7401F0EC
:10316B00229000887401F0A3F0A3F0A3F0900090DC
:10317B00F0E4900092F0A37407F090008F7401F0CC
:10318B002290008B7401F0229000887401F0229041
:10319B0000887401F0A3F0A3F0A3F0A3F0A3F0A3B5
:1031AB00F0229000887401F0A3F0A3F02290008825
:1031BB007401F0A3F0A3F0A3F0A3F0A3F0A3F0220B
:1031CB009000887401F0A3F0A3F0A3F02290008A82
:1031DB007401F02290008A7401F02290008A74012D
:1031EB00F02290008A7401F02290008A7401F02280
:1031FB009000887401F0A3F0A3F02290008A740170
:10320B00F0A3F0229000887401F0A3F0A3F0A3F0D8
:10321B00900090F0E4900092F0A3740FF090008F68
:10322B007401F02290008A7401F0A3F02290008ABE
:10323B007401F0A3F02290008A7401F0A3F02290A5
:10324B0000887401F0A3F0A3F02290008A7401F0BF
:10325B00A3F02290008A7401F0A3F02290008874EE
:10326B0001F0A3F0A3F0A3F0A3F0A3F0A3F022903E
:10327B0000887401F0A3F0A3F0A3F0900090F0E4A9
:10328B00900092F0A37410F090008F7401F02290D4
:10329B00008A7401F02290008A7401F02290008A57
:1032AB007401F0229000887401F0A3F02290008A40
:1032BB007401F0229000887401F0A3F0A3F0A3F046
:1032CB002290008A7401F0A3F0229000887401F020
:1032DB0022752101EF122F6F330E0433780833ABB5
:1032EB000B34380C33DA0D33FF10352E21355727BD
:1032FB0034712934A12E350C3534E23835863C0037
:10330B000035A7900375E024FE601704702B7F39FE
:10331B0012680A7F3612680A7F3012680A12680A2E
:10332B0080177F3112680A7F3912680A7F32126860
:10333B000A7F3012680A12680A7F2C12680A900200
:10334B0079E024FE601514600B240270137F4E127B
:10335B00680A800C7F4F12680A80057F4512680A45
:10336B007F2C12680A7F311267FB0235A79000A9E8
:10337B00E01460111460151460192403701A7F3067
:10338B0012680A80137F3112680A800C7F32126830
:10339B000A80057F3312680A7F0D12680A0235A76F
:1033AB00E4F99000AAE075F01FA424E7F582E5F09C
:1033BB003400F583E58229F582E43583F583E0FF5C
:1033CB0012680A09B90CDB7F0D12680A0235A7E4F3
:1033DB00F974BD29F582E43400F583E0FF642060C5
:1033EB000612680A0980EA7F0D12680AE490039FAF
:1033FB00F00235A7E4F99000E3E0243BF582E434D6
:10340B0002F583E075F01FA424E7F582E5F03400A4
:10341B00F583E58229F582E43583F583E0FF1268B5
:10342B000A09B90CD17F0D12680A0235A7E4F9908D
:10343B0000E3E0243BF582E43402F583E075F01FF2
:10344B00A424E7F582E5F03400F583E58229F582C3
:10345B00E43583F583E0FF12680A09B90CD17F0DBF
:10346B0012680A0235A77F2012680A900375E024C0
:10347B00FE60100470189000A07401F07F33126886
:10348B000A800B9000A07402F07F3412680A7F0D43
:10349B0012680A0235A77F2012680A900279E0248D
:1034AB00FE601414601E240270259003747401F0E6
:1034BB007F3012680A80189003747402F07F311207
:1034CB00680A800B9003747403F07F3212680A7FD2
:1034DB000D12680A0235A77F2012680AE4F97426D8
:1034EB0029F582E43402F583E0FF6420600612685C
:1034FB000A0980EA7F0D12680AE490039FF00235F7
:10350B00A77F2012680AE4F9745B29F582E4340280
:10351B00F583E0FF600612680A0980EC7F0D1268E4
:10352B000A80797F2012680AE4F9746529F582E430
:10353B003402F583E0FF6420600612680A0980EA12
:10354B007F0D12680AE490039FF08050E4F990001D
:10355B00AAE075F01FA424F4F582E5F03400F5839E
:10356B00E58229F582E43583F583E0FF6006126876
:10357B000A0980DA7F0D12680A8021E4F974802928
:10358B00F582E43403F583E0FF600CE9C39410503B
:10359B000612680A0980E67F0D12680AE49002772A
:1035AB00F0A3F0AF2122E4900391F0900376F0901A
:1035BB0003797402F09000DBE06414600302387E40
:1035CB0090021FE02496F582E43403F583E0122F7A
:1035DB006F360D0136400436470636EF073667095E
:1035EB0036E80E36F611370412375124377025376B
:1035FB008F2937A82B374A2E371E3A37813B0000CD
:10360B00387E90037DE0B40208E4F07F46FE1200A2
:10361B002D90037DE06401600302387EF09000ADD5
:10362B00F090009E04F0A3E06401600302387E7FFB
:10363B0032FE02002D7F507E0002002D900395E09C
:10364B00700F90024DE090037BF07F6E7E000200C6
:10365B002DE4900395F07F64FE02002D900276E03E
:10366B00B4010C9003A0E070067FA0FE12002D9019
:10367B000276E06402600302387E9003A0E06003F0
:10368B0002387E9000AAE0FF900262E0243BF582B4
:10369B00E43402F583EFF075F01FEFA42405F582F7
:1036AB00E5F03401F5837401F0900262E004F0124E
:1036BB0069B27BFF7A0D7925E4F52E7D04125A4D04
:1036CB00900262E0B404077F967E0012002D126216
:1036DB00EFEF600302387E7F96FE02002D7F0E7E99
:1036EB000102002D7FDC7E0002002D7FFA7E00128E
:1036FB00002D900240E004F022900262E014F0E012
:10370B00D3940040077F967E0002002D7F147E002D
:10371B0002002D900371E0B401077F9A7E01120025
:10372B002D900371E0B402077FC27E0112002D9031
:10373B000371E0600302387E7FCC7E0102002D7F97
:10374B00E07E0102002D900395E0700D9000E0E00B
:10375B00A3F07F907E0102002DE4900395F07FAEE5
:10376B007E0102002D12524090005C7401F0E49037
:10377B000277F0A3F02290037AE064016003023831
:10378B007E025B9F12524090005C7401F0E4900249
:10379B0077F0A3F012645DE490025AF02290023F9E
:1037AB00E014B4070040030238799037BCF828289E
:1037BB00730237D10237DB0237E5023810023819B2
:1037CB0002382202382B7FFE7E0112002D0238793F
:1037DB007FD67E0112002D023879900371E0B4017F
:1037EB00077F9A7E0112002D900371E0B402077FD0
:1037FB00C27E0112002D900371E070727FCC7E01AE
:10380B0012002D80697FB87E0112002D80607FD65B
:10381B007E0112002D80577F0A7E0012002D804EF4
:10382B00900375E0FFB401069000A07401F0EFB4B3
:10383B0002069000A07402F0900279E0FFB401063A
:10384B009003747401F0EFB402069003747402F0E9
:10385B00EFB403069003747403F0C2AF12684BD23B
:10386B00AF9000B07402F07F407E0112002DE49007
:10387B00023FF0229000DBE0FF600764146003025C
:10388B003B30E490009DF0EFB41405E49000DBF0C6
:10389B009002427414F09003797401F090021FE0CF
:1038AB002496F582E43403F583E0122F6F39490136
:1038BB00395102395903396604396E05397B06399A
:1038CB00830739900839980939A50A39AD0B39BAEC
:1038DB000D39C20E39DB0F39E31039EB113A0412F3
:1038EB003A17133A1F153A27163A49173A51183A0D
:1038FB002F1F3A3C213A59223A61233A69243A71F3
:10390B00253A7E273A8B293A932A3A9B2B3AA32CBA
:10391B003AAF2E3AB62F3ABD303AC4313ACB333A9E
:10392B00D7353ADE363AEA373AF1383AF8393AFFD0
:10393B003A3B0B3B3B173C3B1E3D00003B237F01BF
:10394B00124037023B237F02124037023B237F0496
:10395B001240377F041232DC023B237F05124037C3
:10396B00023B237F0D1240377F0D1232DC023B23CB
:10397B007F06124037023B237F081240377F081225
:10398B0032DC023B237F11124037023B237F0B12A9
:10399B0040377F0B1232DC023B237F091240370288
:1039AB003B237F0C1240377F0D12680A023B237FAB
:1039BB0007124037023B237F101240377F0D1268EE
:1039CB000A9003917401F09000DB7414F0023B2316
:1039DB007F13124037023B237F14124037023B23E5
:1039EB007F101240377F101232DC9003917401F07C
:1039FB009000DB7414F0023B237F0C1240379003D2
:103A0B007F7401F07F0C1232DC023B237F151240D6
:103A1B0037023B237F17124037023B237F1812409C
:103A2B0037023B237F211240377F211232DC023BCE
:103A3B00237F231240377F0D12680A023B237F1925
:103A4B00124037023B237F1A124037023B237F245D
:103A5B00124037023B237F25124037023B237F2640
:103A6B00124037023B237F271240377F271232DC6D
:103A7B00023B237F291240377F291232DC023B2382
:103A8B007F2B124037023B237F2C124037023B2304
:103A9B007F2D124037023B237F2E1240377F2E1291
:103AAB0032DC80747F30124037806D7F31124037AB
:103ABB0080667F32124037805F7F331240378058E9
:103ACB007F351240377F351232DC804C7F37124006
:103ADB003780457F231240377F381232DC80397FA5
:103AEB003912403780327F3A124037802B7F3B129E
:103AFB00403780247F211240377F0D12680A8018CF
:103B0B007F271240377F3C1232DC800C7F3E124005
:103B1B003780057F3F12403790005C7401F0E490D2
:103B2B000277F0A3F022900379E064016003023D79
:103B3B007990021FE02496F582E43403F583E012BA
:103B4B002F6F3BDE013C18023C20033C28043C3029
:103B5B00053C38063C40073C48083C50093C580A99
:103B6B003C600B3C680C3C760D3C7E0E3C860F3C5F
:103B7B008E103C96123C9E133CA6153CAE163CB6E2
:103B8B00173CBE183D431F3CC6213CCE223CD623DE
:103B9B003CDE243CE6253CEE273CF6293CFD2A3D49
:103BAB00042B3D0B2C3D122E3D192F3D20303D2774
:103BBB00313D2E333D35353D3C363D4A373D513851
:103BCB003D58393D5F3A3D663B3D6D3C3D743D0094
:103BDB00003D799000ADE070087F01125991023DD4
:103BEB00799000DB7414F09003797401F0E4900089
:103BFB00ADF0900094F0900394F090021F7402F0DB
:103C0B0090039114F0E490009DF0023D797F021235
:103C1B005991023D797F04125991023D797F05122A
:103C2B005991023D797F0D125991023D797F061210
:103C3B005991023D797F08125991023D797F1112FA
:103C4B005991023D797F0B125991023D797F0912EF
:103C5B005991023D797F0C125991023D799000E206
:103C6B007401F07F12125991023D797F071259911D
:103C7B00023D797F10125991023D797F13125991B0
:103C8B00023D797F14125991023D797F0C125991A3
:103C9B00023D797F15125991023D797F1712599187
:103CAB00023D797F18125991023D797F1912599172
:103CBB00023D797F1A125991023D797F2312599156
:103CCB00023D797F24125991023D797F251259913A
:103CDB00023D797F26125991023D797F2712599126
:103CEB00023D797F29125991023D797F2B1259910F
:103CFB00807C7F2C12599180757F2D125991806E8B
:103D0B007F2E12599180677F3012599180607F31DD
:103D1B0012599180597F3212599180527F33125927
:103D2B0091804B7F3512599180447F371259918086
:103D3B003D7F3812599180367F21125991802F7F08
:103D4B003912599180287F3A12599180217F3B1269
:103D5B005991801A7F3D12599180137F27125991E7
:103D6B00800C7F3E12599180057F3F125991900331
:103D7B0079E064027049900372E0B40105124B13B1
:103D8B0080031242989000AFE0B4010312645D907F
:103D9B0000E5E0B4011FE4F090009FE0B4020512CF
:103DAB0069788003125B9F900372E0B40104E4F026
:103DBB0080031265419000CEE0B4010312654122ED
:103DCB0090037EE07DFE70027DFF7590FFE4FFFEA9
:103DDB000FBF00010EEF64144E70F5E49000E4F099
:103DEB0090037EE0703D900087E064017035209079
:103DFB0032FEFF0FBF00010EBE3AF8BF98F5E4FE8E
:103E0B00FF0FBF00010EBE3AF8BF98F5E4FEFF0F9F
:103E1B00BF00010EBE3AF8BF98F52090069000E463
:103E2B007401F0900088E0B4012220911FE4FEFFA2
:103E3B000FBF00010EBE3AF8BF98F5209106900017
:103E4B00E47402F02091057590FF80F8900089E0F2
:103E5B00B4012220921FE4FEFF0FBF00010EBE3AF9
:103E6B00F8BF98F52092069000E47403F0209205B9
:103E7B007590FF80F890008AE0B4012220931FE434
:103E8B00FEFF0FBF00010EBE3AF8BF98F520930658
:103E9B009000E47404F02093057590FF80F8900077
:103EAB008BE0B4012220941FE4FEFF0FBF00010E34
:103EBB00BE3AF8BF98F52094069000E47405F02004
:103ECB0094057590FF80F890008CE0B4012220954A
:103EDB001FE4FEFF0FBF00010EBE3AF8BF98F5209E
:103EEB0095069000E47406F02095057590FF80F818
:103EFB0090008DE064016003023F9530961130977E
:103F0B000EF53EF53FF53A753B01F53C753D01204D
:103F1B009678E53F453E7072F53A753B01FEFF0F13
:103F2B00BF00010EBE3AF8BF98F5053BE53B7002AA
:103F3B00053A6402453A7028E53D6401453C702022
:103F4B009000E47407F0053DE53D7002053CE53B50
:103F5B00153B7002153A053FE53F7028053E80245E
:103F6B00E53B6401453A6008E53D6402453C70144D
:103F7B009000E47405F0753C00753D01053FE53F8D
:103F8B007002053E2096037590FF90008EE0640151
:103F9B00600302402F30971130960EF53EF53FF53A
:103FAB003A753B01F53C753D01209778E53F453E61
:103FBB007072F53A753B01FEFF0FBF00010EBE3A62
:103FCB00F8BF98F5053BE53B7002053A6402453AAC
:103FDB007028E53D6401453C70209000E47408F0C6
:103FEB00053DE53D7002053CE53B153B7002153A7E
:103FFB00053FE53F7028053E8024E53B6401453ACB
:10400B006008E53D6402453C70149000E47405F0D3
:10401B00753C00753D01053FE53F7002053E20975D
:10402B00037590FF9000E4E0FF7E0022E49000AB6C
:10403B00F0900280F0FEF52174002521F8E4F205E2
:10404B0021E521B446F2E4FEE4F521EE75F03CA443
:10405B002481F582E43402F583E5822521F582E49F
:10406B003583F583E4F00521E521B43CDE0EBE0477
:10407B00D790009FE0B401089003937401F0800681
:10408B009003937403F0E4F521EF122F6F411A01A3
:10409B00412302412C04413505413E06414D074168
:1040AB005608415F0941680B41710C417A0D418300
:1040BB0010418B11419413419D1441A61541AF172B
:1040CB0041B81841C11941CA1A41D32141DC2341DE
:1040DB00E52441EE2541F726420627420E294216DA
:1040EB002B421E2C42262D422E2E423630423E3182
:1040FB00424632424E33425635425E374266394271
:10410B00763A426E3B427E3E42863F0000428C90A6
:10411B00037F7401F002428C90037F7401F0024222
:10412B008C90037F7401F002428C90037F7402F039
:10413B0002428C90023A7401F090037F740FF002EC
:10414B00428C90037F7402F002428C90037F7401C7
:10415B00F002428C90037F7401F002428C90037F3B
:10416B007402F002428C90037F7402F002428C9036
:10417B00037F7401F002428CE490037FF002428CC7
:10418B0090037F7401F002428C90037F7401F00264
:10419B00428C90037F7401F002428C90037F740178
:1041AB00F002428C90037F7401F002428C90037FEB
:1041BB007401F002428C90037F7401F002428C90E8
:1041CB00037F7401F002428C90037F7401F0024272
:1041DB008C90037F7401F002428C90037F7401F08A
:1041EB0002428C90037F7401F002428C90023A746D
:1041FB0001F090037F7405F002428C90037F7401F1
:10420B00F0807E90037F7401F0807690037F7401C1
:10421B00F0806E90037F7401F0806690037F7401D1
:10422B00F0805E90037F7401F0805690037F7401E1
:10423B00F0804E90037F7401F0804690037F7401F1
:10424B00F0803E90037F7401F0803690037F740101
:10425B00F0802E90037F7401F0802690037F740111
:10426B00F0801E90037F7401F0801690037F740121
:10427B00F0800E90037F7401F0800690037F740131
:10428B00F090005C7401F01222668F2122E49003FF
:10429B0077F09000B1E0F990005AE0FF2494F8A673
:1042AB0001EFB42F0040030244F19042BCF82828E0
:1042BB007302434902435A02436B02437C02438D10
:1042CB0002439E0243AF0243C00243D10243E802C2
:1042DB0043E80243E80243E80243E80243E80243AF
:1042EB00E80243E80243E80243E80243E80243E8FA
:1042FB000243E80243E80243E80243E802440902AE
:10430B0044090244090244090244090244090244D3
:10431B000902440902442802442802442802442882
:10432B00024428024428024428024428024444023E
:10433B00445002445C024468024477024486E9B468
:10434B00030790005AE004F022E490005AF022E9AF
:10435B00B4410790005AE004F022E490005AF02296
:10436B00E9B44E0790005AE004F022E490005AF0B2
:10437B0022E9B4530790005AE004F022E490005A6B
:10438B00F022E9B4480790005AE004F022E49000D0
:10439B005AF022E9B4550790005AE004F022E49059
:1043AB00005AF022E9B44D0790005AE004F022E4E1
:1043BB0090005AF022E9B4410790005AE004F02231
:1043CB00E490005AF022E9B44E0890005AE004F051
:1043DB008005E490005AF0E4900062F02290005ABD
:1043EB00E004F0900062E02480F582E43403F5836E
:1043FB00E9F0900062E004F0E4900222F0229000D9
:10440B005AE004F0900222E02447F582E43400F5F0
:10441B0083E9F0900222E004F0E4A3F02290005A2A
:10442B00E004F0900223E02451F582E43400F5839C
:10443B00E9F0900223E004F02290005AE004F0909F
:10444B000237E9F02290005AE004F09000A1E9F065
:10445B002290005AE004F09000A8E9F02290005A54
:10446B00E004F09000B1E0900225F02290005AE0B9
:10447B0004F09000B1E0900373F02290005AE00436
:10448B00F09000B1E090037CF0E490005AF09000C3
:10449B00CEF0FB7A0079947D2D126903AD07AC0643
:1044AB00ED4C60067E007F0180047E007F00EEFFF6
:1044BB003395E0ED4C7E0060027E01900373E0B516
:1044CB00071E90037CE0B50617900225E07006905E
:1044DB0000E504F022E49000E5F09000CE04F02219
:1044EB00E490005AF022E490005AF022E4F521EF18
:1044FB00122F6F458301458902458F04459505456C
:10450B00A60645B10745C20845C80945CE0B45DF90
:10451B000C45F00D45F61145FC12460D13461314D0
:10452B00462415462A1746301846721946781A46FD
:10453B003621465723467E25468426468D274693AD
:10454B002946992B469F2C46A52D46AB2E46B130BE
:10455B0046CB3146D03246EA3346EF3546F4374741
:10456B000E3847133947183A471D3B463C3D472207
:10457B003E47273F0000473F1257F902473F12576C
:10458B00F902473F1257F902473F7B017A027981C3
:10459B0090009AE0FD1250ED02473F90009AE0FF29
:1045AB00126DDA02473F7B017A02798190009AE023
:1045BB00FD124F9502473F1257F902473F1257F929
:1045CB0002473F7B017A02798190009AE0FD1257F6
:1045DB001F02473F7B017A02798190009AE0FD121E
:1045EB005C4102473F1257F902473F1257F9024706
:1045FB003F7B017A02798190009AE0FD1266750289
:10460B00473F1257F902473F7B017A0279819000AD
:10461B009AE0FD12671F02473F1257F902473F12FC
:10462B0057F902473F1257F902473F1257F9024712
:10463B003F75250175260275278190009AE0F528B4
:10464B007B017A0079BD12580E02473F7525017523
:10465B00260275278190009AE0F5287B017A027972
:10466B002612580E02473F1257F902473F1257F9CD
:10467B0002473F1257F902473F9000E0E0A3F002D8
:10468B00473F1257F902473F1257F902473F12575C
:10469B00F902473F1257F902473F1257F902473FBA
:1046AB001257F902473F7525017526027527819030
:1046BB00009AE0F5287B017A0079A212580E8074DB
:1046CB001257F9806F7525017526027527819000A9
:1046DB009AE0F5287B017A00799512580E805512D5
:1046EB0057F980501257F9804B75250175260275C5
:1046FB00278190009AE0F5287B017A007995125872
:10470B000E80311257F9802C1257F980271257F966
:10471B0080221257F9801D1257F9801875250175E3
:10472B00260275278190009AE0F5287B017A0079A3
:10473B009512580EAF2122E4FE9000DBE0600302DD
:10474B00493B900393E024FE6021146037146055BD
:10475B002403600302493B9000B1E0640D60030247
:10476B00493B9003937402F002493B9000B1E0B4D3
:10477B000A099003937403F002493B90039374016D
:10478B00F002493B9000B1E0FD640D600F9000AB6F
:10479B00E02400F8EDF2E004F002493B900393743F
:1047AB0004F002493B9000B1E0B40A06900280E0AD
:1047BB0004F0900280E0FD90009AF0EF6406600335
:1047CB000248B4EDC3940A4003024897E4FFFD90FE
:1047DB0000ABE0FCEDC39C502C74002DF8E2FC64A4
:1047EB002C6022900280E075F01FA424E7F582E58F
:1047FB00F03400F583E5822FF582E43583F583EC05
:10480B00F00D0F80CA0D900280E075F01FA424E715
:10481B00F582E5F03400F583E5822FF582E43583EC
:10482B00F583E4F0FF9000ABE0FCEDC39C502C74DF
:10483B00002DF8E2FC642C6022900280E075F01FE2
:10484B00A424F4F582E5F03400F583E5822FF5829C
:10485B00E43583F583ECF00D0F80CA0D900280E0F8
:10486B00FD75F01FA424F4F582E5F03400F583E523
:10487B00822FF582E43583F583E4F075F01FEDA408
:10488B002405F582E5F03401F583E4F090037FE035
:10489B00FF900280E0C39F400302493BE49000ABD2
:1048AB00F090039304F002493BE4900241F0900036
:1048BB00ABE0FF900241E0FDC39F502C74002DF83C
:1048CB00E2FF900280E075F03CA42445F582E5F010
:1048DB003402F583E5822DF582E43583F583EFF021
:1048EB00900241E004F080C6900280E0FF75F03C3E
:1048FB00A42445F582E5F03402F583E5822DF5829B
:10490B00E43583F583E4F090037FE0FDEFC39D5026
:10491B000CE49000ABF090039304F08013EFB5051B
:10492B000F9000DB7414F0E490009DF090005CF0AD
:10493B00AF0622900060E0FEA3E0FF900066E02F40
:10494B00F525900065E03EF524E5258524F0122F32
:10495B00954988000C499A000D49AC000E49B300EB
:10496B001649C5001749D7001849DE002049F00049
:10497B00214A0200224AA1022800004AFD90009F12
:10498B00E004F0E0D3940240037401F0026B9F90BB
:10499B00009FE014F0E0C3940150037402F0026B2B
:1049AB009F7F147E0002002D900375E004F0E0D38E
:1049BB00940240037401F002693E900375E014F019
:1049CB00E0C3940150037402F002693E7F1E7E0027
:1049DB0002002D900279E004F0E0D39403400374BD
:1049EB0001F00268C2900279E014F0E0C394015028
:1049FB00037403F00268C290009FE064017043905F
:104A0B0000E27403F0E4900391F090021FF0900326
:104A1B007D04F0E49000DBF090009EF09003967420
:104A2B0002F0A304F0A37401F0E4A3F0A3F0A3F04D
:104A3B00A3F0A3F090009D04F0900376F09000ADEE
:104A4B00F0229000E27409F0E4900391F090021FC1
:104A5B00F090027E04F090023F7407F0E49000DBCC
:104A6B00F09000B004F09003967415F0A3742FF03F
:104A7B00A37427F0A3742CF0A3743AF0A37421F061
:104A8B00A3743DF0A3742AF0A304F090009D74016D
:104A9B00F0900376F0227BFF7A10795DE4F52E7DA2
:104AAB0001125A4D90009FE06401703F7BFF7A101A
:104ABB007960752E057D01125A4D90027DE0B4018F
:104ACB001C900276E0B401077FF07E0012002D905F
:104ADB000276E0B402077F047E0112002D90027D66
:104AEB00E0640270227FF0FE02002D7F127E020234
:104AFB00002D90009FE0B40107AF25AE24021453A4
:104B0B00AF25AE24121C1B229000B1E0FF9000CF0A
:104B1B00E0FE24C4F8A607EEB41B004003024CA22F
:104B2B00904B32F8282873024B83024B94024BA50F
:104B3B00024BB6024BC7024BD8024BE9024BFA02AF
:104B4B004C0B024C22024C22024C22024C22024CF5
:104B5B0022024C22024C22024C22024C22024C22F8
:104B6B00024C22024C22024C22024C22024C220208
:104B7B004C22024C3E024C4AEFB403079000CFE0AC
:104B8B0004F022E49000CFF022EFB441079000CF65
:104B9B00E004F022E49000CFF022EFB44E07900037
:104BAB00CFE004F022E49000CFF022EFB453079053
:104BBB0000CFE004F022E49000CFF022EFB44807DE
:104BCB009000CFE004F022E49000CFF022EFB45538
:104BDB00079000CFE004F022E49000CFF022EFB476
:104BEB004D079000CFE004F022E49000CFF022EFCD
:104BFB00B441079000CFE004F022E49000CFF02204
:104C0B00EFB44E089000CFE004F08005E49000CFA5
:104C1B00F0E4900062F0229000CFE004F09000628C
:104C2B00E02480F582E43403F583EFF0900062E03A
:104C3B0004F0229000CFE004F0900373EFF0229089
:104C4B0000CFE004F090037CEFF0E49000CFF0FB9A
:104C5B007A0079C47D19126903AD07AC06ED4C607F
:104C6B00067E007F0180047E007F00EEFF3395E01F
:104C7B00ED4C7E0060027E01900373E0B50712904D
:104C8B00037CE0B5060B9000AF7401F0900378F055
:104C9B0022E49000CFF022E49000CFF022538EFC60
:104CAB00E490037DF0900260E0900392F0E49003B7
:104CBB0072F090025AF0900225F090005AF090009A
:104CCB00CFF09000A9F0900277F0A3F09000A6F03F
:104CDB00900239F090024DF09000CEF090005CF015
:104CEB00900378F09000AFF09000AA04F090009F32
:104CFB00F0E4900379F090039304F0900375F09037
:104D0B000279F090027DF0E490037BF090027EF04C
:104D1B009000E1F090027604F0E49000ACF0900289
:104D2B0062F09000E0F090005FF09003A0F0900331
:104D3B009FF090005BF09000E3F090005EF090002D
:104D4B00E604F0E4900060F0A3F0900240F09003D2
:104D5B0073F090037CF090022004F0E4900377F062
:104D6B0090037EF090037104F090027F740EF0E4D8
:104D7B0090005DF09002437441F0A3744EF0A37465
:104D8B0053F0A37448F0A37455F0A3744DF0A374BF
:104D9B0041F0A3744EF0E4A3F090024E7445F0A3DF
:104DAB0014F0A37455F0A314F0A3744FF0A3F0A365
:104DBB00744CF0A37453F0E4A3F09000477441F0EB
:104DCB00A3744EF0A37453F0A37448F0A37455F07E
:104DDB00A3744DF0A37441F0A3744EF0E4A3F090D0
:104DEB0000517445F0A314F0A37455F0A314F0A371
:104DFB00744FF0A3F0A3744CF0A37453F0E4A3F03E
:104E0B00900261F090027AF0900094F0900394F08D
:104E1B00D2B790009BF09000ADF022E4FE9000DB47
:104E2B00E06003024F92900393E024FD6003024F76
:104E3B00929000B1E0FD640D600C9000ABE024009B
:104E4B00F8EDF2E004F0ED640D6003024F92900276
:104E5B0080E004F0E0FD90009AF0EF64266003021E
:104E6B004F0AED640470719000E0E004F0E49000F0
:104E7B00DEF0A3F09000ABE0FD9000DEE0FAA3E0E3
:104E8B00FBC39DEA94005032E02400F8E2FFA3E05C
:104E9B0075F01FA424F4F582E5F03400F583E58268
:104EAB002BF582E5833AF583EFF09000DFE004F019
:104EBB0070C29000DEE004F080BA9000E0E075F084
:104ECB001FA424F4F582E5F03400F583E5822BF57D
:104EDB0082E5833AF583E4F0900280E0B40A02E4C1
:104EEB00F090037FE0FF900280E0C39F4003024FEE
:104EFB0092E49000ABF09003937403F0024F92E4B2
:104F0B00900241F09000ABE0FF900241E0FDC39FA7
:104F1B00502C74002DF8E2FF900280E075F03CA459
:104F2B002445F582E5F03402F583E5822DF582E424
:104F3B003583F583EFF0900241E004F080C69002D8
:104F4B0080E0FF75F03CA42445F582E5F03402F5D2
:104F5B0083E5822DF582E43583F583E4F090037FBE
:104F6B00E0FDEFC39D500DE49000ABF09003937404
:104F7B0003F08013EFB5050F9000DB7414F0E49091
:104F8B00009DF090005CF0AF06228B228A238924CF
:104F9B008D25E4F528F526E526C39525400302501B
:104FAB00ECE526703CF527E528C39402400302503C
:104FBB00E7E52675F03CA4AB222524F9E52335F073
:104FCB00FA7E00E92528F9EE3AFA122D8EFF745776
:104FDB002527F582E43402F583EFF00528052780B9
:104FEB00C6E4F527F528E52675F03CA4AB2225246D
:104FFB00F9E52335F0FA7E00E92528F9EE3AFA12A5
:10500B002D8EFF642C600D74832527F8A6070528C9
:10501B00052780D2052874832527F8E4F6F527E5C4
:10502B002675F03CA4AB222524F9E52335F0FA7E56
:10503B0000E92528F9EE3AFA122D8EFF642C601345
:10504B0074A22527F582E43400F583EFF0052805DB
:10505B002780CC052874A22527F582E43400F5833C
:10506B00E4F0F527E52675F03CA4AB222524F9E501
:10507B002335F0FA7E00E92528F9EE3AFA122D8E47
:10508B00FF642C600D74832527F8A60705280527D8
:10509B0080D2052874832527F8E4F6F527E52675D5
:1050AB00F03CA4AB222524F9E52335F0FA7E00E988
:1050BB002528F9EE3AFA122D8EFF6013747B252703
:1050CB00F582E43402F583EFF00528052780CE74D2
:1050DB007B2527F582E43402F583E4F00526024FA5
:1050EB00A2228B228A2389248D25E4F528F526E537
:1050FB0026C39525400302523FE52660030251EF7C
:10510B00F528F527E52675F03CA4AB222524F9E517
:10511B002335F0FA7E00E92528F9EE3AFA122D8EA6
:10512B00FF642C600D74832527F8A6070527052837
:10513B0080D2052874832527F8E4F6F527E5267534
:10514B00F03CA4AB222524F9E52335F0FA7E00E9E7
:10515B002528F9EE3AFA122D8EFF642C600D74425D
:10516B002527F8A6070528052780D2052874422590
:10517B0027F8E4F6F527E52675F03CA4AB222524A9
:10518B00F9E52335F0FA7E00E92528F9EE3AFA1213
:10519B002D8EFF642C600D74832527F8A607052838
:1051AB00052780D2052874832527F8E4F6F527E533
:1051BB002675F03CA4AB222524F9E52335F0FA7EC5
:1051CB0000E92528F9EE3AFA122D8EFF642C600DBA
:1051DB0074832527F8A6070528052780D274832515
:1051EB0027F8E4F6E52664017045F527F528E52652
:1051FB0075F03CA4AB222524F9E52335F0FA7E00AB
:10520B00E92528F9EE3AFA122D8EFF601374572513
:10521B0027F582E43402F583EFF00528052780CECD
:10522B00052774572527F582E43402F583E4F0054E
:10523B00260250FA227853760308764108764E08F8
:10524B00765308764808765508764D0876410876E9
:10525B004E9000BDE008F6A3E008F6A3E008F6A325
:10526B00E008F6A3E008F6A3E008F6A3E008F6A32F
:10527B00E008F6A3E008F6A3E008F6A3E008F6A31F
:10528B00E008F6A3E008F6A3E008F6A3E008F6A30F
:10529B00E008F6900243E008F6A3E008F6A3E00866
:1052AB00F6A3E008F6A3E008F6A3E008F6A3E008EF
:1052BB00F6A3E008F690024EE008F6A3E008F6A38A
:1052CB00E008F6A3E008F6A3E008F6A3E008F6A3CF
:1052DB00E008F6A3E008F6900392E008F690005B76
:1052EB00E008F690005EE008F690025AE008F67BC4
:1052FB00007A0079537D2D126903AD07AC06ED4C96
:10530B0060067E007F0180047E007F00EEFF3395F8
:10531B00E07880A607ED4C7F0060027F017881A6C4
:10532B0007E490005AF09000E5F09000AFF0900089
:10533B0046742FF09003727401F090037904F07BA4
:10534B00007A0079537D2F026C8D7B017A027943B1
:10535B008B268A2789289000A7E0FFF582758300AA
:10536B00122DA7FEC394304012EE9439500D8F824C
:10537B007583007401122DD4025453EEC394414033
:10538B0066EE945A5061EEB4461E9000E6E0B4010E
:10539B0017AB26AA27A9289000A7E0F582758300F2
:1053AB007447122E07025453AB26AA27A928900044
:1053BB00A7E0FFF582758300122DA7B4461390006A
:1053CB00E6E0B4020C8F827583007430122E0780D6
:1053DB0077AB26AA27A9289000A7E0F58275830052
:1053EB007401122DD48061AB26AA27A9289000A79F
:1053FB00E0FFF582758300122DA7FEB4390C8F8266
:10540B007583007420122E07803EEE64206003EE3D
:10541B007016AB26AA27A9289000A7E0F582758302
:10542B00007441122E078020AB26AA27A9289000D2
:10543B00A7E0FFF582758300122DA7B45A0A8F825D
:10544B007583007430122E07AB26AA27A928026B8E
:10545B004690027FE014B40E00400302555990545D
:10546B0070F828287302549A0254A40254AE0254C2
:10547B00B80254C20254D00254DE0254EC0254F867
:10548B000255080255180255280255360255489008
:10549B00025B7431F0E4A3F02290025B7433F0E40E
:1054AB00A3F02290025B7437F0E4A3F02290025B2E
:1054BB007446F0E4A3F02290025B7431F0A37446BF
:1054CB00F0E4A3F02290025B7433F0A37446F0E493
:1054DB00A3F02290025B7437F0A37446F0E4A3F0C0
:1054EB002290025B7446F0A3F0E4A3F02290025BDF
:1054FB007431F0A37446F0A3F0E4A3F02290025BA6
:10550B007433F0A37446F0A3F0E4A3F02290025B93
:10551B007437F0A37446F0A3F0E4A3F02290025B7F
:10552B007446F0A3F0A3F0E4A3F02290025B743175
:10553B00F0A37446F0A3F0A3F0E4A3F02290025B77
:10554B007433F0A37446F0A3F0A3F0E4A3F0228F1E
:10555B00338E328D318C30E4F53574B22535F582CE
:10556B00E43400F583E4F00535E535B40AEC753920
:10557B00007538CA75379A75363B900238740AF045
:10558B00AF33AE32AD31AC30AB39AA38A937A83610
:10559B00D3122F5E4023AF39AE38AD37AC36E47B38
:1055AB000AFAF9F8122ECC8F398E388D378C36904B
:1055BB000238E014F0E0B534C7900238E024B2F5BD
:1055CB0082E43400F58374FFF0E4F535900238E0A3
:1055DB00FFE535C39F505CAF39AE38AD37AC36AB5A
:1055EB0033AA32A931A830C3122F5E402974B225D9
:1055FB0035F582E43400F583E004F0C3E5339539E7
:10560B00F533E5329538F532E5319537F531E5303F
:10561B009536F53080C1AF39AE38AD37AC36E47B5B
:10562B000AFAF9F8122ECC8F398E388D378C360555
:10563B00358099227B017A0279438B268A27892828
:10564B009000A7E0FFF582758300122DA7FED3947F
:10565B00304012EE943A500D8F8275830074FF1216
:10566B002DD4025716EED39441401CEE945B501789
:10567B00AB26AA27A9289000A7E0F58275830074B2
:10568B00FF122DD4025716AB26AA27A9289000A7E4
:10569B00E0FFF582758300122DA7FEB43028900031
:1056AB00E6E0FDB4010A8F82758300745A122E074F
:1056BB00ED64027056AB26AA27A9288F82F5837456
:1056CB0046122E078045EE64206016AB26AA27A94A
:1056DB00289000A7E0FFF582758300122DA7FE70BE
:1056EB0016AB26AA27A9289000A7E0F582758300A0
:1056FB007439122E078014EEB44110AB26AA27A9D9
:10570B00288F827583007420122E07AB26AA27A937
:10571B0028026B468B228A2389248D25E4F528F5F4
:10572B0026E526C3952540030257F8E5267043F579
:10573B0027F528E52675F03CA4AB222524F9E523B3
:10574B0035F0FA7E00E92528F9EE3AFA122D8EFF94
:10575B00601374572527F582E43402F583EFF005C7
:10576B0028052780CE74572527F582E43402F5836C
:10577B00E4F0E52664017070F527F528E52675F051
:10578B003CA4AB222524F9E52335F0FA7E00E9256C
:10579B0028F9EE3AFA122D8EFF6420600D748325E2
:1057AB0027F8A6070528052780D205287483252707
:1057BB00F8E4F6F527E52675F03CA4AB222524F991
:1057CB00E52335F0FA7E00E92528F9EE3AFA122D99
:1057DB008EFF600D74832527F8A607052805278003
:1057EB00D474832527F8E4F6052602572C22752559
:1057FB000175260275278190009AE0F5287B017AC6
:10580B000279578B228A238924E4F529E529C3954C
:10581B0028504DE4F52AF52BE52975F03CA4AB2572
:10582B002527F9E52635F0FA7E00E9252BF9EE3A26
:10583B00FA122D8EFF6015AB22AA23A924852A828A
:10584B00758300122E07052B052A80CCAB22AA23C9
:10585B00A924852A82758300E4122E07052980ACC2
:10586B0090021FE0FF2496F582E43403F583E0FEFB
:10587B00B407069002617401F0EEB4013D90026131
:10588B00E0B401369003797401F0E4900261F0907A
:10589B0000ABF0900280F09002427414F0900393EE
:1058AB007401F0E49000DBF090037F04F074962F0A
:1058BB00F582E43403F583740CF022E4F521F52230
:1058CB000522E52270020521B40CF5E521B46CF03C
:1058DB00E4F521F5220522E52270020521B40CF531
:1058EB00E521B46CF0E4FD7F30126886E4F521F518
:1058FB00220522E52270020521B404F5E521B4242A
:10590B00F0E4F521F5220522E52270020521B4040D
:10591B00F5E521B424F0E4FD7F30126886E4F5212F
:10592B00F5220522E5227002052164DC452170F287
:10593B00E4F521F5220522E5227002052164DC4500
:10594B002170F2E4FD7F30126886126D82E4FD7FD8
:10595B0038126886126D82E4FD7F08126886126D1C
:10596B0082E4FD7F01126886126D82E4FD7F0612D0
:10597B006886126D827D017F0F126886120003E428
:10598B00FD7F0C0268868F08900242E024EC6003D6
:10599B00025A3C90009FE0B40107AF0812474280C7
:1059AB0005AF08124E269000DBE064147072900075
:1059BB0094F0900394F09003A0F090005DF01263CC
:1059CB00E5EF7007AF081244F7802A9003A0740428
:1059DB00F0126611E49000DCF0A3F09000DDE0041F
:1059EB00F070069000DCE004F09000DCE0B427EBF4
:1059FB00A3E0B410E69000E2E014F090021FE00484
:105A0B00F090009D7401F09000E2E0701890021F7E
:105A1B00E014F09003917401F0E490009DF0800588
:105A2B00E4900264F09000DBE0B4C805E4900264FB
:105A3B00F0900264E0FF227BFF7A0B79B1E4F52E44
:105A4B007D048B2A8A2B892C8D2DE4F531E52DB421
:105A5B000110E52E2480F530E4FDAF301268867519
:105A6B002F93E52DB40210E52E24C0F530E4FDAFE5
:105A7B0030126886752FD3E52DB40310E52E2494D0
:105A8B00F530E4FDAF30126886752FA7E52DB40411
:105A9B0010E52E24D4F530E4FDAF30126886752F57
:105AAB00E7AB2AAA2BA92C122D8EFF6025F46022BE
:105ABB00E531701E7D011268867401252CF52CE4EE
:105ACB00352BF52B0530E530D3952F40D475310AA6
