:10577A0057454C434F4D45202020202020202020F3
:10578A002000487A00313020487A2020202020202A
:10579A002020202020200031303020487A2020206C
:1057AA002020202020202020004B487A0031302061
:1057BA004B487A2020202020202020202020003141
:1057CA003030204B487A2020202020202020202002
:1057DA00004D487A003130204D487A202020202080
:1057EA002020202020200053696E652020002054AC
:1057FA007269616E20005371756172652000417291
:10580A0062697461727920576176652020200045AB
:10581A007874204D6F642000496E74204D6F6420A7
:10582A000073656C656374206D6F646520202020A9
:10583A002000414D20737464202020202020202045
:10584A00202000414D2062616C2020202020202051
:10585A0020202000564346202020202020202020DF
:10586A002020202000464D202020202020202020FB
:10587A0020202020200050574D20202020202020AA
:10588A0020202020202000537770206C696E202071
:10589A00202020202000537770206C6F6720202062
:1058AA002020202000416D706C69747564653A206F
:1058BA00004672657175656E63792020202020206C
:1058CA002000496E7465726E616C20436F756E7448
:1058DA0065720045787465726E616C20436F756EEF
:1058EA007465720053656C6563742046756E6374E3
:1058FA00696F6E20006B6579626F61726220666102
:10590A00756C742020004C6F772052616E67652099
:10591A002020202020200039487A2052616E6765B5
:10592A0020202020202020003939487A2052616E18
:10593A00676520202020202000393939487A2052F2
:10594A00616E6765202020202000396B487A20523A
:10595A00616E67652020202020200039396B487A43
:10596A002052616E67652020202020003939396B6A
:10597A00487A2052616E67652020202000314D4808
:10598A007A2052616E676520202020202000313065
:10599A004D487A2052616E676520202020200053EE
:1059AA00656E64204461746120202020202020003C
:1059BA004E6F20446174612066726F6D20504320DF
:1059CA000050726F63657373696E67202020202010
:1059DA002000506C6561736520576169742020202E
:1059EA002020006B65792070726573732D3E5175A6
:1059FA0069742000646576696365207A65726F2030
:105A0A006661696C0064657669636520666F7572A4
:105A1A00206661696C0064657669636520736978DC
:105A2A00206661696C200064657669636520657427
:105A3A0068206661696C2000202020202020005008
:105A4A00414D20202020200039394D487A207261AA
:105A5A006E6765202020202000FF50726573732036
:105A6A003020666F7220486572747A0050726573CE
:105A7A0073203120666F7220313020486572747A43
:105A8A00005072657373203220666F722031303095
:105A9A0020486572747A00507265737320332066E9
:105AAA006F722031204B486572747A0050726573A8
:105ABA0073203420666F72203130204B486572742F
:105ACA007A005072657373203520666F7220313008
:105ADA0030204B486572747A0050726573732036B1
:105AEA0020666F722031204D486572747A005072B8
:105AFA00657373203720666F72203130204D4865F8
:105B0A0072747A005072657373203820666F72203F
:105B1A0053696E652057617665005072657373200C
:105B2A003920666F72205472616E672057617665FC
:105B3A00005072657373204120666F72205371752D
:105B4A00617265205761766500496E742E2046722F
:105B5A0065712E20006D487A002D32306442002D86
:105B6A00343064420056707020200020202020200B
:105B7A002020200046726571204374726C3A0043FB
:105B8A006F617273650046696E65202000C0F9A4D2
:105B9A00B0999282F88090FEFDFBF7EFDFBF7FDFBE
:025BAA00BF7FBB
:08001E00410005284100040027
:1021CF00E4900021F0900003F090002774FFF0E4FA
:1021DF00A3F0900018124E0F0000000075B8229067
:1021EF00002974FFF090002DF0E4900007F09000AC
:1021FF0026F07527FF7520FF7521FF7522FF7523C8
:10220F00FF7524FFD223C227900000F090003012F8
:10221F004E0F000000007580FFD2A4D2A590001EC3
:10222F007401F07D38E4FF126C277D0CE4FF126C13
:10223F00277D01E4FF126C277BFF7A57797A126BA7
:10224F00C07DC0E4FF126C27E490001FF0905B97F5
:10225F0093FF90001FE02408F582E43400F583EF2C
:10226F00F090001FE004F0E02408F582E43400F55C
:10227F0083EFF090001FE004F0E02408F582E434CF
:10228F0000F583EFF090001FE004F0E02408F582E2
:10229F00E43400F583EFF090001FE004F0E0240831
:1022AF00F582E43400F583EFF07D01E4FF126C2733
:1022BF00127227D288D2AFD2ADD2A8D2ABD28E3083
:1022CF00101B12717F900025EFF070057FF9126DD2
:1022DF0080900025E0B401057FF9126DBA7580FF7B
:1022EF00C2A5D2A59000007401F0FDE4FF126C2787
:1022FF00905A63E493F460030223A47BFF7A577927
:10230F00B3126BC07DC0E4FF126C277BFF7A577945
:10231F00F1126BC012717F900025EFF070057FF9FD
:10232F00126D80900025E0B401057FF9126DBA128D
:10233F006E9F900025EFF070057FBD127129900000
:10234F0025E0B401057FBD127154C23B1271A990F3
:10235F000025EFF070057FFF126DF4900025E0B4BB
:10236F0001057FFF126E2EC214C2051230BAC214BD
:10237F00C2051271D3900025EFF070057FFF126E2A
:10238F00D5900025E0B401057FFF126F0C7527FF74
:10239F007520FFC23B905A63E493707A7580FFC239
:1023AF00A5D2A57527FF7520FF7523FF900000F0BC
:1023BF00D214D215D216D211C213C2127D01FF123E
:1023CF006C277BFF7A5879DD126BC07DC0E4FF125A
:1023DF006C277D307F01126C277D307F01126C27B7
:1023EF007D307F01126C277D2E7F01126C277D308F
:1023FF007F01126C277D307F01126C2790000C74C7
:10240F00C0F090000BF090000A7440F09000097437
:10241F00C0F0900008F020122312717F900025EF7A
:10242F00F070057FFB126D80900025E0B401057FF1
:10243F00FB126DBA7F05126E79022535900027E0E9
:10244F00703312717F900025EFF0700D127274903F
:10245F000024EFF0547F126D78900025E0B4010D49
:10246F00127293900024EFF0547F126DB27F0F120F
:10247F006E79022535300C09200D06300E03300F12
:10248F0003201B361271A9900025EFF0700F127206
:10249F00F0900024EFF054E3FFF0126DF49000255C
:1024AF00E06401600302253512730F900024EFF0F2
:1024BF0054E3FFF0126E2E0225353012047F018097
:1024CF00027F003010047E0180027E00EE5F6020EC
:1024DF0012717F900025EFF07006127274126D74F6
:1024EF00900025E06401703E127293126DAE80363B
:1024FF00900027E0F4702F12717F900025EFF0709D
:10250F000F127274900024EFF04480FFF0126D8070
:10251F00900025E0B4010F127293900024EFF04465
:10252F0080FFF0126DBA7580FFD2A4D2A5E490009F
:10253F0026F0C28D75CDB175CCE075CBB175CAE003
:10254F00F58CF58A90001CF0A3F0900003E0B4FF27
:10255F00081268ADE4900003F020102812717F90EC
:10256F000025EFF0700F127274900024EFF054FCFE
:10257F00126D78800D127293900024EFF054FC12BC
:10258F006DB2C211D28C75C80490001CE0FEA3E09E
:10259F00FFD39464EE940040F0EF9464EE94004007
:1025AF000B1273C590002BEEF0A3EFF090002BE011
:1025BF00FEA3E0FF64014E70047D0180027D00EFF9
:1025CF004E70047F0180027F00EF4D6035C22030D6
:1025DF0012047F0180027F003010047E0180027E92
:1025EF0000EE5F601D12717F900025EFF0700612F4
:1025FF007274126D74900025E0B40106127293127A
:10260F006DAE202012900026E0700C124314900043
:10261F00267401F002270490002BE0FEA3E0FFD305
:10262F009409EE94005023EF9401EE9400401B9018
:10263F000026E07015201206D20CD20DC20E125FCA
:10264F00BA9000267401F002270490002BE0FEA33D
:10265F00E0FFD39463EE94005027EF9409EE9400BB
:10266F00401F900026E0701990001E04F020120603
:10267F00D20CD20DC20E125BAC9000267401F0800A
:10268F007490002BE0FEA3E0FFD394E7EE94035089
:10269F0028EF9463EE94004020900026E0701A20FB
:1026AF001206D20CD20DC20E90001E7401F012361B
:1026BF00E59000267401F0803C90002BE0FEA3E033
:1026CF00FFD39468EE9429502CEF94E7EE940340D7
:1026DF0024900026E0701E90001E04F0201206D2F7
:1026EF000CC20DD20E1230BA9000267401F0E49095
:1026FF00002BF0A3F0D390002CE0946890002BE017
:10270F0094295003022535C28CE4F5C8C28D75CDCE
:10271F00B175CCE075CBB175CAE0E4F58CF58A9054
:10272F00001CF0A3F0900026F0900003E0B4FF0827
:10273F001268ADE4900003F030100C3038093039D6
:10274F0006303A03203B08C28CE4F5C8022A1E204B
:10275F00102812717F900025EFF0700F1272749095
:10276F000024EFF054FC126D78800D1272939000DC
:10277F0024EFF054FC126DB2C211201228900028E1
:10278F00E0702212717F900025EFF070057FFF122D
:10279F006D80900025E0B401057FFF126DBA7F05B3
:1027AF00126E798070201229900028E0F4702212A6
:1027BF00717F900025EFF070057FF3126D80900010
:1027CF0025E0B401057FF3126DBA7F05126E798093
:1027DF0044301041900027E0703B12717F9000252C
:1027EF00EFF07015127274900024EFF0547FF054D4
:1027FF00E3F04410FFF0126D80900025E0B4011556
:10280F00127293900024EFF0547FF054E3F04410D1
:10281F00FFF0126DBAD28C75C80490001CE0FEA3B5
:10282F00E0FFD39464EE940040F0EF9464EE9400D4
:10283F00400B1273C590002BEEF0A3EFF090002B1E
:10284F00E0FEA3E0FFC39427EE9400400C3038095C
:10285F00303906303A03203B08C28CE4F5C8022A0F
:10286F001ED3EF9486EE94015032EF9425EE940030
:10287F00402A900026E0702490001E04F0201206DB
:10288F00D20CC20DD20E122A5C90002874FFF09069
:10289F0000267401F0E490002BF0A3F090002BE0E1
:1028AF00FEA3E0FFD39442EE940F5026EF9486EEF2
:1028BF009401401E900026E07018201206D20CC220
:1028CF000DD20E90002874FFF012532B9000267437
:1028DF0001F090002BE0FEA3E0FFD39442EE940FA3
:1028EF00402BE4FCFD7B967A98F9F8124DDC401DE5
:1028FF00900026E07017201206C20CD20DD20EE403
:10290F00900028F0123D019000267401F090002BEA
:10291F00E0FEA3E0FFE4FCFD7B967A98F9F8C31282
:10292F004DDC4003022A07900026E06003022A07CD
:10293F00201206C20CD20DD20E30124830104512A2
:10294F00717F900025EFF07012127274900024EFD7
:10295F00F054E3F04410FFF0126D80900025E0B4C6
:10296F000112127293900024EFF054E3F04410FF21
:10297F00F0126DBAE4900028F0123D019000267419
:10298F0001F0807490002874FFF0124E40900026E2
:10299F007401F0C28D75CDB175CCE075CBB175CA30
:1029AF00E0E4F58CF58A90001CF0A3F0900026F07F
:1029BF00D28C75C80490001CE0FEA3E0FFD3946492
:1029CF00EE940040F0EF9464EE9400400B1273C548
:1029DF0090002BEEF0A3EFF0C390002CE0947190D9
:1029EF00002BE09409500BC28CE4F5C8900028F03E
:1029FF00800620120302294830100F30380C30396E
:102A0F0009303A06303B0302271BC28CE4F5C8900D
:102A1F000027E0F4702F12717F900025EFF0700FF8
:102A2F00127274900024EFF04480FFF0126D8090CA
:102A3F000025E0B4010F127293900024EFF0448050
:0D2A4F00FFF0126DBA7F0A126E790223A407
:10740C00E4FEEEC39F500AE4FD0DEDB4FFFB0E80CD
:01741C00F17E
:01741D00224C
:106E5900900043E0F8A3E0F9A3E0FAA3E0FBE4FF24
:106E6900FE7D807C3F124AD6900043124E037F027A
:106E7900E4FEEEC39F5011E4FDFC0DBD00010CBC06
:086E890004F8BDFBF50E80EAE0
:016E910022DE
:0B738B00D2937F08127396D2927F0805
:10739600E4FEEEC39F50030E80F8E4FF0FEFB480C7
:0173A600FBEB
:0173A70022C3
:106F6A00E490002AF020A1087448F0E490002DF083
:106F7A0020A20B90002A7450F0E490002DF020A378
:106F8A000B90002A7458F0E490002DF090002AE04B
:026F9A00FF22D4
:106F9C00E490002AF020A1087447F0E490002DF052
:106FAC0020A20B90002A744FF0E490002DF020A347
:106FBC000B90002A7457F0E490002DF090002AE01A
:026FCC00FF22A2
:106FCE00E490002AF020A1087446F0E490002DF021
:106FDE0020A20B90002A744EF0E490002DF020A316
:106FEE000B90002A7456F0E490002DF090002AE0E9
:026FFE00FF2270
:10700000E490002AF020A1087445F0E490002DF0EF
:1070100020A20B90002A744DF0E490002DF020A3E4
:107020000B90002A7455F0E490002DF090002AE0B7
:02703000FF223D
:10703200E490002AF020A1087444F0E490002DF0BE
:1070420020A20B90002A744CF0E490002DF020A3B3
:107052000B90002A7454F0E490002DF090002AE086
:02706200FF220B
:10706400E490002AF020A1087443F0E490002DF08D
:1070740020A20B90002A744BF0E490002DF020A382
:107084000B90002A7453F0E490002DF090002AE055
:02709400FF22D9
:10709600E490002AF020A1087442F0E490002DF05C
:1070A60020A20B90002A744AF0E490002DF020A351
:1070B6000B90002A7452F0E490002DF090002AE024
:0270C600FF22A7
:1070C800E490002AF020A1087441F0E490002DF02B
:1070D80020A20B90002A7449F0E490002DF020A320
:1070E8000B90002A7451F0E490002DF090002AE0F3
:0270F800FF2275
:0B667500900034EBF0A3EAF0A3E9F082
:10668000E490003AF0FF900034E0FBA3E0FAA3E0CE
:10669000F98F82758300124C9FFE0F8F82758300E5
:1066A000124C9F900037F00F8F82758300124C9F21
:1066B000900038F00F8F82758300124C9F90003944
:1066C000F00F8F82758300124C9FFCAF068F80C243
:1066D000A4D2A47580FFC280C2A5D2A590002DE0EF
:1066E000B4FF08126F6A90002AEFF0D2807F021286
:1066F000740C900037E0F580C2A4D2A47580FFC26C
:1067000081C2A5D2A590002DE0B4FF08126F9C9025
:10671000002AEFF0D2817F0212740C900038E0F56D
:1067200080C2A4D2A47580FFC282C2A5D2A5900067
:106730002DE0B4FF08126FCE90002AEFF0D2827FD6
:106740000212740C900039E0F580C2A4D2A47580C6
:10675000FFC283C2A5D2A590002DE0B4FF0812703D
:106760000090002AEFF0D2837F0212740CAF048FE6
:1067700080C2A4D2A47580FFC284C2A5D2A5900015
:106780002DE0B4FF0812703290002AEFF0D2847F1F
:106790000212740C203802C280203902C281203AD1
:1067A00002C282203B02C283203C02C284203D02FE
:1067B000C285201402C286201502C287C2A4D2A4B8
:1067C0007580FFC285C2A5D2A590002DE0B4FF0858
:1067D00012706490002AEFF0D2857F0212740C20B0
:1067E0001602C280201702C281201102C282201329
:1067F00002C283201802C284201902C285201A0214
:10680000C286201B02C287C2A4D2A47580FFC286A2
:10681000C2A5D2A590002DE0B4FF0812709690009A
:106820002AEFF0D2867F0212740C200F02C2802061
:106830000A02C281203E02C282203F02C283200B94
:1068400002C284200C02C285200D02C286200E02E4
:10685000C287C2A4D2A47580FFC287C2A5D2A59068
:10686000002DE0B4FF081270C890002AEFF0D28724
:106870007F0212740C7580FFC2A4D2A47580FFC27F
:10688000A5D2A512740C90002AE0FF701DC227C289
:1068900026C225C22DC228C229C22AC22BC22CC29E
:0D68A00024C22E201704D20ED20D02002EAD
:106BF400E0FD7F01126C27900017E0FD7F01126C0D
:106C0400277D2E7F01126C27900016E0FD7F011274
:106C14006C27900015E0FD7F01126C27900014E0B2
:036C2400FD7F01F0
:106C2700AB05AA07302302C2AB7580FFC2A0D2B65C
:106C3700C2B77F01126E79D2B7EAB40102D2A0AF10
:106C4700038F80C2B67F01126E79C2B7302302D29A
:026C5700AB226E
:106B89007DC0E4FF126C277D307F01126C277D2EBA
:106B99007F01126C277D307F01126C277D307F01C8
:106BA900126C277D307F01126C277D307F01126CBA
:076BB900277BFF7A5A7942A5
:0B6BC00090004FEBF0A3EAF0A3E9F017
:106BCB00E4A3F090004FE0FBA3E0FAA3E0F9A3E00D
:106BDB00F582758300124C9FFD600D7F01126C27AF
:086BEB00900052E004F080DB91
:016BF300227F
:08724E0012741E7F0A126E7912
:1072560090000474FFF012738BC2937F081273962A
:0E726600C2927F08127396C2D77F08027396F9
:10741E00C29312738DD2937F08127396E490000478
:02742E00F0224A
:106CA900E4FD8F26FCA2379293E52625E0F5267FA1
:106CB90008127396D2927F04127396C2927F0812B9
:106CC90073960CECB408DE7F0812739612738BA2CC
:106CD9009330D7027D017F08127396C2927F081202
:046CE9007396AF05EA
:016CED002284
:1070FA00E4F526D2937F08127396E4FDE52625E08F
:10710A00F526127392D2937F08127396A293923045
:0E711A00C2927F081273960DEDB408E0AF2606
:017128002244
:057441001270FAAB0718
:0A74460012738BC2927F0802739646
:07745000C2983098FDAF99CE
:017457002212
:0A000E00C2998F993099FDC2992222
:10717F00E4FB1272567F40126CA9AA07EA7006FB55
:10718F0012741E801212724E7F70126CA9AA07EA37
:09719F0070E07B0112741EAF03C5
:0171A80022C4
:0F6D7100127274900024EFF054E3F04418FFF016
:026D8000AB075F
:106D82001272567F40126CA9AA07EAB40105127466
:106D92001E800EAF03126CA9AA07EAB40103127493
:086DA2001EEA70DC900004F011
:016DAA0022C6
:0F6DAB00127293900024EFF054E3F04418FFF0BD
:026DBA00AB0725
:106DBC001272567F70126CA9AA07EAB401051274FC
:106DCC001E800EAF03126CA9AA07EAB40103127459
:086DDC001EEA70DC900004F0D7
:016DE400228C
:107274001272567F41126CA9AC07ECB4010512746A
:0E7284001E8003127441EC70E712741EAF03FB
:0172920022D9
:107293001272567F71126CA9AC07ECB4010512741B
:0E72A3001E8003127441EC70E712741EAF03DC
:0172B10022BA
:0D6E92007580FFC2A5D2A59000007401F02C
:106E9F00E4FB1272567F44126CA9AA07EA7006FB34
:106EAF0012741E801212724E7F74126CA9AA07EA16
:096EBF0070E07B0112741EAF03A8
:016EC80022A7
:02712900AB07B2
:10712B001272567F44126CA9AA07EAB401051274B5
:10713B001E800EAF03126CA9AA07EAB401031274E6
:08714B001EEA70DC900004F064
:017153002219
:02715400AB0787
:107156001272567F74126CA9AA07EAB4010512745A
:107166001E800EAF03126CA9AA07EAB401031274BB
:087176001EEA70DC900004F039
:01717E0022EE
:1072B2001272567F45126CA9AC07ECB40105127428
:0E72C2001E8003127441EC70E712741EAF03BD
:0172D000229B
:1072D1001272567F75126CA9AC07ECB401051274D9
:0E72E1001E8003127441EC70E712741EAF039E
:0172EF00227C
:1071A900E4FB1272567F46126CA9AA07EA7006FB25
:1071B90012741E801212724E7F76126CA9AA07EA07
:0971C90070E07B0112741EAF039B
:0171D200229A
:0F6DE5001272F0900024EFF054E3F0441CFFF022
:026DF400AB07EB
:106DF6001272567F46126CA9AA07EAB401051274EC
:106E06001E800EAF03126CA9AA07EAB4010312741E
:086E16001EEA70DC900004F09C
:016E1E002251
:0F6E1F0012730F900024EFF054E3F0441CFFF0C7
:026E2E00AB07B0
:106E30001272567F76126CA9AA07EAB40105127481
:106E40001E800EAF03126CA9AA07EAB401031274E4
:086E50001EEA70DC900004F062
:016E58002217
:1072F0001272567F47126CA9AC07ECB401051274E8
:0E7300001E8003127441EC70E712741EAF037E
:01730E00225C
:10730F001272567F77126CA9AC07ECB40105127498
:0E731F001E8003127441EC70E712741EAF035F
:01732D00223D
:1071D300E4FB1272567F48126CA9AA07EA7006FBF9
:1071E30012741E801212724E7F78126CA9AA07EADB
:0971F30070E07B0112741EAF0371
:0171FC002270
:0C6EC90012732E900024EFF04480FFF0C4
:026ED500AB0709
:106ED7001272567F48126CA9AA07EAB40105127408
:106EE7001E800EAF03126CA9AA07EAB4010312743D
:086EF7001EEA70DC900004F0BB
:016EFF002270
:0C6F000012734D900024EFF04480FFF06D
:026F0C00AB07D1
:106F0E001272567F78126CA9AA07EAB401051274A0
:106F1E001E800EAF03126CA9AA07EAB40103127405
:086F2E001EEA70DC900004F083
:016F36002238
:10732E001272567F49126CA9AC07ECB401051274A7
:0E733E001E8003127441EC70E712741EAF0340
:01734C00221E
:10734D001272567F79126CA9AC07ECB40105127458
:0E735D001E8003127441EC70E712741EAF0321
:01736B0022FF
:106C59007DC0E4FF126C277BFF7A58793C90003C99
:086C6900EBF0A3EAF0A3E9F04F
:106C710090003FEBF0A3EAF0A3E9F0E490002AF0E2
:106C810090003FE0FBA3E0FAA3E0F990002AE0F5D1
:106C910082758300124C9FFD600D7F01126C27905D
:086CA100002AE004F080D92272
:10722700E4F58DF58BC299C298C2ABC2A9758915D1
:1072370075CDB175CCE075CBB175CAE0F58CF58A23
:0772470090001CF0A3F022EF
:10743000759850758925758DE6758BE6C299C29849
:017440002229
:030003000273F98C
:1073F900C0E0C083C08290000374FFF0D082D083C4
:03740900D0E0329E
:1068AD00C28EC2AB127430D28E7BFF7A5A796412CB
:1068BD006F377BFF7A5A7976126F377BFF7A5A7969
:1068CD008B126F377BFF7A5A79A1126F377BFF7A64
:1068DD005A79B6126F377BFF7A5A79CC126F377BA4
:1068ED00FF7A5A79E3126F377BFF7A5A79F8126F74
:1068FD00377BFF7A5B790E126F377BFF7A5B7924DA
:10690D00126F377BFF7A5B793B126F37127450C26F
:10691D008EE490002DF0EFB4300890002A7441F011
:10692D008076EFB4310890002A7442F0806AEFB49B
:10693D00320890002A7443F0805EEFB43308900063
:10694D002A7444F08052EFB4340890002A7445F054
:10695D008046EFB4350890002A7446F0803AEFB4C3
:10696D00360890002A7453F0802EEFB4370890004B
:10697D002A7454F08022EFB4380890002A7447F03E
:10698D008016EFB4390890002A7448F0800AEFB4ED
:10699D00410690002A7449F0758915C28F758D3F97
:0F69AD00758BFFC2239000057450F0D28ED2ABD1
:0169BC0022B8
:0B6F3700900043EBF0A3EAF0A3E9F0A8
:106F4200E4FE900043E0FBA3E0FAA3E0F98E827531
:106F52008300124C9FFF600612000E0E80E47F0D2C
:086F620012000E7F0A02000E6E
:0573C500C28CE4F5C8D4
:1073CA00900043E58CF0A3E58AF0900043E0B58C89
:0673DA00EFE0FEA3E0FF5E
:0173E000228A
:1069BD001249CD900043124E03900043E0FCA3E03A
:1069CD00FDA3E0FEA3E0FF124C1E900047124E0304
:1069DD00900043E0FCA3E0FDA3E0FEA3E0FF124C1A
:1069ED001E90002EEEF0A3EFF0900047E0FCA3E028
:0D69FD00FDA3E0FEA3E0FF7B017A0079110D
:106A0A0090004F124E03900053EBF0A3EAF0A3E973
:016A1A00F08B
:106A1B00E4A3F0A3F0900056F0A3F0E47B0AFAF99C
:106A2B00F890004FE0FCA3E0FDA3E0FEA3E0FF1213
:106A3B004D3CEB2430FF900053E0FBA3E0FAA3E0C6
:106A4B00F9A3E0FCA3E0F5828C83EF124CCC900011
:106A5B004FE0FCA3E0FDA3E0FEA3E0FFE47B0AFA1A
:106A6B00F9F8124D3C90004F124E03900057E00482
:106A7B00F07006900056E004F0900056E07004A30E
:056A8B00E064087096B4
:016A900022E3
:03000B000273E19C
:1073E10030210775C804C221800575C800D22175F6
:0873F1008CFF758AFFC28C328B
:03001B00026B1D58
:106B1D00C0E0C0F0C083C082C0D075D000C000C03E
:106B2D0001C002C003C004C005C006C007C28EC2AA
:106B3D008F7B017A007908126675758D3F758BFF15
:106B4D00900005E014F0E070087450F0900029E416
:106B5D00F0D28E900010E004F0700690000FE0046B
:106B6D00F0D007D006D005D004D003D002D001D08C
:0C6B7D0000D0D0D082D083D0F0D0E03225
:03002B000273A8B5
:1073A800C0E0C083C08290001DE004F07006900029
:0D73B8001CE004F0C2CFD082D083D0E032C0
:10431400900043124E0F00000000E4F5C8C28C75F3
:104324008CFF758AFFD2A990001CF0A3F075CDB163
:1043340075CCE075CBB175CAE0D221D22020121120
:104344007D80FF126C277BFF7A5879DD126BC08069
:104354005D2018197D80E4FF126C277BFF7A587961
:1043640019126BC07D3A7F01126C27804120191904
:104374007D80E4FF126C277BFF7A587922126BC090
:104384007D3A7F01126C2780252017127D80E4FF7F
:10439400126C277BFF7A5B797E126BC080107D8064
:1043A400E4FF126C277BFF7A5B7953126BC0E490B5
:1043B400000FF0A3F0208FFDD28C30211DD390008C
:1043C4001DE0940490001CE09410500E900010E046
:1043D40094B890000FE0940B40E09000057450F006
:1043E40090002974FFF0C28CF58CF58AC221D28C1E
:1043F400E490000FF0A3F020211DD390001DE09461
:104404000490001CE09410500E900010E094B890BA
:10441400000FE0940B40E0C28CE4F5C890000574F2
:1044240050F090002974FFF0D221C390001DE09455
:10443400D290001CE0940F4003024832C390001055
:10444400E0945490000FE0940B400302483212723F
:104454001090002EEEF0A3EFF090001CE0FEA3E01D
:10446400FF7C007D0A124CEEAC06AD07E4124BE56E
:10447400900043124E03900043E0F8A3E0F9A3E058
:10448400FAA3E0FBC000C001C002C00390002EE00C
:10449400FEA3E0FFE4EF2420FFEE344EFEE434FFFD
:1044A400FDE434FFFCE47BD07A07F9F8126CEEECFF
:1044B400124BE0D003D002D001D0001248DC9000AF
:1044C40043124E03900043E0F8A3E0F9A3E0FAA3FB
:1044D400E0FBE4FFFE7D807C3F124AD6900043124D
:1044E4004E03900043E0FCA3E0FDA3E0FEA3E0FF45
:1044F4007B007A40791C78461249CD900043124ED5
:1045040003E4FFFE7D207C41900043E0F8A3E0F942
:10451400A3E0FAA3E0FB124B735003024620900081
:1045240043E0FCA3E0FDA3E0FEA3E0FFE4FBFA7993
:104534007A78441269BD7DC0E4FF126C279000159F
:10454400126C237D2E126C1B900013126C239000AE
:1045540012126C23900011126C237BFF7A57798C12
:10456400126BC07D2C7F01126C272014097BFF7A0B
:104574005779F1126BC02015097BFF7A5779F8122D
:104584006BC02016097BFF7A587900126BC090002B
:1045940011E0540FF0A3E0540FF0A3E0540FF0A384
:1045A400E0540FF0A3E0540FF0E490001FF09000EB
:1045B40001F0900011E0900001F0301050E0905BA9
:1045C400979390000CF0900012E0900001F0E090BE
:1045D4005B979390000BF0900013E0900001F0E0E3
:1045E400905B979390000AF0900014E0900001F023
:1045F400E0905B9793900009F0900015E090000123
:10460400F0E0905B9793900008F0547FF030120331
:10461400024876D20CD20DC20E024876E4FFFE7D2B
:10462400807C3F900043E0F8A3E0F9A3E0FAA3E024
:10463400FB124B734003024738900043E0FCA3E0B5
:10464400FDA3E0FEA3E0FF7B007A5079C378471214
:1046540069BD7DC0E4FF126C137D2E7F01126C27AF
:10466400900013126C23900012126C23900011120C
:104674006C237BFF7A5B795F126BC07D2C7F011208
:104684006C272014097BFF7A5779F1126BC020152F
:10469400097BFF7A5779F8126BC02016097BFF7AE1
:1046A400587900126BC0900011E0540FF0A3E0544D
:1046B4000FF0A3E0540FF0A3E0540FF0A3E0540F65
:1046C400F0E490001FF0900001F0900011E09000E1
:1046D40001F0301050E0905B979390000CF0900044
:1046E40012E0900001F0E0905B979390000BF09043
:1046F4000013E0900001F0E0905B979390000AF0C3
:10470400900014E0900001F0E0905B979390000912
:10471400F0547FF0900015E0900001F0E0905B977A
:1047240093900008F0301203024876D20CD20DC2E6
:104734000E024876201206C20CD20DC20E9000431F
:10474400E0FCA3E0FDA3E0FEA3E0FF7B007A407958
:104754001C78461269BD7DC0E4FF126C13900013EF
:10476400126C237D2E7F01126C27900012126C2391
:10477400900011126C237BFF7A5B795F126BC07D12
:104784002C7F01126C272014097BFF7A5779F112D0
:104794006BC02015097BFF7A5779F8126BC020167D
:1047A400097BFF7A587900126BC0900011E0540F16
:1047B400F0A3E0540FF0A3E0540FF0A3E0540FF083
:1047C400A3E0540FF0E490001FF0900001F090007B
:1047D40011E0900001F0201003024876E0905B970E
:1047E4009390000CF0900012E0900001F0E0905BD8
:1047F400979390000BF0900013E0900001F0E0908C
:104804005B979390000AF0547FF0900014E09000BE
:1048140001F0E0905B9793900009F0900015E09010
:104824000001F0E0905B9793900008F080447DC015
:10483400E4FF126C277D307F01126C277D307F01ED
:10484400126C277D307F01126C277D2E126BA7908E
:10485400000C74C0F090000BF090000A7440F090CB
:10486400000974C0F0900008F0201206C20CD20DAA
:10487400C20EE4F58CF58A90001CF0A3F075CDB15E
:1048840075CCE075CBB175CAE0C2A990000574502F
:10489400F090002974FFF0E490000FF0A3F03012C0
:1048A400047F0180027F003010047E0180027E00BC
:1048B400EE5F601C12717F900025EFF07003126DA3
:1048C40071900025E0B40103126DAB7F05126E797F
:0148D40022C1
:1071FD00C28CE4F5C89000057450F090002974FF1E
:03720D00F0D2219B
:1072100090004BE5CDF0A3E5CCF090004BE0B5CD70
:06722000EFE0FEA3E0FF19
:017226002245
:105FBA00900043124E0F00000000900030124E0F66
:105FCA0000000000E4F5C8C28C758CFF758AFFD208
:105FDA00A990001CF0A3F075CDB175CCE075CBB1DA
:105FEA0075CAE0D221D2202012117D80FF126C27BF
:105FFA007BFF7A5879DD126BC0805D2018197D808D
:10600A00E4FF126C277BFF7A587919126BC07D3A2C
:10601A007F01126C2780412019197D80E4FF126CE0
:10602A00277BFF7A587922126BC07D3A7F01126C66
:10603A002780252017127D80E4FF126C277BFF7AC8
:10604A005B797E126BC080107D80E4FF126C277B27
:10605A00FF7A5B7953126BC0208FFDD28CE49000DB
:10606A0020F0302116D390001DE0946490001CE0CB
:10607A0094005007900029E0F460E79000057450FE
:10608A00F090002974FFF0C28CF58CF58AC221D2F7
:10609A008C202116D390001DE0946490001CE0949B
:1060AA00005007900029E0F460E71271FD90002E7D
:1060BA00EEF0A3EFF090001CE0FEA3E0FF7C007D71
:1060CA000A124CEEAC06AD07E4124BE590004312FF
:1060DA004E03900043E0F8A3E0F9A3E0FAA3E0FB43
:1060EA00C000C001C002C00390002EE0FEA3E0FF82
:1060FA00E4EF2420FFEE344EFEE434FFFDE434FFE7
:10610A00FCE47BD07A07F9F8126CEEEC124BE0D083
:10611A0003D002D001D0001248DC900043124E0393
:10612A00900030E0FCA3E0FDA3E0FEA3E0FF9000B6
:10613A0043E0F8A3E0F9A3E0FAA3E0FB1248DC90FD
:10614A000030124E03E490001CF0A3F075CDB17537
:10615A00CCE075CBB175CAE0758CFF758AFFD28C1D
:10616A00900020E004F0E0D39404500302606CE451
:10617A00F5C8C28C9000057450F090002974FFF0A5
:10618A00C390001DE094F490001CE09401400302C7
:10619A006314E4FBFA79A07840900030E0FCA3E0B5
:1061AA00FDA3E0FEA3E0FF124AD6900043124E037D
:1061BA00900043E0F8A3E0F9A3E0FAA3E0FBE4FFD0
:1061CA00FE7D807C3F124AD6900043124E03900017
:1061DA0043E0FCA3E0FDA3E0FEA3E0FF7B007A40DE
:1061EA00791C78461249CD900043124E0390004321
:1061FA00E0FCA3E0FDA3E0FEA3E0FFE4FBFA797A6A
:10620A0078441249CD900043124E03900043E0FCBB
:10621A00A3E0FDA3E0FEA3E0FF124C1E126A047D78
:10622A00C0E4FF126C27900015126C237D2E126CAD
:10623A001B900013126C23900012126C2390001111
:10624A00126C237BFF7A57798C126BC07D2C7F01ED
:10625A00126C272014097BFF7A5779F1126BC02040
:10626A0015097BFF7A5779F8126BC02016097BFF54
:10627A007A587900126BC0900011E0540FF0A3E035
:10628A00540FF0A3E0540FF0A3E0540FF0A3E0542E
:10629A000FF0E490001FF0900001F0900011E090E0
:1062AA000001F0547FF0301050E0905B979390001B
:1062BA000CF0900012E0900001F0E0905B97939050
:1062CA00000BF0900013E0900001F0E0905B9793D0
:1062DA0090000AF0900014E0900001F0E0905B97C3
:1062EA0093900009F0900015E0900001F0E0905BB7
:1062FA009793900008F0547FF0E4900020F090000B
:10630A0030124E0F00000000801B126B8990000CA7
:10631A0074C0F090000BF090000AF0900009F09021
:10632A0000087440F03012047F0180027F003010B0
:10633A00047E0180027E00EE5F601C12717F900075
:10634A0025EFF07003126D71900025E0B40103127D
:10635A006DAB7F05126E79E4F58CF58AC28D9000DB
:10636A001CF0A3F075CDB175CCE075CBB175CAE060
:08637A00C2A990002974FFF094
:0163820022F8
:105BAC00900043124E0F00000000900030124E0F78
:105BBC0000000000E4F5C8C28C758CFF758AFFD21A
:105BCC00A990001CF0A3F075CDD875CCF075CBD88E
:105BDC0075CAF0D221D2202012117D80FF126C27C1
:105BEC007BFF7A5879DD126BC0805D2018197D809F
:105BFC00E4FF126C277BFF7A587919126BC07D3A3F
:105C0C007F01126C2780412019197D80E4FF126CF2
:105C1C00277BFF7A587922126BC07D3A7F01126C78
:105C2C002780252017127D80E4FF126C277BFF7ADA
:105C3C005B797E126BC080107D80E4FF126C277B39
:105C4C00FF7A5B7953126BC0301031900027E070F3
:105C5C002B12717F900025EFF0700D127274900072
:105C6C0024EFF0547F126D78900025E0B4010D12F2
:105C7C007293900024EFF0547F126DB2308FFD20A0
:105C8C008FFDD28CE4900020F0302107900029E0A9
:105C9C00F460F69000057450F090002974FFF0C287
:105CAC0021D28C202107900029E0F460F6C28C9060
:105CBC0000057450F090002974FFF0D221E4F5C86F
:105CCC0012721090002EEEF0A3EFF090001CE0FE8C
:105CDC00A3E0FF7C007D05124CEEAC06AD07E41290
:105CEC004BE5900043124E03900043E0FCA3E0FD13
:105CFC00A3E0FEA3E0FFE4FBFA797A78441249CDE5
:105D0C00900043124E03900043E0F8A3E0F9A3E0A7
:105D1C00FAA3E0FBC000C001C002C00390002EE05B
:105D2C00FEA3E0FFE4EF2410FFEE3427FEE434FF83
:105D3C00FDE434FFFCE47B02FAF9F8126CEEEC1291
:105D4C004BE0D003D002D001D0001248DC900043CD
:105D5C00124E03900030E0FCA3E0FDA3E0FEA3E0B4
:105D6C00FF900043E0F8A3E0F9A3E0FAA3E0FB12F4
:105D7C0048DC900030124E03E490001CF0A3F07548
:105D8C00CDD875CCF075CBD875CAF0758CFF758AEB
:105D9C00FFD28C900020E004F0E0D3940450030276
:105DAC005C95E4F5C8C28C9000057450F090002905
:105DBC0074FFF0C390001DE094F490001CE094017B
:105DCC004003025F64E4FBFA79A07840900030E075
:105DDC00FCA3E0FDA3E0FEA3E0FF124AD690004333
:105DEC00124E03900043E0F8A3E0F9A3E0FAA3E01D
:105DFC00FBE4FFFE7D807C3F124AD6900043124E9E
:105E0C0003900043E0FCA3E0FDA3E0FEA3E0FF7BD6
:105E1C00007A40791C78461249CD900043124E030B
:105E2C00900043E0FCA3E0FDA3E0FEA3E0FF7B00B9
:105E3C007A40791C78461249CD900043124E03905B
:105E4C000043E0FCA3E0FDA3E0FEA3E0FFE4FBFACB
:105E5C00792078411249CD900043124E03900043B3
:105E6C00E0FCA3E0FDA3E0FEA3E0FF124C1E126ACF
:105E7C00047DC0E4FF126C137D2E7F01126C279001
:105E8C000013126C23900012126C23900011126CF0
:105E9C00237BFF7A57798C126BC07D2C7F01126C9F
:105EAC00272014097BFF7A5779F1126BC020150952
:105EBC007BFF7A5779F8126BC02016097BFF7A5852
:105ECC007900126BC0900011E0540FF0A3E0540F56
:105EDC00F0A3E0540FF0A3E0540FF0A3E0540FF044
:105EEC00E490001FF0900001F0900011E090000190
:105EFC00F0547FF0301050E0905B979390000CF0D2
:105F0C00900012E0900001F0E0905B979390000BF2
:105F1C00F0900013E0900001F0E0905B97939000FC
:105F2C000AF0900014E0900001F0E0905B979390E1
:105F3C000009F0547FF0900015E0900001F0E09023
:105F4C005B9793900008F0E4900020F090003012E2
:105F5C004E0F0000000080347DC0E4FF126C277DE2
:105F6C00307F01126C277D307F01126C277D2E1241
:105F7C006BA090000C74C0F090000BF090000AF035
:105F8C009000097440F090000874C0F0E4F58CF5B2
:105F9C008AC28D90001CF0A3F075CDB175CCE07564
:0D5FAC00CBB175CAE0C2A990002974FFF0C6
:015FB90022C5
:1036E500900043124E0F00000000900030124E0F64
:1036F50000000000E4F5C8C28C758CFF758AFFD206
:10370500A990001CF0A3F075CDD875CCF075CBD879
:1037150075CAF0D221D2202012127D80FF126C27AB
:103725007BFF7A5879DD126BC002381220181A7D9A
:1037350080E4FF126C277BFF7A587919126BC07DE4
:103745003A7F01126C2702381220191A7D80E4FF96
:10375500126C277BFF7A587922126BC07D3A7F0164
:10376500126C270238122017137D80E4FF126C2794
:103775007BFF7A5B797E126BC00238122010487D80
:1037850080E4FF126C277BFF7A5879AF126BC0205B
:10379500080E20090B7BFF7A5B7969126BC0806D7F
:1037A50020080B7BFF7A5B7963126BC0805F200971
:1037B5000B7BFF7A5B7963126BC0805130084E300A
:1037C500094B126BBA80467D80E4FF126C277BFFA4
:1037D5007A5B7953126BC020080E20090B7BFF7AA8
:1037E5005B7969126BC0802520080B7BFF7A5B79BA
:1037F50063126BC0801720090B7BFF7A5B7963121C
:103805006BC08009300806300903126BBA201223F9
:1038150012717F900025EFF070057FF7126D809093
:103825000025E0B401057FF7126DBA7F05126E79A8
:103835000238BC301044900027E0703E12717F9032
:103845000025EFF07015127274900024EFF0547F8C
:10385500F054E3F04414FFF0126D80900025E0640D
:10386500017054127293900024EFF0547FF054E3EA
:10387500F04414FFF0126DBA803D30103A12717F9A
:10388500900025EFF07012127274900024EFF0543E
:10389500E3F04414FFF0126D80900025E0B40112AE
:1038A500127293900024EFF054E3F04414FFF012E9
:1038B5006DBA7F05126E79208FFDE4900020F0E44B
:1038C50090001CF0A3F0D28C30210FD390001DE0A6
:1038D500946490001CE0940040EEC221D28C20211B
:1038E5000FD390001DE0946490001CE0940040EE1E
:1038F5001271FD90002EEEF0A3EFF07F01126E79AC
:1039050090001CE0FEA3E0FF7C007D05124CEEACB0
:1039150006AD07E4124BE5900043124E037F0112FA
:103925006E79900043E0FCA3E0FDA3E0FEA3E0FF79
:10393500E4FBFA797A78441249CD900043124E039C
:103945007F01126E79900043E0F8A3E0F9A3E0FA55
:10395500A3E0FBC000C001C002C00390002EE0FE42
:10396500A3E0FFE4EF2410FFEE3427FEE434FFFD6F
:10397500E434FFFCE47B02FAF9F8126CEEEC124B2E
:10398500E0D003D002D001D0001248DC90004312F1
:103995004E037F01126E79900030E0FCA3E0FDA399
:1039A500E0FEA3E0FF900043E0F8A3E0F9A3E0FA0E
:1039B500A3E0FB1248DC900030124E037F05126E27
:1039C5007975CDD875CCF075CBD875CAF0758CFFE7
:1039D500758AFF900020E004F0E0D39403500302C1
:1039E50038C4C28CC390001DE0942090001CE09464
:1039F500034003023C0AE4FBFA79807840900030EA
:103A0500E0FCA3E0FDA3E0FEA3E0FF124AD6900090
:103A150043124E037F05126E79201077900043E024
:103A2500F8A3E0F9A3E0FAA3E0FBE4FFFE7D807CC8
:103A35003F124AD6900043126E74900043E0FCA3F7
:103A4500E0FDA3E0FEA3E0FFE4FBFAF978401249AC
:103A5500CD900043124E037F05126E7990004312FC
:103A650063837D2C7F01126C272014097BFF7A5715
:103A750079F1126BC02015097BFF7A5779F8126B23
:103A8500C0301603023C457BFF7A587900126BC0A3
:103A9500023C45900043E0F8A3E0F9A3E0FAA3E077
:103AA500FBE4FFFE7D807C3F124AD6900043124E18
:103AB50003900043E0FCA3E0FDA3E0FEA3E0FFE4E8
:103AC500FBFA798078411249CD900043124E03905C
:103AD5000043E0FCA3E0FDA3E0FEA3E0FF7B007A4A
:103AE50040791C78461249CD900043124E03900050
:103AF50043E0FCA3E0FDA3E0FEA3E0FF7B007A40EA
:103B0500791C78461249CD900043124E039000432C
:103B1500E0FCA3E0FDA3E0FEA3E0FF124C1E126A49
:103B2500047DC0E4FF126C13900013126C237D2EEC
:103B35007F01126C27900012126C23900011126CF9
:103B4500237BFF7A57798C126BC07D2C7F01126C19
:103B5500272014097BFF7A5779F1126BC0201509CC
:103B65007BFF7A5779F8126BC02016097BFF7A58CC
:103B75007900126BC0900011E0540FF0A3E0540FD0
:103B8500F0A3E0540FF0A3E0540FF0A3E0540FF0BE
:103B9500E490001FF0900001F0900011E09000010A
:103BA500F0301050E0905B979390000CF09000126D
:103BB500E0900001F0E0905B979390000BF090008F
:103BC50013E0900001F0E0905B979390000AF054A9
:103BD5007FF0900014E0900001F0E0905B979390E7
:103BE5000009F0900015E0900001F0E0905B9793DC
:103BF500900008F0E4900020F0900030124E0F0085
:103C0500000000803B7DC0E4FF126C277D307F0102
:103C1500126C277D307F01126C277D307F01126C7D
:103C2500277D2E126BA790000C74C0F090000BF04E
:103C350090000A7440F090000974C0F0900008F0FC
:103C4500E4F58CF58AC28D90001CF0A3F075CDB11A
:103C550075CCE075CBB175CAE0C2A990002974FF97
:103C6500F020124612717F900025EFF07018127245
:103C750074900024EFF054E3F04418F054FCF04441
:103C850003FFF0126D80900025E0B40118127293C5
:103C9500900024EFF054E3F04418F054FCF0440392
:103CA500FFF0126DBA7F05026E79900027E0702C47
:103CB50012717F900025EFF0700D12727490002440
:103CC500EFF0547F126D78900025E06401702C129E
:103CD5007293900024EFF0547F026DB230101C12E5
:103CE500717F900025EFF07003126D71900025E053
:0B3CF500B40103126DAB7F05126E7965
:013D000022A0
:1030BA00900043124E0F00000000900030124E0F95
:1030CA0000000000E4F5C8C28C758CFF758AFFD237
:1030DA00A990001CF0A3F0F5CDF5CCF5CBF5CAF517
:1030EA00C8D221D2202012127D80FF126C277BFFCA
:1030FA007A5879DD126BC00231E520181A7D80E416
:10310A00FF126C277BFF7A587919126BC07D3A7FC0
:10311A0001126C270231E520191A7D80E4FF126C36
:10312A00277BFF7A587922126BC07D3A7F01126C95
:10313A00270231E52017137D80E4FF126C277BFFFD
:10314A007A5B797E126BC00231E52010487D80E4FB
:10315A00FF126C277BFF7A5879AF126BC020080EDA
:10316A0020090B7BFF7A5B7969126BC0806D20089E
:10317A000B7BFF7A5B7963126BC0805F20090B7B44
:10318A00FF7A5B7963126BC0805130084E30094B6D
:10319A00126BBA80467D80E4FF126C277BFF7A5B54
:1031AA007953126BC020080E20090B7BFF7A5B79DA
:1031BA0069126BC0802520080B7BFF7A5B7963124A
:1031CA006BC0801720090B7BFF7A5B7963126BC097
:1031DA008009300806300903126BBA7D94E4FF12A5
:1031EA006C277BFF7A597954126BC03010319000EA
:1031FA0027E0702B12717F900025EFF0700D12728C
:10320A0074900024EFF0547F126D78900025E0B49A
:10321A00010D127293900024EFF0547F126DB230B8
:10322A008FFD208FFDD28CE4900020F0302116D340
:10323A0090001DE0943290001CE09400500790002A
:10324A0029E0F460E79000057450F090002974FFBB
:10325A00F0C221D28C202116D390001DE094329026
:10326A00001CE094005007900029E0F460E7C28C4B
:10327A00E4F5C89000057450F090002974FFF0D26C
:10328A00217F0A126E79900003E5CDF0126E7990D3
:10329A000023E5CCF07F01126E79900003E0F5CDB2
:1032AA00126E79900023E0F5CC126E7912721090AA
:1032BA00002EEEF0A3EFF07F01126E7990002EE05F
:1032CA00FCA3E0FDE4124BE5900043124E037F019C
:1032DA00126E79900043E0FCA3E0FDA3E0FEA3E0B8
:1032EA00FFE4FBFAF97840124AD6900043124E03E3
:1032FA007F01126E79900030E0FCA3E0FDA3E0FEAE
:10330A00A3E0FF900043E0F8A3E0F9A3E0FAA3E00A
:10331A00FB1248DC900030124E037F01126E79E4F2
:10332A0090001CF0A3F0F5CDF5CCF5CBF5CAC28C14
:10333A00758CFF758AFFD28C900020E004F0E0D3F0
:10334A0094035003023236C28CE4F5C89000057427
:10335A0050F090002974FFF0308FFD208FFDC3904C
:10336A00001DE094F490001CE09401400302361A18
:10337A00E4FBFA79807840900030E0FCA3E0FDA3FA
:10338A00E0FEA3E0FF126E6E201054126E599000F8
:10339A0043E0FCA3E0FDA3E0FEA3E0FFE4FBFAF9AF
:1033AA0078401249CD126E719000431263837D2CCE
:1033BA007F01126C272014097BFF7A5779F1126B6F
:1033CA00C02015097BFF7A5779F8126BC0301603B3
:1033DA000236357BFF7A587900126BC0023635E423
:1033EA00FFFE7DBE7C42900043E0F8A3E0F9A3E033
:1033FA00FAA3E0FB124B73600250030236357F02D8
:10340A00126E79126E59900043E0FCA3E0FDA3E02E
:10341A00FEA3E0FF7B007A40791C78461249CD1260
:10342A006E71900043E0FCA3E0FDA3E0FEA3E0FF81
:10343A00E4FBFA797A78441249CD126E719000430E
:10344A00E0FCA3E0FDA3E0FEA3E0FF124C1E126A1B
:10345A0004900015E0D3943050030235417DC0E456
:10346A00FF126C27126C237D2E126C1B9000131214
:10347A006C23900012126C23900011126C237BFFB4
:10348A007A5779B3126BC07D2C7F01126C272014F6
:10349A00097BFF7A5779F1126BC02015097BFF7AF5
:1034AA005779F8126BC02016097BFF7A58790012F7
:1034BA006BC0900011E0540FF0A3E0540FF0A3E0AA
:1034CA00540FF0A3E0540FF0A3E0540FF0E490007F
:1034DA001FF0900001F0900011E0900001F0201020
:1034EA0003023635E0905B979390000CF09000123F
:1034FA00E0900001F0E0905B979390000BF0900051
:10350A0013E0900001F0E0905B979390000AF0902E
:10351A000014E0900001F0E0905B9793900009F0AE
:10352A00900015E0900001F0E0905B9793900008FE
:10353A00F0547FF00236357DC0E4FF126C2790000C
:10354A0016126C23900015126C237D2E126C1B90A0
:10355A000013126C23900012126C237BFF7A5779A6
:10356A00B3126BC07D2C7F01126C272014097BFFDC
:10357A007A5779F1126BC02015097BFF7A5779F8CF
:10358A00126BC02016097BFF7A587900126BC09023
:10359A000012E0540FF0A3E0540FF0A3E0540FF030
:1035AA00A3E0540FF0A3E0540FF0E490001FF09052
:1035BA000001F0900012E0900001F030106DE090F0
:1035CA005B979390000CF0900013E0900001F0E0FC
:1035DA00905B979390000BF0900014E0900001F03C
:1035EA00E0905B979390000AF0900015E09000013C
:1035FA00F0E0905B9793900009F0547FF0900016EA
:10360A00E0900001F0E0905B9793900008F0801B37
:10361A00126B8990000C74C0F090000BF090000AB5
:10362A00F0900009F09000087440F0E4F58CF58AF7
:10363A00C28D90001CF0A3F075CDB175CCE075CBAE
:10364A00B175CAE0C2A99000057450F090002974BF
:10365A00FFF0E4900020F0900030124E0F000000BE
:10366A0000E4F5C8C28C20121C12717F900025EF6D
:10367A00F070057FFB126D80900025E06401705A9E
:10368A007FFB026DBA301232900027E0702C127163
:10369A007F900025EFF0700D127274900024EFF005
:1036AA00547F126D78900025E06401702D12729398
:1036BA00900024EFF0547F026DB212717F900025C2
:1036CA00EFF070057FF9126D80900025E0B40105D6
:0A36DA007FF9126DBA7F05126E79B8
:0136E40022C3
:102A5C00900043124E0F00000000900030124E0FF9
:102A6C0000000000E4F5C8C28C758CFF758AFFD29B
:102A7C00A990001CF0A3F0F5CDF5CCF5CBF5CAD29E
:102A8C0021D2202012117D80FF126C277BFF7A58F7
:102A9C0079DD126BC0805D2018197D80E4FF126C0B
:102AAC00277BFF7A587919126BC07D3A7F01126C23
:102ABC002780412019197D80E4FF126C277BFF7A57
:102ACC00587922126BC07D3A7F01126C2780252029
:102ADC0017127D80E4FF126C277BFF7A5B797E12E4
:102AEC006BC080107D80E4FF126C277BFF7A5B79D2
:102AFC0053126BC020122212717F900025EFF070E0
:102B0C00057FF7126D80900025E0B401057FF71268
:102B1C006DBA7F05126E798077301244900027E0F1
:102B2C00703E12717F900025EFF070151272749048
:102B3C000024EFF0547FF054E3F04414FFF0126DD6
:102B4C0080900025E064017047127293900024EF8E
:102B5C00F0547FF054E3F04414FFF0126DBA80305F
:102B6C0012717F900025EFF0701412727490002493
:102B7C00EFF054E3F04414FFF0126D8080121272E7
:102B8C0093900024EFF054E3F04414FFF0126DBA6C
:102B9C00308FFD208FFDD28CE4900020F030210F7F
:102BAC00D390001DE0943290001CE0940040EE9015
:102BBC0000057450F090002974FFF0C221D28C20D3
:102BCC00210FD390001DE0943290001CE094004043
:102BDC00EEC28CD221E4F5C87F05126E7990000309
:102BEC00E5CDF0126E79E5CCF012721090002EEE5D
:102BFC00F0A3EFF0900047EEF0A3EFF0900047E069
:102C0C00C313FEA3E013FF900047EEF0A3EFF09088
:102C1C000043E0F8A3E0F9A3E0FAA3E0FBE4FCFD39
:102C2C00EB2FFFEA3EFEED39FDEC38FC9000431231
:102C3C004E03E490001CF0A3F0F5CDF5CCF5CBF5EC
:102C4C00CAC28C758CFF758AFFD28C900020E00470
:102C5C00F0E0D394045003022BA9E4F5C8C28C9085
:102C6C0000057450F090002974FFF0C390001DE033
:102C7C0094F490001CE094014003022FEC9000436C
:102C8C00E0FCA3E0FDA3E0FEA3E0FFE47B05FAF982
:102C9C00F8124D3C900043124E03E47F2AFEFDFCDB
:102CAC00900043E0F8A3E0F9A3E0FAA3E0FBC31221
:102CBC004DF24003022E5A900043E0FCA3E0FDA32A
:102CCC00E0FEA3E0FFE4124BE0900030124E0390C4
:102CDC000030E0F8A3E0F9A3E0FAA3E0FBE4FFFE88
:102CEC007D807C3F124AD6900030124E039000300B
:102CFC00E0FCA3E0FDA3E0FEA3E0FFE4FBFA798097
:102D0C0078411249CD900030124E03900030E0FC17
:102D1C00A3E0FDA3E0FEA3E0FF7B007A40791C78E2
:102D2C00461249CD900030124E03900030E0FCA3C7
:102D3C00E0FDA3E0FEA3E0FFE4FBFA797A7844120D
:102D4C0049CD900030124E03900030E0FCA3E0FD22
:102D5C00A3E0FEA3E0FF124C1E900043124E039022
:102D6C0000431269F9900014E0D394305003023000
:102D7C00077DC0E4FF126C27A3126C197D2E7F0116
:102D8C00126C27900013126C23900012126C23907B
:102D9C000011126C237BFF7A5779B3126BC07D2C18
:102DAC007F01126C272014097BFF7A5779F1126B83
:102DBC00C02015097BFF7A5779F8126BC0201609D1
:102DCC007BFF7A587900126BC0900011E0540FF021
:102DDC00A3E0540FF0A3E0540FF0A3E0540FF0A3C2
:102DEC00E0540FF0E490001FF0900011E09000010F
:102DFC00F0201003023007C2ABE0905B9793900079
:102E0C000CF0900012E0900001F0E0905B97939032
:102E1C00000BF0900013E0900001F0E0905B9793B2
:102E2C0090000AF0900014E0900001F0E0905B97A5
:102E3C0093900009F0547FF0900015E0900001F0A1
:102E4C00E0905B9793900008F0D2AB0230079000B3
:102E5C0043E0FCA3E0FDA3E0FEA3E0FFE4124BE0A3
:102E6C00900030124E03900030E0F8A3E0F9A3E09C
:102E7C00FAA3E0FBE4FFFE7D807C3F124AD6900073
:102E8C0030124E03900030E0FCA3E0FDA3E0FEA363
:102E9C00E0FFE4FBFA798078411249CD90003012C2
:102EAC004E03900030E0FCA3E0FDA3E0FEA3E0FFA6
:102EBC007B007A40791C78461249CD900030124E36
:102ECC0003900030E0FCA3E0FDA3E0FEA3E0FFE4F0
:102EDC00FBFA79C878421249CD900030124E03901B
:102EEC000030E0FCA3E0FDA3E0FEA3E0FF124C1ECB
:102EFC00900043124E039000431269F9900015E0C4
:102F0C00D3943050030230077DC0E4FF126C2712BB
:102F1C006C197D2E7F01126C27900013126C23907C
:102F2C000012126C23900011126C237BFF7A5779DC
:102F3C00B3126BC07D2C7F01126C272014097BFF10
:102F4C007A5779F1126BC02015097BFF7A5779F803
:102F5C00126BC02016097BFF7A587900126BC09057
:102F6C000011E0540FF0A3E0540FF0A3E0540FF065
:102F7C00A3E0540FF0A3E0540FF0E490001FF09086
:102F8C000011E0900001F0301071C2ABE0905B9743
:102F9C009390000CF0900012E0900001F0E0905B38
:102FAC00979390000BF0900013E0900001F0E090EC
:102FBC005B979390000AF0900014E0900001F0E011
:102FCC00905B9793900009F0547FF0900015E0907F
:102FDC000001F0E0905B9793900008F0D2AB801B5F
:102FEC00126B8990000C74C0F090000BF090000AEA
:102FFC00F0900009F09000087440F0E4F58CF58A2C
:10300C00C28D90001CF0A3F075CDB175CCE075CBE2
:10301C00B175CAE0C2A99000057450F090002974F3
:10302C00FFF0E4F5C8C28C20122312717F900025AA
:10303C00EFF070057FFB126D80900025E0B4010568
:10304C007FFB126DBA7F05126E790230AA301234F2
:10305C00900027E0702E12717F900025EFF0700D1C
:10306C00127274900024EFF0547F126D789000254A
:10307C00E064017029127293900024EFF0547F12D7
:10308C006DB2801A30101712717F900025EFF0701E
:10309C0005126D718003126DAB7F05126E79E49091
:0D30AC000020F0900030124E0F00000000D8
:0130B90022F4
:10532B00900043124E0F00000000E4900047F0A3E2
:10533B00F0900030124E0F00000000E4F5C8C28C54
:10534B00758CFF758AFF90001CF0A3F0F5CDF5CCA2
:10535B00F5CBF5CAD221D2202012117D80FF126C21
:10536B00277BFF7A5879DD126BC0805D2018197D81
:10537B0080E4FF126C277BFF7A587919126BC07D82
:10538B003A7F01126C2780412019197D80E4FF12AE
:10539B006C277BFF7A587922126BC07D3A7F011202
:1053AB006C2780252017127D80E4FF126C277BFF72
:1053BB007A5B797E126BC080107D80E4FF126C27C4
:1053CB007BFF7A5B7953126BC020122212717F9094
:1053DB000025EFF070057FF3126D80900025E0B48F
:1053EB0001057FF3126DBA7F05126E79807C301246
:1053FB0044900027E0703E12717F900025EFF07013
:10540B0015127274900024EFF0547FF054E3F044C3
:10541B0010FFF0126D80900025E06401704C127249
:10542B0093900024EFF0547FF054E3F04410FFF01E
:10543B00126DBA803512717F900025EFF070141247
:10544B007274900024EFF054E3F04410FFF0126DEF
:10545B00808012127293900024EFF054E3F044100A
:10546B00FFF0126DBA7F05126E79D2A9E49000207D
:10547B00F0208FFDD28C2021FD9000057450F09010
:10548B00002974FFF0C221F58CF58AD28C3021FDF6
:10549B00C28CD221E4F5C8308FFD208FFD7F051221
:1054AB006E79900003E5CDF0126E79E5CCF07F02BA
:1054BB00126E7912721090002EEEF0A3EFF07F02B5
:1054CB00126E7990002EE0FFA3E0900047CFF0A37F
:1054DB00EFF07F02126E79900047E0C313F0A3E068
:1054EB0013F0126E79900043E0F8A3E0F9A3E0FA11
:1054FB00A3E0FBA3E0FEA3E0FFE4FCFDEB2FFFEA40
:10550B003EFEED39FDEC38FC900043126E74E490D6
:10551B00001CF0A3F0F5CDF5CCF5CBF5CAC28C751C
:10552B008CFF758AFF900020E004F0E0D3940550C7
:10553B000302547CE4F5C8C28C9000057450F090C3
:10554B00002974FFF0C390001DE094F490001CE060
:10555B009401400302570C900043E0FCA3E0FDA331
:10556B00E0FEA3E0FFE47B06FAF9F8124D3C900055
:10557B0043126E74900043E0FCA3E0FDA3E0FEA396
:10558B00E0FFE4124BE0900030126E74900030E0BC
:10559B00F8A3E0F9A3E0FAA3E0FBE4FFFE7D807C37
:1055AB003F124AD6900030126E74900030E0FCA38C
:1055BB00E0FDA3E0FEA3E0FFE4FBFA798078431261
:1055CB0049CD900030126E74900030E0FCA3E0FDEA
:1055DB00A3E0FEA3E0FF7B007A40791C78461249DA
:1055EB00CD900030126E74900030E0FCA3E0FDA370
:1055FB00E0FEA3E0FFE4FBFA792078411249CD905D
:10560B000030126E74900030E0FCA3E0FDA3E0FECE
:10561B00A3E0FF124C1E900043126E7490004312D5
:10562B0069F9900015E0D39430500302570C7DC0FC
:10563B00E4FF126C27A3126C0F900013126C237DE6
:10564B002E7F01126C27900012126C239000111206
:10565B006C237BFF7A5779B3126BC07D2C7F0112C1
:10566B006C272014097BFF7A5779F1126BC0201538
:10567B00097BFF7A5779F8126BC02016097BFF7AEA
:10568B00587900126BC0900011E0540FF0A3E05456
:10569B000FF0A3E0540FF0A3E0540FF0A3E0540F6E
:1056AB00F0E490001FF0900011E0900001F030103A
:1056BB0050E0905B979390000CF0900012E09000FC
:1056CB0001F0E0905B979390000BF0900013E0904B
:1056DB000001F0E0905B979390000AF0547FF090FC
:1056EB000014E0900001F0E0905B9793900009F0BC
:1056FB00900015E0900001F0E0905B97939000080C
:10570B00F0E4F58CF58AC28D90001CF0A3F075CDFA
:10571B00B175CCE075CBB175CAE0C2A99000297404
:10572B00FFF0E4F5C8C28C30103012717F90002569
:10573B00EFF07014127274900024EFF054E3F04405
:10574B0010FFF0126D808012127293900024EFF014
:10575B0054E3F04410FFF0126DBA7F05126E79E43A
:0E576B00900020F0900030124E0F0000000061
:01577900220D
:103D0100900043124E0F00000000900030124E0F41
:103D110000000000E4F5C8C28C758CFF758AFFD2E3
:103D2100A990001CF0A3F0F5CDF5CCF5CBF5CAD2E6
:103D310021D2202012117D80FF126C277BFF7A583F
:103D410079DD126BC0805D2018197D80E4FF126C53
:103D5100277BFF7A587919126BC07D3A7F01126C6B
:103D61002780412019197D80E4FF126C277BFF7A9F
:103D7100587922126BC07D3A7F01126C2780252071
:103D810017127D80E4FF126C277BFF7A5B797E122C
:103D91006BC080107D80E4FF126C277BFF7A5B791A
:103DA10053126BC020122312717F900025EFF07027
:103DB100057FFF126D80900025E0B401057FFF12A1
:103DC1006DBA7F05126E79023E4C30124490002785
:103DD100E0703E12717F900025EFF0701512727441
:103DE100900024EFF0547FF054E3F04410FFF01200
:103DF1006D80900025E0640170511272939000244F
:103E0100EFF0547FF054E3F04410FFF0126DBA80EC
:103E11003A12717F900025EFF070121272749000C7
:103E210024EFF054E3F04410FFF0126D8090002570
:103E3100E0B40112127293900024EFF054E3F044C5
:103E410010FFF0126DBA7F05126E79D28CE49000EA
:103E510020F030210FD390001DE0943290001CE03F
:103E6100940040EE9000057450F090002974FFF02A
:103E7100C221D28C20210FD390001DE094329000FA
:103E81001CE0940040EEC28CD221E4F5C8127210FD
:103E910090002EEEF0A3EFF0FDAC06E4124BE5909E
:103EA1000043124E03900043E0FCA3E0FDA3E0FEBB
:103EB100A3E0FFE4FBFAF97840124AD690004312DE
:103EC1004E03900030E0FCA3E0FDA3E0FEA3E0FF81
:103ED100900043E0F8A3E0F9A3E0FAA3E0FB124865
:103EE100DC900030124E03E490001CF0A3F0F5CDFD
:103EF100F5CCF5CBF5CAC28C758CFF758AFFD28CD7
:103F0100900020E004F0E0D394045003023E53E417
:103F1100F5C8C28C9000057450F090002974FFF030
:103F2100C390001DE094F490001CE0940140030252
:103F310042FAE4FBFA79A07840900030E0FCA3E07B
:103F4100FDA3E0FEA3E0FF124AD6900043124E0308
:103F5100900043E0F8A3E0F9A3E0FAA3E0FBE4FF5B
:103F6100FE7D807C3F124AD6900043124E039000A2
:103F710043E0FCA3E0FDA3E0FEA3E0FFE4FBFA794C
:103F81008078431249CD900043124E03900043E0E4
:103F9100FCA3E0FDA3E0FEA3E0FF7B007A40791CD7
:103FA10078461249CD900043124E03900043E0FC45
:103FB100A3E0FDA3E0FEA3E0FFE4FBFA79C87842A9
:103FC1001249CD900043124E03900043E0FCA3E060
:103FD100FDA3E0FEA3E0FF124C1E900047124E032A
:103FE1007F407E427D0F7C00900047E0F8A3E0F91E
:103FF100A3E0FAA3E0FBC3124DF240030241159086
:1040010000471269F9900016E0D394315003024041
:10401100DE7DC0E4FF126C27126C0F7D2E7F011232
:104021006C27900013126C23900012126C237BFFFB
:104031007A5779B3126BC07D2C7F01126C27201443
:10404100097BFF7A5779F1126BC02015097BFF7A42
:104051005779F8126BC02016097BFF7A5879001244
:104061006BC0900012E0540FF0A3E0540FF0A3E0F6
:10407100540FF0A3E0540FF0A3E0540FF0E49000CC
:104081001FF0900012E0900001F0301050E0905BC2
:10409100979390000CF0900013E0900001F0E090F5
:1040A1005B979390000BF0900014E0900001F0E01A
:1040B100905B979390000AF0547FF0900015E09088
:1040C1000001F0E0905B9793900009F0900016E0FA
:1040D100900001F0E0905B9793900008F0E4F58C7C
:1040E100F58AC28D90001CF0A3F075CDB175CCE0BE
:1040F10075CBB175CAE0C2A990002974FFF0E4F54F
:10410100C8C28C900020F0900030124E0F000000C9
:10411100000242FA7F407E427D0F7C00900047E022
:10412100F8A3E0F9A3E0FAA3E0FBD3124DF25003A8
:104131000242FA9000471269F9900018E064316078
:10414100030242077DC0FF126C27126BF47BFF7ADA
:104151005779DB126BC07D2C7F01126C272014096B
:104161007BFF7A5779F1126BC02015097BFF7A57D3
:1041710079F8126BC02016097BFF7A587900126B0F
:10418100C0900018E0540FF0900017E0540FF09029
:104191000014E0540FF0A3E0540FF0A3E0540FF02B
:1041A100E490001FF0900014E0900001F020100353
:1041B1000242FAE0905B979390000CF0900015E0BA
:1041C100900001F0E0905B979390000BF090001647
:1041D100E0900001F0E0905B979390000AF090006E
:1041E10017E0900001F0E0905B9793900009F05484
:1041F1007FF0900018E0900001F0E0905B979390C1
:104201000008F00242FA7DC0E4FF126BF89000133F
:10421100126C237BFF7A5779DB126BC07D2C7F01F7
:10422100126C272014097BFF7A5779F1126BC02099
:1042310015097BFF7A5779F8126BC02016097BFFAD
:104241007A587900126BC0900017E0540FF090007B
:1042510013E0540FF0A3E0540FF0A3E0540FF0A3C8
:10426100E0540FF0E490001FF0900013E090000183
:10427100F0301050E0905B979390000CF090001498
:10428100E0900001F0E0905B979390000BF09000BC
:1042910015E0900001F0E0905B979390000AF09098
:1042A1000016E0900001F0E0905B9793900009F018
:1042B100900017E0900001F0E0905B979390000868
:1042C100F0547FF0E4F58CF58AC28D90001CF0A3C8
:1042D100F075CDB175CCE075CBB175CAE0C2A990CE
:1042E100002974FFF0E4900020F0900030124E0F8E
:1042F10000000000E4F5C8C28C7F05126E79E490DD
:104301000020F0900043124E0F00000000E4F5C8B9
:02431100C28C5C
:014313002287
:104E4000900043124E0F00000000900030124E0FF1
:104E500000000000E4F5C8C28C758CFF758AFFD293
:104E6000A990001CF0A3F0F5CDF5CCF5CBF5CAD296
:104E700021D2202012117D80FF126C277BFF7A58EF
:104E800079DD126BC0805D2018197D80E4FF126C03
:104E9000277BFF7A587919126BC07D3A7F01126C1B
:104EA0002780412019197D80E4FF126C277BFF7A4F
:104EB000587922126BC07D3A7F01126C2780252021
:104EC00017127D80E4FF126C277BFF7A5B797E12DC
:104ED0006BC080107D80E4FF126C277BFF7A5B79CA
:104EE00053126BC020122212717F900025EFF070D8
:104EF000057FF6126D80900025E0B401057FF61263
:104F00006DBA7F05126E79803A12717F900025EF9D
:104F1000F07012127274900024EFF054E3F0441019
:104F2000FFF0126D80900025E0B401121272939090
:104F30000024EFF054E3F04410FFF0126DBA7F0547
:104F4000126E79D28CE4900020F030210FD39000C3
:104F50001DE0943290001CE0940040EE9000057437
:104F600050F090002974FFF0C221D28C20210FD381
:104F700090001DE0943290001CE0940040EEC28C42
:104F8000D221E4F5C812721090002EEEF0A3EFF0DB
:104F9000FDAC06E4124BE5900043124E0390004333
:104FA000E0FCA3E0FDA3E0FEA3E0FFE4FBFAF97858
:104FB00040124AD6900043124E03900030E0FCA30A
:104FC000E0FDA3E0FEA3E0FF900043E0F8A3E0F9DA
:104FD000A3E0FAA3E0FB1248DC900030124E03E499
:104FE00090001CF0A3F0F5CDF5CCF5CBF5CAC28C42
:104FF000758CFF758AFFD28C900020E004F0E0D31E
:1050000094045003024F4AE4F5C8C28C9000057422
:1050100050F090002974FFF0C390001DE094F490CC
:10502000001CE094014003025316E4FBFA79A078D7
:1050300040900030E0FCA3E0FDA3E0FEA3E0FF12FF
:105040004AD6900043124E03900043E0F8A3E0F9E3
:10505000A3E0FAA3E0FBE4FFFE7D807C3F124AD68A
:10506000900043124E03900043E0FCA3E0FDA3E058
:10507000FEA3E0FFE4FBFA798078451249CD900069
:1050800043124E03900043E0FCA3E0FDA3E0FEA327
:10509000E0FF7B007A40791C78461249CD900043AE
:1050A000124E03900043E0FCA3E0FDA3E0FEA3E06A
:1050B000FFE4FBFA79C878421249CD900043124EC2
:1050C00003900043E0FCA3E0FDA3E0FEA3E0FF1299
:1050D0004C1E900047124E037F807E967D987C0088
:1050E000900047E0F8A3E0F9A3E0FAA3E0FBC312C5
:1050F0004DF240030251FE9000471269F9900017EB
:10510000E0D3943150030251C77DC0E4FF126C27F5
:10511000A3126BF47BFF7A5779DB126BC07D2C7F77
:1051200001126C272014097BFF7A5779F1126BC0AA
:105130002015097BFF7A5779F8126BC02016097B7E
:10514000FF7A587900126BC0900018E0540FF0906D
:105150000017E0540FF0900014E0540FF0A3E05457
:105160000FF0A3E0540FF0E490001FF0900014E063
:10517000900001F0301050E0905B979390000CF09D
:10518000900015E0900001F0E0905B979390000B89
:10519000F0900016E0900001F0E0905B9793900093
:1051A0000AF0900017E0900001F0E0905B97939078
:1051B0000009F0547FF0900018E0900001F0E090BA
:1051C0005B9793900008F0E4F58CF58AC28D90000F
:1051D0001CF0A3F075CDB175CCE075CBB175CAE00C
:1051E000C2A990002974FFF0E4F5C8C28C90002099
:1051F000F0900030124E0F000000000253167F8026
:105200007E967D987C00900047E0F8A3E0F9A3E04B
:10521000FAA3E0FBD3124DF250030253169000475D
:105220001269F97DC0E4FF126C27900018126BF42C
:105230007BFF7A5779DB126BC07D2C7F01126C27C4
:105240002014097BFF7A5779F1126BC02015097B76
:10525000FF7A5779F8126BC02016097BFF7A5879CC
:1052600000126BC0900017E0540FF0A3E0540FF051
:10527000900014E0540FF0A3E0540FF0A3E0540F9B
:10528000F0E490001FF0900014E0900001F0301066
:1052900050E0905B979390000CF0900015E0900028
:1052A00001F0E0905B979390000BF0900016E09077
:1052B0000001F0E0905B979390000AF0900017E0F7
:1052C000900001F0E0905B9793900009F0547FF01C
:1052D000900018E0900001F0E0905B979390000838
:1052E000F0E4F58CF58AC28D90001CF0A3F075CD2A
:1052F000B175CCE075CBB175CAE0C2A99000297434
:10530000FFF0E4900020F0900030124E0F000000FB
:1053100000E4F5C8C28CE4900020F0900043124EE7
:0A5320000F00000000E4F5C8C28C85
:01532A002260
:0B638300E0FCA3E0FDA3E0FEA3E0FFB0
:06638E00900047124E03CF
:10639400900047E0FCA3E0FDA3E0FEA3E0FF7B0048
:1063A4007A40791C78461249CD900047126E749059
:1063B4000047E0FCA3E0FDA3E0FEA3E0FFE4FBFA5A
:1063C400797A78441249CD900047126E7490004750
:1063D400E0FCA3E0FDA3E0FEA3E0FF124C1E90004E
:1063E4004B126E7420080302649320090302649321
:1063F40090004B1269F97DC0E4FF126C277D307F59
:1064040001126C27900016126C23900015126C2355
:106414007D2E126C1B900013126C237BFF7A5B7928
:106424006F126BC0900013E0540FF0A3E0540FF010
:10643400A3E0540FF0A3E0540FFFF0E490001FF02A
:10644400900001F0900013E0900001F0E0905B9761
:106454009390000CF0900014E0900001F0E0905B49
:10646400979390000BF0900015E0900001F0E090FD
:106474005B979390000AF0547FF0900001EFF0E0F6
:10648400905B9793900009F090000874C0F022305C
:10649400080302653820090302653890004B12692D
:1064A400F97DC0E4FF126C277D307F01126C2790C8
:1064B4000016126C237D2E126C11900013126C23A3
:1064C4007BFF7A5B796F126BC0900013E0540FF07E
:1064D400A3E0540FF0A3E0540FF0A3E0540FFFF037
:1064E400E490001FF0900001F0900013E090000190
:1064F400F0E0905B979390000CF0900014E0900013
:1065040001F0E0905B979390000BF0900015E09001
:106514000001F0E0905B979390000AF0900001EF87
:10652400F0E0905B9793900009F0547FF09000089E
:1065340074C0F0222008030265DD3009030265DD22
:1065440090004B1269F97DC0E4FF126C277D307F07
:1065540001126C27900016126C237D2E126C119080
:106564000013126C237BFF7A5B796F126BC090006F
:1065740013E0540FF0A3E0540FF0A3E0540FF0A382
:10658400E0540FFFF0E490001FF0900001F0900041
:1065940013E0900001F0E0905B979390000CF09072
:1065A4000014E0900001F0E0905B979390000BF0F2
:1065B400900015E0900001F0E0905B979390000A42
:1065C400F0900001EFF0E0905B9793900009F05495
:1065D4007FF090000874C0F0223008030266743023
:1065E400090302667490004B1269F97DC0E4FF123E
:1065F4006C277D30126C00900013126C237BFF7AA1
:106604005B796F126BC0900013E0540FF0A3E05459
:106614000FF0A3E0540FF0A3E0540FFFF0E4900058
:106624001FF0900001F0900013E0900001F0E09062
:106634005B979390000CF0900014E0900001F0E060
:10664400905B979390000BF0900015E0900001F0A0
:10665400E0905B979390000AF0900001EFF0E090D7
:106664005B9793900009F090000874C0F0547FF099
:016674002203
:036D3200F0E0FF8F
:026D3500AB07AA
:106D37001272567F94126CA9AA07EAB4010512745D
:106D47001E801E7F43126CA9AA07EAB401051274BC
:106D57001E800EAF03126CA9AA07EAB401031274CE
:096D67001EE4900004F0EA70C77C
:016D70002200
:10736C001272567F95126CA9AC07ECB4010512741D
:0E737C001E8003127441EC70E712741EAF0302
:01738A0022E0
:05002E0090003BEFF023
:10003300900004E0F470030221CE900007E0F97011
:10004300030221C090003BE060030221C0E9644148
:1000530060030201A92012030221C0E490002BF0E7
:10006300A3F0C220900026F0900028F07580FFC214
:10007300A5D2A590000004F0126E9F900025EFF02A
:1000830070057FEE127129900025E0B401057FEE23
:100093001271541271D3900025EFF07003126EC9E0
:1000A300900025E0B40103126F007527FFC23812D8
:1000B300717F900025EFF07005126D718003126D52
:1000C300AB300C09200D06300E03300F03201B3616
:1000D3001271A9900025EFF0700F1272F0900024B6
:1000E300EFF054E3FFF0126DF4900025E06401603B
:1000F300030221C012730F900024EFF054E3FFF0CA
:10010300126E2E0221C020141C1271A9900025EF3B
:10011300F07003126DE5900025E0B40103126E1F29
:10012300C2050221C020163EC2071271A990002504
:10013300EFF070121272F0900024EFF054E3F044E9
:1001430010FFF0126DF4900025E0640160030221BA
:10015300C012730F900024EFF054E3F04410FFF04B
:10016300126E2E0221C03015030221C01271A99014
:100173000025EFF070121272F0900024EFF054E3B8
:10018300F04418FFF0126DF4900025E0B401121250
:10019300730F900024EFF054E3F04418FFF0126E55
:1001A3002EC2060221C0E9644260030202E5201266
:1001B300030221C0126E92900025EFF070057FDEDE
:1001C300127129900025E0B401057FDE12715412EB
:1001D30071D3900025EFF07003126EC9900025E0F3
:1001E300B40103126F007527FFC23912717F9000AB
:1001F30025EFF07005126D718003126DAB300C09A1
:10020300200D06300E03300F03201B361271A99008
:100213000025EFF0700F1272F0900024EFF054E31A
:10022300FFF0126DF4900025E0640160030221C029
:1002330012730F900024EFF054E3FFF0126E2E02BE
:1002430021C020141C1271A9900025EFF070031235
:100253006DE5900025E0B40103126E1FC205022173
:10026300C020163EC2071271A9900025EFF070124C
:100273001272F0900024EFF054E3F04410FFF012F8
:100283006DF4900025E0640160030221C012730F36
:10029300900024EFF054E3F04410FFF0126E2E02AE
:1002A30021C03015030221C01271A9900025EFF07F
:1002B30070121272F0900024EFF054E3F04418FF30
:1002C300F0126DF4900025E0B4011212730F900048
:1002D30024EFF054E3F04418FFF0126E2EC206022E
:1002E30021C0E9644360030204212012030221C0F8
:1002F300126E92900025EFF070057FBE1271299067
:100303000025E0B401057FBE1271541271D3900031
:1003130025EFF07003126EC9900025E0B4010312BB
:100323006F007527FFC23A12717F900025EFF070BE
:1003330005126D718003126DAB300C09200D063070
:100343000E03300F03201B361271A9900025EFF026
:10035300700F1272F0900024EFF054E3FFF0126D6F
:10036300F4900025E0640160030221C012730F9032
:100373000024EFF054E3FFF0126E2E0221C020148C
:100383001C1271A9900025EFF07003126DE5900027
:1003930025E0B40103126E1FC2050221C020163EE0
:1003A300C2071271A9900025EFF070121272F0903B
:1003B3000024EFF054E3F04410FFF0126DF49000CA
:1003C30025E0640160030221C012730F900024EF43
:1003D300F054E3F04410FFF0126E2E0221C03015EA
:1003E300030221C01271A9900025EFF0701212725E
:1003F300F0900024EFF054E3F04418FFF0126DF492
:10040300900025E0B4011212730F900024EFF05412
:10041300E3F04418FFF0126E2EC2060221C0E96415
:100423004460030205532012030221C0126E92900E
:100433000025EFF070057FBD127129900025E0B40F
:1004430001057FBD1271541271D3900025EFF07036
:1004530003126EC9900025E0B40103126F001271FC
:10046300D3900025EFF07527FFC23B300C09200D18
:1004730006300E03300F03201B361271A99000259E
:10048300EFF0700F1272F0900024EFF054E3FFF0DE
:10049300126DF4900025E0640160030221C0127321
:1004A3000F900024EFF054E3FFF0126E2E0221C0F0
:1004B30020141C1271A9900025EFF07003126DE552
:1004C300900025E0B40103126E1FC2050221C02073
:1004D300163EC2071271A9900025EFF07012127236
:1004E300F0900024EFF054E3F04410FFF0126DF4A9
:1004F300900025E0640160030221C012730F900095
:1005030024EFF054E3F04410FFF0126E2E0221C0EA
:100513003015030221C01271A9900025EFF070126B
:100523001272F0900024EFF054E3F04418FFF0123D
:100533006DF4900025E0B4011212730F900024EFC4
:10054300F054E3F04418FFF0126E2EC2060221C0ED
:10055300E96445600302067D2012030221C0126E86
:1005630092900025EFF070057FBB12712990002552
:10057300E0B401057FBB1271541271D3900025EFD3
:10058300F07003126EC9900025E0B40103126F00EE
:100593007527FFC23C300C09200D06300E03300FC7
:1005A30003201B361271A9900025EFF0700F127211
:1005B300F0900024EFF054E3FFF0126DF490002567
:1005C300E0640160030221C012730F900024EFF076
:1005D30054E3FFF0126E2E0221C020141C1271A9E5
:1005E300900025EFF07003126DE5900025E0B40153
:1005F30003126E1FC2050221C020163EC2071271EC
:10060300A9900025EFF070121272F0900024EFF021
:1006130054E3F04410FFF0126DF4900025E0640100
:1006230060030221C012730F900024EFF054E3F033
:100633004410FFF0126E2E0221C03015030221C0B8
:100643001271A9900025EFF070121272F09000243D
:10065300EFF054E3F04418FFF0126DF4900025E03E
:10066300B4011212730F900024EFF054E3F0441816
:10067300FFF0126E2EC2060221C0E9644660030237
:1006830007A72012030221C0126E92900025EFF0FB
:1006930070057FB7127129900025E0B401057FB77B
:1006A3001271541271D3900025EFF07003126EC9CA
:1006B300900025E0B40103126F007527FFC23D309F
:1006C3000C09200D06300E03300F03201B36127168
:1006D300A9900025EFF0700F1272F0900024EFF054
:1006E30054E3FFF0126DF4900025E064016003020F
:1006F30021C012730F900024EFF054E3FFF0126E49
:100703002E0221C020141C1271A9900025EFF07055
:1007130003126DE5900025E0B40103126E1FC205BC
:100723000221C020163EC2071271A9900025EFF0E6
:1007330070121272F0900024EFF054E3F04410FFB3
:10074300F0126DF4900025E0640160030221C012F1
:10075300730F900024EFF054E3F04410FFF0126E97
:100763002E0221C03015030221C01271A990002569
:10077300EFF070121272F0900024EFF054E3F044A3
:1007830018FFF0126DF4900025E0B4011212730FFC
:10079300900024EFF054E3F04418FFF0126E2EC2E1
:1007A300060221C0E9645360030208E92012030230
:1007B30021C0126E92900025EFF070057F3F1271F9
:1007C30029900025E0B401057F3F1271541271D3C3
:1007D300900025EFF0700F12732E900024EFF05469
:1007E3007FFFF0126ED5900025E0B4010F12734D18
:1007F300900024EFF0547FFFF0126F0C7527FFC2B7
:100803003E300C09200D06300E03300F03201B363B
:100813001271A9900025EFF0700F1272F09000246E
:10082300EFF054E3FFF0126DF4900025E0640160F3
:10083300030221C012730F900024EFF054E3FFF082
:10084300126E2E0221C020141C1271A9900025EFF4
:10085300F07003126DE5900025E0B40103126E1FE2
:10086300C2050221C020163EC2071271A9900025BD
:10087300EFF070121272F0900024EFF054E3F044A2
:1008830010FFF0126DF4900025E064016003022173
:10089300C012730F900024EFF054E3F04410FFF004
:1008A300126E2E0221C03015030221C01271A990CD
:1008B3000025EFF070121272F0900024EFF054E371
:1008C300F04418FFF0126DF4900025E0B401121209
:1008D300730F900024EFF054E3F04418FFF0126E0E
:1008E3002EC2060221C0E964546003020AB020123A
:1008F300030221C0126E92900025EFF070057F3F36
:10090300127129900025E0B401057F3F1271541242
:1009130071D3900025EFF07003126EC9900025E0AB
:10092300B40103126F007527FFC23F303F0302215A
:01093300C003
:10093400200C7B300D78200E75200F721271A99057
:100944000025EFF0700F1272F0900024EFF054E3E2
:10095400FFF0126DF4900025E0B4010F12730F90B4
:100964000024EFF054E3FFF0126E2E12717F90001A
:1009740025EFF07015127274900024EFF0547FF09C
:1009840054E3F04410FFF0126D80900025E0B401B0
:1009940015127293900024EFF0547FF054E3F04466
:1009A40010FFF0126DBAE4900027F00221C0300C61
:1009B40009200D06300E03300F03201B361271A9D7
:1009C400900025EFF0700F1272F0900024EFF054B5
:1009D400E3FFF0126DF4900025E06401600302214E
:1009E400C012730F900024EFF054E3FFF0126E2E48
:1009F4000221C0300C45300D42200E3F200F3C1226
:100A040071A9900025EFF070121272F0900024EF9B
:100A1400F054E3F0440CFFF0126DF4900025E06410
:100A24000160030221C012730F900024EFF054E31D
:100A3400F0440CFFF0126E2E0221C01271A9900036
:100A440025EFF070121272F0900024EFF054E3F0EE
:100A54004414FFF0126DF4900025E0B401121273F7
:100A64000F900024EFF054E3F04414FFF0126E2EC4
:100A740012717F900025EFF07012127274900024AE
:100A8400EFF054E3F04410FFF0126D80900025E085
:100A9400640160030221C0127293900024EFF054A9
:100AA400E3F04410FFF0126DBA0221C0E96447700C
:100AB400737580FFC2A5D2A5900000E064016003B5
:100AC4000221C0203F381271A9900025EFF0701266
:100AD4001272F0900024EFF054E3F04414FFF0128B
:100AE4006DF4900025E06401702B12730F900024C4
:100AF400EFF054E3F04414FFF0126E2E80171271DD
:100B0400A9900025EFF07003126DE5900025E0B484
:100B14000103126E1FC214D215D216C205D206D218
:100B2400070221C0E9644870567580FFC2A5D2A5AA
:100B3400900000E0640160030221C01271A99000DA
:100B440025EFF070121272F0900024EFF054E3F0ED
:100B54004418FFF0126DF4900025E0B401121273F2
:100B64000F900024EFF054E3F04418FFF0126E2EBF
:100B7400D214C215D216D205C206D2070221C0E988
:100B8400644970567580FFC2A5D2A5900000E06448
:100B94000160030221C01271A9900025EFF07012C8
:100BA4001272F0900024EFF054E3F04410FFF012BE
:100BB4006DF4900025E0B4011212730F900024EF3D
:100BC400F054E3F04410FFF0126E2ED214D215C28A
:100BD40016D206D205C2070221C0E9644A600302A4
:100BE4000CC97580FFC2A5D2A5900000E064016025
:100BF400030221C02018030221C02019030221C0CE
:100C04003027030221C0B2172017701271D390004D
:100C140025EFF0701D12732E900024EFF054BFF0F6
:100C240054C7F04420F054F8F04401FFF0126ED59C
:100C3400801B12734D900024EFF054BFF054C7F0A2
:100C44004420F054F8F04401FFF0126F0C9000219E
:100C5400747FF0FF126D35C20C7D01E4FF126C2726
:100C64007BFF7A5B797E126C667D8AE4FF126C27C7
:100C74007BFF7A5B7989126BC080451271D3900037
:100C840025EFF0701112732E900024EFF04440FF12
:100C9400F0126ED5800F12734D900024EFF0444093
:100CA400FFF0126F0CE4FF126D35D20CD20DD20E90
:100CB4007D01E4FF126C277BFF7A5B7953126C662B
:100CC400D2270221C0900007E0644B6003020D5C50
:100CD4007580FFC2A5D2A5900000E0640160030204
:100CE40021C03028030221C0B21020102A12717FC3
:100CF400900025EFF0700F127274900024EFF054FE
