:1057780057454C434F4D45202020202020202020F5
:105788002000487A00313020487A2020202020202C
:105798002020202020200031303020487A2020206E
:1057A8002020202020202020004B487A0031302063
:1057B8004B487A2020202020202020202020003143
:1057C8003030204B487A2020202020202020202004
:1057D800004D487A003130204D487A202020202082
:1057E8002020202020200053696E652020002054AE
:1057F8007269616E20005371756172652000417293
:1058080062697461727920576176652020200045AD
:105818007874204D6F642000496E74204D6F6420A9
:105828000073656C656374206D6F646520202020AB
:105838002000414D20737464202020202020202047
:10584800202000414D2062616C2020202020202053
:1058580020202000564346202020202020202020E1
:105868002020202000464D202020202020202020FD
:1058780020202020200050574D20202020202020AC
:1058880020202020202000537770206C696E202073
:10589800202020202000537770206C6F6720202064
:1058A8002020202000416D706C69747564653A2071
:1058B800004672657175656E63792020202020206E
:1058C8002000496E7465726E616C20436F756E744A
:1058D80065720045787465726E616C20436F756EF1
:1058E8007465720053656C6563742046756E6374E5
:1058F800696F6E20006B6579626F61726220666104
:10590800756C742020004C6F772052616E6765209B
:105918002020202020200039487A2052616E6765B7
:1059280020202020202020003939487A2052616E1A
:10593800676520202020202000393939487A2052F4
:10594800616E6765202020202000396B487A20523C
:10595800616E67652020202020200039396B487A45
:105968002052616E67652020202020003939396B6C
:10597800487A2052616E67652020202000314D480A
:105988007A2052616E676520202020202000313067
:105998004D487A2052616E676520202020200053F0
:1059A800656E64204461746120202020202020003E
:1059B8004E6F20446174612066726F6D20504320E1
:1059C8000050726F63657373696E67202020202012
:1059D8002000506C65617365205761697420202030
:1059E8002020006B65792070726573732D3E5175A8
:1059F80069742000646576696365207A65726F2032
:105A08006661696C0064657669636520666F7572A6
:105A1800206661696C0064657669636520736978DE
:105A2800206661696C200064657669636520657429
:105A380068206661696C200020202020202000500A
:105A4800414D20202020200039394D487A207261AC
:105A58006E6765202020202000FF50726573732038
:105A68003020666F7220486572747A0050726573D0
:105A780073203120666F7220313020486572747A45
:105A8800005072657373203220666F722031303097
:105A980020486572747A00507265737320332066EB
:105AA8006F722031204B486572747A0050726573AA
:105AB80073203420666F72203130204B4865727431
:105AC8007A005072657373203520666F722031300A
:105AD80030204B486572747A0050726573732036B3
:105AE80020666F722031204D486572747A005072BA
:105AF800657373203720666F72203130204D4865FA
:105B080072747A005072657373203820666F722041
:105B180053696E652057617665005072657373200E
:105B28003920666F72205472616E672057617665FE
:105B3800005072657373204120666F72205371752F
:105B4800617265205761766500496E742E20467231
:105B580065712E20006D487A002D32306442002D88
:105B6800343064420056707020200020202020200D
:105B78002020200046726571204374726C3A0043FD
:105B88006F617273650046696E65202000C0F9A4D4
:105B9800B0999282F88090FEFDFBF7EFDFBF7FDFC0
:025BA800BF7FBD
:08001E00410005284100040027
:1021CF00E4900021F0900003F090002774FFF0E4FA
:1021DF00A3F0900018124E0D0000000075B8229069
:1021EF00002974FFF090002DF0E4900007F09000AC
:1021FF0026F07527FF7520FF7521FF7522FF7523C8
:10220F00FF7524FFC227900000F0900030124E0D92
:10221F00000000007580FFD2A4D2A590001E7401AB
:10222F00F07D38E4FF126C277D0CE4FF126C277DE4
:10223F0001E4FF126C277BFF7A577978126BC07D10
:10224F00C0E4FF126C27E490001FF0905B9593FFA2
:10225F0090001FE02408F582E43400F583EFF0903E
:10226F00001FE004F0E02408F582E43400F583EF6A
:10227F00F090001FE004F0E02408F582E43400F54C
:10228F0083EFF090001FE004F0E02408F582E434BF
:10229F0000F583EFF090001FE004F0E02408F582D2
:1022AF00E43400F583EFF07D01E4FF126C27127226
:1022BF0021D288D2AFD2ADD2A8D2ABD28E30101BE2
:1022CF00127179900025EFF070057FF9126D7A90F9
:1022DF000025E0B401057FF9126DB47580FFC2A52A
:1022EF00D2A59000007401F0FDE4FF126C27905A04
:1022FF0061E493F460030223A27BFF7A5779B11252
:10230F006BC07DC0E4FF126C277BFF7A5779EF1209
:10231F006BC0127179900025EFF070057FF9126D87
:10232F007A900025E0B401057FF9126DB4126E9911
:10233F00900025EFF070057FBD127123900025E00E
:10234F00B401057FBD12714EC23B1271A3900025DF
:10235F00EFF070057FFF126DEE900025E0B40105E0
:10236F007FFF126E28C214C2051230B8C214C20504
:10237F001271CD900025EFF070057FFF126ECF9098
:10238F000025E0B401057FFF126F067527FF75204A
:10239F00FFC23B905A61E493707A7580FFC2A5D259
:1023AF00A57527FF7520FF7523FF900000F0D2144D
:1023BF00D215D216D211C213C2127D01FF126C2791
:1023CF007BFF7A5879DB126BC07DC0E4FF126C275C
:1023DF007D307F01126C277D307F01126C277D309D
:1023EF007F01126C277D2E7F01126C277D307F01BC
:1023FF00126C277D307F01126C2790000C74C0F097
:10240F0090000BF090000A7440F090000974C0F037
:10241F00900008F0201223127179900025EFF070D0
:10242F00057FFB126D7A900025E0B401057FFB124A
:10243F006DB47F05126E73022533900027E0703361
:10244F00127179900025EFF0700D12726E900024CA
:10245F00EFF0547F126D72900025E0B4010D1272EF
:10246F008D900024EFF0547F126DAC7F0F126E73BE
:10247F00022533300C09200D06300E03300F0320D8
:10248F001B361271A3900025EFF0700F1272EA90B5
:10249F000024EFF054E3FFF0126DEE900025E0649E
:1024AF00016003022533127309900024EFF054E307
:1024BF00FFF0126E280225333012047F0180027F55
:1024CF00003010047E0180027E00EE5F60201271EA
:1024DF0079900025EFF0700612726E126D6E9000FB
:1024EF0025E06401703E12728D126DA88036900047
:1024FF0027E0F4702F127179900025EFF0700F1212
:10250F00726E900024EFF04480FFF0126D7A90000D
:10251F0025E0B4010F12728D900024EFF04480FF7C
:10252F00F0126DB47580FFD2A4D2A5E4900026F00E
:10253F00C28D75CDB175CCE075CBB175CAE0F58C98
:10254F00F58A90001CF0A3F0900003E0B4FF08128E
:10255F0068ABE4900003F0201028127179900025E9
:10256F00EFF0700F12726E900024EFF054FC126DAA
:10257F0072800D12728D900024EFF054FC126DAC2E
:10258F00C211D28C75C80490001CE0FEA3E0FFD3EB
:10259F009464EE940040F0EF9464EE9400400B12BC
:1025AF0073BF90002BEEF0A3EFF090002BE0FEA393
:1025BF00E0FF64014E70047D0180027D00EF4E70DC
:1025CF00047F0180027F00EF4D6035C2203012047E
:1025DF007F0180027F003010047E0180027E00EEBA
:1025EF005F601D127179900025EFF0700612726E08
:1025FF00126D6E900025E0B4010612728D126DA857
:10260F00202012900026E0700C12431290002674C6
:10261F0001F002270290002BE0FEA3E0FFD3940904
:10262F00EE94005023EF9401EE9400401B9000268F
:10263F00E07015201206D20CD20DC20E125FB890A8
:10264F0000267401F002270290002BE0FEA3E0FFAA
:10265F00D39463EE94005027EF9409EE9400401F3B
:10266F00900026E0701990001E04F0201206D20C84
:10267F00D20DC20E125BAA9000267401F0807490E6
:10268F00002BE0FEA3E0FFD394E7EE94035028EF76
:10269F009463EE94004020900026E0701A201206FA
:1026AF00D20CD20DC20E90001E7401F01236E390C0
:1026BF0000267401F0803C90002BE0FEA3E0FFD3D6
:1026CF009468EE9429502CEF94E7EE9403402490F5
:1026DF000026E0701E90001E04F0201206D20CC2DD
:1026EF000DD20E1230B89000267401F0E490002B3A
:1026FF00F0A3F0D390002CE0946890002BE0942985
:10270F005003022533C28CE4F5C8C28D75CDB17567
:10271F00CCE075CBB175CAE0E4F58CF58A90001C5E
:10272F00F0A3F0900026F0900003E0B4FF081268C9
:10273F00ABE4900003F030100C303809303906301C
:10274F003A03203B08C28CE4F5C8022A1C2010284B
:10275F00127179900025EFF0700F12726E900024B5
:10276F00EFF054FC126D72800D12728D900024EFF9
:10277F00F054FC126DACC211201228900028E070AA
:10278F0022127179900025EFF070057FFF126D7A9C
:10279F00900025E0B401057FFF126DB47F05126E26
:1027AF00738070201229900028E0F4702212717942
:1027BF00900025EFF070057FF3126D7A900025E001
:1027CF00B401057FF3126DB47F05126E7380443030
:1027DF001041900027E0703B127179900025EFF0C7
:1027EF00701512726E900024EFF0547FF054E3F0E6
:1027FF004410FFF0126D7A900025E0B401151272AB
:10280F008D900024EFF0547FF054E3F04410FFF06C
:10281F00126DB4D28C75C80490001CE0FEA3E0FFCB
:10282F00D39464EE940040F0EF9464EE9400400B68
:10283F001273BF90002BEEF0A3EFF090002BE0FE91
:10284F00A3E0FFC39427EE9400400C3038093039D1
:10285F0006303A03203B08C28CE4F5C8022A1CD389
:10286F00EF9486EE94015032EF9425EE9400402AB7
:10287F00900026E0702490001E04F0201206D20C67
:10288F00C20DD20E122A5A90002874FFF090002623
:10289F007401F0E490002BF0A3F090002BE0FEA366
:1028AF00E0FFD39442EE940F5026EF9486EE9401FE
:1028BF00401E900026E07018201206D20CC20DD2D6
:1028CF000E90002874FFF01253299000267401F027
:1028DF0090002BE0FEA3E0FFD39442EE940F402B29
:1028EF00E4FCFD7B967A98F9F8124DDA401D9000C2
:1028FF0026E07017201206C20CD20DD20EE4900003
:10290F0028F0123CFF9000267401F090002BE0FE9F
:10291F00A3E0FFE4FCFD7B967A98F9F8C3124DDA39
:10292F004003022A05900026E06003022A052012C8
:10293F0006C20CD20DD20E301248301045127179EA
:10294F00900025EFF0701212726E900024EFF05489
:10295F00E3F04410FFF0126D7A900025E0B40112FD
:10296F0012728D900024EFF054E3F04410FFF01238
:10297F006DB4E4900028F0123CFF9000267401F033
:10298F00807490002874FFF0124E3E900026740160
:10299F00F0C28D75CDB175CCE075CBB175CAE0E4E1
:1029AF00F58CF58A90001CF0A3F0900026F0D28CE5
:1029BF0075C80490001CE0FEA3E0FFD39464EE946E
:1029CF000040F0EF9464EE9400400B1273BF900040
:1029DF002BEEF0A3EFF0C390002CE0947190002B3E
:1029EF00E09409500BC28CE4F5C8900028F08006E3
:1029FF0020120302294630100F30380C30390930BD
:102A0F003A06303B03022719C28CE4F5C890002721
:102A1F00E0F4702F127179900025EFF0700F1272A1
:102A2F006E900024EFF04480FFF0126D7A90002535
:102A3F00E0B4010F12728D900024EFF04480FFF08C
:0B2A4F00126DB47F0A126E730223A206
:10740600E4FEEEC39F500AE4FD0DEDB4FFFB0E80D3
:01741600F184
:017417002252
:106E5300900043E0F8A3E0F9A3E0FAA3E0FBE4FF2A
:106E6300FE7D807C3F124AD4900043124E017F0284
:106E7300E4FEEEC39F5011E4FDFC0DBD00010CBC0C
:086E830004F8BDFBF50E80EAE6
:016E8B0022E4
:0B738500D2937F08127390D2927F0811
:10739000E4FEEEC39F50030E80F8E4FF0FEFB480CD
:0173A000FBF1
:0173A10022C9
:106F6400E490002AF020A1087448F0E490002DF089
:106F740020A20B90002A7450F0E490002DF020A37E
:106F84000B90002A7458F0E490002DF090002AE051
:026F9400FF22DA
:106F9600E490002AF020A1087447F0E490002DF058
:106FA60020A20B90002A744FF0E490002DF020A34D
:106FB6000B90002A7457F0E490002DF090002AE020
:026FC600FF22A8
:106FC800E490002AF020A1087446F0E490002DF027
:106FD80020A20B90002A744EF0E490002DF020A31C
:106FE8000B90002A7456F0E490002DF090002AE0EF
:026FF800FF2276
:106FFA00E490002AF020A1087445F0E490002DF0F6
:10700A0020A20B90002A744DF0E490002DF020A3EA
:10701A000B90002A7455F0E490002DF090002AE0BD
:02702A00FF2243
:10702C00E490002AF020A1087444F0E490002DF0C4
:10703C0020A20B90002A744CF0E490002DF020A3B9
:10704C000B90002A7454F0E490002DF090002AE08C
:02705C00FF2211
:10705E00E490002AF020A1087443F0E490002DF093
:10706E0020A20B90002A744BF0E490002DF020A388
:10707E000B90002A7453F0E490002DF090002AE05B
:02708E00FF22DF
:10709000E490002AF020A1087442F0E490002DF062
:1070A00020A20B90002A744AF0E490002DF020A357
:1070B0000B90002A7452F0E490002DF090002AE02A
:0270C000FF22AD
:1070C200E490002AF020A1087441F0E490002DF031
:1070D20020A20B90002A7449F0E490002DF020A326
:1070E2000B90002A7451F0E490002DF090002AE0F9
:0270F200FF227B
:0B667300900034EBF0A3EAF0A3E9F084
:10667E00E490003AF0FF900034E0FBA3E0FAA3E0D0
:10668E00F98F82758300124C9DFE0F8F82758300E9
:10669E00124C9D900037F00F8F82758300124C9D27
:1066AE00900038F00F8F82758300124C9D90003948
:1066BE00F00F8F82758300124C9DFCAF068F80C247
:1066CE00A4D2A47580FFC280C2A5D2A590002DE0F1
:1066DE00B4FF08126F6490002AEFF0D2807F02128E
:1066EE007406900037E0F580C2A4D2A47580FFC274
:1066FE0081C2A5D2A590002DE0B4FF08126F96902E
:10670E00002AEFF0D2817F02127406900038E0F575
:10671E0080C2A4D2A47580FFC282C2A5D2A5900069
:10672E002DE0B4FF08126FC890002AEFF0D2827FDE
:10673E0002127406900039E0F580C2A4D2A47580CE
:10674E00FFC283C2A5D2A590002DE0B4FF08126F40
:10675E00FA90002AEFF0D2837F02127406AF048FF4
:10676E0080C2A4D2A47580FFC284C2A5D2A5900017
:10677E002DE0B4FF0812702C90002AEFF0D2847F27
:10678E0002127406203802C280203902C281203AD9
:10679E0002C282203B02C283203C02C284203D0200
:1067AE00C285201402C286201502C287C2A4D2A4BA
:1067BE007580FFC285C2A5D2A590002DE0B4FF085A
:1067CE0012705E90002AEFF0D2857F0212740620BE
:1067DE001602C280201702C281201102C28220132B
:1067EE0002C283201802C284201902C285201A0216
:1067FE00C286201B02C287C2A4D2A47580FFC286A5
:10680E00C2A5D2A590002DE0B4FF081270909000A2
:10681E002AEFF0D2867F02127406200F02C2802069
:10682E000A02C281203E02C282203F02C283200B96
:10683E0002C284200C02C285200D02C286200E02E6
:10684E00C287C2A4D2A47580FFC287C2A5D2A5906A
:10685E00002DE0B4FF081270C290002AEFF0D2872C
:10686E007F021274067580FFC2A4D2A47580FFC287
:10687E00A5D2A512740690002AE0FF701DC227C291
:10688E0026C225C22DC228C229C22AC22BC22CC2A0
:0D689E0024C22E201704D20ED20D02002EAF
:106BF400E0FD7F01126C27900017E0FD7F01126C0D
:106C0400277D2E7F01126C27900016E0FD7F011274
:106C14006C27900015E0FD7F01126C27900014E0B2
:036C2400FD7F01F0
:106C2700AB05AA07C2AB7580FFC2A0D2B6C2B77FB9
:106C370001126E73D2B7EAB40102D2A0AF038F80FC
:0C6C4700C2B67F01126E73C2B7D2AB223E
:106B89007DC0E4FF126C277D307F01126C277D2EBA
:106B99007F01126C277D307F01126C277D307F01C8
:106BA900126C277D307F01126C277D307F01126CBA
:076BB900277BFF7A5A7940A7
:0B6BC00090004FEBF0A3EAF0A3E9F017
:106BCB00E4A3F090004FE0FBA3E0FAA3E0F9A3E00D
:106BDB00F582758300124C9DFD600D7F01126C27B1
:086BEB00900052E004F080DB91
:016BF300227F
:087248001274187F0A126E7324
:1072500090000474FFF0127385C2937F081273903C
:0E726000C2927F08127390C2D77F080273900B
:10741800C293127387D2937F08127390E49000048A
:02742800F02250
:106CA300E4FD8F26FCA2379293E52625E0F5267FA7
:106CB30008127390D2927F04127390C2927F0812CB
:106CC30073900CECB408DE7F08127390127385A2E4
:106CD3009330D7027D017F08127390C2927F08120E
:046CE3007390AF05F6
:016CE700228A
:1070F400E4F526D2937F08127390E4FDE52625E09B
:10710400F52612738CD2937F08127390A293923057
:0E711400C2927F081273900DEDB408E0AF2612
:01712200224A
:05743B001270F4AB0724
:0A744000127385C2927F0802739058
:07744A00C2983098FDAF99D4
:017451002218
:0A000E00C2998F993099FDC2992222
:10717900E4FB1272507F40126CA3AA07EA7006FB67
:1071890012741880121272487F70126CA3AA07EA4F
:0971990070E07B01127418AF03D1
:0171A20022CA
:0F6D6B0012726E900024EFF054E3F04418FFF022
:026D7A00AB0765
:106D7C001272507F40126CA3AA07EAB40105127478
:106D8C0018800EAF03126CA3AA07EAB401031274A5
:086D9C0018EA70DC900004F01D
:016DA40022CC
:0F6DA50012728D900024EFF054E3F04418FFF0C9
:026DB400AB072B
:106DB6001272507F70126CA3AA07EAB4010512740E
:106DC60018800EAF03126CA3AA07EAB4010312746B
:086DD60018EA70DC900004F0E3
:016DDE002292
:10726E001272507F41126CA3AC07ECB4010512747C
:0E727E0018800312743BEC70E7127418AF0313
:01728C0022DF
:10728D001272507F71126CA3AC07ECB4010512742D
:0E729D0018800312743BEC70E7127418AF03F4
:0172AB0022C0
:0D6E8C007580FFC2A5D2A59000007401F032
:106E9900E4FB1272507F44126CA3AA07EA7006FB46
:106EA90012741880121272487F74126CA3AA07EA2E
:096EB90070E07B01127418AF03B4
:016EC20022AD
:02712300AB07B8
:107125001272507F44126CA3AA07EAB401051274C7
:1071350018800EAF03126CA3AA07EAB401031274F8
:0871450018EA70DC900004F070
:01714D00221F
:02714E00AB078D
:107150001272507F74126CA3AA07EAB4010512746C
:1071600018800EAF03126CA3AA07EAB401031274CD
:0871700018EA70DC900004F045
:0171780022F4
:1072AC001272507F45126CA3AC07ECB4010512743A
:0E72BC0018800312743BEC70E7127418AF03D5
:0172CA0022A1
:1072CB001272507F75126CA3AC07ECB401051274EB
:0E72DB0018800312743BEC70E7127418AF03B6
:0172E9002282
:1071A300E4FB1272507F46126CA3AA07EA7006FB37
:1071B30012741880121272487F76126CA3AA07EA1F
:0971C30070E07B01127418AF03A7
:0171CC0022A0
:0F6DDF001272EA900024EFF054E3F0441CFFF02E
:026DEE00AB07F1
:106DF0001272507F46126CA3AA07EAB401051274FE
:106E000018800EAF03126CA3AA07EAB40103127430
:086E100018EA70DC900004F0A8
:016E18002257
:0F6E1900127309900024EFF054E3F0441CFFF0D3
:026E2800AB07B6
:106E2A001272507F76126CA3AA07EAB40105127493
:106E3A0018800EAF03126CA3AA07EAB401031274F6
:086E4A0018EA70DC900004F06E
:016E5200221D
:1072EA001272507F47126CA3AC07ECB401051274FA
:0E72FA0018800312743BEC70E7127418AF0397
:017308002262
:107309001272507F77126CA3AC07ECB401051274AA
:0E73190018800312743BEC70E7127418AF0377
:017327002243
:1071CD00E4FB1272507F48126CA3AA07EA7006FB0B
:1071DD0012741880121272487F78126CA3AA07EAF3
:0971ED0070E07B01127418AF037D
:0171F6002276
:0C6EC300127328900024EFF04480FFF0D0
:026ECF00AB070F
:106ED1001272507F48126CA3AA07EAB4010512741A
:106EE10018800EAF03126CA3AA07EAB4010312744F
:086EF10018EA70DC900004F0C7
:016EF9002276
:0C6EFA00127347900024EFF04480FFF07A
:026F0600AB07D7
:106F08001272507F78126CA3AA07EAB401051274B2
:106F180018800EAF03126CA3AA07EAB40103127417
:086F280018EA70DC900004F08F
:016F3000223E
:107328001272507F49126CA3AC07ECB401051274B9
:0E73380018800312743BEC70E7127418AF0358
:017346002224
:107347001272507F79126CA3AC07ECB4010512746A
:0E73570018800312743BEC70E7127418AF0339
:017365002205
:106C53007DC0E4FF126C277BFF7A58793A90003CA1
:086C6300EBF0A3EAF0A3E9F055
:106C6B0090003FEBF0A3EAF0A3E9F0E490002AF0E8
:106C7B0090003FE0FBA3E0FAA3E0F990002AE0F5D7
:106C8B0082758300124C9DFD600D7F01126C279065
:086C9B00002AE004F080D92278
:10722100E4F58DF58BC299C298C2ABC2A9758915D7
:1072310075CDB175CCE075CBB175CAE0F58CF58A29
:0772410090001CF0A3F022F5
:10742A00759850758925758DE6758BE6C299C2984F
:01743A00222F
:030003000273F392
:1073F300C0E0C083C08290000374FFF0D082D083CA
:03740300D0E032A4
:1068AB00C28EC2AB12742AD28E7BFF7A5A796212D5
:1068BB006F317BFF7A5A7974126F317BFF7A5A7979
:1068CB0089126F317BFF7A5A799F126F317BFF7A76
:1068DB005A79B4126F317BFF7A5A79CA126F317BB6
:1068EB00FF7A5A79E1126F317BFF7A5A79F6126F80
:1068FB00317BFF7A5B790C126F317BFF7A5B7922EC
:10690B00126F317BFF7A5B7939126F3112744AC285
:10691B008EE490002DF0EFB4300890002A7441F013
:10692B008076EFB4310890002A7442F0806AEFB49D
:10693B00320890002A7443F0805EEFB43308900065
:10694B002A7444F08052EFB4340890002A7445F056
:10695B008046EFB4350890002A7446F0803AEFB4C5
:10696B00360890002A7453F0802EEFB4370890004D
:10697B002A7454F08022EFB4380890002A7447F040
:10698B008016EFB4390890002A7448F0800AEFB4EF
:10699B00410690002A7449F0758915C28F758D3F99
:0F69AB00758BFFC2239000057450F0D28ED2ABD3
:0169BA0022BA
:0B6F3100900043EBF0A3EAF0A3E9F0AE
:106F3C00E4FE900043E0FBA3E0FAA3E0F98E827537
:106F4C008300124C9DFF600612000E0E80E47F0D34
:086F5C0012000E7F0A02000E74
:0573BF00C28CE4F5C8DA
:1073C400900043E58CF0A3E58AF0900043E0B58C8F
:0673D400EFE0FEA3E0FF64
:0173DA002290
:1069BB001249CB900043124E01900043E0FCA3E040
:1069CB00FDA3E0FEA3E0FF124C1C900047124E010A
:1069DB00900043E0FCA3E0FDA3E0FEA3E0FF124C1C
:1069EB001C90002EEEF0A3EFF0900047E0FCA3E02C
:0D69FB00FDA3E0FEA3E0FF7B017A0079110F
:106A080090004F124E01900053EBF0A3EAF0A3E977
:016A1800F08D
:106A1900E4A3F0A3F0900056F0A3F0E47B0AFAF99E
:106A2900F890004FE0FCA3E0FDA3E0FEA3E0FF1215
:106A39004D3AEB2430FF900053E0FBA3E0FAA3E0CA
:106A4900F9A3E0FCA3E0F5828C83EF124CCA900015
:106A59004FE0FCA3E0FDA3E0FEA3E0FFE47B0AFA1C
:106A6900F9F8124D3A90004F124E01900057E00488
:106A7900F07006900056E004F0900056E07004A310
:056A8900E064087096B6
:016A8E0022E5
:03000B000273DBA2
:1073DB0030210775C804C221800575C800D22175FC
:0873EB008CFF758AFFC28C3291
:03001B00026B1B5A
:106B1B00C0E0C0F0C083C082C0D075D000C000C040
:106B2B0001C002C003C004C005C006C007C28EC2AC
:106B3B008F7B017A007908126673758D3F758BFF19
:106B4B00C223900005E014F0E070087450F0900040
:106B5B0029E4F0D28E900010E004F0700690000F44
:106B6B00E004F0D007D006D005D004D003D002D07B
:0E6B7B0001D000D0D0D082D083D0F0D0E03254
:03002B000273A2BB
:1073A200C0E0C083C08290001DE004F0700690002F
:0D73B2001CE004F0C2CFD082D083D0E032C6
:10431200900043124E0D00000000E4F5C8C28C75F7
:104322008CFF758AFFD2A990001CF0A3F075CDB165
:1043320075CCE075CBB175CAE0D221D22020121122
:104342007D80FF126C277BFF7A5879DB126BC0806D
:104352005D2018197D80E4FF126C277BFF7A587963
:1043620017126BC07D3A7F01126C27804120191908
:104372007D80E4FF126C277BFF7A587920126BC094
:104382007D3A7F01126C2780252017127D80E4FF81
:10439200126C277BFF7A5B797C126BC080107D8068
:1043A200E4FF126C277BFF7A5B7951126BC0E490B9
:1043B200000FF0A3F0208FFDD28C30211DD390008E
:1043C2001DE0940490001CE09410500E900010E048
:1043D20094B890000FE0940B40E09000057450F008
:1043E20090002974FFF0C28CF58CF58AC221D28C20
:1043F200E490000FF0A3F020211DD390001DE09463
:104402000490001CE09410500E900010E094B890BC
:10441200000FE0940B40E0C28CE4F5C890000574F4
:1044220050F090002974FFF0D221C390001DE09457
:10443200D290001CE0940F4003024830C390001059
:10444200E0945490000FE0940B4003024830127243
:104452000A90002EEEF0A3EFF090001CE0FEA3E025
:10446200FF7C007D0A124CECAC06AD07E4124BE374
:10447200900043124E01900043E0F8A3E0F9A3E05C
:10448200FAA3E0FBC000C001C002C00390002EE00E
:10449200FEA3E0FFE4EF2420FFEE344EFEE434FFFF
:1044A200FDE434FFFCE47BD07A07F9F8126CE8EC07
:1044B200124BDED003D002D001D0001248DA9000B5
:1044C20043124E01900043E0F8A3E0F9A3E0FAA3FF
:1044D200E0FBE4FFFE7D807C3F124AD49000431251
:1044E2004E01900043E0FCA3E0FDA3E0FEA3E0FF49
:1044F2007B007A40791C78461249CB900043124ED9
:1045020001E4FFFE7D207C41900043E0F8A3E0F946
:10451200A3E0FAA3E0FB124B71500302461E900087
:1045220043E0FCA3E0FDA3E0FEA3E0FFE4FBFA7995
:104532007A78441269BB7DC0E4FF126C27900015A3
:10454200126C237D2E126C1B900013126C239000B0
:1045520012126C23900011126C237BFF7A57798A16
:10456200126BC07D2C7F01126C272014097BFF7A0D
:104572005779EF126BC02015097BFF7A5779F61233
:104582006BC02016097BFF7A5779FE126BC0900030
:1045920011E0540FF0A3E0540FF0A3E0540FF0A386
:1045A200E0540FF0A3E0540FF0E490001FF09000ED
:1045B20001F0900011E0900001F0301050E0905BAB
:1045C200959390000CF0900012E0900001F0E090C2
:1045D2005B959390000BF0900013E0900001F0E0E7
:1045E200905B959390000AF0900014E0900001F027
:1045F200E0905B9593900009F0900015E090000127
:10460200F0E0905B9593900008F0547FF030120335
:10461200024874D20CD20DC20E024874E4FFFE7D31
:10462200807C3F900043E0F8A3E0F9A3E0FAA3E026
:10463200FB124B714003024736900043E0FCA3E0BB
:10464200FDA3E0FEA3E0FF7B007A5079C378471216
:1046520069BB7DC0E4FF126C137D2E7F01126C27B3
:10466200900013126C23900012126C23900011120E
:104672006C237BFF7A5B795D126BC07D2C7F01120C
:104682006C272014097BFF7A5779EF126BC0201533
:10469200097BFF7A5779F6126BC02016097BFF7AE5
:1046A2005779FE126BC0900011E0540FF0A3E05452
:1046B2000FF0A3E0540FF0A3E0540FF0A3E0540F67
:1046C200F0E490001FF0900001F0900011E09000E3
:1046D20001F0301050E0905B959390000CF0900048
:1046E20012E0900001F0E0905B959390000BF09047
:1046F2000013E0900001F0E0905B959390000AF0C7
:10470200900014E0900001F0E0905B959390000916
:10471200F0547FF0900015E0900001F0E0905B957E
:1047220093900008F0301203024874D20CD20DC2EA
:104732000E024874201206C20CD20DC20E90004323
:10474200E0FCA3E0FDA3E0FEA3E0FF7B007A40795A
:104752001C78461269BB7DC0E4FF126C13900013F3
:10476200126C237D2E7F01126C27900012126C2393
:10477200900011126C237BFF7A5B795D126BC07D16
:104782002C7F01126C272014097BFF7A5779EF12D4
:104792006BC02015097BFF7A5779F6126BC0201681
:1047A200097BFF7A5779FE126BC0900011E0540F1B
:1047B200F0A3E0540FF0A3E0540FF0A3E0540FF085
:1047C200A3E0540FF0E490001FF0900001F090007D
:1047D20011E0900001F0201003024874E0905B9514
:1047E2009390000CF0900012E0900001F0E0905BDA
:1047F200959390000BF0900013E0900001F0E09090
:104802005B959390000AF0547FF0900014E09000C2
:1048120001F0E0905B9593900009F0900015E09014
:104822000001F0E0905B9593900008F080447DC019
:10483200E4FF126C277D307F01126C277D307F01EF
:10484200126C277D307F01126C277D2E126BA79090
:10485200000C74C0F090000BF090000A7440F090CD
:10486200000974C0F0900008F0201206C20CD20DAC
:10487200C20EE4F58CF58A90001CF0A3F075CDB160
:1048820075CCE075CBB175CAE0C2A9900005745031
:10489200F090002974FFF0E490000FF0A3F03012C2
:1048A200047F0180027F003010047E0180027E00BE
:1048B200EE5F601C127179900025EFF07003126DAB
:1048C2006B900025E0B40103126DA57F05126E7393
:0148D20022C3
:1071F700C28CE4F5C89000057450F090002974FF24
:03720700F0D221A1
:10720A0090004BE5CDF0A3E5CCF090004BE0B5CD76
:06721A00EFE0FEA3E0FF1F
:01722000224B
:105FB800900043124E0D00000000900030124E0D6C
:105FC80000000000E4F5C8C28C758CFF758AFFD20A
:105FD800A990001CF0A3F075CDB175CCE075CBB1DC
:105FE80075CAE0D221D2202012117D80FF126C27C1
:105FF8007BFF7A5879DB126BC0805D2018197D8091
:10600800E4FF126C277BFF7A587917126BC07D3A30
:106018007F01126C2780412019197D80E4FF126CE2
:10602800277BFF7A587920126BC07D3A7F01126C6A
:106038002780252017127D80E4FF126C277BFF7ACA
:106048005B797C126BC080107D80E4FF126C277B2B
:10605800FF7A5B7951126BC0208FFDD28CE49000DF
:1060680020F0302116D390001DE0946490001CE0CD
:1060780094005007900029E0F460E7900005745000
:10608800F090002974FFF0C28CF58CF58AC221D2F9
:106098008C202116D390001DE0946490001CE0949D
:1060A800005007900029E0F460E71271F790002E85
:1060B800EEF0A3EFF090001CE0FEA3E0FF7C007D73
:1060C8000A124CECAC06AD07E4124BE39000431205
:1060D8004E01900043E0F8A3E0F9A3E0FAA3E0FB47
:1060E800C000C001C002C00390002EE0FEA3E0FF84
:1060F800E4EF2420FFEE344EFEE434FFFDE434FFE9
:10610800FCE47BD07A07F9F8126CE8EC124BDED08D
:1061180003D002D001D0001248DA900043124E0199
:10612800900030E0FCA3E0FDA3E0FEA3E0FF9000B8
:1061380043E0F8A3E0F9A3E0FAA3E0FB1248DA9001
:106148000030124E01E490001CF0A3F075CDB1753B
:10615800CCE075CBB175CAE0758CFF758AFFD28C1F
:10616800900020E004F0E0D39404500302606AE455
:10617800F5C8C28C9000057450F090002974FFF0A7
:10618800C390001DE094F490001CE09401400302C9
:106198006312E4FBFA79A07840900030E0FCA3E0B9
:1061A800FDA3E0FEA3E0FF124AD4900043124E0183
:1061B800900043E0F8A3E0F9A3E0FAA3E0FBE4FFD2
:1061C800FE7D807C3F124AD4900043124E0190001D
:1061D80043E0FCA3E0FDA3E0FEA3E0FF7B007A40E0
:1061E800791C78461249CB900043124E0190004327
:1061F800E0FCA3E0FDA3E0FEA3E0FFE4FBFA797A6C
:1062080078441249CB900043124E01900043E0FCC1
:10621800A3E0FDA3E0FEA3E0FF124C1C126A027D7E
:10622800C0E4FF126C27900015126C237D2E126CAF
:106238001B900013126C23900012126C2390001113
:10624800126C237BFF7A57798A126BC07D2C7F01F1
:10625800126C272014097BFF7A5779EF126BC02044
:1062680015097BFF7A5779F6126BC02016097BFF58
:106278007A5779FE126BC0900011E0540FF0A3E03A
:10628800540FF0A3E0540FF0A3E0540FF0A3E05430
:106298000FF0E490001FF0900001F0900011E090E2
:1062A8000001F0547FF0301050E0905B959390001F
:1062B8000CF0900012E0900001F0E0905B95939054
:1062C800000BF0900013E0900001F0E0905B9593D4
:1062D80090000AF0900014E0900001F0E0905B95C7
:1062E80093900009F0900015E0900001F0E0905BB9
:1062F8009593900008F0547FF0E4900020F090000F
:1063080030124E0D00000000801B126B8990000CAB
:1063180074C0F090000BF090000AF0900009F09023
:1063280000087440F03012047F0180027F003010B2
:10633800047E0180027E00EE5F601C12717990007D
:1063480025EFF07003126D6B900025E0B401031285
:106358006DA57F05126E73E4F58CF58AC28D9000E9
:106368001CF0A3F075CDB175CCE075CBB175CAE062
:08637800C2A990002974FFF096
:0163800022FA
:105BAA00900043124E0D00000000900030124E0D7E
:105BBA0000000000E4F5C8C28C758CFF758AFFD21C
:105BCA00A990001CF0A3F075CDD875CCF075CBD890
:105BDA0075CAF0D221D2202012117D80FF126C27C3
:105BEA007BFF7A5879DB126BC0805D2018197D80A3
:105BFA00E4FF126C277BFF7A587917126BC07D3A43
:105C0A007F01126C2780412019197D80E4FF126CF4
:105C1A00277BFF7A587920126BC07D3A7F01126C7C
:105C2A002780252017127D80E4FF126C277BFF7ADC
:105C3A005B797C126BC080107D80E4FF126C277B3D
:105C4A00FF7A5B7951126BC0301031900027E070F7
:105C5A002B127179900025EFF0700D12726E900080
:105C6A0024EFF0547F126D72900025E0B4010D12FA
:105C7A00728D900024EFF0547F126DAC308FFD20AE
:105C8A008FFDD28CE4900020F0302107900029E0AB
:105C9A00F460F69000057450F090002974FFF0C289
:105CAA0021D28C202107900029E0F460F6C28C9062
:105CBA0000057450F090002974FFF0D221E4F5C871
:105CCA0012720A90002EEEF0A3EFF090001CE0FE94
:105CDA00A3E0FF7C007D05124CECAC06AD07E41294
:105CEA004BE3900043124E01900043E0FCA3E0FD19
:105CFA00A3E0FEA3E0FFE4FBFA797A78441249CBE9
:105D0A00900043124E01900043E0F8A3E0F9A3E0AB
:105D1A00FAA3E0FBC000C001C002C00390002EE05D
:105D2A00FEA3E0FFE4EF2410FFEE3427FEE434FF85
:105D3A00FDE434FFFCE47B02FAF9F8126CE8EC1299
:105D4A004BDED003D002D001D0001248DA900043D3
:105D5A00124E01900030E0FCA3E0FDA3E0FEA3E0B8
:105D6A00FF900043E0F8A3E0F9A3E0FAA3E0FB12F6
:105D7A0048DA900030124E01E490001CF0A3F0754E
:105D8A00CDD875CCF075CBD875CAF0758CFF758AED
:105D9A00FFD28C900020E004F0E0D3940450030278
:105DAA005C93E4F5C8C28C9000057450F090002909
:105DBA0074FFF0C390001DE094F490001CE094017D
:105DCA004003025F62E4FBFA79A07840900030E079
:105DDA00FCA3E0FDA3E0FEA3E0FF124AD490004337
:105DEA00124E01900043E0F8A3E0F9A3E0FAA3E021
:105DFA00FBE4FFFE7D807C3F124AD4900043124EA2
:105E0A0001900043E0FCA3E0FDA3E0FEA3E0FF7BDA
:105E1A00007A40791C78461249CB900043124E0111
:105E2A00900043E0FCA3E0FDA3E0FEA3E0FF7B00BB
:105E3A007A40791C78461249CB900043124E019061
:105E4A000043E0FCA3E0FDA3E0FEA3E0FFE4FBFACD
:105E5A00792078411249CB900043124E01900043B9
:105E6A00E0FCA3E0FDA3E0FEA3E0FF124C1C126AD3
:105E7A00027DC0E4FF126C137D2E7F01126C279005
:105E8A000013126C23900012126C23900011126CF2
:105E9A00237BFF7A57798A126BC07D2C7F01126CA3
:105EAA00272014097BFF7A5779EF126BC020150956
:105EBA007BFF7A5779F6126BC02016097BFF7A5757
:105ECA0079FE126BC0900011E0540FF0A3E0540F5A
:105EDA00F0A3E0540FF0A3E0540FF0A3E0540FF046
:105EEA00E490001FF0900001F0900011E090000192
:105EFA00F0547FF0301050E0905B959390000CF0D6
:105F0A00900012E0900001F0E0905B959390000BF6
:105F1A00F0900013E0900001F0E0905B9593900000
:105F2A000AF0900014E0900001F0E0905B959390E5
:105F3A000009F0547FF0900015E0900001F0E09025
:105F4A005B9593900008F0E4900020F090003012E6
:105F5A004E0D0000000080347DC0E4FF126C277DE6
:105F6A00307F01126C277D307F01126C277D2E1243
:105F7A006BA090000C74C0F090000BF090000AF037
:105F8A009000097440F090000874C0F0E4F58CF5B4
:105F9A008AC28D90001CF0A3F075CDB175CCE07566
:0D5FAA00CBB175CAE0C2A990002974FFF0C8
:015FB70022C7
:1036E300900043124E0D00000000900030124E0D6A
:1036F30000000000E4F5C8C28C758CFF758AFFD208
:10370300A990001CF0A3F075CDD875CCF075CBD87B
:1037130075CAF0D221D2202012127D80FF126C27AD
:103723007BFF7A5879DB126BC002381020181A7DA0
:1037330080E4FF126C277BFF7A587917126BC07DE8
:103743003A7F01126C2702381020191A7D80E4FF9A
:10375300126C277BFF7A587920126BC07D3A7F0168
:10376300126C270238102017137D80E4FF126C2798
:103773007BFF7A5B797C126BC00238102010487D86
:1037830080E4FF126C277BFF7A5879AD126BC0205F
:10379300080E20090B7BFF7A5B7967126BC0806D83
:1037A30020080B7BFF7A5B7961126BC0805F200975
:1037B3000B7BFF7A5B7961126BC0805130084E300E
:1037C300094B126BBA80467D80E4FF126C277BFFA6
:1037D3007A5B7951126BC020080E20090B7BFF7AAC
:1037E3005B7967126BC0802520080B7BFF7A5B79BE
:1037F30061126BC0801720090B7BFF7A5B79611222
:103803006BC08009300806300903126BBA201223FB
:10381300127179900025EFF070057FF7126D7A90A1
:103823000025E0B401057FF7126DB47F05126E73B6
:103833000238BA301044900027E0703E127179903C
:103843000025EFF0701512726E900024EFF0547F94
:10385300F054E3F04414FFF0126D7A900025E06415
:1038630001705412728D900024EFF0547FF054E3F2
:10387300F04414FFF0126DB4803D30103A127179A8
:10388300900025EFF0701212726E900024EFF05446
:10389300E3F04414FFF0126D7A900025E0B40112B6
:1038A30012728D900024EFF054E3F04414FFF012F1
:1038B3006DB47F05126E73208FFDE4900020F0E459
:1038C30090001CF0A3F0D28C30210FD390001DE0A8
:1038D300946490001CE0940040EEC221D28C20211D
:1038E3000FD390001DE0946490001CE0940040EE20
:1038F3001271F790002EEEF0A3EFF07F01126E73BA
:1039030090001CE0FEA3E0FF7C007D05124CECACB4
:1039130006AD07E4124BE3900043124E017F011200
:103923006E73900043E0FCA3E0FDA3E0FEA3E0FF81
:10393300E4FBFA797A78441249CB900043124E01A2
:103943007F01126E73900043E0F8A3E0F9A3E0FA5D
:10395300A3E0FBC000C001C002C00390002EE0FE44
:10396300A3E0FFE4EF2410FFEE3427FEE434FFFD71
:10397300E434FFFCE47B02FAF9F8126CE8EC124B36
:10398300DED003D002D001D0001248DA90004312F7
:103993004E017F01126E73900030E0FCA3E0FDA3A3
:1039A300E0FEA3E0FF900043E0F8A3E0F9A3E0FA10
:1039B300A3E0FB1248DA900030124E017F05126E2D
:1039C3007375CDD875CCF075CBD875CAF0758CFFEF
:1039D300758AFF900020E004F0E0D39403500302C3
:1039E30038C2C28CC390001DE0942090001CE09468
:1039F300034003023C08E4FBFA79807840900030EE
:103A0300E0FCA3E0FDA3E0FEA3E0FF124AD4900094
:103A130043124E017F05126E73201077900043E02E
:103A2300F8A3E0F9A3E0FAA3E0FBE4FFFE7D807CCA
:103A33003F124AD4900043126E6E900043E0FCA301
:103A4300E0FDA3E0FEA3E0FFE4FBFAF978401249AE
:103A5300CB900043124E017F05126E739000431208
:103A630063817D2C7F01126C272014097BFF7A5719
:103A730079EF126BC02015097BFF7A5779F6126B29
:103A8300C0301603023C437BFF7A5779FE126BC0AA
:103A9300023C43900043E0F8A3E0F9A3E0FAA3E07B
:103AA300FBE4FFFE7D807C3F124AD4900043124E1C
:103AB30001900043E0FCA3E0FDA3E0FEA3E0FFE4EC
:103AC300FBFA798078411249CB900043124E019062
:103AD3000043E0FCA3E0FDA3E0FEA3E0FF7B007A4C
:103AE30040791C78461249CB900043124E01900056
:103AF30043E0FCA3E0FDA3E0FEA3E0FF7B007A40EC
:103B0300791C78461249CB900043124E0190004332
:103B1300E0FCA3E0FDA3E0FEA3E0FF124C1C126A4D
:103B2300027DC0E4FF126C13900013126C237D2EF0
:103B33007F01126C27900012126C23900011126CFB
:103B4300237BFF7A57798A126BC07D2C7F01126C1D
:103B5300272014097BFF7A5779EF126BC0201509D0
:103B63007BFF7A5779F6126BC02016097BFF7A57D1
:103B730079FE126BC0900011E0540FF0A3E0540FD4
:103B8300F0A3E0540FF0A3E0540FF0A3E0540FF0C0
:103B9300E490001FF0900001F0900011E09000010C
:103BA300F0301050E0905B959390000CF090001271
:103BB300E0900001F0E0905B959390000BF0900093
:103BC30013E0900001F0E0905B959390000AF054AD
:103BD3007FF0900014E0900001F0E0905B959390EB
:103BE3000009F0900015E0900001F0E0905B9593E0
:103BF300900008F0E4900020F0900030124E0D0089
:103C0300000000803B7DC0E4FF126C277D307F0104
:103C1300126C277D307F01126C277D307F01126C7F
:103C2300277D2E126BA790000C74C0F090000BF050
:103C330090000A7440F090000974C0F0900008F0FE
:103C4300E4F58CF58AC28D90001CF0A3F075CDB11C
:103C530075CCE075CBB175CAE0C2A990002974FF99
:103C6300F0201246127179900025EFF0701812724D
:103C73006E900024EFF054E3F04418F054FCF04449
:103C830003FFF0126D7A900025E0B4011812728DD3
:103C9300900024EFF054E3F04418F054FCF0440394
:103CA300FFF0126DB47F05026E73900027E0702C55
:103CB300127179900025EFF0700D12726E9000244E
:103CC300EFF0547F126D72900025E06401702C12A6
:103CD300728D900024EFF0547F026DAC30101C12F3
:103CE3007179900025EFF07003126D6B900025E061
:0B3CF300B40103126DA57F05126E7373
:013CFE0022A3
:1030B800900043124E0D00000000900030124E0D9B
:1030C80000000000E4F5C8C28C758CFF758AFFD239
:1030D800A990001CF0A3F0F5CDF5CCF5CBF5CAF519
:1030E800C8D221D2202012127D80FF126C277BFFCC
:1030F8007A5879DB126BC00231E320181A7D80E41C
:10310800FF126C277BFF7A587917126BC07D3A7FC4
:1031180001126C270231E320191A7D80E4FF126C3A
:10312800277BFF7A587920126BC07D3A7F01126C99
:10313800270231E32017137D80E4FF126C277BFF01
:103148007A5B797C126BC00231E32010487D80E401
:10315800FF126C277BFF7A5879AD126BC020080EDE
:1031680020090B7BFF7A5B7967126BC0806D2008A2
:103178000B7BFF7A5B7961126BC0805F20090B7B48
:10318800FF7A5B7961126BC0805130084E30094B71
:10319800126BBA80467D80E4FF126C277BFF7A5B56
:1031A8007951126BC020080E20090B7BFF7A5B79DE
:1031B80067126BC0802520080B7BFF7A5B79611250
:1031C8006BC0801720090B7BFF7A5B7961126BC09B
:1031D8008009300806300903126BBA7D94E4FF12A7
:1031E8006C277BFF7A597952126BC03010319000EE
:1031F80027E0702B127179900025EFF0700D127294
:103208006E900024EFF0547F126D72900025E0B4A8
:10321800010D12728D900024EFF0547F126DAC30C6
:103228008FFD208FFDD28CE4900020F0302116D342
:1032380090001DE0943290001CE09400500790002C
:1032480029E0F460E79000057450F090002974FFBD
:10325800F0C221D28C202116D390001DE094329028
:10326800001CE094005007900029E0F460E7C28C4D
:10327800E4F5C89000057450F090002974FFF0D26E
:10328800217F0A126E73900003E5CDF0126E7390E1
:103298000023E5CCF07F01126E73900003E0F5CDBA
:1032A800126E73900023E0F5CC126E7312720A90BE
:1032B800002EEEF0A3EFF07F01126E7390002EE067
:1032C800FCA3E0FDE4124BE3900043124E017F01A2
:1032D800126E73900043E0FCA3E0FDA3E0FEA3E0C0
:1032E800FFE4FBFAF97840124AD4900043124E01E9
:1032F8007F01126E73900030E0FCA3E0FDA3E0FEB6
:10330800A3E0FF900043E0F8A3E0F9A3E0FAA3E00C
:10331800FB1248DA900030124E017F01126E73E4FE
:1033280090001CF0A3F0F5CDF5CCF5CBF5CAC28C16
:10333800758CFF758AFFD28C900020E004F0E0D3F2
:1033480094035003023234C28CE4F5C8900005742B
:1033580050F090002974FFF0308FFD208FFDC3904E
:10336800001DE094F490001CE0940140030236181C
:10337800E4FBFA79807840900030E0FCA3E0FDA3FC
:10338800E0FEA3E0FF126E68201054126E53900006
:1033980043E0FCA3E0FDA3E0FEA3E0FFE4FBFAF9B1
:1033A80078401249CB126E6B9000431263817D2CDA
:1033B8007F01126C272014097BFF7A5779EF126B73
:1033C800C02015097BFF7A5779F6126BC0301603B7
:1033D8000236337BFF7A5779FE126BC0023633E42C
:1033E800FFFE7DBE7C42900043E0F8A3E0F9A3E035
:1033F800FAA3E0FB124B71600250030236337F02DE
:10340800126E73126E53900043E0FCA3E0FDA3E03C
:10341800FEA3E0FF7B007A40791C78461249CB1264
:103428006E6B900043E0FCA3E0FDA3E0FEA3E0FF89
:10343800E4FBFA797A78441249CB126E6B90004318
:10344800E0FCA3E0FDA3E0FEA3E0FF124C1C126A1F
:1034580002900015E0D39430500302353F7DC0E45C
:10346800FF126C27126C237D2E126C1B9000131216
:103478006C23900012126C23900011126C237BFFB6
:103488007A5779B1126BC07D2C7F01126C272014FA
:10349800097BFF7A5779EF126BC02015097BFF7AF9
:1034A8005779F6126BC02016097BFF7A5779FE12FE
:1034B8006BC0900011E0540FF0A3E0540FF0A3E0AC
:1034C800540FF0A3E0540FF0A3E0540FF0E4900081
:1034D8001FF0900001F0900011E0900001F0201022
:1034E80003023633E0905B959390000CF090001245
:1034F800E0900001F0E0905B959390000BF0900055
:1035080013E0900001F0E0905B959390000AF09032
:103518000014E0900001F0E0905B9593900009F0B2
:10352800900015E0900001F0E0905B959390000802
:10353800F0547FF00236337DC0E4FF126C27900010
:1035480016126C23900015126C237D2E126C1B90A2
:103558000013126C23900012126C237BFF7A5779A8
:10356800B1126BC07D2C7F01126C272014097BFFE0
:103578007A5779EF126BC02015097BFF7A5779F6D5
:10358800126BC02016097BFF7A5779FE126BC09028
:103598000012E0540FF0A3E0540FF0A3E0540FF032
:1035A800A3E0540FF0A3E0540FF0E490001FF09054
:1035B8000001F0900012E0900001F030106DE090F2
:1035C8005B959390000CF0900013E0900001F0E000
:1035D800905B959390000BF0900014E0900001F040
:1035E800E0905B959390000AF0900015E090000140
:1035F800F0E0905B9593900009F0547FF0900016EE
:10360800E0900001F0E0905B9593900008F0801B3B
:10361800126B8990000C74C0F090000BF090000AB7
:10362800F0900009F09000087440F0E4F58CF58AF9
:10363800C28D90001CF0A3F075CDB175CCE075CBB0
:10364800B175CAE0C2A99000057450F090002974C1
:10365800FFF0E4900020F0900030124E0D000000C2
:1036680000E4F5C8C28C20121C127179900025EF75
:10367800F070057FFB126D7A900025E06401705AA6
:103688007FFB026DB4301232900027E0702C12716B
:1036980079900025EFF0700D12726E900024EFF013
:1036A800547F126D72900025E06401702D12728DA6
:1036B800900024EFF0547F026DAC127179900025D0
:1036C800EFF070057FF9126D7A900025E0B40105DE
:0A36D8007FF9126DB47F05126E73C6
:0136E20022C5
:102A5A00900043124E0D00000000900030124E0DFF
:102A6A0000000000E4F5C8C28C758CFF758AFFD29D
:102A7A00A990001CF0A3F0F5CDF5CCF5CBF5CAD2A0
:102A8A0021D2202012117D80FF126C277BFF7A58F9
:102A9A0079DB126BC0805D2018197D80E4FF126C0F
:102AAA00277BFF7A587917126BC07D3A7F01126C27
:102ABA002780412019197D80E4FF126C277BFF7A59
:102ACA00587920126BC07D3A7F01126C278025202D
:102ADA0017127D80E4FF126C277BFF7A5B797C12E8
:102AEA006BC080107D80E4FF126C277BFF7A5B79D4
:102AFA0051126BC0201222127179900025EFF070EA
:102B0A00057FF7126D7A900025E0B401057FF71270
:102B1A006DB47F05126E738077301244900027E0FF
:102B2A00703E127179900025EFF0701512726E9056
:102B3A000024EFF0547FF054E3F04414FFF0126DD8
:102B4A007A900025E06401704712728D900024EF9C
:102B5A00F0547FF054E3F04414FFF0126DB4803067
:102B6A00127179900025EFF0701412726E900024A1
:102B7A00EFF054E3F04414FFF0126D7A80121272EF
:102B8A008D900024EFF054E3F04414FFF0126DB47A
:102B9A00308FFD208FFDD28CE4900020F030210F81
:102BAA00D390001DE0943290001CE0940040EE9017
:102BBA0000057450F090002974FFF0C221D28C20D5
:102BCA00210FD390001DE0943290001CE094004045
:102BDA00EEC28CD221E4F5C87F05126E7390000311
:102BEA00E5CDF0126E73E5CCF012720A90002EEE6B
:102BFA00F0A3EFF0900047EEF0A3EFF0900047E06B
:102C0A00C313FEA3E013FF900047EEF0A3EFF0908A
:102C1A000043E0F8A3E0F9A3E0FAA3E0FBE4FCFD3B
:102C2A00EB2FFFEA3EFEED39FDEC38FC9000431233
:102C3A004E01E490001CF0A3F0F5CDF5CCF5CBF5F0
:102C4A00CAC28C758CFF758AFFD28C900020E00472
:102C5A00F0E0D394045003022BA7E4F5C8C28C9089
:102C6A0000057450F090002974FFF0C390001DE035
:102C7A0094F490001CE094014003022FEA90004370
:102C8A00E0FCA3E0FDA3E0FEA3E0FFE47B05FAF984
:102C9A00F8124D3A900043124E01E47F2AFEFDFCE1
:102CAA00900043E0F8A3E0F9A3E0FAA3E0FBC31223
:102CBA004DF04003022E58900043E0FCA3E0FDA330
:102CCA00E0FEA3E0FFE4124BDE900030124E0190CA
:102CDA000030E0F8A3E0F9A3E0FAA3E0FBE4FFFE8A
:102CEA007D807C3F124AD4900030124E0190003011
:102CFA00E0FCA3E0FDA3E0FEA3E0FFE4FBFA798099
:102D0A0078411249CB900030124E01900030E0FC1D
:102D1A00A3E0FDA3E0FEA3E0FF7B007A40791C78E4
:102D2A00461249CB900030124E01900030E0FCA3CD
:102D3A00E0FDA3E0FEA3E0FFE4FBFA797A7844120F
:102D4A0049CB900030124E01900030E0FCA3E0FD28
:102D5A00A3E0FEA3E0FF124C1C900043124E019028
:102D6A0000431269F7900014E0D394305003023004
:102D7A00057DC0E4FF126C27A3126C197D2E7F011A
:102D8A00126C27900013126C23900012126C23907D
:102D9A000011126C237BFF7A5779B1126BC07D2C1C
:102DAA007F01126C272014097BFF7A5779EF126B87
:102DBA00C02015097BFF7A5779F6126BC0201609D5
:102DCA007BFF7A5779FE126BC0900011E0540FF026
:102DDA00A3E0540FF0A3E0540FF0A3E0540FF0A3C4
:102DEA00E0540FF0E490001FF0900011E090000111
:102DFA00F0201003023005C2ABE0905B959390007F
:102E0A000CF0900012E0900001F0E0905B95939036
:102E1A00000BF0900013E0900001F0E0905B9593B6
:102E2A0090000AF0900014E0900001F0E0905B95A9
:102E3A0093900009F0547FF0900015E0900001F0A3
:102E4A00E0905B9593900008F0D2AB0230059000B9
:102E5A0043E0FCA3E0FDA3E0FEA3E0FFE4124BDEA7
:102E6A00900030124E01900030E0F8A3E0F9A3E0A0
:102E7A00FAA3E0FBE4FFFE7D807C3F124AD4900077
:102E8A0030124E01900030E0FCA3E0FDA3E0FEA367
:102E9A00E0FFE4FBFA798078411249CB90003012C6
:102EAA004E01900030E0FCA3E0FDA3E0FEA3E0FFAA
:102EBA007B007A40791C78461249CB900030124E3A
:102ECA0001900030E0FCA3E0FDA3E0FEA3E0FFE4F4
:102EDA00FBFA79C878421249CB900030124E019021
:102EEA000030E0FCA3E0FDA3E0FEA3E0FF124C1CCF
:102EFA00900043124E019000431269F7900015E0CA
:102F0A00D3943050030230057DC0E4FF126C2712BF
:102F1A006C197D2E7F01126C27900013126C23907E
:102F2A000012126C23900011126C237BFF7A5779DE
:102F3A00B1126BC07D2C7F01126C272014097BFF14
:102F4A007A5779EF126BC02015097BFF7A5779F609
:102F5A00126BC02016097BFF7A5779FE126BC0905C
:102F6A000011E0540FF0A3E0540FF0A3E0540FF067
:102F7A00A3E0540FF0A3E0540FF0E490001FF09088
:102F8A000011E0900001F0301071C2ABE0905B9547
:102F9A009390000CF0900012E0900001F0E0905B3A
:102FAA00959390000BF0900013E0900001F0E090F0
:102FBA005B959390000AF0900014E0900001F0E015
:102FCA00905B9593900009F0547FF0900015E09083
:102FDA000001F0E0905B9593900008F0D2AB801B63
:102FEA00126B8990000C74C0F090000BF090000AEC
:102FFA00F0900009F09000087440F0E4F58CF58A2E
:10300A00C28D90001CF0A3F075CDB175CCE075CBE4
:10301A00B175CAE0C2A99000057450F090002974F5
:10302A00FFF0E4F5C8C28C201223127179900025B2
:10303A00EFF070057FFB126D7A900025E0B4010570
:10304A007FFB126DB47F05126E730230A830123402
:10305A00900027E0702E127179900025EFF0700D24
:10306A0012726E900024EFF0547F126D7290002558
:10307A00E06401702912728D900024EFF0547F12DF
:10308A006DAC801A301017127179900025EFF0702C
:10309A0005126D6B8003126DA57F05126E73E490A5
:0D30AA000020F0900030124E0D00000000DC
:0130B70022F6
:10532900900043124E0D00000000E4900047F0A3E6
:10533900F0900030124E0D00000000E4F5C8C28C58
:10534900758CFF758AFF90001CF0A3F0F5CDF5CCA4
:10535900F5CBF5CAD221D2202012117D80FF126C23
:10536900277BFF7A5879DB126BC0805D2018197D85
:1053790080E4FF126C277BFF7A587917126BC07D86
:105389003A7F01126C2780412019197D80E4FF12B0
:105399006C277BFF7A587920126BC07D3A7F011206
:1053A9006C2780252017127D80E4FF126C277BFF74
:1053B9007A5B797C126BC080107D80E4FF126C27C8
:1053C9007BFF7A5B7951126BC0201222127179909E
:1053D9000025EFF070057FF3126D7A900025E0B497
:1053E90001057FF3126DB47F05126E73807C301254
:1053F90044900027E0703E127179900025EFF0701B
:105409001512726E900024EFF0547FF054E3F044CB
:1054190010FFF0126D7A900025E06401704C127251
:105429008D900024EFF0547FF054E3F04410FFF026
:10543900126DB48035127179900025EFF070141255
:10544900726E900024EFF054E3F04410FFF0126DF7
:105459007A801212728D900024EFF054E3F0441018
:10546900FFF0126DB47F05126E73D2A9E49000208B
:10547900F0208FFDD28C2021FD9000057450F09012
:10548900002974FFF0C221F58CF58AD28C3021FDF8
:10549900C28CD221E4F5C8308FFD208FFD7F051223
:1054A9006E73900003E5CDF0126E73E5CCF07F02C8
:1054B900126E7312720A90002EEEF0A3EFF07F02C3
:1054C900126E7390002EE0FFA3E0900047CFF0A387
:1054D900EFF07F02126E73900047E0C313F0A3E070
:1054E90013F0126E73900043E0F8A3E0F9A3E0FA19
:1054F900A3E0FBA3E0FEA3E0FFE4FCFDEB2FFFEA42
:105509003EFEED39FDEC38FC900043126E6EE490DE
:10551900001CF0A3F0F5CDF5CCF5CBF5CAC28C751E
:105529008CFF758AFF900020E004F0E0D3940550C9
:105539000302547AE4F5C8C28C9000057450F090C7
:10554900002974FFF0C390001DE094F490001CE062
:105559009401400302570A900043E0FCA3E0FDA335
:10556900E0FEA3E0FFE47B06FAF9F8124D3A900059
:1055790043126E6E900043E0FCA3E0FDA3E0FEA39E
:10558900E0FFE4124BDE900030126E6E900030E0C6
:10559900F8A3E0F9A3E0FAA3E0FBE4FFFE7D807C39
:1055A9003F124AD4900030126E6E900030E0FCA396
:1055B900E0FDA3E0FEA3E0FFE4FBFA798078431263
:1055C90049CB900030126E6E900030E0FCA3E0FDF4
:1055D900A3E0FEA3E0FF7B007A40791C78461249DC
:1055E900CB900030126E6E900030E0FCA3E0FDA37A
:1055F900E0FEA3E0FFE4FBFA792078411249CB9061
:105609000030126E6E900030E0FCA3E0FDA3E0FED6
:10561900A3E0FF124C1C900043126E6E90004312DF
:1056290069F7900015E0D39430500302570A7DC002
:10563900E4FF126C27A3126C0F900013126C237DE8
:105649002E7F01126C27900012126C239000111208
:105659006C237BFF7A5779B1126BC07D2C7F0112C5
:105669006C272014097BFF7A5779EF126BC020153C
:10567900097BFF7A5779F6126BC02016097BFF7AEE
:105689005779FE126BC0900011E0540FF0A3E0545B
:105699000FF0A3E0540FF0A3E0540FF0A3E0540F70
:1056A900F0E490001FF0900011E0900001F030103C
:1056B90050E0905B959390000CF0900012E0900000
:1056C90001F0E0905B959390000BF0900013E0904F
:1056D9000001F0E0905B959390000AF0547FF09000
:1056E9000014E0900001F0E0905B9593900009F0C0
:1056F900900015E0900001F0E0905B959390000810
:10570900F0E4F58CF58AC28D90001CF0A3F075CDFC
:10571900B175CCE075CBB175CAE0C2A99000297406
:10572900FFF0E4F5C8C28C30103012717990002571
:10573900EFF0701412726E900024EFF054E3F0440D
:1057490010FFF0126D7A801212728D900024EFF022
:1057590054E3F04410FFF0126DB47F05126E73E448
:0E576900900020F0900030124E0D0000000065
:01577700220F
:103CFF00900043124E0D00000000900030124E0D48
:103D0F0000000000E4F5C8C28C758CFF758AFFD2E5
:103D1F00A990001CF0A3F0F5CDF5CCF5CBF5CAD2E8
:103D2F0021D2202012117D80FF126C277BFF7A5841
:103D3F0079DB126BC0805D2018197D80E4FF126C57
:103D4F00277BFF7A587917126BC07D3A7F01126C6F
:103D5F002780412019197D80E4FF126C277BFF7AA1
:103D6F00587920126BC07D3A7F01126C2780252075
:103D7F0017127D80E4FF126C277BFF7A5B797C1230
:103D8F006BC080107D80E4FF126C277BFF7A5B791C
:103D9F0051126BC0201223127179900025EFF07031
:103DAF00057FFF126D7A900025E0B401057FFF12A9
:103DBF006DB47F05126E73023E4A30124490002795
:103DCF00E0703E127179900025EFF0701512726E4F
:103DDF00900024EFF0547FF054E3F04410FFF01202
:103DEF006D7A900025E06401705112728D9000245D
:103DFF00EFF0547FF054E3F04410FFF0126DB480F5
:103E0F003A127179900025EFF0701212726E9000D5
:103E1F0024EFF054E3F04410FFF0126D7A90002578
:103E2F00E0B4011212728D900024EFF054E3F044CD
:103E3F0010FFF0126DB47F05126E73D28CE49000F8
:103E4F0020F030210FD390001DE0943290001CE041
:103E5F00940040EE9000057450F090002974FFF02C
:103E6F00C221D28C20210FD390001DE094329000FC
:103E7F001CE0940040EEC28CD221E4F5C812720A05
:103E8F0090002EEEF0A3EFF0FDAC06E4124BE390A2
:103E9F000043124E01900043E0FCA3E0FDA3E0FEBF
:103EAF00A3E0FFE4FBFAF97840124AD490004312E2
:103EBF004E01900030E0FCA3E0FDA3E0FEA3E0FF85
:103ECF00900043E0F8A3E0F9A3E0FAA3E0FB124867
:103EDF00DA900030124E01E490001CF0A3F0F5CD03
:103EEF00F5CCF5CBF5CAC28C758CFF758AFFD28CD9
:103EFF00900020E004F0E0D394045003023E51E41C
:103F0F00F5C8C28C9000057450F090002974FFF032
:103F1F00C390001DE094F490001CE0940140030254
:103F2F0042F8E4FBFA79A07840900030E0FCA3E07F
:103F3F00FDA3E0FEA3E0FF124AD4900043124E010E
:103F4F00900043E0F8A3E0F9A3E0FAA3E0FBE4FF5D
:103F5F00FE7D807C3F124AD4900043124E019000A8
:103F6F0043E0FCA3E0FDA3E0FEA3E0FFE4FBFA794E
:103F7F008078431249CB900043124E01900043E0EA
:103F8F00FCA3E0FDA3E0FEA3E0FF7B007A40791CD9
:103F9F0078461249CB900043124E01900043E0FC4B
:103FAF00A3E0FDA3E0FEA3E0FFE4FBFA79C87842AB
:103FBF001249CB900043124E01900043E0FCA3E066
:103FCF00FDA3E0FEA3E0FF124C1C900047124E0130
:103FDF007F407E427D0F7C00900047E0F8A3E0F920
:103FEF00A3E0FAA3E0FBC3124DF04003024113908C
:103FFF0000471269F7900016E0D394315003024046
:10400F00DC7DC0E4FF126C27126C0F7D2E7F011236
:10401F006C27900013126C23900012126C237BFFFD
:10402F007A5779B1126BC07D2C7F01126C27201447
:10403F00097BFF7A5779EF126BC02015097BFF7A46
:10404F005779F6126BC02016097BFF7A5779FE124B
:10405F006BC0900012E0540FF0A3E0540FF0A3E0F8
:10406F00540FF0A3E0540FF0A3E0540FF0E49000CE
:10407F001FF0900012E0900001F0301050E0905BC4
:10408F00959390000CF0900013E0900001F0E090F9
:10409F005B959390000BF0900014E0900001F0E01E
:1040AF00905B959390000AF0547FF0900015E0908C
:1040BF000001F0E0905B9593900009F0900016E0FE
:1040CF00900001F0E0905B9593900008F0E4F58C80
:1040DF00F58AC28D90001CF0A3F075CDB175CCE0C0
:1040EF0075CBB175CAE0C2A990002974FFF0E4F551
:1040FF00C8C28C900020F0900030124E0D000000CE
:10410F00000242F87F407E427D0F7C00900047E026
:10411F00F8A3E0F9A3E0FAA3E0FBD3124DF05003AC
:10412F000242F89000471269F7900018E06431607E
:10413F00030242057DC0FF126C27126BF47BFF7ADE
:10414F005779D9126BC07D2C7F01126C272014096F
:10415F007BFF7A5779EF126BC02015097BFF7A57D7
:10416F0079F6126BC02016097BFF7A5779FE126B16
:10417F00C0900018E0540FF0900017E0540FF0902B
:10418F000014E0540FF0A3E0540FF0A3E0540FF02D
:10419F00E490001FF0900014E0900001F020100355
:1041AF000242F8E0905B959390000CF0900015E0C0
:1041BF00900001F0E0905B959390000BF09000164B
:1041CF00E0900001F0E0905B959390000AF0900072
:1041DF0017E0900001F0E0905B9593900009F05488
:1041EF007FF0900018E0900001F0E0905B959390C5
:1041FF000008F00242F87DC0E4FF126BF890001344
:10420F00126C237BFF7A5779D9126BC07D2C7F01FB
:10421F00126C272014097BFF7A5779EF126BC0209D
:10422F0015097BFF7A5779F6126BC02016097BFFB1
:10423F007A5779FE126BC0900017E0540FF0900080
:10424F0013E0540FF0A3E0540FF0A3E0540FF0A3CA
:10425F00E0540FF0E490001FF0900013E090000185
:10426F00F0301050E0905B959390000CF09000149C
:10427F00E0900001F0E0905B959390000BF09000C0
:10428F0015E0900001F0E0905B959390000AF0909C
:10429F000016E0900001F0E0905B9593900009F01C
:1042AF00900017E0900001F0E0905B95939000086C
:1042BF00F0547FF0E4F58CF58AC28D90001CF0A3CA
:1042CF00F075CDB175CCE075CBB175CAE0C2A990D0
:1042DF00002974FFF0E4900020F0900030124E0D92
:1042EF0000000000E4F5C8C28C7F05126E73E490E5
:1042FF000020F0900043124E0D00000000E4F5C8BE
:02430F00C28C5E
:014311002289
:104E3E00900043124E0D00000000900030124E0DF7
:104E4E0000000000E4F5C8C28C758CFF758AFFD295
:104E5E00A990001CF0A3F0F5CDF5CCF5CBF5CAD298
:104E6E0021D2202012117D80FF126C277BFF7A58F1
:104E7E0079DB126BC0805D2018197D80E4FF126C07
:104E8E00277BFF7A587917126BC07D3A7F01126C1F
:104E9E002780412019197D80E4FF126C277BFF7A51
:104EAE00587920126BC07D3A7F01126C2780252025
:104EBE0017127D80E4FF126C277BFF7A5B797C12E0
:104ECE006BC080107D80E4FF126C277BFF7A5B79CC
:104EDE0051126BC0201222127179900025EFF070E2
:104EEE00057FF6126D7A900025E0B401057FF6126B
:104EFE006DB47F05126E73803A127179900025EFB2
:104F0E00F0701212726E900024EFF054E3F0441021
:104F1E00FFF0126D7A900025E0B4011212728D909E
:104F2E000024EFF054E3F04410FFF0126DB47F054F
:104F3E00126E73D28CE4900020F030210FD39000CB
:104F4E001DE0943290001CE0940040EE9000057439
:104F5E0050F090002974FFF0C221D28C20210FD383
:104F6E0090001DE0943290001CE0940040EEC28C44
:104F7E00D221E4F5C812720A90002EEEF0A3EFF0E3
:104F8E00FDAC06E4124BE3900043124E0190004339
:104F9E00E0FCA3E0FDA3E0FEA3E0FFE4FBFAF9785A
:104FAE0040124AD4900043124E01900030E0FCA310
:104FBE00E0FDA3E0FEA3E0FF900043E0F8A3E0F9DC
:104FCE00A3E0FAA3E0FB1248DA900030124E01E49F
:104FDE0090001CF0A3F0F5CDF5CCF5CBF5CAC28C44
:104FEE00758CFF758AFFD28C900020E004F0E0D320
:104FFE0094045003024F48E4F5C8C28C9000057427
:10500E0050F090002974FFF0C390001DE094F490CE
:10501E00001CE094014003025314E4FBFA79A078DB
:10502E0040900030E0FCA3E0FDA3E0FEA3E0FF1201
:10503E004AD4900043124E01900043E0F8A3E0F9E9
:10504E00A3E0FAA3E0FBE4FFFE7D807C3F124AD48E
:10505E00900043124E01900043E0FCA3E0FDA3E05C
:10506E00FEA3E0FFE4FBFA798078451249CB90006D
:10507E0043124E01900043E0FCA3E0FDA3E0FEA32B
:10508E00E0FF7B007A40791C78461249CB900043B2
:10509E00124E01900043E0FCA3E0FDA3E0FEA3E06E
:1050AE00FFE4FBFA79C878421249CB900043124EC6
:1050BE0001900043E0FCA3E0FDA3E0FEA3E0FF129D
:1050CE004C1C900047124E017F807E967D987C008E
:1050DE00900047E0F8A3E0F9A3E0FAA3E0FBC312C7
:1050EE004DF040030251FC9000471269F7900017F3
:1050FE00E0D3943150030251C57DC0E4FF126C27FA
:10510E00A3126BF47BFF7A5779D9126BC07D2C7F7B
:10511E0001126C272014097BFF7A5779EF126BC0AE
:10512E002015097BFF7A5779F6126BC02016097B82
:10513E00FF7A5779FE126BC0900018E0540FF09072
:10514E000017E0540FF0900014E0540FF0A3E05459
:10515E000FF0A3E0540FF0E490001FF0900014E065
:10516E00900001F0301050E0905B959390000CF0A1
:10517E00900015E0900001F0E0905B959390000B8D
:10518E00F0900016E0900001F0E0905B9593900097
:10519E000AF0900017E0900001F0E0905B9593907C
:1051AE000009F0547FF0900018E0900001F0E090BC
:1051BE005B9593900008F0E4F58CF58AC28D900013
:1051CE001CF0A3F075CDB175CCE075CBB175CAE00E
:1051DE00C2A990002974FFF0E4F5C8C28C9000209B
:1051EE00F0900030124E0D000000000253147F802C
:1051FE007E967D987C00900047E0F8A3E0F9A3E04E
:10520E00FAA3E0FBD3124DF0500302531490004763
:10521E001269F77DC0E4FF126C27900018126BF430
:10522E007BFF7A5779D9126BC07D2C7F01126C27C8
:10523E002014097BFF7A5779EF126BC02015097B7A
:10524E00FF7A5779F6126BC02016097BFF7A5779D1
:10525E00FE126BC0900017E0540FF0A3E0540FF055
:10526E00900014E0540FF0A3E0540FF0A3E0540F9D
:10527E00F0E490001FF0900014E0900001F0301068
:10528E0050E0905B959390000CF0900015E090002C
:10529E0001F0E0905B959390000BF0900016E0907B
:1052AE000001F0E0905B959390000AF0900017E0FB
:1052BE00900001F0E0905B9593900009F0547FF020
:1052CE00900018E0900001F0E0905B95939000083C
:1052DE00F0E4F58CF58AC28D90001CF0A3F075CD2C
:1052EE00B175CCE075CBB175CAE0C2A99000297436
:1052FE00FFF0E4900020F0900030124E0D00000000
:10530E0000E4F5C8C28CE4900020F0900043124EE9
:0A531E000D00000000E4F5C8C28C89
:015328002262
:0B638100E0FCA3E0FDA3E0FEA3E0FFB2
:06638C00900047124E01D3
:10639200900047E0FCA3E0FDA3E0FEA3E0FF7B004A
:1063A2007A40791C78461249CB900047126E6E9063
:1063B2000047E0FCA3E0FDA3E0FEA3E0FFE4FBFA5C
:1063C200797A78441249CB900047126E6E9000475A
:1063D200E0FCA3E0FDA3E0FEA3E0FF124C1C900052
:1063E2004B126E6E2008030264912009030264912D
:1063F20090004B1269F77DC0E4FF126C277D307F5D
:1064020001126C27900016126C23900015126C2357
:106412007D2E126C1B900013126C237BFF7A5B792A
:106422006D126BC0900013E0540FF0A3E0540FF014
:10643200A3E0540FF0A3E0540FFFF0E490001FF02C
:10644200900001F0900013E0900001F0E0905B9565
:106452009390000CF0900014E0900001F0E0905B4B
:10646200959390000BF0900015E0900001F0E09001
:106472005B959390000AF0547FF0900001EFF0E0FA
:10648200905B9593900009F090000874C0F0223060
:10649200080302653620090302653690004B126933
:1064A200F77DC0E4FF126C277D307F01126C2790CC
:1064B2000016126C237D2E126C11900013126C23A5
:1064C2007BFF7A5B796D126BC0900013E0540FF082
:1064D200A3E0540FF0A3E0540FF0A3E0540FFFF039
:1064E200E490001FF0900001F0900013E090000192
:1064F200F0E0905B959390000CF0900014E0900017
:1065020001F0E0905B959390000BF0900015E09005
:106512000001F0E0905B959390000AF0900001EF8B
:10652200F0E0905B9593900009F0547FF0900008A2
:1065320074C0F0222008030265DB3009030265DB28
:1065420090004B1269F77DC0E4FF126C277D307F0B
:1065520001126C27900016126C237D2E126C119082
:106562000013126C237BFF7A5B796D126BC0900073
:1065720013E0540FF0A3E0540FF0A3E0540FF0A384
:10658200E0540FFFF0E490001FF0900001F0900043
:1065920013E0900001F0E0905B959390000CF09076
:1065A2000014E0900001F0E0905B959390000BF0F6
:1065B200900015E0900001F0E0905B959390000A46
:1065C200F0900001EFF0E0905B9593900009F05499
:1065D2007FF090000874C0F0223008030266723027
:1065E200090302667290004B1269F77DC0E4FF1244
:1065F2006C277D30126C00900013126C237BFF7AA3
:106602005B796D126BC0900013E0540FF0A3E0545D
:106612000FF0A3E0540FF0A3E0540FFFF0E490005A
:106622001FF0900001F0900013E0900001F0E09064
:106632005B959390000CF0900014E0900001F0E064
:10664200905B959390000BF0900015E0900001F0A4
:10665200E0905B959390000AF0900001EFF0E090DB
:106662005B9593900009F090000874C0F0547FF09D
:016672002205
:036D2C00F0E0FF95
:026D2F00AB07B0
:106D31001272507F94126CA3AA07EAB4010512746F
:106D410018801E7F43126CA3AA07EAB401051274CE
:106D510018800EAF03126CA3AA07EAB401031274E0
:096D610018E4900004F0EA70C788
:016D6A002206
:107366001272507F95126CA3AC07ECB4010512742F
:0E73760018800312743BEC70E7127418AF031A
:0173840022E6
:05002E0090003BEFF023
:10003300900004E0F470030221CE900007E0F97011
:10004300030221C090003BE060030221C0E9644148
:1000530060030201A92012030221C0E490002BF0E7
:10006300A3F0C220900026F0900028F07580FFC214
:10007300A5D2A590000004F0126E99900025EFF030
:1000830070057FEE127123900025E0B401057FEE29
:1000930012714E1271CD900025EFF07003126EC3F2
:1000A300900025E0B40103126EFA7527FFC23812DF
:1000B3007179900025EFF07005126D6B8003126D5E
:1000C300A5300C09200D06300E03300F03201B361C
:1000D3001271A3900025EFF0700F1272EA900024C2
:1000E300EFF054E3FFF0126DEE900025E064016041
:1000F300030221C0127309900024EFF054E3FFF0D0
:10010300126E280221C020141C1271A3900025EF47
:10011300F07003126DDF900025E0B40103126E1935
:10012300C2050221C020163EC2071271A39000250A
:10013300EFF070121272EA900024EFF054E3F044EF
:1001430010FFF0126DEE900025E0640160030221C0
:10015300C0127309900024EFF054E3F04410FFF051
:10016300126E280221C03015030221C01271A39020
:100173000025EFF070121272EA900024EFF054E3BE
:10018300F04418FFF0126DEE900025E0B401121256
:100193007309900024EFF054E3F04418FFF0126E5B
:1001A30028C2060221C0E9644260030202E520126C
:1001B300030221C0126E8C900025EFF070057FDEE4
:1001C300127123900025E0B401057FDE12714E12F7
:1001D30071CD900025EFF07003126EC3900025E0FF
:1001E300B40103126EFA7527FFC2391271799000B8
:1001F30025EFF07005126D6B8003126DA5300C09AD
:10020300200D06300E03300F03201B361271A3900E
:100213000025EFF0700F1272EA900024EFF054E320
:10022300FFF0126DEE900025E0640160030221C02F
:10023300127309900024EFF054E3FFF0126E2802CA
:1002430021C020141C1271A3900025EFF07003123B
:100253006DDF900025E0B40103126E19C20502217F
:10026300C020163EC2071271A3900025EFF0701252
:100273001272EA900024EFF054E3F04410FFF012FE
:100283006DEE900025E0640160030221C012730942
:10029300900024EFF054E3F04410FFF0126E2802B4
:1002A30021C03015030221C01271A3900025EFF085
:1002B30070121272EA900024EFF054E3F04418FF36
:1002C300F0126DEE900025E0B40112127309900054
:1002D30024EFF054E3F04418FFF0126E28C2060234
:1002E30021C0E9644360030204212012030221C0F8
:1002F300126E8C900025EFF070057FBE1271239073
:100303000025E0B401057FBE12714E1271CD90003D
:1003130025EFF07003126EC3900025E0B4010312C1
:100323006EFA7527FFC23A127179900025EFF070CB
:1003330005126D6B8003126DA5300C09200D06307C
:100343000E03300F03201B361271A3900025EFF02C
:10035300700F1272EA900024EFF054E3FFF0126D75
:10036300EE900025E0640160030221C0127309903E
:100373000024EFF054E3FFF0126E280221C0201492
:100383001C1271A3900025EFF07003126DDF900033
:1003930025E0B40103126E19C2050221C020163EE6
:1003A300C2071271A3900025EFF070121272EA9047
:1003B3000024EFF054E3F04410FFF0126DEE9000D0
:1003C30025E0640160030221C0127309900024EF49
:1003D300F054E3F04410FFF0126E280221C03015F0
:1003E300030221C01271A3900025EFF07012127264
:1003F300EA900024EFF054E3F04418FFF0126DEE9E
:10040300900025E0B40112127309900024EFF05418
:10041300E3F04418FFF0126E28C2060221C0E9641B
:100423004460030205532012030221C0126E8C9014
:100433000025EFF070057FBD127123900025E0B415
:1004430001057FBD12714E1271CD900025EFF07042
:1004530003126EC3900025E0B40103126EFA127109
:10046300CD900025EFF07527FFC23B300C09200D1E
:1004730006300E03300F03201B361271A3900025A4
:10048300EFF0700F1272EA900024EFF054E3FFF0E4
:10049300126DEE900025E0640160030221C0127327
:1004A30009900024EFF054E3FFF0126E280221C0FC
:1004B30020141C1271A3900025EFF07003126DDF5E
:1004C300900025E0B40103126E19C2050221C02079
:1004D300163EC2071271A3900025EFF0701212723C
:1004E300EA900024EFF054E3F04410FFF0126DEEB5
:1004F300900025E0640160030221C012730990009B
:1005030024EFF054E3F04410FFF0126E280221C0F0
:100513003015030221C01271A3900025EFF0701271
:100523001272EA900024EFF054E3F04418FFF01243
:100533006DEE900025E0B40112127309900024EFD0
:10054300F054E3F04418FFF0126E28C2060221C0F3
:10055300E96445600302067D2012030221C0126E86
:100563008C900025EFF070057FBB1271239000255E
:10057300E0B401057FBB12714E1271CD900025EFDF
:10058300F07003126EC3900025E0B40103126EFAFB
:100593007527FFC23C300C09200D06300E03300FC7
:1005A30003201B361271A3900025EFF0700F127217
:1005B300EA900024EFF054E3FFF0126DEE90002573
:1005C300E0640160030221C0127309900024EFF07C
:1005D30054E3FFF0126E280221C020141C1271A3F1
:1005E300900025EFF07003126DDF900025E0B40159
:1005F30003126E19C2050221C020163EC2071271F2
:10060300A3900025EFF070121272EA900024EFF02D
:1006130054E3F04410FFF0126DEE900025E0640106
:1006230060030221C0127309900024EFF054E3F039
:100633004410FFF0126E280221C03015030221C0BE
:100643001271A3900025EFF070121272EA90002449
:10065300EFF054E3F04418FFF0126DEE900025E044
:10066300B40112127309900024EFF054E3F044181C
:10067300FFF0126E28C2060221C0E964466003023D
:1006830007A72012030221C0126E8C900025EFF001
:1006930070057FB7127123900025E0B401057FB781
:1006A30012714E1271CD900025EFF07003126EC3DC
:1006B300900025E0B40103126EFA7527FFC23D30A6
:1006C3000C09200D06300E03300F03201B36127168
:1006D300A3900025EFF0700F1272EA900024EFF060
:1006E30054E3FFF0126DEE900025E0640160030215
:1006F30021C0127309900024EFF054E3FFF0126E4F
:10070300280221C020141C1271A3900025EFF07061
:1007130003126DDF900025E0B40103126E19C205C8
:100723000221C020163EC2071271A3900025EFF0EC
:1007330070121272EA900024EFF054E3F04410FFB9
:10074300F0126DEE900025E0640160030221C012F7
:100753007309900024EFF054E3F04410FFF0126E9D
:10076300280221C03015030221C01271A390002575
:10077300EFF070121272EA900024EFF054E3F044A9
:1007830018FFF0126DEE900025E0B4011212730908
:10079300900024EFF054E3F04418FFF0126E28C2E7
:1007A300060221C0E9645360030208E92012030230
:1007B30021C0126E8C900025EFF070057F3F1271FF
:1007C30023900025E0B401057F3F12714E1271CDD5
:1007D300900025EFF0700F127328900024EFF0546F
:1007E3007FFFF0126ECF900025E0B4010F12734724
:1007F300900024EFF0547FFFF0126F067527FFC2BD
:100803003E300C09200D06300E03300F03201B363B
:100813001271A3900025EFF0700F1272EA9000247A
:10082300EFF054E3FFF0126DEE900025E0640160F9
:10083300030221C0127309900024EFF054E3FFF088
:10084300126E280221C020141C1271A3900025EF00
:10085300F07003126DDF900025E0B40103126E19EE
:10086300C2050221C020163EC2071271A3900025C3
:10087300EFF070121272EA900024EFF054E3F044A8
:1008830010FFF0126DEE900025E064016003022179
:10089300C0127309900024EFF054E3F04410FFF00A
:1008A300126E280221C03015030221C01271A390D9
:1008B3000025EFF070121272EA900024EFF054E377
:1008C300F04418FFF0126DEE900025E0B40112120F
:1008D3007309900024EFF054E3F04418FFF0126E14
:1008E30028C2060221C0E964546003020AB0201240
:1008F300030221C0126E8C900025EFF070057F3F3C
:10090300127123900025E0B401057F3F12714E124E
:1009130071CD900025EFF07003126EC3900025E0B7
:10092300B40103126EFA7527FFC23F303F03022161
:01093300C003
:10093400200C7B300D78200E75200F721271A3905D
:100944000025EFF0700F1272EA900024EFF054E3E8
:10095400FFF0126DEE900025E0B4010F12730990C0
:100964000024EFF054E3FFF0126E28127179900026
:1009740025EFF0701512726E900024EFF0547FF0A2
:1009840054E3F04410FFF0126D7A900025E0B401B6
:100994001512728D900024EFF0547FF054E3F0446C
:1009A40010FFF0126DB4E4900027F00221C0300C67
:1009B40009200D06300E03300F03201B361271A3DD
:1009C400900025EFF0700F1272EA900024EFF054BB
:1009D400E3FFF0126DEE900025E064016003022154
:1009E400C0127309900024EFF054E3FFF0126E2854
:1009F4000221C0300C45300D42200E3F200F3C1226
:100A040071A3900025EFF070121272EA900024EFA7
:100A1400F054E3F0440CFFF0126DEE900025E06416
:100A24000160030221C0127309900024EFF054E323
:100A3400F0440CFFF0126E280221C01271A3900042
:100A440025EFF070121272EA900024EFF054E3F0F4
:100A54004414FFF0126DEE900025E0B401121273FD
:100A640009900024EFF054E3F04414FFF0126E28D0
:100A7400127179900025EFF0701212726E900024BA
:100A8400EFF054E3F04410FFF0126D7A900025E08B
:100A9400640160030221C012728D900024EFF054AF
:100AA400E3F04410FFF0126DB40221C0E964477012
:100AB400737580FFC2A5D2A5900000E064016003B5
:100AC4000221C0203F381271A3900025EFF070126C
:100AD4001272EA900024EFF054E3F04414FFF01291
:100AE4006DEE900025E06401702B127309900024D0
:100AF400EFF054E3F04414FFF0126E2880171271E3
:100B0400A3900025EFF07003126DDF900025E0B490
:100B14000103126E19C214D215D216C205D206D21E
:100B2400070221C0E9644870567580FFC2A5D2A5AA
:100B3400900000E0640160030221C01271A39000E0
:100B440025EFF070121272EA900024EFF054E3F0F3
:100B54004418FFF0126DEE900025E0B401121273F8
:100B640009900024EFF054E3F04418FFF0126E28CB
:100B7400D214C215D216D205C206D2070221C0E988
:100B8400644970567580FFC2A5D2A5900000E06448
:100B94000160030221C01271A3900025EFF07012CE
:100BA4001272EA900024EFF054E3F04410FFF012C4
:100BB4006DEE900025E0B40112127309900024EF49
:100BC400F054E3F04410FFF0126E28D214D215C290
:100BD40016D206D205C2070221C0E9644A600302A4
:100BE4000CC97580FFC2A5D2A5900000E064016025
:100BF400030221C02018030221C02019030221C0CE
:100C04003027030221C0B2172017701271CD900053
:100C140025EFF0701D127328900024EFF054BFF0FC
:100C240054C7F04420F054F8F04401FFF0126ECFA2
:100C3400801B127347900024EFF054BFF054C7F0A8
:100C44004420F054F8F04401FFF0126F06900021A4
:100C5400747FF0FF126D2FC20C7D01E4FF126C272C
:100C64007BFF7A5B797C126C607D8AE4FF126C27CF
:100C74007BFF7A5B7987126BC080451271CD90003F
:100C840025EFF07011127328900024EFF04440FF18
:100C9400F0126ECF800F127347900024EFF044409F
:100CA400FFF0126F06E4FF126D2FD20CD20DD20E9C
:100CB4007D01E4FF126C277BFF7A5B7951126C6033
:100CC400D2270221C0900007E0644B6003020D5C50
:100CD4007580FFC2A5D2A5900000E0640160030204
:100CE40021C03028030221C0B21020102A127179C9
:100CF400900025EFF0700F12726E900024EFF05404
:100D0400FC126D72800D12728D900024EFF054FC71
