:1000260041545F5452414E534143545F494E4954E3
:100036000041545F5349474E414C5F535452454E1D
:100046004754480041545F4E4554574F524B5F53F7
:1000560054415455530041545F48454C4C4F004160
:10006600545F4745545F494D45490041545F4944F3
:10007600454E54494649434154494F4E0041545F09
:1000860053494D5F5354415455530041545F534DAA
:10009600535F44454C5F414C4C0041545F534554BB
:1000A6005F42415544524154450041545F534156C5
:1000B600455F50524F46494C450041545F444941C3
:1000C6004C5F4E554D4245520041545F41424F529E
:1000D600545F43414C4C0041545F414E5357455287
:1000E6005F43414C4C0041545F534D535F4D4F4469
:1000F600450041545F534D535F53454E445F4E5543
:100106004D0041545F534D535F5243565F4D534725
:100116000041545F534D535F44454C5F494E440084
:1001260041545F534D535F53454E445F4D53470013
:1001360041545F4543484F5F4F464600574946493D
:100146005F41545F5452414E535F494E49540057E4
:100156004946495F41545F4745545F4649524D57AA
:1001660041524500574946495F41545F4745545FF0
:10017600574946494D4F444500574946495F415402
:100186005F4745545F5353494400574946495F53B7
:100196005256525F4E4F5F54494D454F5554005786
:1001A6004946495F4745545F49505F41444452457B
:1001B600535300574946495F5443505F434C4F538E
:1001C6004500574946495F41545F4543484F5F4F95
:1001D600464600574946495F4D4F44554C455F5288
:1001E6004553455400574946495F41545F5345546A
:1001F6005F574946494D4F444500574946495F4177
:10020600545F5345545F424155445241544500574B
:100216004946495F41545F5345545F53534944002F
:10022600574946495F41545F4D554C54495F434CCD
:1002360049454E5400574946495F5352545F54430B
:10024600505F53455256455200574946495F434F02
:100256004E4E5F544F5F53415000574946495F54D5
:1002660043505F434F4E4E45435400574946495FFE
:100276005443505F444154415F53454E4400534DEF
:10028600535F555345525F4D534700534D535F548B
:10029600454D50455241545552455F4D53470053C5
:1002A6004D535F4652455155454E43595F4D534751
:1002B600005443505F534552564552005443505FD5
:1002C600434C49454E54002B43575341505F4445D8
:1002D600463F002B43575341503D002C312C3300F1
:1002E6002B4349504D55583D31002B4349505345FA
:1002F600525645523D31002B43574D4F44453D0024
:100306002B43495053544F3D30002B43574A4150DD
:100316005F4355523D002B4349465352002B4349F8
:100326005053544152543D22544350222C22002B08
:10033600434950434C4F5345002B43495053454E78
:1003460044002B52535400487A002A430057454C28
:10035600434F4D45210053343A20534156452026FC
:10036600204E4558540053353A2053656E6420415B
:10037600542053343A5265740053343A205265740B
:100386000053353A204E4558540053353A4E657859
:10039600742053343A205265740053323A496E63DE
:1003A600726D6E7453333A446563726D6E740041B8
:1003B6005420434D4420436F6E736F6C6500544365
:1003C60050204E6574776F726B00544350204E6513
:1003D60074776F726B205365727665720054435062
:1003E600204E6574776F726B20436C69656E74007E
:1003F600544350204E6574776F726B20436F6E7353
:100406006F6C6500544350204E65772044617461DB
:1004160020526376642100534D5320547261696EF5
:1004260065720043616C6C20547261696E6572007E
:1004360053656C656374204D6F642046756E6374F6
:10044600696F6E0053656C65637420415420436F79
:100456006D6D616E6400415420436F6D6D616E6415
:1004660020526573706F6E73653A0053454C454371
:100476005420424155442D52415445203A003936C4
:1004860030300031393230300033383430300031DA
:100496003135323030004348414E47452042443AD8
:1004A6000053454C454354205041524954593A0053
:1004B6004F4444004556454E004E4F4E4500444578
:1004C6004641554C542042443A3936303000444572
:1004D6004641554C54205041524954593A204E4FAA
:1004E6004E45004348414E474520504152495459D4
:1004F6003A0054310054320054330054696D656F2C
:1005060075742C636865636B2047534D3F004552F5
:10051600524F52004641494C004E4F2043415252E1
:10052600494552004E4F204449414C544F4E4500D8
:10053600425553590047534D2072657475726E6566
:1005460064206572726F72210047534D20457272A6
:100556006F722053637265656E3A0053494D206E83
:100566006F74206465746563746564210047534D38
:10057600204E6574776F726B204C6F737421004543
:100586006E746572204E756D626572204C656E677D
:1005960074683A0053373A496E63726D6E7453331A
:1005A6003A446563726D6E740053323A4E65774E07
:1005B600756D2053333A43616C6C4E756D00533440
:1005C6003A5265742053353A446973636F6E6E65AB
:1005D600637400456E746572204E6577204E756DA6
:1005E6006265723A00456E746572204E6577204DDD
:1005F6006573736167653A0053363A3C2D2053356F
:100606003A2D3E2053343A5265740043616C6C694E
:100616006E672E2E2E0053656E64696E6720534DED
:10062600532E2E2E00534D532053656E7420416376
:100636006B205263766400436C656172696E672055
:10064600534D53204D656D2E2E2E00446973636FF6
:100656006E6E656374696E672E2E2E00202C434FD6
:100666004E4E45435400202C434C4F5345440043C3
:100676004C4F5345440052494E4700534D53205268
:1006860065616479004950442C004E4F2043415225
:100696005249455200496E632043616C6C2C2053CD
:1006A6003820746F2052637600434D54493A005304
:1006B600656C656374204D6F64653A0053656C2004
:1006C6004D6F64653A0053353A53656C2053333A9F
:1006D6003C2D2053323A2D3E0053343A5265742055
:1006E60053333A53656E6453323A4E756D00533543
:1006F6003A4E657753373A44656C416C6C00534DFE
:100706005320526376642C20533620746F20526532
:10071600616400534D532052637664204D657373B4
:100726006167653A004672657175656E6379206921
:1007360073203A00487A00436865636B204C696E03
:100746006B204C3520506F73210054656D706572B7
:100756006174757265206973203A00202A4300533C
:10076600656C656374204D6F64756C652054797093
:10077600653A0047534D204D6F64756C65005769A7
:100786004669204D6F64756C650054696D656F75BB
:10079600742C636865636B20576966693F00576907
:1007A60066692072657475726E6564206572726F13
:1007B6007221004D6F64756C65206E6F74206465E0
:1007C6007465637465643A0022416E7368756D6181
:1007D6006E4564754150220022736F667441503233
:1007E600303230220053656C65637420436F6E6E41
:1007F6003A0049504164643A0053455249414C20FD
:100806004552524F5200647572696E6720415420FA
:10081600636F6D6D616E643A003139322E31363850
:100826002E342E310033333300436F6E6E3A53331A
:100836002F53372053353A4E657874004C45443370
:100846003A004C4544343A004F6E004F66660053FA
:10085600363A3C2D2053353A2D3E2053323A4E65DA
:1008660078740053323A2053656E64204461746193
:100876002053343A526574005333203A436C6F73F5
:100886006520636F6E6E656374696F6E0053333AED
:100896002052637620446174612053343A52657461
:1008A60000544350204D73672053656E74210057E2
:1008B600616974696E6720666F722047534D2041E7
:1008C600636B2E003931353839393830383600FF08
:1008D6000026FF0037FF004AFF005CFF0065FF00AF
:1008E60071FF0083FF0091FF00A0FF00B0FF00C072
:1008F600FF00CFFF00DDFF00ECFF00F8FF0108FF5F
:100906000117FF0126FF0136FF0142FF0155FF01D6
:100916006AFF017FFF0190FF01A5FF01B9FF01C832
:10092600FF01D9FF01EBFF0200FF0215FF0226FFC0
:10093600023BFF024FFF0260FF0271FF0284FF02CB
:0A09460091FF02A5FF02B7FF02C2F5
:1054810002080000020A0001020C0001020E0000E5
:105491000110000111FF02120000021400000216A7
:0554A1000000011800ED
:065166008B348A35893606
:10516C00E4FF900003120F35900004E4120F359009
:10517C000006E4120F35AB34AA35A936900005129F
:10518C000EA16F600F1210BB8F82758300E4120F9B
:04519C00350F80E269
:0151A00022EC
:10550E00C003C002C001AB31AA32A9331210DBAB0B
:10551E0031AA32A933900005ED120F3512516622D1
:08000300900006120EA1FF227D
:104B13008B388A39893A120003EF6021AB38AA39FE
:104B2300A93A900004120EA104FF900005120EA1F1
:104B3300FEEF8EF084900004E5F0120F35AB38AA37
:104B430039A93A900003120EA104FF900005120E3A
:104B5300A1FEEF8EF084900003E5F0120F35900074
:104B630004120EA1FF900003120EA1B507047F01EA
:104B730080027F00AB38AA39A93A900006EF020FF2
:014B830035FC
:065215007B017A00799F85
:10521B00900004120EA1FF900003120EA16F6022EA
:10522B00900006E4120F35900004120EA104FF90BB
:10523B000005120EA1FEEF8EF084900004E5F01233
:03524B000F3522FA
:085406007B017A0179077F2B7D
:10540E008B2F8A308931900003120EA1FE1210BB31
:10541E008E82758300EF120F35AB2FAA30A93102A1
:02542E004B131E
:06531E007B017A01790019
:105324008B358A368937120003EF701AAB35AA36EB
:10533400A937900004120EA1FF900003120EA1B52C
:0953440007047F0180027F0022B2
:06501D007B017A0179001D
:065023008B2F8A30893159
:1050290074FFFDFC125324EF702DAB2FAA30A93168
:10503900900004120EA1FF1210BB8F82758300121B
:105049000EA1AB32AA33A934120F23AB2FAA30A970
:0B5059003112521BE4FCFDAE04AF0559
:015064002229
:06534D007B017A00799F4C
:105353008B2F8A308931125324EF701AAB2FAA3066
:10536300A931900004120EA1FF1210BB8F82758326
:0953730000120EA1FF227F0022AE
:064DEF007B017A0179004E
:064DF5008B3C8A3D893E63
:104DFB00900005120EA1FE120003EF703DAB3CAA12
:104E0B003DA93E900004120EA1FF900003120EA1CB
:104E1B00FDC39F4005ED9FFE8020AB3CAA3DA93E04
:104E2B00900003120EA1FF900005120EA12FFF9010
:0C4E3B000004120EA1FEC3EF9EFEAF06A5
:014E47002248
:06441B008B2F8A3089316D
:10442100E4F53AAB32AA33A934900005120EA1F596
:104431003B124DF5EFC3953550030244EFAB32AA61
:1044410033A934900004120EA1FF900005120EA1B1
:10445100FEC39FFDE535D39D405BEFFDEE9DF53736
:10446100E49400F536C3E5359537F539E49536F52D
:1044710038AE36AF37900004120EA1FD7C00121049
:10448100BBE92DF9EC3AFAA831AC30AD2F120E622E
:10449100AE38AF39AB32AA33A9341210BBC002C057
:1044A10001E5312537F9E5303536A801FCAD2FD0CE
:1044B10001D0028022AF357E00AB32AA33A93490FD
:1044C1000004120EA1FD7C001210BBE92DF9EC3A9B
:1044D100FAA831AC30AD2F120E62E53AC3953550D2
:0E44E1000DAB32AA33A93412521B053A80ECFF
:0144EF0022AA
:0F4E9A007530017531017532077B017A0079EDB2
:104EA9008B2D8A2E892FAB2DAA2EA92F120E88FFA2
:104EB900602FAB30AA31A932900003120EA1FE1265
:104EC90010BB8E82758300EF120F35AB30AA31A962
:104ED90032124B137401252FF52FE4352EF52E8050
:024EE900C522E0
:064338008B2C8A2D892E5A
:10433E00E4F537AB2FAA30A931124DF5AB2FAA30C9
:10434E00A931900005120EA1FEC39FC395325003F2
:10435E0002441A900003120EA1FFC3EE9FFEE53237
:10436E00D39E406B900005120EA1C39FF534E494CA
:10437E0000F533C3E5329534F536E49533F535AEB5
:10438E0033AF34900003120EA1FD7C001210BBE976
:10439E002DF9EC3AA801FCAD03AB2CAA2DA92E12D7
:1043AE000E62AE35AF36AB2CE52E2534F9E52D3544
:1043BE0033FAC003C002C001AB2FAA30A9311210CC
:1043CE00BBA801AC02AD03D001D002D0038026AF52
:1043DE00327E00AB2FAA30A931900003120EA1FD40
:1043EE007C001210BBE92DF9EC3AA801FCAD03AB31
:1043FE002CAA2DA92E120E62E537C39532500DABA5
:0C440E002FAA30A931124B13053780ECA7
:01441A00227F
:0855D200900006120EA1FF2259
:104B84008B278A288929120003EF6021AB27AA28E2
:104B9400A929900004120EA104FF900005120EA191
:104BA400FEEF8EF084900004E5F0120F35AB27AAD7
:104BB40028A929900003120EA104FF900005120EEB
:104BC400A1FEEF8EF084900003E5F0120F35900003
:104BD40004120EA1FF900003120EA1B507047F0179
:104BE40080027F00AB27AA28A929900006EF020FB4
:014BF400358B
:065459007B017A017900DD
:10545F008B218A228923900003120EA1FE1210BB0A
:10546F008E82758300EF120F35AB21AA22A923027A
:02547F004B845C
:06537C007B017A00799F1D
:105382008B248A258926120003EF701AAB24AA25E2
:10539200A926900004120EA1FF900003120EA1B5DF
:0953A20007047F0180027F002254
:105430008B1D8A1E891F120003EF701AAB1DAA1E56
:10544000A91F900004120EA1FF900003120EA1B537
:0954500007047F0180027F0022A5
:105065008B218A228923AB21AA22A923120E88FF2C
:10507500602FAB24AA25A926900003120EA1FE12CB
:1050850010BB8E82758300EF120F35AB24AA25A9BC
:1050950026124B8474012523F523E43522F522805D
:0250A500C52222
:0653AB007B017A00799FEE
:1053B1008B218A228923125382EF701AAB21AA22F0
:1053C100A923900004120EA1FF1210BB8F827583D6
:0953D10000120EA1FF227F002250
:10373100538EFCE47862F608F69000F304F09001F1
:10374100BAF0E49000AAF090020504F09001BBF0F9
:103751009001B3F0E4900206F09001997403F0E453
:10376100900115F09000ECF0900209F0900169F0E1
:103771009001BCF090019AF090019C740AF0E490E1
:103781000131F0FE7F0F7D397B017A0079DD121165
:1037910050E4900204F09000F5F09001BDF090002B
:1037A100F2F090009BF090019EF09001B8F0A3F030
:1037B10090019BF090018FF0900208F090010FF0C2
:1037C100FE7F13FD7B017A0179161211507E007F75
:1037D1000A7D007B017A0079F6121150E49000A86D
:1037E100F0900096F0FE7F04FD7B017A0179B4121E
:1037F1001150E4900114F0FE7F12FD7B017A0179F2
:103801006B1211507E007F147D007B017A01795586
:103811001211507E007F1E7D007B017A01793312E7
:103821001150E4900099F09000F404F0E490009AB3
:10383100F090009CF090016AF090012CF090017DD5
:103841007441F0A3744EF0A37453F0A37448F0A331
:103851007455F0A3744DF0A37441F0A3744EF0A31A
:103861007420F0A37445F0A314F0A37455F0A314CD
:10387100F0A3744FF0A3F0A3744CF0A37453F0E4DD
:03388100A3F0228F
:105128007531017532017533007BFE7A0079007D97
:10513800967C0012550E75310175320075339F7BD0
:10514800017A02790A7D0912550E7531017532010D
:0E5158007533077B017A0179BE7D4602550E44
:104F3B00E475352C753401F533F5327F2C7E01FD8C
:014F4B00FC69
:084F4C008F318E308D2F8C2E69
:104F5400853539853438853337853236782E74FF74
:104F640012109DEC4D4E4F601B85353985343885C4
:104F74003337853236783674FF12109DEC4D4E4F20
:044F840060DA80F17E
:014F88002206
:10557F00D2AFD2A9758901E4F588758A7C758CF94B
:03558F00D28C2299
:0955C90075C80BE4F5C9C2CA2241
:03000B00024C663E
:104C6600C0E0C083C082C0D075D000C000C28D78BD
:104C76006306E6187001067863E6642B1846703DF5
:104C8600F608F690019BE5CCF090018FE5CDF07526
:104C9600CC0075CD00C2CFC2CE90010F7401F0904A
:104CA6000129F0900209E0B401139000ECE004F051
:104CB600E0D394054007E4F090016904F0D000D0F9
:084CC600D0D082D083D0E0328F
:1027840012537CEF70030229F590009BE0FFFD7C5F
:10279400006003022835EC600302283590067CE4CF
:1027A40093FE90010EE0FDB5061A9000F2E070145D
:1027B40090012E74FFF0A37406F0A3747CF09000D3
:1027C4009BE004F09006AFE493B5051490012E74D9
:1027D400FFF0A37406F0A374AFF090009BE004F044
:1027E400900690E493FE90010EE0B506239000F26B
:1027F400E0640160079001BDE0B4011490012E74FF
:10280400FFF0A37406F0A37490F090009BE004F032
:10281400900681E493FE90010EE06E6003022B5B50
:1028240090012E74FFF0A37406F0A37481F00229C2
:102834004D90012EE0FBA3E0FAA3E0F9120E88FE0E
:1028440090067CE4936E703CEF93FF90010EE06F72
:10285400703290009BE004F012000E90009BE06F39
:102864007001EE6003022B5B9000F204F0E4900030
:102874009BF07524017525017526007BFF7A067986
:102884009B0229A890012EE0FBA3E0FAA3E0F91231
:102894000E88FF9006AFE4936F60030229261200AE
:1028A4000E90009BE06F7001EE7077C3E509940110
:1028B400E50864809480402590010EE0FF640D607B
:1028C4001CEF640A601774EC2509F582E43400F502
:1028D40083EFF00509E509703805088034C3E5097C
:1028E4009401E50864809480402790010EE0FF6421
:1028F4000D6004EFB40A1A74EC2509F582E434007F
:10290400F583E4F0F508F50990009BF09001B80414
:10291400F090010EE0642C6003022B5BF50875094E
:10292400012290012EE0FBA3E0FAA3E0F9120E8845
:10293400FF9006AFE493B5071790009BE09006AFB5
:1029440093FE90010EE0B5060790009BE004F02290
:10295400900690E4936F704F90009BE090069093E4
:10296400FF90010EE06F703F90009BE004F01200B6
:102974000E90009BE06F7001EE6003022B5B9000F1
:10298400F2E0B40102E4F09001BDE0B40102E4F02D
:10299400E490009BF07524017525017526007BFFEA
:1029A4007A06799002506590012EE0FBA3E0FAA329
:1029B400E0F9120E88FF900681E4936F702D900069
:1029C4009BE090068193FF90010EE0B5071D9000F7
:1029D4009BE004F012000E90009BE06F7001EE602B
:1029E40003022B5B90009904F08000E490009BF0BC
:1029F40022900199E0B40302E4F01253ABBF0E0F2E
:102A040090010EE0B43E089001997404F080131212
:102A140053ABBF0E0D90010EE0B4450690019974BE
:102A240002F01253ABBF11069001997402F09001A9
:102A340099E0B408004003022B5B902A45F828284B
:102A440073022A5D022A79022A94022B5B022AD39A
:102A5400022AE5022B00022B3190010EE0FFB40D97
:102A640003022ADEEFB44F03022AED1254599001F7
:102A7400997407F02290010EE0FFB40A07900199BF
:102A84007402F022EF900199B40D028050022B0BD6
:102A940090010EE0B40A181253ABBF0F127B017AF7
:102AA4000179007F2A12545F9001997405F02290F5
:102AB400010EE0FFB40A05900199804BEF640A709F
:102AC40003022B5BEF640D7003022B5B022B589007
:102AD400010EE0FFB43E031254599001997401F0C1
:102AE4002290010EE0FFB44F079001997406F02282
:102AF400EF640A6062EF640D605D805890010EE03F
:102B0400FFB40A079001997403F022EF644B604705
:102B1400EF640D60429001997405F07B017A0179AC
:102B2400007F4F12545F90010EE0FF802790010E4A
:102B3400E0FDB40A117B017A0179007F2A12545F07
:102B4400E4900199F022ED640A600C90010EE0FF1C
:072B5400640D6003125459E7
:012B5B002257
:103AF500752D01023BF912531EEF6003023BFFF5E2
:103B05003275330075342C12501DE52C643A60096A
:103B1500E52C642A6003023B9E12534DEF24FE60A0
:103B25002F24F3603324097070E52C643A706AFE23
:103B35007F04FD7B017A01795112115075320175AF
:103B450033017534007535047B017A01795180465E
:103B550090019A7401F08041E52C642A703BFE7F48
:103B650013FD7B017A017916121150124DEF741273
:103B7500C39F500E753201753301753400753512CA
:103B8500800E124DEF8F3575320175330175340096
:103B95007B017A01791612441BE52E900514936575
:103BA5002C601DE52E90051F93652C6013E52E9066
:103BB500052A93652C6009E52E90053693B52C34BE
:103BC500052EE52E24FC602424FA602014601D24B3
:103BD500066003023AFB9001697402F0E49001BDAE
:103BE500F09000A3E09000A2F0023AFBE49001BD42
:103BF500F0023AFBE4F52E023AFBE52DB4012290E2
:103C05000206E0D394004003E014F0900206E07051
:103C150010125215E49000ECF0900209F09001B9F1
:013C2500F0AE
:013C2600227B
:101DCE00E4FD12534DAC07E4900206F0EC64116092
:101DDE00167B017A0179077F4112540E7B017A013D
:101DEE0079077F5412540EECB413004003022319EA
:101DFE00901E05F8282873021E3E021E41021E6523
:101E0E00021F25021F83021FAA021FB802217E0293
:101E1E001E9F021F5F02200A022056022067022028
:101E2E00780220C302213B0222160222590222FD11
:101E3E000220611254067B017A0179077F43125406
:101E4E000E7B017A0179077F5312540E7B017A01C2
:101E5E0079077F51021F591254067B017A017907C7
:101E6E007F4312540E7B017A0179077F4F12540E75
:101E7E007B017A0179077F5012540E7B017A01792A
:101E8E00077F5312540E7B017A0179077F3F021FA1
:101E9E00591254067B017A0179077F4912540E7B41
:101EAE00017A0179077F5012540E7B017A0179076E
:101EBE007F5212540E7B017A0179077F3D12540E28
:101ECE009000F3E024FE70207B017A0179077F31C8
:101EDE0012540E7B017A0179077F3912540E7B0161
:101EEE007A0179077F3280137B017A0179077F3976
:101EFE0012540E7B017A0179077F3612540E7B0144
:101F0E007A0179077F3012540E7B017A0179077FAF
:101F1E003012540E0220617B017A0179077F48123C
:101F2E00540E7B017A0179077F4512540E7B017A9C
:101F3E000179077F4C12540E7B017A0179077F4C91
:101F4E0012540E7B017A0179077F4F12540E022034
:101F5E00617B017A0179077F2612540E7B017A018B
:101F6E0079077F5712540E7B017A0179077F301261
:101F7E00540E0220611254067B017A0179077F47C5
:101F8E0012540E7B017A0179077F5312540E7B0196
:101F9E007A0179077F4E12540E0220617B017A017D
:101FAE0079077F4912540E0220611254067B017A82
:101FBE000179077F4312540E7B017A0179077F5313
:101FCE0012540E7B017A0179077F4D12540E7B015C
:101FDE007A0179077F4912540E7B017A0179077FC6
:101FEE004E12540E7B017A0179077F5312540E7BE9
:101FFE00017A0179077F3F12540E80577B017A01D7
:10200E0079077F4412540E7B017A0179077F3012D3
:10201E00540E90019CE0FFEDC39F501874DD2DF51A
:10202E0082E43400F583E0FF7B017A0179071254D4
:10203E000E0D80DE7B017A0179077F3B12540E90E4
:10204E000206E004F00223167B017A0179077F482D
:10205E0012540E9002060223167B017A0179077F35
:10206E004112540E9002060223161254067B017A78
:10207E000179077F4312540E7B017A0179077F4D58
:10208E0012540E7B017A0179077F4712540E7B01A1
:10209E007A0179077F4612540E7B017A0179077F08
:1020AE003D12540E7B017A0179077F3112540E9046
:1020BE0002060223161254067B017A0179077F432A
:1020CE0012540E7B017A0179077F4D12540E7B015B
:1020DE007A0179077F4712540E7B017A0179077FC7
:1020EE005312540E7B017A0179077F3D12540E7BF9
:1020FE00017A0179077F2212540E90019CE0FFEDC8
:10210E00C39F501874DD2DF582E43400F583E0FF93
:10211E007B017A01790712540E0D80DE7B017A0164
:10212E0079077F2212540E900206022316125406CD
:10213E007B017A0179077F4312540E7B017A017974
:10214E00077F4D12540E7B017A0179077F47125497
:10215E000E7B017A0179077F5212540E7B017A01B0
:10216E0079077F3D12540E124E9A900206022316E4
:10217E001254067B017A0179077F4312540E7B01BC
:10218E007A0179077F4D12540E7B017A0179077F10
:10219E004712540E7B017A0179077F4412540E7B4D
:1021AE00017A0179077F4112540E7B017A0179077A
:1021BE007F3D12540E7B017A0179077F4412540E33
:1021CE007B017A0179077F4512540E7B017A0179E2
:1021DE00077F4C12540E7B017A0179077F2012542F
:1021EE000E7B017A0179077F4112540E7B017A0131
:1021FE0079077F4C12540E7B017A0179077F4C12BE
:10220E00540E9002060223161254067B017A0179AF
:10221E00077F4312540E7B017A0179077F4D1254CA
:10222E000E7B017A0179077F4712540E7B017A01EA
:10223E0079077F4412540E7B017A0179077F3D1294
:10224E00540E124E9A90020602231690019EE0FF43
:10225E007E00E460030222EDEF14601814604A243D
:10226E0002707C7530017531017532077B017A0180
:10227E00797D80687530017531017532077BFF7A83
:10228E00077950124EA97530017531017532077BF1
:10229E00017A0079F6124EA9753001753101753249
:1022AE00077BFF7A077961803375300175310175CF
:1022BE0032077BFF7A07792B124EA97530017531E3
:1022CE00017532077B017A017933124EA9753001FF
:1022DE007531017532077BFF7A07793A124EA97B69
:1022EE00017A0179077F1A12540E90020680197B2B
:1022FE00017A0179077F4512540E7B017A01790725
:10230E007F3012540E900206E004F07B017A0179C0
:10231E00077F0D12540E7B017A0179077F0A025452
:01232E000EA0
:103E4C00E49001BCF0900169E0600F9000ABE07071
:103E5C0004A3E064286003023F379000ABE0FEA3AC
:103E6C00E0FFEE6003023F58EF24EC603124F66073
:103E7C003E24F6603524B0606424EC7003023F2FBE
:103E8C0024F67003023F33248C6003023F589000E9
:103E9C00AAE070057F14023F457F5A023F53C2AF20
:103EAC0012524ED2AF7F1E023F537F32023F5390CD
:103EBC000154E070057F46023F4590019AE0700581
:103ECC007F50023F459000AAE0B401057F3C023FC1
:103EDC00539000AAE0640270737F6E805C90013195
:103EEC00E06401701DF07B13FD7F02124FDB7BFF42
:103EFC007A06792B1245C1E47535F4124F3F7F7861
:103F0C008045900097E0B401167B017A00799F7F81
:103F1C001112540E9001BC7401F0900131F0227F0B
:103F2C008C80247F7880207F0A801C9000ABE0700E
:103F3C0004A3E0649670057FA0FE800D7B13E4FD66
:0D3F4C007F04124FDB7FC87E001218172281
:10465900E4FFFE0FBF00010EBE6CF8BF0CF5E4FECF
:10466900FF0FBF00010EBE6CF8BF0CF5E4FD7F30F3
:104679001250ACE4FEFF0FBF00010EBE24F8BF04C8
:10468900F5E4FEFF0FBF00010EBE24F8BF04F5E4F8
:10469900FD7F301250ACE4FEFF0FBF00010EEF6446
:1046A900DC4E70F5E4FEFF0FBF00010EEF64DC4E37
:1046B90070F5E4FD7F301250AC125592E4FD7F385D
:1046C9001250AC125592E4FD7F081250AC1255926B
:1046D900E4FD7F011250AC125592E4FD7F061250A1
:1046E900AC1255927D017F0F1250AC1255DAE4FDE0
:0546F9007F0C0250AC33
:0550A7002480FFE4FD80
:1050AC00E4FE0EBE50FCE4FE0EBE50FCAC808F80C5
:1050BC00C2B4C2B3BD0104D2B58002C2B5E4FE0EC7
:1050CC00BE50FCE4FE0EBE50FCD2B3E4FE0EBE1E7F
:0B50DC00FCE4FE0EBE1EFCC2B38C8084
:0150E70022A6
:1053DA00E4FE0EBEFAFCE4FE0EBEFAFCAD80D2B4C8
:1053EA00BF0104D2B58002C2B5D2B3E4FE0EBE5AE2
:0B53FA00FCE4FE0EBE5AFCC2B3AF057F
:015405002284
:0F5592007F80EFC394804007E4FF1253DA80F369
:0155A10022E7
:0755DA00E4FD7F800250ACEC
:0755E100E4FD7FC00250ACA5
:1054ED001255DAE4FB7D017F201250AC0BBB14F595
:1054FD001255E1E4FB7D017F201250AC0BBB14F57E
:01550D00227B
:1045AC00E0FBA3E0FAA3E0F9900104E0FF7E00E950
:0A45BC002FF9EE3AFAE4F53D7D0216
:0245C6008D3C2A
:1045C800E4F540E53CB40110E53D2480F53FE4FD09
:1045D800AF3F1250AC753E93E53CB40210E53D2464
:1045E800C0F53FE4FDAF3F1250AC753ED3E53CB497
:1045F8000310E53D2494F53FE4FDAF3F1250AC7540
:104608003EA7E53CB40410E53D24D4F53FE4FDAFF6
:104618003F1250AC753EE7120E88FF6021F4601E11
:10462800E540701A7D011250AC740129F9E43AFA98
:10463800053FE53FD3953E40DE75400A80D9E53C0D
:10464800B40106E4FD7F808004E4FD7FC01250AC15
:01465800223F
:1054CB00AA07A905B90104EB1250A7EBB9030424F1
:1054DB0094800224C0FFE4FD1250ACAF027D0102A8
:0254EB0050ACC3
:084EEB008B338A3489358D36C2
:104EF300E4F537F538AB33AA34A93512000EC3E510
:104F0300389FEE6480F8E537648098502AE536C30D
:104F130094045023AB33E5352538F9E5343537FAB6
:104F2300E4F53DAD361245C674142538F538E4353D
:074F330037F537053680BE9B
:014F3A002254
:074FD400F07B13E4FD7F02F6
:064FDB008B34AA05A907B2
:104FE100B90104EA1250A7B90209EA24C0FFE4FD9D
:104FF1001250ACB90309EA2494FFE4FD1250ACB994
:105001000409EA24D4FFE4FD1250ACEAD3953450EC
:0B5011000A7D017F201250AC0A80F0E5
:01501C002271
:10556900BF01047B8080027BC0ED2BFFE4FD12505C
:06557900AC7F0F0250ACF4
:0755E800E4FD7F0C0250AC52
:10554D009000DAE0FF9000F5E0B507099000D9E092
:0C555D009000F5F0229000F5E004F02230
:103F59008B2F8A3089319000F5E0F5827583001244
:103F69000EA1FFC394304007EF943950028062AB31
:103F79002FAA30A9319000F5E0F582758300120E61
:103F8900A1FFC39441405AEF945A5055EFB44615D6
:103F990090012AE0B4010E9000F5E0F582758300E6
:103FA9007447024042AB2FAA30A9319000F5E0FFD7
:103FB900F582758300120EA1B4461090012AE0B46F
:103FC90002098F827583007430806EAB2FAA30A9E5
:103FD900319000F5E0F5827583007401120EF080CE
:103FE9005BAB2FAA30A9319000F5E0FFF58275830C
:103FF90000120EA1FEB439098F82758300742080E6
:1040090038EE64206003EE7013AB2FAA30A931900B
:1040190000F5E0F5827583007441801DAB2FAA304D
:10402900A9319000F5E0FFF582758300120EA1B465
:104039005A0A8F827583007430120F35AB2FAA305C
:10404900A9319000F5E0FEF582758300120EA1FFFB
:07405900AB067D020254CB0F
:10424A008B2F8A3089319000F5E0F5827583001250
:10425A000EA1FFD394304007EF943A5002801DAB71
:10426A002FAA30A9319000F5E0F582758300120E6D
:10427A00A1FFD394414016EF945B50119000F5E0F2
:10428A00F58275830074FF120EF002431DAB2FAA4C
:10429A0030A9319000F5E0FFF582758300120EA176
:1042AA00FEB4302A90012AE0FDB4010A8F82758398
:1042BA0000745A120F35ED64027058AB2FAA30A958
:1042CA00319000F5E0F58275830074468042EE6411
:1042DA00206015AB2FAA30A9319000F5E0F5827560
:1042EA008300120EA1FF7013AB2FAA30A9319000E0
:1042FA00F5E0F58275830074398015EFB44114AB8B
:10430A002FAA30A9319000F5E0F582758300742058
:10431A00120F35AB2FAA30A9319000F5E0FEF582D5
:0E432A00758300120EA1FFAB067D020254CB7C
:10483B009000F4E0FFE4FCFDFE7B017A017933F597
:04484B004875490162
:0E484F008F448E438D428C418B458A468947AB
:10485D00E4F54AF54B85484A85494BC3E54A6480E2
:10486D0094804061E54BB54916E54AB54811AB4515
:10487D00AA46A947854B82F583E4120F35803CE4A7
:10488D007B0AFAF9F8AF44AE43AD42AC41120FDBEF
:10489D00EB2430AB45AA46A947854B82854A831246
:1048AD000F35AF44AE43AD42AC41E47B0AFAF9F8A3
:1048BD00120FDB8F448E438D428C41E54B154B70AF
:0548CD009A154A8096D7
:0148D20022C3
:08552E008E2A8F2BAB05AA04A5
:105536007F017E00EB4A600EAC2AAD2B120F57EBB3
:065546001B70F11A80EE5B
:01554C00223C
:064D90008B218A22892319
:104D9600E4F528F529120F23F528F529AF277E001B
:104DA600C3E5299F7480F8652898503CC3EF952980
:104DB600FFEE9528CF24FFFDEF34FFFC7F0A125546
:104DC6002EAB24AA25A926852982852883120EA121
:104DD60024D08FF0A4AB21AA22A923120ECE052936
:084DE600E52970B8052880B42E
:014DEE0022A2
:10524E004389207587809001BAE0B40105759850A6
:10525E0080037598D09000F3E0FFB40103758DEFD5
:10526E00EFB40203758DF7D28EC299C298D2AC906C
:06527E00012D7401F02275
:1052ED0090012DE060FA9001BAE0FE6401601AEFC2
:1052FD00A2D0E43390019DF0EEB40203E08006905D
:10530D00019DE0640124FF929B8F99E490012DF0A3
:01531D00226D
:030023000249FA95
:1049FA00C0E0C0F0C083C082C0D075D000C000C083
:104A0A0001C002C003C004C005C006C0073099082F
:104A1A00C29990012D7401F0309847C29890010E06
:104A2A00E599F09001BAE0FF6401602790010EE079
:104A3A00A2D0E43390019DF0EF64037025A29A336B
:104A4A00FF90019DE0B507047F0180027F00EF64BB
:104A5A0001800F9000A8E0B40105122B5C800312BC
:104A6A002784D007D006D005D004D003D002D001C5
:0D4A7A00D000D0D0D082D083D0F0D0E03278
:104BF5007B017A017907125324EF7018F53275336A
:104C05000075342C7B017A017907125023AF2C12E1
:104C150052ED80DC900206E070187535F4753401AC
:104C2500F533F5327FC8FEFDFC124F4C125215E4E8
:104C3500802A7B017A00799F125324EF7022125348
:104C45004DEF640A601A12534DEF640E6012125351
:104C55004DEF6411600A9002097401F09000ECF0C8
:014C6500222C
:10325A00900204E070047DFF80027DFE7590FFE419
:10326A00FFFE0FBF00010EEF64144E70F5E49001EB
:10327A002BF0900204E0703D9000CDE064017035BF
:10328A00209032FEFF0FBF00010EBE3AF8BF98F53C
:10329A00E4FEFF0FBF00010EBE3AF8BF98F5E4FE48
:1032AA00FF0FBF00010EBE3AF8BF98F520900690B6
:1032BA00012B7401F09000CEE0B4012220911FE4AA
:1032CA00FEFF0FBF00010EBE3AF8BF98F520910627
:1032DA0090012B7402F02091057590FF80F8900000
:1032EA00CFE0B4012220921FE4FEFF0FBF00010EBF
:1032FA00BE3AF8BF98F520920690012B7403F0208D
:10330A0092057590FF80F89000D0E0B401222093D6
:10331A001FE4FEFF0FBF00010EBE3AF8BF98F5206A
:10332A00930690012B7404F02093057590FF80F8A2
:10333A009000D1E0B4012220941FE4FEFF0FBF00E9
:10334A00010EBE3AF8BF98F520940690012B740539
:10335A00F02094057590FF80F89000D2E0B4012225
:10336A0020951FE4FEFF0FBF00010EBE3AF8BF987A
:10337A00F520950690012B7406F02095057590FFAF
:10338A0080F89000D3E0640160030234263096117D
:10339A0030970EF50EF50FF50A750B01F50C750D44
:1033AA0001209678E50F450E7072F50A750B01FE3D
:1033BA00FF0FBF00010EBE3AF8BF98F5050BE50BEB
:1033CA007002050A6402450A7028E50D6401450C7D
:1033DA00702090012B7407F0050DE50D7002050CA5
:1033EA00E50B150B7002150A050FE50F7028050E7F
:1033FA008024E50B6401450A6008E50D6402450C6A
:10340A00701490012B7405F0750C00750D01050FF1
:10341A00E50F7002050E2096037590FF9000D4E028
:10342A00640160030234C030971130960EF50EF530
:10343A000FF50A750B01F50C750D01209778E50F4C
:10344A00450E7072F50A750B01FEFF0FBF00010EE3
:10345A00BE3AF8BF98F5050BE50B7002050A64023F
:10346A00450A7028E50D6401450C702090012B7403
:10347A0008F0050DE50D7002050CE50B150B700241
:10348A00150A050FE50F7028050E8024E50B640167
:10349A00450A6008E50D6402450C701490012B740E
:1034AA0005F0750C00750D01050FE50F7002050E8C
:0D34BA002097037590FF90012BE0FF7E002E
:0134C70022E2
:041213008E2C8F2D61
:101217009000ACE0252DFF9000ABE0352CFE60037D
:1012270002180FEF12112A12C80C13030D13290EFF
:1012370013551613661713781813A02013B121132B
:10124700C32214242A14432B148A2C14732D148FAD
:101257003614EF3E14F43F157040153341157544AD
:1012670014944A14995414AC5D14DB5E149E6116F1
:101277000167175B6815A06915B86A15C86B164032
:1012870070165071166972166473166E7A16737B30
:1012970016AE7C16B87D16C77E16FB7F176F8517AF
:1012A7005B86171C87173E881766891778901791F2
:1012B70098179D9917B09A1808A4175BCC000018C7
:1012C7000F9000AAE004F09000A8E0700D9000AA2B
:1012D700E075F00384E5F0F080459000AAE075F032
:1012E7000584AFF0EFF07403D39F40047F038005BC
:1012F7009000AAE0FF9000AAEFF080239000A8E0FA
:10130700700B9000AAE070117402F080129000AA8E
:10131700E0B403057404F080069000AAE014F0021C
:1013270050E89001BCE070109000A8E0700A7B01C3
:101337007A00799FFF0217899000AAE024FC6009D0
:1013470004600302181602148F7FAA021717900170
:10135700BBE004F0E0C3940340147401F0800F90E5
:1013670001BBE014F0E0C3940150037402F0025291
:10137700B99000F3E0FF9001BBE0FE6F60169000AC
:10138700A8E070109000F3EEF07B017A00799F7F60
:10139700080217897F1E0217179001B3E004F0E0D7
:1013A700C3940440147401F0800F9001B3E014F06B
:1013B700E0C3940150037403F00252849000A8E044
:1013C70070399000AAE070057F280216C39001BC0F
:1013D700E0600302181690019AF07B017A00799F6A
:1013E7007F0612540E7B017A00799F7F0212540EFA
:1013F7007B017A00799F7F0D0217899000F3E0FF48
:101407009001BBE0FE6F60109000F3EEF07B017A75
:1014170000799F7F0A0217897F0A02171790011523
:10142700E004F09000A8E09001157006E05407F082
:101437008037E075F00984E5F0F0802D900115E024
:10144700FF700E9000A8E070089001157407F080F7
:1014570018EF700F9000A8E0B40108900115740808
:10146700F08006900115E014F0024E489001BCE0B0
:101477006003021816900115E0FF7B017A00799F3F
:101487000217897F0A0217177F280217177F0A0298
:1014970017177F0A02171790019CE0C3940F50118A
:1014A700E004F0800C90019CE0D394004003E0142A
:1014B700F0124FD590019CE0FFE4FCFDFE7B017A22
:1014C700017933F54875490212484F7B017A017952
:1014D7003302163890019CE024DDF582E43400F5F0
:1014E70083E4F07F140216C37F640217179001BDCF
:1014F700E060030218167B13FD7F02124FDB7BFFB0
:101507007A0679111245C17B017A0079DD753D0AAA
:101517007D021245C6124F3B124FD57B017A0079E7
:101527009F7F0A12540E9001BD0218049001BDE07E
:10153700640160030218167B13FD7F02124FDB7BE9
:10154700FF7A0679511245C1124F3B124FD51252FD
:1015570015E49000ECF0900209F09001B9F07F0BD0
:1015670012540EE49001BDF0227F0A021717900073
:10157700F2E0640160030218169001BDE060030207
:1015870018167B017A00799F7F0C12540E9001BDCB
:101597007401F0E49000F2F0229000F5E004F0E02E
:1015A700FF90019CE0FEEF8EF0849000F5E5F0F0EF
:1015B700229000F5E0700790019CE002174E021799
:1015C700549000F5E0FF24DDF582E43400F583E074
:1015D700B4390F74DD2FF582E43400F5837430F0ED
:1015E70080109000F5E024DDF582E43400F583E017
:1015F70004F07B017A0079DD80379000F5E0FF2465
:10160700DDF582E43400F583E0B4300F74DD2FF5A7
:1016170082E43400F5837439F080109000F5E024FB
:10162700DDF582E43400F583E014F07B017A00797C
:10163700DDE4F53D7D020245C690019EE004F0E041
:1016470075F00384E5F0F0801190019EE070057459
:1016570002F0800690019EE014F00251DB7F7802D1
:1016670017177F0A0217177F640217179001BCE04C
:1016770060030218167B13FD7F02124FDB7BFF7A94
:1016870006791C1245C1124F3B7B017A00799F7F77
:101697000E12540E9001BC7401F0900097F0E49084
:1016A7000131F07F7880157F6E7E00121817C2CA4D
:1016B7002290019EE060030218167F82FE02180C3A
:1016C7009001B8E0C3940150030218169001BCE0E2
:1016D70060030218167B017A00799F7F0F12540E60
:1016E7009001BC7401F0E4900097F0900131F09004
:1016F70001B8F022124FD57BFF7A06793D1245C11A
:10170700124F3B7B017A00799F7F0712540E7F7837
:101717007E0002180C9000F5E004F07B017A017955
:101727007D12000E9000F5E0FD7C00CFCDCFCECC32
:10173700CE120F69EDF0229000F5E070107B017A70
:1017470001797D12000EEF149000F5F0229000F55C
:10175700E014F0229000A6E0FEA3E0FF02180C7B45
:10176700017A01797D023F597B017A01797D024235
:101777004A9001BCE060030218167B017A00799F4A
:101787007F1012540E9001BC80739000A8E004F003
:10179700E05401F080109000A8E0700404F0800687
:1017A7009000A8E014F00254A79001BCE07060908C
:1017B70000A8E01460180470417B017A00799FE467
:1017C700FF12540E7B017A00799F7F12801E7B01E6
:1017D7007A00799F7F0812540E7B017A00799F7FE8
:1017E7000712540E7B017A00799FE4FF12540E7B97
:1017F700017A00799F7F0212540E9001BC7401F0A8
:0F180700227F967E00021817AF2DAE2C122F27CE
:0118160022AF
:1051A100E49000CDF0A3F0A3F0A3F0A3F0A3F0A34B
:1051B100F0A3F09000D6F09000D5F09000D7F090D9
:1051C10000D9F0A3F0A3F0FF74AD2FF582E4340011
:0951D100F5837420F00FBF10EF0C
:0151DA0022B2
:10388400AD07AC061251A1AF05EE6003023997EF04
:1038940012112A393A0A393A14393A1E38E02838CA
:1038A400E23238F43C38E44638E65038E85A390B0A
:1038B40064390D6E39187839278239388C393A963B
:1038C4003943A03945AA3955B43991BE3950C8395C
:1038D40069D2393ADC3987E600003997802B806C4D
:1038E400806A80689000D37401F09000CF02398C14
:1038F4009000CE7401F0A3F0A3F0A3F09000D4F0F4
:103904009000DBF0023997801A9000CE7401F0A386
:10391400F0A380749000CE7401F0A3F0A3F0A3F0A0
:10392400A380659000D17401F0A3F0A3F09000CFC0
:10393400F0A3804880169000CE7401F0A3804980E3
:103944000B9000CE7401F0A3F0A3803C9000D080D3
:103954003F9000CF7401F09000D1F09000D0F0902F
:1039640000D3F0802E9000CE7401F09000D1F0A32B
:10397400F0A3F09000CFF0A3F09000D4F09000D624
:10398400F080109000CF7401F0A3F080069000D175
:103994007401F09000CDE0701CA3E07018A3E070F7
:1039A40014A3E07010A3E0700CA3E07008A3E0700F
:0C39B40004A3E060069000D57401F0222E
:041817008E2F8F3051
:10181B001255E8AF30AE2F1238849000ABE0FEA328
:10182B00E0FF65307003EE652F60089000A6EEF0C8
:10183B00A3EFF09000ABE52FF0A3E530F01254EDE1
:10184B009000D9E09000F5F09000987402F07B13B3
:10185B00E4FD7F01124FDB124FD7E4FD7F03124FE4
:10186B00DBE4FD7F04124FDBE52F6003021DCDE5AA
:10187B003012112A18CB0918E70A191F14194F1E19
:10188B00197F2819A8321A613C19D24619F3501A3C
:10189B00195A1A87641AB86E1ADE781B39821B6ABA
:1018AB008C1B92961BB2A01BCFAA1C22B41C8BBE06
:1018BB001CBCC81D2ED21D6EDC1DB3E600001DCD59
:1018CB007BFF7A037953E4F53D7D011245C67B011D
:1018DB007A01797DE4F53D7D03021DCA9000A8E0F5
:1018EB009000AA7003F080037403F07BFF7A0479F5
:1018FB0036E4F53D7D011245C67A0379A0E4F53D4A
:10190B007D031245C67A03795CE4F53D7D041245EF
:10191B00C60250E87BFF7A047971E4F53D7D011234
:10192B0045C67A0479C41245C17A04799CE4F53D25
:10193B007D031245C67A03795CE4F53D7D041245BF
:10194B00C60252B97BFF7A0479A7E4F53D7D0112FB
:10195B0045C67A0479D41245C17A0479E9E4F53D98
:10196B007D031245C67A03795CE4F53D7D0412458F
:10197B00C60252847BFF7A04794AE4F53D7D01125D
:10198B0045C67A0379A0E4F53D7D031245C67A037B
:10199B00796CE4F53D7D041245C6024E487BFF7A17
:1019AB0004795CE4F53D7D011245C67A03797FE449
:1019BB00F53D7D041245C6900100E0FBA3E0FAA3C0
:1019CB00E0F97D02024EEB7BFF7A05794FE4F53DA2
:1019DB007D011245C67A0579611245C17A03797F7B
:1019EB00E4F53D7D04021DCA7BFF7A05794FE4F5D2
:1019FB003D7D011245C67A057973E4F53D7D0112F3
:101A0B0045C67A03797FE4F53D7D04021DCA7BFF51
:101A1B007A057985E4F53D7D011245C690019CE080
:101A2B00FFE4FCFDFE7B017A017933F54875490231
:101A3B0012484F7B017A0179331245C17BFF7A053E
:101A4B00799AE4F53D7D031245C67A03795CE4F59A
:101A5B003D7D04021DCA7BFF7A047929753D047D07
:101A6B00011245C67A0579AFE4F53D7D031245C6F3
:101A7B007A0579C4E4F53D7D04021DCA7BFF7A0526
:101A8B0079D9E4F53D7D011245C67B017A0079DDFC
:101A9B001245C17BFF7A0579FEE4F53D7D031245C6
:101AAB00C67A05799AE4F53D7D04021DCA7BFF7A5F
:101ABB0004791D753D047D011245C67A0679B51270
:101ACB0045C11251DB7BFF7A0679CCE4F53D7D04F1
:101ADB00021DCA7BFF7A04791D753D047D011245F9
:101AEB00C690019EE0FF7E00E47029EF14600F1496
:101AFB0060172402701E7B017A01797D80067BFFC3
:101B0B007A07793D1245C1800B7BFF7A07793D122D
:101B1B0045C1D2CA7BFF7A0679F4E4F53D7D031209
:101B2B0045C67A0679DFE4F53D7D04021DCA7BFFCD
:101B3B007A0579EBE4F53D7D011245C67B017A010F
:101B4B00797D1245C17BFF7A0579FEE4F53D7D0376
:101B5B001245C67A05799AE4F53D7D04021DCA7BD0
:101B6B00FF7A077919E4F53D7D011245C67A0379B1
:101B7B007FE4F53D7D041245C67B017A017916E4BD
:101B8B00F53D7D02021DCA7BFF7A077965E4F53DC1
:101B9B007D011245C67A0379A0E4F53D7D0312451C
:101BAB00C67A03795C80127BFF7A0779B9E4F53D3D
:101BBB007D011245C67A03797FE4F53D7D0412451C
:101BCB00C60254A77BFF7A0379C4753D047D0112CD
:101BDB0045C67A0679C21245C1900205E075F0033D
:101BEB00A4244AF582E43409F583E493FB7401934E
:101BFB00FA740293F9753D0A7D021245C67BFF7A92
:101C0B000379A0E4F53D7D031245C67A037990E490
:101C1B00F53D7D04021DCA7BFF7A0379D0753D012A
:101C2B007D011245C67A0779F81245C17A08791FEA
:101C3B00753D067D021245C67A0779EBE4F53D7DCD
:101C4B00031245C612483B7B017A017933753D0D72
:101C5B007D031245C67B0F7D037F2F1254CB900063
:101C6B009612483E7B017A017933753D117D031243
:101C7B0045C67BFF7A08792FE4F53D7D04021DCA2A
:101C8B007BFF7A0379E3753D017D011245C67A0727
:101C9B0079F81245C17B017A01796B753D067D029E
:101CAB001245C67BFF7A037987E4F53D7D04021D5F
:101CBB00CA7BFF7A0779FF753D037D011245C67A12
:101CCB0008790C1245C190009FE0FBA3E0FAA3E05A
:101CDB00F9A3E0F582758300120EA1F5329000A8EE
:101CEB00E0B4010FE53275F003A4240EF582E43461
:101CFB0009800DE53275F003A424D5F582E4340890
:101D0B00F583E493FB740193FA740293F9E4F53DC4
:101D1B007D031245C67BFF7A03797FE4F53D7D0495
:101D2B00021DCA7B017A01797D1245C17BFF7A08BE
:101D3B007955E4F53D7D031245C67A05799AE4F5AC
:101D4B003D7D041245C67A087942E4F53D7D0112CA
:101D5B0045C67A087948753D097D011245C67F0154
:101D6B00024D307BFF7A0379F6753D017D011245FB
:101D7B00C6900205E070187A0779EB1245C212483B
:101D8B003B7B017A017933753D0D7D021245C67B94
:101D9B00FF7A087969E4F53D7D031245C67A087927
:101DAB007EE4F53D7D0480177BFF7A04790AE4F528
:101DBB003D7D011245C67A087993E4F53D7D041209
:021DCB0045C60B
:011DCD0022F3
:104E4800124FD59000A8E0701D900115E0FFC394A3
:104E580000403EEF94135039EF75F003A424D5F5C4
:104E680082E43408801B900115E0FFC394004021C0
:104E7800EF9411501CEF75F003A4240EF582E4346E
:104E880009F583E493FB740193FA740293F91245CC
:024E9800C12235
:1051DB007B13E4FD7F03124FDB90019EE0FFC39432
:1051EB00004026EF94035021EF75F003A42441F502
:1051FB0082E43409F583E493FB740193FA7402930C
:0A520B00F9E4F53D7D031245C622CB
:1050E800124FD59000AAE014600F146014146007E2
:1050F80014601E2404702880107BFF7A04792980AC
:10510800167BFF7A04791D800E7BFF7A0379B580C0
:10511800067BFF7A0379C4753D047D021245C622D9
:1054A700124FD59000A8E014600B0470167BFF7AAA
:1054B70007797980067BFF7A077984753D047D0239
:0454C7001245C622A2
:1052B9009001BBE024FE60140470287B137D107FED
:1052C90003124FDB7BFF7A047984800F7B137D10F7
:1052D9007F03124FDB7BFF7A047989753D0C7D03CF
:0452E9001245C62282
:105284007B137D107F03124FDB9001B3E014601693
:1052940014600B14701E7BFF7A0479B6800E7BFFBA
:1052A4007A0479BA80067BFF7A0479BF753D0E7D56
:0552B400031245C622B3
:104D30008F337B077D05124FDB7B117D0EAF331266
:104D40004FDB90009AE07BFFB401107A08794E7532
:104D50003D05AD331245C6D282800E7A0879517571
:104D60003D05AD331245C6C28290009CE07BFFB486
:104D7000010F7A08794E753D0EAD331245C6D283C8
:104D8000227A087951753D0EAD331245C6C2832291
:104F89007F01C290E4FDFC0DBD00010CED64AF4C46
:104F990070F5D290E4FCFD309013C3ED94E8EC6415
:104FA9008094835008000DBD00010C80EAC3ED9484
:104FB900E8EC648094834002E4FFE4FCFD0DBD004D
:0A4FC900010CED64AF4C70F5D290BE
:014FD30022BB
:104CCE00E4FBFAAE03EFA806088002C333D8FC302B
:104CDE00E722C290E4FCFD0DBD00010CED64014C19
:104CEE0070F5D290E4FCFD0DBD00010CED641A4C84
:104CFE0070F5801EC290E4FCFD0DBD00010CED644C
:104D0E00014C70F5E4FCFD0DBD00010CED641A4C78
:104D1E0070F5D29000000BBB00010AEB64084A70DC
:014D2E00A2E2
:014D2F002261
:0644F0008B378A38893980
:1044F600E4F53DFDFCC2900000D290A290E4337535
:104506003E00F53FE53DC313F53DE53F6401453EFD
:104516007003433D80E4FEFF0FBF00010EEF641AF7
:104526004E70F5D290E4FEFF0FBF00010EEF64015E
:104536004E70F50DBD00010CED64084C70B7AB373D
:10454600AA38A939E53D120F23E4F53DFCFDC290DA
:104556000000D290A290E433753E00F53FE53DC3DE
:1045660013F53DE53F6401453E7003433D80E4FE9F
:10457600FF0FBF00010EEF641A4E70F5D290E4FEF5
:10458600FF0FBF00010EEF64014E70F50DBD000177
:104596000CED64084C70B7AB3AAA3BA93CE53D125A
:0545A6000F23E4F53DC8
:0145AB0022ED
:1046FE008B568A578958AB59AA5AA95B120E88FF56
:10470E00D394095005EF4430801074F7120ECEABDF
:10471E0059AA5AA95B120E884440120F23AB56AA0F
:10472E0057A958120E88FFD394095005EF443080D4
:10473E001074F7120ECEAB56AA57A958120E884413
:10474E0040120F23AB5CAA5DA95E120E88FFD394B4
:10475E00095005EF4430801074F7120ECEAB5CAAF0
:10476E005DA95E120E884440120F23AB5FAA60A9AA
:10477E0061120E88FFD394095005EF4430801074F7
:10478E00F7120ECEAB5FAA60A961120E88444012DA
:03479E000F2322C4
:0248D3008F4113
:1048D500E4F545F544F543F542F546754703E541ED
:1048E5007E00A847088005C333CE33CED8F95408D7
:1048F50064087054AB45AA44A943A842C000C0014E
:10490500C002C003E5472401FDE43546FC120BF364
:104915008F4F8E4E8D4D8C4C7F007E007D007C40F0
:10492500123C27A804A905AA06AB07E4FFFE7D8073
:104935007C3F120B51D003D002D001D00012095791
:104945008F458E448D438C42E547154770021546C9
:10495500C3E546648094805085AF45AE44AD43AC15
:01496500420F
:01496600222E
:084060008F378B388A39893A49
:10406800E4F53BF53CED5480C4131313540164018B
:104078007026853B82F583742D120F35053BEDFEC6
:10408800E537FF6307FF6306FF0FBF00010E530606
:1040980007EFF537EEFD8013AB38AA39A93A853B0F
:1040A80082758300742B120F35053BED5407C454F9
:1040B800F0FFE53754F0C4540F4207E4FCFDFEABB3
:1040C80038E53A2401F9E43539FA754800754903A9
:1040D80012484F7403253BF53BAB38AA39A93AF58A
:1040E80082758300742E120F35053BE537540F4255
:1040F8003CAF3C1248D38F408E3F8D3E8C3D802292
:10410800E53B6408603AED2430AB38AA39A93A8512
:104118003B82758300120F35053BAF40AE3FAD3E85
:10412800AC3DE4FBFA79207841120A488F408E3F73
:104138008D3E8C3D120C2C7C007D0A120F6980C0CC
:10414800AB38AA39A93A853B82758300E4120F354A
:02415800053B25
:01415A002242
:064967008B2C8A2D892E25
:10496D00E4F534124F897535008F36E5366401450F
:10497D00356001227F33124CCE7F22124CCEC29075
:10498D00000000D29000A290E4FE33FFE4FDFC0D88
:10499D00BD00010CED641A4C70F5D290E4FCFD0DD8
:1049AD00BD00010CED64014C70F5EF4E60D0E4FEDE
:1049BD00FF124F898E358F36E5366401453560011E
:1049CD00227F33124CCE7F7D124CCE753A00753B53
:1049DD0000753C307B007A00792F1244F0AB2CAA85
:0C49ED002DA92EAD30AF2F124060AF3668
:0149F900229B
:10232F00E4F52C12534DAD07E4900206F07B017AD1
:10233F000179077F4112540E7B017A0179077F548F
:10234F0012540EAF05EFB41100400302276E902315
:10235F0064F828287302239702239A0223D70225B1
:10236F00390225F60226480226B10223BE02275C57
:10237F000225C202242702254B02259E0225B00208
:10238F0026080226620226E60226E41254067B0184
:10239F007A0179077F4712540E7B017A0179077F03
:1023AF004D12540E7B017A0179077F520227517B20
:1023BF00017A0179077F4512540E7B017A01790763
:1023CF007F3012540E02276E1254067B017A017968
:1023DF00077F4312540E7B017A0179077F571254FE
:1023EF000E7B017A0179077F4D12540E7B017A0122
:1023FF0079077F4F12540E7B017A0179077F4412C0
:10240F00540E7B017A0179077F4512540E7B017AB6
:10241F000179077F3F0227511254067B017A017918
:10242F00077F5512540E7B017A0179077F411254B1
:10243F000E7B017A0179077F5212540E7B017A01CC
:10244F0079077F5412540E7B017A0179077F5F124F
:10245F00540E7B017A0179077F4312540E7B017A68
:10246F000179077F5512540E7B017A0179077F524C
:10247F0012540E7B017A0179077F3D12540E9000A2
:10248F00F3E024FE70207B017A0179077F3112542B
:10249F000E7B017A0179077F3912540E7B017A0185
:1024AF0079077F3280137B017A0179077F391254C4
:1024BF000E7B017A0179077F3612540E7B017A0168
:1024CF0079077F3012540E7B017A0179077F301222
:1024DF00540E7B017A0179077F2C12540E7B017AFF
:1024EF000179077F3812540E7B017A0179077F2C0F
:1024FF0012540E7B017A0179077F3112540E7B0142
:10250F007A0179077F2C12540E7B017A0179077FAC
:10251F003012540E7B017A0179077F2C12540E7BF7
:10252F00017A0179077F300227517530017531012A
:10253F007532077BFF7A0279CD0226AB75300175B4
:10254F0031017532077BFF7A0279D9124EA97530A6
:10255F00017531017532077BFF7A0779CE124EA9CB
:10256F007B017A0179077F2C12540E75300175317A
:10257F00017532077BFF7A0779DE124EA97530019C
:10258F007531017532077BFF7A0279E10226AB754F
:10259F0030017531017532077BFF7A0279E6022629
:1025AF00AB7530017531017532077BFF7A0279F017
:1025BF000226AB7530017531017532077BFF7A0248
:1025CF0079FD124EA9900205E014600D0470157B81
:1025DF00017A0179077F3380087B017A0179077FC0
:1025EF003112540E0226E475300175310175320730
:1025FF007BFF7A0379060226AB75300175310175C1
:10260F0032077BFF7A037910124EA97530017531AD
:10261F00017532077BFF7A0779CE124EA97B017ABB
:10262F000179077F2C12540E753001753101753207
:10263F00077BFF7A0779DE8063753001753101758D
:10264F0032077BFF7A03791C124EA9E4900207F040
:10265F000227547530017531017532077BFF7A03FC
:10266F007923124EA97530017531017532077BFF41
:10267F007A08791F124EA97B017A0179077F2212FE
:10268F00540E7B017A0179077F2C12540E7530019D
:10269F007531017532077BFF7A08792B124EA9022B
:1026AF0027547530017531017532077BFF7A037935
:1026BF0035124EA9900205E0701B7B017A01790754
:1026CF007F3D12540E9000F4E0242FFF7B017A011E
:1026DF00790712540E806E7530017531017532070E
:1026EF007BFF7A03793F124EA97B017A0179077F2D
:1026FF003D12540E900205E0701B9000F4E0242F61
:10270F00FF7B017A01790712540E7B017A01790759
:10271F007F2C12540E7F14E4FCFDFE7B017A0179AD
:10272F0033F54875490212484F900133E0FF7B01A2
:10273F007A01790712540E900134E0FF7B017A0180
:10274F00790712540E900206E004F08012753001E2
:10275F007531017532077BFF7A037948124EA97BD9
:10276F00017A0179077F0D12540E7B017A017907E7
:05277F007F0A02540E68
:102B5C0012537CEF7003022E0E90009BE07E0070EF
:102B6C0070EE706D90010EE0FF6430600EEF64311A
:102B7C006009EF64326004EFB43308EF24D0F51130
:102B8C00022DBE90068BE493FF90010EE0B507205A
:102B9C0090012E74FFF0A37406F0A3748BF07E00EA
:102BAC007F1E7D007B017A017933121150022DBEFC
:102BBC00900675E493FF90010EE06F6003022F26E0
:102BCC0090012E74FFF0A37406F0A37475F0022D1F
:102BDC00BEE511F4604590009BE090066293FF9077
:102BEC00010EE06F703590009BE004F07BFF7A06DD
:102BFC00796212000E90009BE06F7001EE60030290
:102C0C002F26900096E004F074B42511F582E4347C
:102C1C0001F5837401F09001148048E511F4604DC6
:102C2C0090009BE090066C93FF90010EE06F703D5E
:102C3C0090009BE004F07BFF7A06796C12000E90FA
:102C4C00009BE06F7001EE6003022F26900096E06F
:102C5C0014F074B42511F582E43401F583E4F0909A
:102C6C00011404F07511FFE490009BF02290012EEA
:102C7C00E0FBA3E0FAA3E0F9120E88FF90068BE4C8
:102C8C00936F6003022D9712000E90009BE06F7003
:102C9C0001EE6003022D9790010EE0FFB42C077536
:102CAC00120075130122EFB43A2175140075150149
:102CBC007524017525017526338517277B017A004C
:102CCC0079DC124D90E4F516F51722D3E515940036
:102CDC00E51464809480406890010EE0FF0517E5D0
:102CEC0017AC1670020516142433F58274013CF5EA
:102CFC0083EFF09000DCE014F0E06003022F26E597
:102D0C0017641445167022AE16AF17789F7C017DA0
:102D1C00017B017A017933120E627E007F1E7D00E9
:102D2C007B017A017933121150E4F512F513F51485
:102D3C00F515F516F51790009BF0900114022E8BEB
:102D4C00D3E5139400E51264809480401190010E39
:102D5C00E0FF0517E517AC167024051680209002CD
:102D6C0005E0700B90010EE024D09000A9F02290A9
:102D7C00010EE0FF0517E517AC16700205161424BA
:102D8C0033F58274013CF583EFF02290012EE0FBC9
:102D9C00A3E0FAA3E0F9120E88FF90068BE493B53A
:102DAC00071790009BE090068B93FE90010EE0B508
:102DBC00060790009BE004F022900675E4936F7078
:102DCC003890009BE090067593FF90010EE0B507DC
:102DDC002890009BE004F07BFF7A06797512000EB8
:102DEC0090009BE06F7001EE6003022F2690012C87
:102DFC00E004F0900114022E96E490009BF0751103
:102E0C00FF22900199E0B40305E4F0751001125310
:102E1C00ABBF10069001997404F0900199E0B40ACC
:102E2C00004003022F26902E39F8282873022E57C3
:102E3C00022E80022E9C022F26022EE4022F260246
:102E4C002EF4022EAD022F26022ED290010EE0FFA0
:102E5C00B40D089001997401F08015EFB44F0890EF
:102E6C0001997406F080091254599001997407F075
:102E7C00E4F5102290010EE0FFB40A07900199745A
:102E8C0002F022EF900199B40D047401F0228063DA
:102E9C0090010EE0FFB40D079001997409F02280A7
:102EAC007690010EE0FDB40A0D7B017A0179007F6A
:102EBC002A12545F801CED640A605F90010EE0FFE3
:102ECC00640D6056805190010EE0B40A0590019992
:102EDC008021E4900199F02290010EE0FFB43E03B2
:102EEC00125459900199800B90010EE0FFB40A071F
:102EFC009001997403F022EF644B601EEF640D6037
:102F0C00199001997407F07B017A0179007F4F12B7
:0A2F1C00545F90010EE0FF125459BB
:012F26002288
:10415B00752D0102421C12531EEF6003024222F521
:10416B003275330075342C12501DE5186019E52C8F
:10417B0064226013AB1AAA1BA91C851982758300D4
:10418B00E52C120F350519E52C643A600CE52C640F
:10419B002A6006E52C6422704112534DEF24FB700C
:1041AB0039E52C64227033E518702C900207E0146B
:1041BB00600E047014751A01751B01751C6B800958
:1041CB00751A01751B01751C55900207E004F0E48C
:1041DB00F5197518018003E4F518E52E9005149375
:1041EB00652C6009E52E90051A93B52C24052EE558
:1041FB002E24FB6006046003024161900169740286
:10420B00F09000A3E09000A2F0E490016AF002416C
:10421B0061E4F52E024161E52DB40122900206E026
:10422B00D394004003E014F0900206E07010125299
:0E423B0015E49000ECF0900209F09001B9F04B
:014249002252
:103D3E00E49001BCF0900169E0600F9000ABE07080
:103D4E0004A3E064286003023E2A9000ABE0FEA3C9
:103D5E00E0FFEE6003023E4BEF24E2601D2488601C
:103D6E001424EC602124CE603624B46003023E4B52
:103D7E007F32023E467F14023E46C2AF12524ED2F0
:103D8E00AF7F0A023E46900205E070057FB4023E08
:103D9E00387FBE7E0012181790012C7401F022900D
:103DAE00016AE06401703CF0752F017530017531C8
:103DBE00077532147B017A01799F1243387B13E425
:103DCE00FD7F04124FDB7BFF7A0879A7753D047DDA
:103DDE00041245C6124F3B7A08797EE4F53D7D0408
:103DEE000245C6900205E0702F9000F4E024B3F572
:103DFE0082E43401F583E4F0900096E014F0E07074
:103E0E00099000F404F07FB4802E7FB47E00121867
:103E1E00177F077E000212137F0A801C9000ABE012
:103E2E007004A3E0649670057FA0FE800D7B13E402
:0E3E3E00FD7F04124FDB7FC87E001218172292
:0D55A2009000A8E07003021DCE12232F22FE
:0D55AF009000A8E07003023AF512415B2263
:0D55BC009000A8E07003023E4C123D3E221C
:102F27009000ACE02FFF9000ABE03EFE6003023262
:102F370059EF12112A2F7FAC2F8BAD302BAE2FBF3D
:102F4700AF3079B730EBB830C5B93030BB30F9C3E3
:102F5700313DD4314BD53167D630FED73120D8310A
:102F670042D93154DA3193DE317DDF31D9E031F5A1
:102F7700E931EAEA00003259900205E004F0E05432
:102F870001F08014900205E0700404F080069002BE
:102F970005E014F0900205E075F003A4244AF582D9
:102FA700E43409F583E493FB740193FA740293F90B
:102FB700753D0A7D020232569001BCE06003023281
:102FC70059900205E07B017A00799F7F09702E12E4
:102FD700540E7B017A00799F7F0B12540E7B017A86
:102FE70000799F7F0C12540E7B017A00799F7F0D29
:102FF70012540E7B017A00799F7F04802112540EB0
:103007007B017A00799F7F0E12540E7B017A00793B
:103017009F7F0512540E7B017A00799F7F0F125410
:103027000E0231D27F0A0231E6900096E0D3940077
:1030370050030232599000F4E0F52E9000F4E004BA
:10304700F0E0D3940440037401F09000F4E0FF240F
:10305700B3F582E43401F583E064016004EFB52E33
:10306700DA12483B7B017A017933753D0D7D030206
:103077003256900096E0D3940050030232599000E4
:10308700F4E0F52E9000F4E0B401057404F0800636
:103097009000F4E014F09000F4E0FF24B3F582E42C
:1030A7003401F583E064016004EFB52ED712483B85
:1030B7007B017A017933753D0D7D0302325690000D
:1030C70096E0D3940050030232599000F4E024B301
:1030D700F582E43401F583E0640160030232597F2D
:1030E700D20231E1900096E060030232597F0A0272
:1030F70031E17FD20231E69000F5E004F07B017AFE
:1031070001797D12000E9000F5E0FD7C00CFCDCF58
:10311700CECCCE120F69EDF0229000F5E070107B57
:10312700017A01797D12000EEF149000F5F02290DC
:1031370000F5E014F0227FDC0231E67B017A0179A9
:103147007D023F597B017A01797D02424A90009ABC
:10315700E0B40104E4F0801990009A7401F0801142
:1031670090009CE0B40104E4F0800690009C740198
:10317700F07F01024D309001BCE060030232597BC1
:10318700017A00799F7F0612540E803F9001BCE0C0
:10319700600302325990016A04F0FB7A00799F7F3D
:1031A7001012540E90009AE0243090019FF0900086
:1031B7009CE024309001A0F078A17C017D017B0187
:1031C7007A01797D7E007F12120E629001BC740134
:1031D700F022900205E070057FB4FE800E7FBE7E70
:1031E7000080089000A6E0FEA3E0FF0218177B010D
:1031F7007A01793312000EEF4E704990019FE02457
:10320700D090009AF09001A0E024D090009CF07834
:103217007D7C017D017B017A0179A17E007F1212FD
:103227000E627BFF7A0879421245C17A08794875A0
:103237003D097D021245C67F02124D307B017A019E
:10324700797D80067B017A017933E4F53D7D0312B0
:0232570045C66A
:013259002252
:1034C8001237311246591254ED12557F9000F37499
:1034D80001F09001BAF012524E125128E475356489
:1034E800F534F533F5327F64FEFDFC124F4C7F094D
:1034F8007E00121817E47535F4753401F533F5328A
:103508007FF4124F487F967E001218179000D6E07D
:10351800B4010D900098E0FF9000F5E0FD125569A8
:103528009000D5E0600B12325A90009DEEF0A3EFA8
:10353800F090009DE0FEA3E0FF4E6003121213908E
:103548000209E06401703A900169E064017032F0A8
:103558009000A8E07BFF70067A05790180057A075C
:103568007990E4F53D7D041245C69001B9E004F078
:1035780012483E7B017A017933753D137D0412456B
:10358800C69001B8E0B4011D9000ABE07004A3E060
:10359800647870119001B8E004124FD47BFF7A0769
:1035A80079041245C190019EE06402704C9000AB12
:1035B800E07004A3E06478704090019BE0FF900203
:1035C80008E06F6034EF124FD4E0FFE4FCFDFE7BAF
:1035D800017A017933F54875490212484F7B017A1F
:1035E800017933753D087D021245C67BFF7A037960
:1035F8004D753D0E7D021245C690019EE064017036
:10360800479000ABE07004A3E06478703B90010F32
:10361800E064017033F07B017A0079F6124967EFB4
:10362800640170247B13FD7F02124FDB7B017A005B
:1036380079F6753D047D021245C67BFF7A03795001
:10364800753D0E7D021245C6900114E0FFD394002B
:103658004042EFB402067FE67E0080309000ABE087
:103668007004A3E064B4701690009612483E7B0183
:103678007A017933753D117D031245C68011900199
:103688002CE0D394014008E4F07FAAFE121817E456
:10369800900114F07B017A00799F125324EF702077
:1036A8009000ECE0701AE004F01255A2E490016971
:1036B800F09001997403F07B017A01790012516648
:1036C80012531EEF701A900199E064037012900073
:1036D800DBE06009124FD59001001245AC1255AFDE
:1036E8007B017A017907125324EF70129000DBE016
:1036F8006009124FD59001071245AC124BF59001A5
:10370800BCE0B4010F7B017A00799F125324EF606B
:10371800031255BCE475350AF534F533F5327F0AE2
:09372800FEFDFC124F4C023514A9
:10095000020C98E86480F8E933E83360110460F031
:10096000ED33EC337009E8FCE9FDEAFEEBFF22040D
:1009700060DED3EB9FEA9EE99DE8C2E78CF0C2F708
:1009800095F0400CE8CCF8E9CDF9EACEFAEBCFFBD4
:10099000120C6385D0F05804700320D5B3E80470BE
:1009A000075002B2D5020CA292D5EC0460F7E4CC59
:1009B000C0E0C398F8603B94186008400DD0E0FB9D
:1009C000020C7AE4FBFAC9FC8028E830E406E4C9AA
:1009D000FBE4CAFCE830E305E4C9CACBFCE85407F1
:1009E0006010F8C3E913F9EA13FAEB13FBEC13FCFC
:1009F000D8F130F52FC3E49CFCEF9BFFEE9AFEED9F
:100A000099FDD0E0FBEF4E4D4C701222DB03020C3F
:100A10009FEC2CFCEF33FFEE33FEED33FDED30E7C2
:100A2000EB020C7AEF2BFFEE3AFEED39FDD0E0FB46
:100A300050130BBB0003020CA2ED13FDEE13FEEFEF
:080A400013FFEC13FC020C7A19
:100A4800EC4D6011E8497017ED33EC3304600DE4A8
:100A5800FCFFFEFD22E933E8330470F8020C98121B
:100A68000C6358046009E4CC24815006285009021C
:100A78000CA2284003020C9FC0E0EB4A7044B980E6
:100A880006D0E0FB020C8EEF4E701CBD8008EBFF19
:100A9800EAFEE9FD80EBE98DF0A4FEE5F0020B31FA
:100AA800E9CDF9EAFEEBFFEF89F0A4FCE5F0CE8989
:100AB800F0A42EFFE435F0CD89F0A42DFEE435F046
:100AC8008067EF4E7005BD80D780C3EF8BF0A4AC74
:100AD800F0EE8BF0A42CFCE435F0F8EF8AF0A42CAF
:100AE800E5F038FCE433CB8DF0A42CFCE5F03BF8C2
:100AF800EE8AF0A42CFCE5F038F8E433CF89F0A4B2
:100B08002CFCE5F038CF3400CE89F0A42FFFE5F0B7
:100B18003EFEE433C98DF0A42EFEE5F039CD8AF00F
:100B2800A42FFFE5F03EFEE43DFD33D0E0FB500787
:100B38000BBB000F020CA2EC2CFCEF33FFEE33FED4
:060B4800ED33FD020C7A02
:100B4E00020CA2EC5D046005E859047003020C98D7
:100B5E00120C63580460F6EC4860F2EC7004FDFE73
:100B6E00FF22C860DB2481C85009C398600250067A
:100B7E00020C9F9850CAF582E9294B4A7005AB8248
:100B8E00020C8E75F0007C1A7880C3EF9BEE9AED06
:100B9E0099400DC3EF9BFFEE9AFEED99FDE842F0F2
:100BAE00DC23ACF0D0E0FFD0E0FED0E0FDAB822045
:100BBE00E7101BEB60BAEC2CFCEF33FFEE33FEEDCF
:100BCE0033FD020C7AE803F830E705C0F075F0004B
:100BDE00EF2FFFEE33FEED33FD40B830E7C280AAB3
:100BEE0075F020800E75F010800575F0087D007E82
:100BFE00007F003392D530D50312106DEC334010C8
:100C0E00EF33FFEE33FEED33FDEC33FCD5F0ED228A
:0E0C1E00E5F0247EA2D513CC92E7CDCEFF22C6
:100C2C00EDD2E7CD33EC3392D524814006E4FFFEC0
:100C3C00FDFC22FCE4CFCECDCC24E0501174FF801F
:100C4C00EDC3CC13CCCD13CDCE13CECF13CF0470BC
:070C5C00F030D5DE02106D3F
:103C27008F4B8E4A8D498C48E4FFFE7D807C3FABED
:103C37004BAA4AA949A848120CC77009AF4BAE4A0C
:103C4700AD49AC4822AF4BAE4AAD49AC48120CADBA
:103C5700FBAF4FAE4EAD4DAC4C120CADFFBF0108E4
:103C6700E4FFFE7D807C3F22EF64046022EB640466
:103C7700601DBB0127E4FFFEFDFCAB4FAA4EA94D1B
:103C8700A84C120CC760084006E4FFFEFDFC227436
:103C9700FFF54FF54EF54DF54C023D35E4F550F582
:103CA70051FFFEFDFCAB4BAA4AA949A848120CC715
:103CB700504BAF4FAE4EAD4DAC4C120C2C8E508FBF
:103CC70051AC50AD51EC120BF3C8ECC8C9EDC9CAE1
:103CD700EECACBEFCBAF4FAE4EAD4DAC4C12095346
:103CE700E4FBFAF9F8120CC770A5AF4BAE4AAD4921
:103CF700AC48120D348F4B8E4A8D498C48AF4BAE72
:103D07004AAD49AC481239F4AB4FAA4EA94DA84C5D
:103D1700120A481247D98F4F8E4E8D4D8C4CE55164
:103D270030E00B120D348F4F8E4E8D4D8C4CAF4FB4
:073D3700AE4EAD4DAC4C2275
:100C6300E9D2E7C933E833F892D5EDD2E7CD33ECD7
:070C730033FC5002B2D52250
:100C7A00EC30E7100FBF000C0EBE00080DBD0004DB
:100C8A000BEB6014A2D5EB13FCED92E7FD2274FF87
:100C9A00FCFDFEFF22E480F8A2D574FF13FC7D80E0
:030CAA00E480EFF4
:100CAD00ED33EC33601004700FED547F700574025A
:0A0CBD0092E0227404220422E422D3
:100CC70074F8CC6480CCC86480C8F582046043C3E0
:100CD700EB9FF5F0EA9E42F0E99D42F0E89C45F073
:100CE70060305018E5825FFFE582F42B5582FB5098
:100CF700210ABA001D09B90019088016E5825BFBB5
:100D0700E582F42F5582FF50090EBE00050DBD0088
:100D1700010CC3EB9FF5F0EA9E42F0E99D42F0E833
:0D0D27009C45F06007CC4820E701B3EC22AA
:100D3400ED33EC33600A047003BD8004ECB2E7FCCD
:010D4400228C
:1047A10033DA929E35B16011377FE5FE3921848974
:1047B1003AAEC3FF3C1D955B3D6358473E75FDF026
:1047C1003F3172183F800000C2D5020CA2020C9842
:1047D100BD80FA50F3020C9FED33EC330460F17BA2
:1047E1003B7AAA79B8783F120A48ED33EC3392D577
:1047F100247B5011A2D570DB500BED448024045072
:1048010004A2D580CEEFFBEEFAEDF9ECF8120C2CF8
:10481100EFF582F404FC120BF8120957C08290479D
:10482100A17409120D54ED33CC33D0F092D525F09B
:0A483100A2D57001C313CC13FD22C1
:1039C0003E9248DA3ECCCCCD3F2AAAAB4000000064
:1039D0003F8000003F9837F03FB504F33FD744FCE9
:1039E0003E3172173EB172173F0515913EDE5BD92D
:1039F000D2008002C200EDD2E7F8CD33EC33047080
:103A00000BBD800592D5020CA2020C9840FBD3148A
:103A100060F2F5F07C3FEE7A00C39496C8948B4038
:103A2000230AC89469C8941A401A0AC89468C894AA
:103A30001F40110AC8945AC89425400805F07A001E
:103A4000CDC2E7CDC0F08C528D538E548F55EA23F2
:103A500023C0E024D0F582E43439F58312108B12B0
:103A60000957ECC0E0EDC0E0EEC0E0EFC0E012109E
:103A70007BA852A953AA54AB55120953D0E0FBD0EE
:103A8000E0FAD0E0F9D0E0B2E7F8120B518C528D99
:103A9000538E548F559039C07403120D45A852A906
:103AA00053AA54AB55120A48D0E0600F24DCF582CB
:103AB000E43439F58312108B1209578C528D538ED2
:103AC000548F55D0E0C3947FFDE49400FC120BF3B7
:103AD0007B187A727931783F120A48A852A953AA02
:103AE00054AB5512095730000B7BD97A5B79DE78DD
:053AF0003E120A48220D
:100D4500C0E0EFFBEEFAEDF9ECF8120A48D0E0F559
:100D5500F0EFFBEEFAEDF9ECF812107BA3A3A3A3D9
:100D6500E8C0E0E9C0E0EAC0E0EBC0E0C0F0120A8C
:100D75004812108BA3A3A3A3120957D0F0D0E0FB10
:0D0D8500D0E0FAD0E0F9D0E0F8D5F0D422AB
:03000000024A872A
:0C4A8700787FE4F6D8FD758163024ACE0A
:100D9200E709F608DFFA8046E709F208DFFA803E43
:100DA20088828C83E709F0A3DFFA8032E309F60830
:100DB200DFFA8078E309F208DFFA807088828C8398
:100DC200E309F0A3DFFA806489828A83E0A3F6084C
:100DD200DFFA805889828A83E0A3F208DFFA804C26
:100DE20080D280FA80C680D4806980F280338010FD
:100DF20080A680EA809A80A880DA80E280CA803366
:100E020089828A83ECFAE493A3C8C582C8CCC583DD
:100E1200CCF0A3C8C582C8CCC583CCDFE9DEE780AD
:100E22000D89828A83E493A3F608DFF9ECFAA9F02C
:100E3200EDFB2289828A83ECFAE0A3C8C582C8CC82
:100E4200C583CCF0A3C8C582C8CCC583CCDFEADE9B
:100E5200E880DB89828A83E493A3F208DFF980CCFD
:100E620088F0EF60010E4E60C388F0ED2402B404F6
:100E72000050B9F582EB2402B4040050AF2323459D
:060E82008223900DE273D3
:100E8800BB010689828A83E0225002E722BBFE0268
:090E9800E32289828A83E493229B
:100EA100BB010CE58229F582E5833AF583E0225006
:100EB10006E92582F8E622BBFE06E92582F8E22250
:0D0EC100E58229F582E5833AF583E493226A
:100ECE00BB010989828A83F8E028F022500327F7B4
:100EDE0022BBFE05F8E328F3228A838982F8E49385
:020EEE002822B8
:100EF000BB010FF8E58229F582E5833AF583E02806
:100F0000F0225009C58229F8E58226F622BBFE09A7
:100F1000C58229F8E22582F222F8EA2583F583E9E1
:030F2000932822F1
:100F2300BB010689828A83F0225002F722BBFE01AD
:020F3300F322A7
:100F3500F8BB010DE58229F582E5833AF583E8F0F2
:100F4500225006E92582C8F622BBFE05E92582C89E
:020F5500F22286
:100F5700EF8DF0A4A8F0CF8CF0A428CE8DF0A42EAE
:020F6700FE2268
:100F6900C2D5EC30E709B2D5E4C39DFDE49CFCEEA3
:100F790030E715B2D5E4C39FFFE49EFE12117CC38E
:100F8900E49DFDE49CFC800312117C30D507C3E489
:060F99009FFFE49EFE2212
:100F9F0075F008758200EF2FFFEE33FECD33CDCC09
:100FAF0033CCC58233C5829BED9AEC99E58298408C
:100FBF000CF582EE9BFEED9AFDEC99FC0FD5F0D669
:100FCF00E4CEFBE4CDFAE4CCF9A88222B800C1B993
:100FDF000059BA002DEC8BF084CFCECDFCE5F0CBD1
:100FEF00F97818EF2FFFEE33FEED33FDEC33FCEB0A
:100FFF0033FB10D703994004EB99FB0FD8E5E4F9C5
:10100F00FA227818EF2FFFEE33FEED33FDEC33FCB1
:10101F00C933C910D7059BE99A4007EC9BFCE99AA5
:10102F00F90FD8E0E4C9FAE4CCFB2275F010EF2FEA
:10103F00FFEE33FEED33FDCC33CCC833C810D707EA
:10104F009BEC9AE899400AED9BFDEC9AFCE899F825
:0E105F000FD5F0DAE4CDFBE4CCFAE4C8F922B8
:0E106D00C3E49FFFE49EFEE49DFDE49CFC2294
:10107B00E493FC740193FD740293FE740393FF22BB
:10108B00E493F8740193F9740293FA740393FB22BB
:10109B007401FF3395E0FEFDFC080808E6CF2FF640
:1010AB0018E6CE3EF618E6CD3DF618E6CC3CF62219
:1010BB00BB010789828A830211E35005E9F802110B
:1010CB00D1BBFE05E9F80211F589828A830212076A
:1010DB00BB011A89828A83D0F0D0E0F8D0E0F9D036
:1010EB00E0FAD0E0FBE8C0E0C0F00211EC5016E9EA
:1010FB00F8D083D082D0E0F9D0E0FAD0E0FBC08208
:10110B00C0830211DABBFE16E9F8D083D082D0E09F
:0F111B00F9D0E0FAD0E0FBC082C0830211FE22BF
:10112A00D083D082F8E4937012740193700DA3A354
:10113A0093F8740193F5828883E473740293686068
:06114A00EFA3A3A380DF68
:10000E00E4FFFE120E88600C0FEF70010E09E9700E
:05001E00F20A80EF2250
:10115000EF4E6012EF60010EEDBB010B89828A83B6
:10116000F0A3DFFCDEFA2289F05007F709DFFCA9C3
:0C117000F022BBFEFCF309DFFCA9F0221A
:104A93000234C8E493A3F8E493A34003F68001F23D
:104AA30008DFF48029E493A3F85407240CC8C33324
:104AB300C4540F4420C8834004F456800146F6DFF3
:104AC300E4800B0102040810204080905481E47EAE
:104AD300019360BCA3FF543F30E509541FFEE493E8
:104AE300A360010ECF54C025E060A840B8E493A3AF
:104AF300FAE493A3F8E493A3C8C582C8CAC583CADA
:104B0300F0A3C8C582C8CAC583CADFE9DEE780BE91
:0154A6000005
:10117C00BC000BBE0029EF8DF084FFADF022E4CC57
:10118C00F875F008EF2FFFEE33FEEC33FCEE9DEC20
:10119C00984005FCEE9DFE0FD5F0E9E4CEFD22ED66
:1011AC00F8F5F0EE8420D21CFEADF075F008EF2FB0
:1011BC00FFED33FD4007985006D5F0F222C398FDA1
:0511CC000FD5F0EA223E
:0911D100E6FB08E6FA08E6F92243
:0911DA00EBF608EAF608E9F6223A
:0911E300E0FBA3E0FAA3E0F9220D
:0911EC00EBF0A3EAF0A3E9F02204
:0911F500E2FB08E2FA08E2F9222B
:0911FE00EBF208EAF208E9F22222
:0C120700E493FB740193FA740293F92243
:00000001FF
