:1009590041545F5452414E534143545F494E4954A7
:100969000041545F5349474E414C5F535452454EE1
:100979004754480041545F4E4554574F524B5F53BB
:1009890054415455530041545F48454C4C4F004124
:10099900545F4745545F494D45490041545F4944B7
:1009A900454E54494649434154494F4E0041545FCD
:1009B90053494D5F5354415455530041545F534D6E
:1009C900535F44454C5F414C4C0041545F5345547F
:1009D9005F42415544524154450041545F53415689
:1009E900455F50524F46494C450041545F44494187
:1009F9004C5F4E554D4245520041545F41424F5262
:100A0900545F43414C4C0041545F414E535745524A
:100A19005F43414C4C0041545F534D535F4D4F442C
:100A2900450041545F534D535F53454E445F4E5506
:100A39004D0041545F534D535F5243565F4D5347E9
:100A49000041545F534D535F44454C5F494E440048
:100A590041545F534D535F53454E445F4D534700D7
:100A690041545F4543484F5F4F4646005749464901
:100A79005F41545F5452414E535F494E49540057A8
:100A89004946495F41545F4745545F4649524D576E
:100A990041524500574946495F41545F4745545FB4
:100AA900574946494D4F444500574946495F4154C6
:100AB9005F4745545F5353494400574946495F537B
:100AC9005256525F4E4F5F54494D454F555400574A
:100AD9004946495F4745545F49505F41444452453F
:100AE900535300574946495F5443505F434C4F5352
:100AF9004500574946495F41545F4543484F5F4F59
:100B0900464600574946495F4D4F44554C455F524B
:100B19004553455400574946495F41545F5345542D
:100B29005F574946494D4F444500574946495F413A
:100B3900545F5345545F424155445241544500570F
:100B49004946495F41545F5345545F5353494400F3
:100B5900574946495F41545F4D554C54495F434C91
:100B690049454E5400574946495F5352545F5443CF
:100B7900505F53455256455200574946495F434FC6
:100B89004E4E5F544F5F53415000574946495F5499
:100B990043505F434F4E4E45435400574946495FC2
:100BA9005443505F444154415F53454E4400534DB3
:100BB900535F555345525F4D534700534D535F544F
:100BC900454D50455241545552455F4D5347005389
:100BD9004D535F4652455155454E43595F4D534715
:100BE900005443505F534552564552005443505F99
:100BF900434C49454E54002B43575341505F44459C
:100C0900463F002B43575341503D002C312C3300B4
:100C19002B4349504D55583D31002B4349505345BD
:100C2900525645523D31002B43574D4F44453D00E7
:100C39002B43495053544F3D30002B43574A4150A1
:100C49005F4355523D002B4349465352002B4349BC
:100C59005053544152543D22544350222C22002BCC
:100C6900434950434C4F5345002B43495053454E3C
:100C790044002B52535400487A002A430057454CEC
:100C8900434F4D45210053343A20534156452026C0
:100C9900204E4558540053353A2053656E6420411F
:100CA900542053343A5265740053343A20526574CF
:100CB9000053353A204E4558540053353A4E65781D
:100CC900742053343A205265740053323A496E63A2
:100CD900726D6E7453333A446563726D6E7400417C
:100CE9005420434D4420436F6E736F6C6500544329
:100CF90050204E6574776F726B00544350204E65D7
:100D090074776F726B205365727665720054435025
:100D1900204E6574776F726B20436C69656E740041
:100D2900544350204E6574776F726B20436F6E7316
:100D39006F6C6500544350204E657720446174619F
:100D490020526376642100534D5320547261696EB9
:100D590065720043616C6C20547261696E65720042
:100D690053656C656374204D6F642046756E6374BA
:100D7900696F6E0053656C65637420415420436F3D
:100D89006D6D616E6400415420436F6D6D616E64D9
:100D990020526573706F6E73653A0053454C454335
:100DA9005420424155442D52415445203A00393688
:100DB900303000313932303000333834303000319E
:100DC9003135323030004348414E47452042443A9C
:100DD9000053454C454354205041524954593A0017
:100DE9004F4444004556454E004E4F4E450044453C
:100DF9004641554C542042443A3936303000444536
:100E09004641554C54205041524954593A204E4F6D
:100E19004E45004348414E47452050415249545997
:100E29003A0054310054320054330054696D656FEF
:100E390075742C636865636B2047534D3F004552B9
:100E4900524F52004641494C004E4F2043415252A5
:100E5900494552004E4F204449414C544F4E45009C
:100E6900425553590047534D2072657475726E652A
:100E790064206572726F72210047534D204572726A
:100E89006F722053637265656E3A0053494D206E47
:100E99006F74206465746563746564210047534DFC
:100EA900204E6574776F726B204C6F737421004507
:100EB9006E746572204E756D626572204C656E6741
:100EC90074683A0053373A496E63726D6E745333DE
:100ED9003A446563726D6E740053323A4E65774ECB
:100EE900756D2053333A43616C6C4E756D00533404
:100EF9003A5265742053353A446973636F6E6E656F
:100F0900637400456E746572204E6577204E756D69
:100F19006265723A00456E746572204E6577204DA0
:100F29006573736167653A0053363A3C2D20533532
:100F39003A2D3E2053343A5265740043616C6C6912
:100F49006E672E2E2E0053656E64696E6720534DB1
:100F5900532E2E2E00534D532053656E742041633A
:100F69006B205263766400436C656172696E672019
:100F7900534D53204D656D2E2E2E00446973636FBA
:100F89006E6E656374696E672E2E2E00202C434F9A
:100F99004E4E45435400202C434C4F534544004387
:100FA9004C4F5345440052494E4700534D5320522C
:100FB90065616479004950442C004E4F20434152E9
:100FC9005249455200496E632043616C6C2C205391
:100FD9003820746F2052637600434D54493A0053C8
:100FE900656C656374204D6F64653A0053656C20C8
:100FF9004D6F64653A0053353A53656C2053333A63
:101009003C2D2053323A2D3E0053343A5265742018
:1010190053333A53656E6453323A4E756D00533506
:101029003A4E657753373A44656C416C6C00534DC1
:101039005320526376642C20533620746F205265F6
:10104900616400534D532052637664204D65737378
:101059006167653A004672657175656E63792069E5
:1010690073203A00487A00436865636B204C696EC7
:101079006B204C3520506F73210054656D7065727B
:101089006174757265206973203A00202A43005300
:10109900656C656374204D6F64756C652054797057
:1010A900653A0047534D204D6F64756C650057696B
:1010B9004669204D6F64756C650054696D656F757F
:1010C900742C636865636B20576966693F005769CB
:1010D90066692072657475726E6564206572726FD7
:1010E9007221004D6F64756C65206E6F74206465A4
:1010F9007465637465643A0022416E7368756D6145
:101109006E4564754150220022736F6674415032F6
:10111900303230220053656C65637420436F6E6E04
:101129003A0049504164643A0053455249414C20C0
:101139004552524F5200647572696E6720415420BE
:10114900636F6D6D616E643A003139322E31363814
:101159002E342E310033333300436F6E6E3A5333DE
:101169002F53372053353A4E657874004C45443334
:101179003A004C4544343A004F6E004F66660053BE
:10118900363A3C2D2053353A2D3E2053323A4E659E
:1011990078740053323A2053656E64204461746157
:1011A9002053343A526574005333203A436C6F73B9
:1011B9006520636F6E6E656374696F6E0053333AB1
:1011C9002052637620446174612053343A52657425
:1011D90000544350204D73672053656E74210057A6
:1011E900616974696E6720666F722047534D2041AB
:1011F900636B2E003931353839393830383600FFCC
:101209000959FF096AFF097DFF098FFF0998FF093D
:10121900A4FF09B6FF09C4FF09D3FF09E3FF09F3D6
:10122900FF0A02FF0A10FF0A1FFF0A2BFF0A3BFFF2
:101239000A4AFF0A59FF0A69FF0A75FF0A88FF0A65
:101249009DFF0AB2FF0AC3FF0AD8FF0AECFF0AFB97
:10125900FF0B0CFF0B1EFF0B33FF0B48FF0B59FF56
:101269000B6EFF0B82FF0B93FF0BA4FF0BB7FF0B5A
:0A127900C4FF0BD8FF0BEAFF0BF5D2
:1061B7004200960000420098000142009A00014206
:1061C700009C000041009E0041009FFF4200A0008C
:0F61D700004200A200004200A400004100A60008
:0B5DFC0090023DEBF0A3EAF0A3E9F0F9
:105E0700E4FF9000031205F1900004E41205F190FD
:105E17000006E41205F190023DE0FBA3E0FAA3E0DF
:105E2700F990000512055D6F600F1208018F8275EA
:095E37008300E41205F10F80DD87
:015E4000223F
:10624200C003C002C00190023AE0FBA3E0FAA3E05F
:10625200F912082190023AE0FBA3E0FAA3E0F990D8
:0A6262000005ED1205F1125DFC22AB
:0862E900E0FBA3E0FAA3E0F9D9
:0862F10090000612055DFF227A
:0854E900E0FBA3E0FAA3E0F9E7
:1054F100900241EBF0A3EAF0A3E9F09002411262BD
:10550100E9EF6026900241E0FBA3E0FAA3E0F99005
:10551100000412055D04FF90000512055DFEEF8E8B
:10552100F084900004E5F01205F1900241E0FBA344
:10553100E0FAA3E0F990000312055D04FF90000575
:1055410012055DFEEF8EF084900003E5F01205F187
:1055510090000412055DFF90000312055DB507047C
:105561007F0180027F00900241E0FBA3E0FAA3E00B
:08557100F9900006EF0205F1BC
:06607C007B017A0079B4FB
:1060820090000412055DFF90000312055D6F60220F
:10609200900006E41205F190000412055D04FF90E1
:1060A200000512055DFEEF8EF084900004E5F0120B
:0360B20005F122D3
:086216007B017A01791C7F3045
:10621E00900238EBF0A3EAF0A3E9F0900003120528
:10622E005DFE1208018E82758300EF1205F1900259
:04623E00380254E9E5
:065F8D007B017A01791589
:105F930090023EEBF0A3EAF0A3E9F090023E126216
:105FA300E9EF701F90023EE0FBA3E0FAA3E0F99053
:105FB300000412055DFF90000312055DB507047F21
:065FC3000180027F0022B4
:0B5B2600900238EBF0A3EAF0A3E9F0D6
:105B310074FFFDFC125F93EF703E900238E0FBA30F
:105B4100E0FAA3E0F990000412055DFF1208018F4D
:105B51008275830012055DFF90023BE0FBA3E0FA32
:105B6100A3E0F9EF1205DF900238E0FBA3E0FAA30E
:0C5B7100E0F9126082E4FCFDAE04AF0518
:015B7D002205
:065E86007B017A0079B4F3
:105E8C00900238EBF0A3EAF0A3E9F0900238E0FBC3
:105E9C00A3E0FAA3E0F9125F93EF701F900238E0D1
:105EAC00FBA3E0FAA3E0F990000412055DFF1208D1
:0E5EBC00018F8275830012055DFF227F002298
:065B7E007B017A0179159C
:0B5B8400900245EBF0A3EAF0A3E9F06B
:105B8F0090000512055DFE1262F1EF70379002452D
:105B9F00E0FBA3E0FAA3E0F990000412055DFF908B
:105BAF00000312055DFDC39F4005ED9FFE8015901C
:105BBF000245E0FBA3E0FAA3E0F990000512055DB2
:065BCF002DC39FFEAF068E
:015BD50022AD
:0741E800F07B017A01792B45
:0B41EF00900238EBF0A3EAF0A3E9F027
:1041FA00E4900243F090023BE0FBA3E0FAA3E0F96B
:10420A0090000512055D900244F0125B8490023E14
:10421A00E0FEEFC39E500302434B90023BE0FBA338
:10422A00E0FAA3E0F990000412055DFF9000051280
:10423A00055DC39FFFEED39F50030242EA90023B03
:10424A00E0A3E0A3E090000412055DFF90000512D0
:10425A00055DC39FFFE49400FE90023FF0A3EFF0D8
:10426A0090023EE0C39F900242F0E49E900241F029
:10427A0090000412055DFD7C00120801E92DF9EC9D
:10428A003AFAC003C002900238E0FBA3E0FAA3E0C6
:10429A00F8AC02AD03D002D00312051E900241E031
:1042AA00FEA3E0FF90023BE0FBA3E0FAA3E0F912D1
:1042BA000801C003C002C001900238E0FBA3E0FA83
:1042CA00A3E0F990023FE0FCA3E0FDE92DF9EA3C06
:1042DA00A801FCAD03D001D002D00312051E803E16
:1042EA0090023EE0FF7E0090023BE0FBA3E0FAA3CF
:1042FA00E0F990000412055DFD7C00120801E92D29
:10430A00F9EC3AFAC003C002900238E0FBA3E0FAE3
:10431A00A3E0F8AC02AD03D002D00312051E90024E
:10432A003EE0FF900243E0C39F501690023BE0FB41
:10433A00A3E0FAA3E0F9126082900243E004F0805D
:01434A00DD95
:01434B00224F
:105AC5009002397401F0A37401F0A3741CF07B01FA
:045AD5007A017902D7
:105AD900900236EBF0A3EAF0A3E9F0900236E0FB7E
:105AE900A3E0FAA3E0F9120544FF6030900239E01F
:105AF900FBA3E0FAA3E0F990000312055DFE12088A
:105B0900018E82758300EF1205F19002391254E972
:0D5B1900900237E475F00112065B80BF2298
:0B45F300900235EBF0A3EAF0A3E9F022
:1045FE00E4900240F0900238E0FBA3E0FAA3E0F969
:10460E00125B84900238E0FBA3E0FAA3E0F990007D
:10461E000512055DFEC39FFF90023BE0FDEFC39DBB
:10462E00500302473C90000312055DFFC3EE9FFF4F
:10463E00EDD39F50030246EB900238E0A3E0A3E0D7
:10464E0090000312055DFF90000512055DC39FFFEC
:10465E00E49400FE90023CF0A3EFF090023BE0C326
:10466E009F90023FF0E49E90023EF0900238E0A34D
:10467E00E0A3E090000312055DFD7C00120801E945
:10468E002DF9EC3AA801FCAD03900235E0FBA3E056
:10469E00FAA3E0F912051E90023EE0FEA3E0FF90A1
:1046AE000235E0FBA3E0FAA3E0F990023CE0FCA3A4
:1046BE00E0FDE92DF9EA3CFAC003C002C001900208
:1046CE0038E0FBA3E0FAA3E0F9120801A801AC025E
:1046DE00AD03D001D002D00312051E803690023BEE
:1046EE00E0FF7E00900238E0FBA3E0FAA3E0F99031
:1046FE00000312055DFD7C00120801E92DF9EC3A6C
:10470E00A801FCAD03900235E0FBA3E0FAA3E0F9AB
:10471E0012051E90023BE0FF900240E0C39F500E38
:0E472E009002381254E9900240E004F080E559
:01473C00225A
:0800030090000612055DFF22CA
:08557900E0FBA3E0FAA3E0F956
:1055810090022EEBF0A3EAF0A3E9F090022E126252
:10559100E9EF602690022EE0FBA3E0FAA3E0F99088
:1055A100000412055D04FF90000512055DFEEF8EFB
:1055B100F084900004E5F01205F190022EE0FBA3C7
:1055C100E0FAA3E0F990000312055D04FF900005E5
:1055D10012055DFEEF8EF084900003E5F01205F1F7
:1055E10090000412055DFF90000312055DB50704EC
:1055F1007F0180027F0090022EE0FBA3E0FAA3E08E
:08560100F9900006EF0205F12B
:0B61E700900123E0FF7B017A01791595
:1061F200900228EBF0A3EAF0A3E9F0900003120565
:106202005DFE1208018E82758300EF1205F1900285
:046212002802557990
:065FC9007B017A0079B4AF
:105FCF0090022BEBF0A3EAF0A3E9F090022B126200
:105FDF00E9EF701F90022BE0FBA3E0FAA3E0F9902A
:105FEF00000412055DFF90000312055DB507047FE5
:065FFF000180027F002278
:1060B50090026EEBF0A3EAF0A3E9F090026E126293
:1060C500E9EF701F90026EE0FBA3E0FAA3E0F99000
:1060D500000412055DFF90000312055DB507047FFE
:0660E5000180027F002291
:105CD000900228EBF0A3EAF0A3E9F0900228E0FBA1
:105CE000A3E0FAA3E0F9120544FF603090022BE034
:105CF000FBA3E0FAA3E0F990000312055DFE120891
:105D0000018E82758300EF1205F190022B125579F6
:0D5D1000900229E475F00112065B80BF22AD
:065ECA007B017A0079B4AF
:105ED000900228EBF0A3EAF0A3E9F0900228E0FB9F
:105EE000A3E0FAA3E0F9125FCFEF701F900228E061
:105EF000FBA3E0FAA3E0F990000412055DFF12088D
:0E5F0000018F8275830012055DFF227F002253
:1044A300E47808F608F690010804F09001CFF0E4F0
:1044B3009000BFF090021A04F09001D0F09001C870
:1044C300F0E490021BF09001AE7403F0E490012A33
:1044D300F0900101F090021EF090017EF09001D166
:1044E300F09001AFF09001B1740AF0E4900146F04E
:1044F300FE7F0F7D397B017A0079F2120896E490F2
:104503000219F090010AF09001D2F0900107F090A7
:1045130000B0F09001B3F09001CDF0A3F09001B0A2
:10452300F09001A4F090021DF0900124F0FE7F139F
:10453300FD7B017A01792B1208967E007F0A7D00AC
:104543007B017A01790B120896E49000BDF090008C
:10455300ABF0FE7F04FD7B017A0179C9120896E472
:10456300900129F0FE7F12FD7B017A017980120808
:10457300967E007F147D007B017A01796A1208968A
:104583007E007F1E7D007B017A017948120896E444
:104593009000AEF090010904F0E49000AFF09000B9
:1045A300B1F090017FF0900141F09001927441F0DD
:1045B300A3744EF0A37453F0A37448F0A37455F09E
:1045C300A3744DF0A37441F0A3744EF0A37420F0D0
:1045D300A37445F0A314F0A37455F0A314F0A374CB
:1045E3004FF0A3F0A3744CF0A37453F0E4A3F022B0
:105C2E0090023A7401F0A37401F0A37415F07BFE98
:105C3E007A0079007D967C0012624290023A7401DD
:105C4E00F0A37400F0A374B4F07B017A02791F7D87
:105C5E00097C0012624290023A7401F0A37401F0C2
:105C6E00A3741CF07B017A0179D37D467C0002621D
:015C7E0042E3
:085C7F007F2C7E017D007C00FA
:065C87009002371207C471
:105C8D0090023BE0FCA3E0FDA3E0FEA3E0FFA31226
:105C9D0007C490023774FF120791EC4D4E4F6022EE
:105CAD0090023BE0FCA3E0FDA3E0FEA3E0FFA31206
:105CBD0007C490023F74FF120791EC4D4E4F60D216
:025CCD0080F065
:015CCF0022B2
:1062C400D2AFD2A9758901E4F588758A7C758CF9F9
:0362D400D28C2247
:0963200075C80BE4F5C9C2CA22DC
:03000B000259F5A2
:1059F500C0E0C083C082C0D075D000C000C28D7821
:105A05000906E6187001067809E6642B1846703D0C
:105A1500F608F69001B0E5CCF09001A4E5CDF0755F
:105A2500CC0075CD00C2CFC2CE9001247401F09098
:105A3500013EF090021EE0B40113900101E004F074
:105A4500E0D394054007E4F090017E04F0D000D047
:085A5500D0D082D083D0E032F2
:102F6F00125FC9EF70030232039000B0E0FF7E00E2
:102F7F006003023019EE6003023019900FAFE49333
:102F8F00FF900123E0FEB5071A900107E07014903F
:102F9F00014374FFF0A3740FF0A374AFF09000B06F
:102FAF00E004F0900FE2E493B5061490014374FF30
:102FBF00F0A3740FF0A374E2F09000B0E004F0906F
:102FCF000FC3E493B50623900107E06401600790F7
:102FDF0001D2E0B4011490014374FFF0A3740FF019
:102FEF00A374C3F09000B0E004F0900FB4E4936EBC
:102FFF00600302337190014374FFF0A3740FF0A3C9
:10300F0074B4F09000B0E004F022900143E0FBA311
:10301F00E0FAA3E0F9120544FF900FAFE4936F704D
:10302F00489000B0E0900FAF93FF900123E06F70D6
:10303F00389000B0E004F012000E9000B0E06F7016
:10304F0001EE600302337190010704F0E49000B0C9
:10305F00F07B0190022B04F0A37401F0A37415F020
:10306F007BFF7A0F79CE025CD0900143E0FBA3E0A7
:10307F00FAA3E0F9120544FF900FE2E4936F6003A7
:10308F0002312A12000E9000B0E06F7001EE600363
:10309F0002312A900096E0FEA3E0FFC39401EE6494
:1030AF00809480402D900123E0FD640D6024ED6439
:1030BF000A601F900097E02401F582E43401F58344
:1030CF00EDF0900097E004F0703E900096E004F071
:1030DF008036C3EF9401EE64809480402B900123DF
:1030EF00E0FF640D6004EFB40A1E900097E0240126
:1030FF00F582E43401F583E4F0900096F0A3F090AC
:10310F0000B0F09001CD04F0900123E0642C600337
:10311F00023371900096F0A304F022900143E0FB7C
:10312F00A3E0FAA3E0F9120544FF900FE2E493B590
:10313F0007179000B0E0900FE293FE900123E0B5E7
:10314F0006079000B0E004F022900FC3E4936F7075
:10315F00559000B0E0900FC393FF900123E06F7084
:10316F00459000B0E004F012000E9000B0E06F70D8
:10317F0001EE6003023371900107E0B40102E4F045
:10318F009001D2E0B40102E4F0E49000B0F07B01D2
:10319F0090022B04F0A37401F0A37415F07BFF7A57
:1031AF000F79C3025CD0900143E0FBA3E0FAA3E0E8
:1031BF00F9120544FF900FB4E4936F70319000B093
:1031CF00E0900FB493FF900123E0B507219000B07A
:1031DF00E004F012000E9000B0E06F7001EE60039B
:1031EF000233719000AE04F0E49000B0F022E4904E
:1031FF0000B0F0229001AEE0B40302E4F0125ECA18
:10320F00BF0E0F900123E0B43E089001AE7404F09E
:10321F008013125ECABF0E0D900123E0B4450690D5
:10322F0001AE7402F0125ECABF11069001AE7402B5
:10323F00F09001AEE014604714606524FE70030245
:10324F0032F014700302330214700302331E147031
:10325F000302334B24076003023371900123E0FF15
:10326F00B40D079001AE7401F022EFB44F07900137
:10327F00AE7406F0221261EC9001AE7407F022904A
:10328F000123E0FFB40A079001AE7402F022EFB4FD
:10329F000D079001AE7401F0229001AE7403F0227D
:1032AF00900123E0B40A18125ECABF0F127B017A95
:1032BF000179157F2A1261F29001AE7405F0229008
:1032CF000123E0FFB40A079001AE7403F022EF640C
:1032DF000A7003023371EF640D70030233710261E0
:1032EF00EC900123E0FFB43E031261EC9001AE7449
:1032FF0001F022900123E0FFB44F079001AE740656
:10330F00F022EF640A605BEF640D60560261EC908F
:10331F000123E0FFB40A079001AE7403F022EF64BB
:10332F004B603FEF640D603A9001AE7405F07B0186
:10333F007A0179157F4F1261F20261E7900123E064
:10334F00FDB40A117B017A0179157F2A1261F2E42B
:10335F009001AEF022ED640A6008ED640D60031277
:02336F0061E714
:013371002239
:10407A009002367401F0E4A3F0125F8DEF60030240
:10408A0041BE7B0190023B04F0A37402F0A3743595
:10409A00F07A017915125B26900235E0FF643A60E6
:1040AA0008EF642A600302414F125E86EF24FE6025
:1040BA004024F360442409600302414F900235E032
:1040CA00643A600302414FFE7F04FD7B017A017965
:1040DA006612089690023B7401F0A37401F0A3746F
:1040EA0015F0A37404F07B017A0179661241EF801E
:1040FA00549001AF7401F0804C900235E0642A704C
:10410A0044FE7F13FD7B017A01792B120896125B1C
:10411A007E7412C39F501690023B7401F0A374017F
:10412A00F0A37415F0A374121241E88018125B7E92
:10413A0090023EEFF090023B7401F0A37401F0A3E9
:10414A0074151241E8900237E0FF900E4793FE90F3
:10415A000235E0FD6E601EEF900E5293FEED6E602A
:10416A0014EF900E5D93FEED6E600AEF900E699368
:10417A00FFEDB50737900237E004F0E024FC602435
:10418A0024FA602014601D24066003024083900113
:10419A007E7402F0E49001D2F09000B8E09000B78B
:1041AA00F0024083E49001D2F0024083E4900237A7
:1041BA00F0024083900236E0B4012290021BE0D361
:1041CA0094004003E014F090021BE0701012607C2F
:0D41DA00E4900101F090021EF09001CEF083
:0141E70022B5
:10201600E4FD125E86AC07E490021BF0EC641160EE
:10202600167B017A01791C7F4112621E7B017A01BF
:10203600791C7F5412621EECB4130040030226176B
:1020460090204DF828287302208602208F0220C493
:1020560002219C0221FE02223302224702243E0272
:10206600210F0221DC0222A80222EF02230302230F
:102076001702236D0223F00224E102252F02260314
:1020860090021BE004F00226177B017A01791C7F7F
:102096002B12621E7B017A01791C7F4312621E7B22
:1020A600017A01791C7F5312621E7B017A01791C29
:1020B6007F5112621E90021BE004F00226177B017C
:1020C6007A01791C7F2B12621E7B017A01791C7FB3
:1020D6004312621E7B017A01791C7F4F12621E7BBE
:1020E600017A01791C7F5012621E7B017A01791CEC
:1020F6007F5312621E7B017A01791C7F3F12621E9A
:1021060090021BE004F00226177B017A01791C7FFE
:102116002B12621E7B017A01791C7F4912621E7B9B
:10212600017A01791C7F5012621E7B017A01791CAB
:102136007F5212621E7B017A01791C7F3D12621E5C
:10214600900108E024FE70297B017A01791C7F3119
:1021560012621E7B017A01791C7F3912621E7B0195
:102166007A01791C7F3212621E1262161262168082
:102176001C7B017A01791C7F3912621E7B017A0170
:10218600791C7F3612621E12621612621690021BAC
:10219600E004F00226177B017A01791C7F4812625F
:1021A6001E7B017A01791C7F4512621E7B017A0132
:1021B600791C7F4C12621E7B017A01791C7F4C12BE
:1021C600621E7B017A01791C7F4F12621E90021BF0
:1021D600E004F00226177B017A01791C7F26126241
:1021E6001E7B017A01791C7F5712621E12621690BD
:1021F600021BE004F00226177B017A01791C7F2B73
:1022060012621E7B017A01791C7F4712621E7B01D6
:102216007A01791C7F5312621E7B017A01791C7F39
:102226004E12621E90021BE004F00226177B017A12
:1022360001791C7F4912621E90021BE004F00226FF
:10224600177B017A01791C7F2B12621E7B017A01B2
:10225600791C7F4312621E7B017A01791C7F53121F
:10226600621E7B017A01791C7F4D12621E7B017A08
:1022760001791C7F4912621E7B017A01791C7F4E0F
:1022860012621E7B017A01791C7F5312621E7B014A
:102296007A01791C7F3F12621E90021BE004F00255
:1022A60026177B017A01791C7F4412621E12621680
:1022B6009001B1E0FFEDC39F501874F22DF582E452
:1022C6003400F583E0FF7B017A01791C12621E0D52
:1022D60080DE7B017A01791C7F3B12621E90021B15
:1022E600E004F0E004F00226177B017A01791C7FF6
:1022F6004812621E90021BE004F00226177B017A48
:1023060001791C7F4112621E90021BE004F0022636
:10231600177B017A01791C7F2B12621E7B017A01E1
:10232600791C7F4312621E7B017A01791C7F4D1254
:10233600621E7B017A01791C7F4712621E7B017A3D
:1023460001791C7F4612621E7B017A01791C7F3D52
:1023560012621E7B017A01791C7F3112621E900285
:102366001BE004F00226177B017A01791C7F2B12F1
:10237600621E7B017A01791C7F4312621E7B017A01
:1023860001791C7F4D12621E7B017A01791C7F4701
:1023960012621E7B017A01791C7F5312621E7B0139
:1023A6007A01791C7F3D12621E7B017A01791C7FBE
:1023B6002212621E9001B1E0FFEDC39F501874F225
:1023C6002DF582E43400F583E0FF7B017A01791C68
:1023D60012621E0D80DE7B017A01791C7F22126259
:1023E6001E90021BE004F00226177B017A01791C7D
:1023F6007F2B12621E7B017A01791C7F4312621EBB
:102406007B017A01791C7F4D12621E7B017A01796C
:102416001C7F4712621E7B017A01791C7F52126271
:102426001E7B017A01791C7F3D12621E125AC590ED
:10243600021BE004F00226177B017A01791C7F2B30
:1024460012621E7B017A01791C7F4312621E7B0198
:102456007A01791C7F4D12621E7B017A01791C7FFD
:102466004712621E7B017A01791C7F4412621E7B31
:10247600017A01791C7F4112621E7B017A01791C67
:102486007F3D12621E7B017A01791C7F4412621E17
:102496007B017A01791C7F4512621E7B017A0179E4
:1024A6001C7F4C12621E7B017A01791C7F2012620E
:1024B6001E7B017A01791C7F4112621E7B017A0123
:1024C600791C7F4C12621E7B017A01791C7F4C12AB
:1024D600621E90021BE004F00226177B017A017946
:1024E6001C7F2B12621E7B017A01791C7F431262CC
:1024F6001E7B017A01791C7F4D12621E7B017A01D7
:10250600791C7F4712621E7B017A01791C7F441277
:10251600621E7B017A01791C7F3D12621E125AC52A
:1025260090021BE004F00226179001B3E0FF7E0044
:10253600E460030225F0EF1460241460682402604E
:10254600030225F09002397401F0A37401F0A3741C
:102556001CF07B017A017992125AD90225F0900279
:10256600397401F0A37401F0A3741CF07BFF7A1098
:102576007983125AD99002397401F0A37401F0A339
:10258600741CF07B017A01790B125AD990023974C6
:1025960001F0A37401F0A3741CF07BFF7A10799408
:1025A600125AD980459002397401F0A37401F0A340
:1025B600741CF07BFF7A10795E125AD99002397436
:1025C60001F0A37401F0A3741CF07B017A01794831
:1025D600125AD99002397401F0A37401F0A3741C45
:1025E600F07BFF7A10796D125AD97B017A01791C3A
:1025F6007F1A12621E90021BE004F080147B017A9F
:1026060001791C7F4512621E12621690021BE004BD
:10261600F07B017A01791C7F0D12621E7B017A0123
:07262600791C7F0A02621E0D
:10473D00E49001D1F090017EE0600F9000C0E07038
:10474D0004A3E06428600302484D9000C0E0FEA37E
:10475D00E0FFEE600302486FEF24EC603424F66056
:10476D004524F6603A24B0607424EC70030248438B
:10477D0024F6700302484A248C600302486F9000AF
:10478D00BFE070067F14FE0212877F5A7E00021270
:10479D0087C2AF1260EBD2AF7F1E7E000212877F01
:1047AD00327E00021287900169E070067F46FE029C
:1047BD0012879001AFE070067F50FE0212879000C5
:1047CD00BFE0B401077F3C7E000212879000BFE07E
:1047DD006402600302486F7F6EFE021287900146ED
:1047ED00E06401702DF07B13FD7F02125BDD7BFF1A
:1047FD007A0F795EE4900246F07D021250609002CD
:10480D003B1207D0000001F4125C7F7F787E00021E
:10481D0012879000ACE0B401167B017A0079B47F69
:10482D001112621E9001D17401F0900146F0227FA9
:10483D008C7E000212877F787E000212870212831F
:10484D009000C0E07004A3E0649670067FA0FE02A5
:10485D0012877B13E4FD7F04125BDD7FC87E00129F
:03486D001287228D
:104E3B00E4900235F0A3F0900236E004F070069097
:104E4B000235E004F0900235E0B46CEBA3E0B40C57
:104E5B00E6E4900235F0A3F0900236E004F0700621
:104E6B00900235E004F0900235E0B46CEBA3E0B4B3
:104E7B000CE6E4FD7F30125D6DE4900235F0A3F09B
:104E8B00900236E004F07006900235E004F09002D8
:104E9B0035E0B424EBA3E0B404E6E4900235F0A3D0
:104EAB00F0900236E004F07006900235E004F090CA
:104EBB000235E0B424EBA3E0B404E6E4FD7F30124A
:104ECB005D6DE4900235F0A3F0900236E004F070D3
:104EDB0006900235E004F0900235E07004A3E06424
:104EEB00DC70E6E4900235F0A3F0900236E004F0BB
:104EFB007006900235E004F0900235E07004A3E0F8
:104F0B0064DC70E6E4FD7F30125D6D1262D7E4FD68
:104F1B007F38125D6D1262D7E4FD7F08125D6D1252
:104F2B0062D7E4FD7F01125D6D1262D7E4FD7F064F
:104F3B00125D6D1262D77D017F0F125D6D126329B9
:074F4B00E4FD7F0C025D6D27
:055D68002480FFE4FDB2
:105D6D00E4FE0EEEB450FBE4FE0EEEB450FBAC8040
:105D7D008F80C2B4C2B3EDB40104D2B58002C2B5F6
:105D8D00E4FE0EEEB450FBE4FE0EEEB450FBD2B3C7
:105D9D00E4FE0EEEB41EFBE4FE0EEEB41EFBC2B32B
:045DAD00AF048F8030
:015DB10022CF
:10615600E4FE0EEEB4FAFBE4FE0EEEB4FAFBAD80FE
:10616600D2B4EFB40104D2B58002C2B5D2B3E4FE14
:106176000EEEB45AFBE4FE0EEEB45AFBC2B3AF0504
:0161860022F6
:1062D7007C80ECC394804009E4FF126156AC0780D0
:0162E700F1C5
:0162E8002293
:07632900E4FD7F80025D6DC1
:07633000E4FD7FC0025D6D7A
:10626C00126329E4FB7D017F20125D6D0BEBB414EE
:10627C00F4126330E4FB7D017F20125D6D0BEBB4F7
:02628C0014F408
:01628E0022ED
:0D5053007B017A017992E4900246F07D0223
:0E506000900242EBF0A3EAF0A3E9F0A3EDF01A
:10506E00E4900249F0BD0116900246E02480FF90C4
:10507E000248F0E4FD125D6D9002477493F09002C9
:10508E0045E0B40214A3E024C0FF900248F0E4FD12
:10509E00125D6D90024774D3F0900245E0B4031494
:1050AE00A3E02494FF900248F0E4FD125D6D90029F
:1050BE004774A7F0900245E0B40414A3E024D4FF93
:1050CE00900248F0E4FD125D6D90024774E7F09097
:1050DE000242E0FBA3E0FAA3E0F9120544FF602FC1
:1050EE00F4602C900249E070267D01125D6D9002F5
:1050FE0043E475F00112065B900248E004F0900262
:10510E0047E0FFA3E0D39F40C6A3740AF080C0908F
:10511E000245E0B40107E4FD7F80025D6DE4FD7F92
:04512E00C0125D6DE1
:01513200225A
:105E4100E0FBA3E0FAA3E0F990010AE0FEF5827518
:0A5E5100830012055DFFAB067D0221
:105E5B00A907AA05EAB40104EB125D68EAB4030BC7
:105E6B00EB2494FFE4FD125D6D8009EB24C0FFE48D
:0B5E7B00FD125D6DAF017D01025D6D49
:0E58A40090023CEBF0A3EAF0A3E9F0A3EDF0D4
:1058B200E4A3F0A3F090023CE0FBA3E0FAA3E0F93A
:1058C20012000EC3900241E09FEE6480F890024005
:1058D200E0648098504190023FE0FDC39404503749
:1058E20090023CE0FBA3E0FAA3E0F9900240E0FE64
:1058F200A3E0FFE92FF9EA3EFAE4900246F01250E3
:1059020060900241E02414F0900240E03400F090F4
:07591200023FE004F0809E5B
:01591900226B
:075BD600F07B13E4FD7F02E8
:095BDD0090023DEBF0AA05A907B6
:105BE600E9B40104EA125D68E9B40209EA24C0FFD7
:105BF600E4FD125D6DE9B40309EA2494FFE4FD12A5
:105C06005D6DE9B40409EA24D4FFE4FD125D6DAFCD
:105C160002AB0790023DE0FFEBD39F500A7D017F68
:075C260020125D6D0B80EC04
:015C2D002254
:1062AB00EFB401047B8080027BC0ED2BFBFFE4FD90
:0962BB00125D6DE47F0F025D6DC0
:07633700E4FD7F0C025D6D27
:10628F009000EFE0FF90010AE0B507099000EEE003
:0C629F0090010AF02290010AE004F022B5
:06434C007B017A01799269
:10435200900238EBF0A3EAF0A3E9F0900238E0FB18
:10436200A3E0FAA3E0F990010AE0FFF58275830069
:1043720012055DFEC39430401AEE94395015900236
:1043820038E0A3E0A3E08F8275830074011205ACCC
:1043920002449DEEC39441500302441DEE945A50D0
:1043A2007AEEB4462390013FE0B4011C900238E05B
:1043B200FBA3E0FAA3E0F990010AE0F5827583001D
:1043C20074471205F102449D900238E0FBA3E0FA23
:1043D200A3E0F990010AE0FFF58275830012055D02
:1043E200B4461C90013FE0B40215900238E0A3E00D
:1043F200A3E08F8275830074301205F102449D9010
:104402000238E0FBA3E0FAA3E0F990010AE0F582AA
:1044120075830074011205AC02449D900238E0FBE2
:10442200A3E0FAA3E0F990010AE0FFF582758300A8
:1044320012055DFEB43914900238E0A3E0A3E08FC8
:104442008275830074201205F18050EE64206003AF
:10445200EE701B900238E0FBA3E0FAA3E0F99001B2
:104462000AE0F58275830074411205F1802D9002F5
:1044720038E0FBA3E0FAA3E0F990010AE0FFF5823D
:1044820075830012055DB45A12900238E0A3E0A3CE
:10449200E08F8275830074301205F1900238025E5B
:0144A20041D8
:064D1F007B017A0179928C
:104D2500900238EBF0A3EAF0A3E9F0900238E0FB3B
:104D3500A3E0FAA3E0F990010AE0FFF5827583008C
:104D450012055DFED39430401AEE943A5015900248
:104D550038E0A3E0A3E08F8275830074FF1205ACF1
:104D6500024E35EED394414021EE945B501C9002E7
:104D750038E0FBA3E0FAA3E0F990010AE0F58275BB
:104D8500830074FF1205AC024E35900238E0FBA398
:104D9500E0FAA3E0F990010AE0FFF58275830012BD
:104DA500055DFEB4303690013FE0FDB4011290027E
:104DB50038E0A3E0A3E08F82758300745A1205F1F1
:104DC500ED6402706B900238E0FBA3E0FAA3E0F912
:104DD5008F8275830074461205F18054EE6420605D
:104DE5001B900238E0FBA3E0FAA3E0F990010AE08A
:104DF500FFF58275830012055DFE701B900238E099
:104E0500FBA3E0FAA3E0F990010AE0F582758300BF
:104E150074391205F18019EEB44115900238E0FBA2
:104E2500A3E0FAA3E0F98F8275830074201205F1DF
:064E3500900238025E410C
:10513300900109E0FFE4FCFDFE7B017A01794890D0
:065143000254F0A304F089
:1051490090024D1207C4900251EBF0A3EAF0A3E9D3
:01515900F065
:10515A00E4900256F0A3F0900254E0FFA3E0A3CF3C
:10516A00F0A3EFF0900256E0FEA3E0FFC3EE6480E6
:10517A009480500302520F900254E0FCA3E0FDEF2A
:10518A00B5051FEEB5041B900251E0FBA3E0FAA39C
:10519A00E0F9900256E0A3E0F5828E83E41205F16D
:1051AA008052E47B0AFAF9F890024DE0FCA3E0FD94
:1051BA00A3E0FEA3E0FF1206C3EB2430FF900251E6
:1051CA00E0FBA3E0FAA3E0F9900256E0FCA3E0F5C5
:1051DA00828C83EF1205F190024DE0FCA3E0FDA35F
:1051EA00E0FEA3E0FFE47B0AFAF9F81206C3900294
:1051FA004D1207C4900257E024FFF0900256E034A3
:05520A00FFF002516EEF
:01520F00227C
:0C5F4E00900231EEF0A3EFF0AB05AA04C6
:105F5A00A3E4F0A304F0EB4A6020900233E0FEA32E
:105F6A00E0FF900231E0FCA3E0FD120613A3EEF07D
:105F7A00A3EFF0EB1B70DF1A80DC900233E0FEA384
:025F8A00E0FF36
:015F8C0022F2
:0B572200900228EBF0A3EAF0A3E9F0EE
:10572D00E490022FF0A3F01205DF90022FF0A3F00A
:10573D0090022EE0FF7E00A3E0FCA3E0FDC39F746A
:10574D0080F8EC6480985051C3EF9DFFEE9CCF2400
:10575D00FFFDEF34FFFC7F0A125F4E90022BE0FB42
:10576D00A3E0FAA3E0F990022FE0FCA3E0F5828C10
:10577D008312055D24D08FF0A4FF900228E0FBA3D7
:10578D00E0FAA3E0F9EF12058A900230E004F07020
:09579D009F90022FE004F08097B8
:0157A60022E0
:1060EB004389207587809001CFE0B40105759850E6
:1060FB0080037598D0900108E0FFB40103758DEF14
:10610B00EFB40203758DF7D28EC299C298D2AC90C0
:06611B0001427401F022B4
:10612100900142E060FA9001CFE0FE6401601EEF51
:10613100A2D0E4339001B2F0EEB40207E024FF9262
:106141009B800A9001B2E0640124FF929B8F99E445
:05615100900142F02264
:0300230002560979
:10560900C0E0C0F0C083C082C0D075D000C000C067
:1056190001C002C003C004C005C006C00730990814
:10562900C2999001427401F0309847C298900123C1
:10563900E599F09001CFE0FF64016027900123E034
:10564900A2D0E4339001B2F0EF64037025A29A333B
:10565900FF9001B2E0B507047F0180027F00EF648B
:1056690001800F9000BDE0B40105122B5380031295
:105679002F6FD007D006D005D004D003D002D001B7
:0D568900D000D0D0D082D083D0F0D0E0325D
:105829007B017A01791C125F93EF70207B01900252
:105839003B04F0A37402F0A37435F07A01791C12C9
:105849005B26900235E0FF12612180D490021BE0B3
:10585900701A90023B1207D0000001F47FC87E0045
:10586900125C8312607CE4900101F0227B017A00D2
:1058790079B4125F93EF7022125E86EF640A601AA0
:10588900125E86EF640E6012125E86EF6411600A82
:0A58990090021E7401F0900101F06E
:0158A30022E2
:10371E00900219E070047DFF80027DFE7590FFE43B
:10372E00FFFE0FBF00010EEF64144E70F5E4900122
:10373E0040F0900219E0703D9000E2E064017035B7
:10374E00209032FEFF0FBF00010EBE3AF8BF98F573
:10375E00E4FEFF0FBF00010EBE3AF8BF98F5E4FE7F
:10376E00FF0FBF00010EBE3AF8BF98F520900690ED
:10377E0001407401F09000E3E06401702120911E7D
:10378E00FEFF0FBF00010EBE3AF8BF98F52091065E
:10379E009001407402F02091057590FF80F8900022
:1037AE00E4E06401702120921EFEFF0FBF00010EA7
:1037BE00BE3AF8BF98F52092069001407403F020AF
:1037CE0092057590FF80F89000E5E064017021206D
:1037DE00931EFEFF0FBF00010EBE3AF8BF98F520F4
:1037EE0093069001407404F02093057590FF80F8C5
:1037FE009000E6E06401702120941EFEFF0FBF00D2
:10380E00010EBE3AF8BF98F520940690014074055B
:10381E00F02094057590FF80F89000E7E064017049
:10382E002120951EFEFF0FBF00010EBE3AF8BF9875
:10383E00F52095069001407406F02095057590FFD1
:10384E0080F89000E8E06401600302392E3096168D
:10385E0030971390009CF0A3F0900098F0A304F022
:10386E00A3E4F0A304F030960302392E90009CE0FE
:10387E007002A3E0600302392E900098F0A304F0CA
:10388E00E4FEFF0FBF00010EBE3AF8BF98F59000A0
:10389E0099E004F07006900098E004F0900098E033
:1038AE007004A3E06402703E90009AE07004A3E0FE
:1038BE00640170329001407407F090009BE004F0B8
:1038CE00700690009AE004F0900099E024FFF090CA
:1038DE000098E034FFF090009DE004F0703C900002
:1038EE009CE004F08034900098E07004A3E0640142
:1038FE00600C90009AE07004A3E06402701C9001CA
:10390E00407405F090009AE4F0A304F090009DE05E
:10391E0004F0700690009CE004F02096037590FF72
:10392E009000E9E064016003023A05309716309684
:10393E001390009CF0A3F0900098F0A304F0A3E481
:10394E00F0A304F0309703023A0590009CE0700259
:10395E00A3E06003023A05900098F0A304F0E4FEA1
:10396E00FF0FBF00010EBE3AF8BF98F5900099E028
:10397E0004F07006900098E004F0900098E0FEA32A
:10398E00E0FF64024E703CA3E07004A3E06401709B
:10399E00329001407408F090009BE004F0700690A5
:1039AE00009AE004F0900099E024FFF0900098E077
:1039BE0034FFF090009DE004F0703690009CE0041F
:1039CE00F0802EEF64014E600C90009AE07004A31C
:1039DE00E06402701C9001407405F090009AE4F0CF
:1039EE00A304F090009DE004F0700690009CE004AB
:0E39FE00F02097037590FF900140E0FF7E00DF
:013A0C002297
:08195500900235EEF0A3EFF063
:10195D009000C1E02FFF9000C0E03EFE600302202A
:10196D000AEF1208701A0C0C1A480D1A760E1AAFDF
:10197D00161AC1171AD3181B04201B16211B282257
:10198D001B962A1BB92B1C072C1BE92D1C0A361C78
:10199D009E3E1CA53F1D47401CF9411D4A441C118C
:1019AD004A1C14541C505D1C895E1C17611DD867A0
:1019BD001DA4681D75691D8D6A1DAF6B1E01701EFE
:1019CD0012711E2D721E26731E307A1E377B1E85D8
:1019DD007C1E8F7D1E9E7E1ED27F1F51851F4386CE
:1019ED001F04871F26881F4E891F54901F6F981F35
:1019FD007C991F8F9A1FF8A41FFFCC0000200A901E
:101A0D0000BFE004F09000BDE0700D9000BFE075E8
:101A1D00F00384E5F0F080209000BFE075F00584C0
:101A2D00AFF0EFF07403D39F40047F038005900067
:101A3D00BFE0FF9000BFEFF00259889000BDE0704D
:101A4D00139000BFE070057402F0801A9000BFE0A3
:101A5D0014F080129000BFE0B403057404F080060A
:101A6D009000BFE014F00259889001D1E0701790FA
:101A7D0000BDE070117B017A0079B4FF12621E90F7
:101A8D0001D17401F0229000BFE024FC600D0460D0
:101A9D00030220157F287E000212877FAA7E000296
:101AAD0012879001D0E004F0E0C394034003740169
:101ABD00F0025F0E9001D0E014F0E0C394015003EA
:101ACD007402F0025F0E900108E0FF9001D0E0FE7D
:101ADD006F601D9000BDE07017900108EEF07B0166
:101AED007A0079B47F0812621E9001D17401F02240
:101AFD007F1E7E000212879001C8E004F0E0C394BF
:101B0D000440037401F0025DB29001C8E014F0E0EE
:101B1D00C3940150037403F0025DB29000BDE070F8
:101B2D00419000BFE070067F28FE0212879001D120
:101B3D00E060030220159001AFF07B017A0079B4CB
:101B4D007F0612621E7B017A0079B47F0212621E3B
:101B5D007B017A0079B47F0D12621E9001D1740160
:101B6D00F022900108E0FF9001D0E0FE6F60179029
:101B7D000108EEF07B017A0079B47F0A12621E90A3
:101B8D0001D17401F02202128390012AE004F09039
:101B9D0000BDE0700990012AE05407F0800B900120
:101BAD002AE075F00984E5F0F002591A90012AE057
:101BBD00FF700E9000BDE0700890012A7407F08050
:101BCD0018EF700F9000BDE0B4010890012A740861
:101BDD00F0800690012AE014F002591A9001D1E02C
:101BED00600302201590012AE0FF7B017A0079B491
:101BFD0012621E9001D17401F0220212837F287EA1
:101C0D00000212870212830212839001B1E0C39485
:101C1D000F5003E004F0125BD79001B1E0FFE4FC3C
:101C2D00FDFE7B017A017948900254F0A37402F015
:101C3D001251497B017A017948E4900246F07D0208
:101C4D000250609001B1E0D394004003E014F01213
:101C5D005BD79001B1E0FFE4FCFDFE7B017A0179D9
:101C6D0048900254F0A37402F01251497B017A019D
:101C7D007948E4900246F07D020250609001B1E097
:101C8D0024F2F582E43400F583E4F07F14FE0212B1
:101C9D00877F647E000212879001D2E060030220EC
:101CAD00157B13FD7F02125BDD7BFF7A0F7944E418
:101CBD00900246F07D021250607B017A0079F2901D
:101CCD000246740AF07D0212506090023B1207D05A
:101CDD000000012C125C7F125BD77B017A0079B476
:101CED007F0A12621E9001D27401F0229001D2E09F
:101CFD00640160030220157B13FD7F02125BDD7B07
:101D0D00FF7A0F7984E4900246F07D0212506090C4
:101D1D00023B1207D00000012C125C7F125BD71220
:101D2D00607CE4900101F090021EF09001CEF07FF6
:101D3D000B12621EE49001D2F02202128390010771
:101D4D00E0640160030220159001D2E060030220DF
:101D5D00157B017A0079B47F0C12621E9001D2744A
:101D6D0001F0E4900107F02290010AE004F0E0FF99
:101D7D009001B1E0FEEF8EF08490010AE5F0F022C3
:101D8D0090010AE0700A9001B1E01490010AF0226E
:101D9D0090010AE014F0229000BBE0FEA3E0FF02E8
:101DAD00128790010AE024F2F582E43400F583E015
:101DBD00B439057430F08003E004F07B017A0079CA
:101DCD00F2E4900246F07D0202506090010AE02498
:101DDD00F2F582E43400F583E0B430057439F08017
:101DED0003E014F07B017A0079F2E4900246F07D75
:101DFD00020250609001B3E004F0E075F00384E559
:101E0D00F0F00260059001B3E070057402F08006F9
:101E1D009001B3E014F00260057F787E0002128716
:101E2D000212837F647E000212879001D1E060036D
:101E3D000220157B13FD7F02125BDD7BFF7A0F798C
:101E4D004FE4900246F07D0212506090023B120763
:101E5D00D00000012C125C7F7B017A0079B47F0EDB
:101E6D0012621E9001D17401F09000ACF0E490016B
:101E7D0046F07F78FE0212877F6E7E00121287C2B7
:101E8D00CA229001B3E060030220157F82FE021288
:101E9D00879001CDE0C3940150030220159001D12C
:101EAD00E060030220157B017A0079B47F0F126286
:101EBD001E9001D17401F0E49000ACF0900146F059
:101ECD009001CDF022125BD77BFF7A0F7970E490F1
:101EDD000246F07D0212506090023B1207D00000C6
:101EED00012C125C7F7B017A0079B47F0712621E90
:101EFD007F787E0002128790010AE004F07B017A60
:101F0D0001799212000E90010AE0FD7C00CFCDCF39
:101F1D00CECCCE120625EDF02290010AE070107B9A
:101F2D00017A01799212000EEF1490010AF02290BD
:101F3D00010AE014F0229000BBE0FEA3E0FF0212C4
:101F4D008702434C024D1F9001D1E0600302201522
:101F5D007B017A0079B47F1012621E9001D1740159
:101F6D00F0229000BDE004F0E05401F00261879092
:101F7D0000BDE0700404F080069000BDE014F00296
:101F8D0061879001D1E060030220159000BDE0143F
:101F9D00602604704F7B017A0079B4E4FF12621E53
:101FAD007B017A0079B47F1212621E7B017A00796F
:101FBD00B47F0212621E802C7B017A0079B47F08F7
:101FCD0012621E7B017A0079B47F0712621E7B01BB
:101FDD007A0079B4E4FF12621E7B017A0079B47F36
:101FED000212621E9001D17401F0227F967E0002D2
:101FFD0012879000BBE0FEA3E0FF0212879002352E
:08200D00E0FEA3E0FF123372B4
:0120150022A8
:10604100E49000E2F0A3F0A3F0A3F0A3F0A3F0A387
:10605100F0A3F09000EBF09000EAF09000ECF090EB
:1060610000EEF0A3F0A3F0FF74C22FF582E4340038
:0A607100F5837420F00FEFB410EE79
:01607B002202
:103CF100AD07AC06126041AF05EE6003023E94EFE2
:103D01001208703D4D0A3D5A143D671E3D74283D11
:103D110083323DAD3C3D8C463D95503D9E5A3DC460
:103D2100643DDB6E3DEA783DFD823E148C3E1C967F
:103D31003E28A03E30AA3E46B43E8EBE3E3EC83E20
:103D41005AD23E78DC3E84E600003E949000E37453
:103D510001F0A3F0A3F0023E949000E37401F0A3FC
:103D6100F0A3F0023E949000E37401F0A3F0A3F0FD
:103D7100023E949000E37401F0A3F0A3F0A3F002DB
:103D81003E949000E57401F0023E949000E57401C8
:103D9100F0023E949000E57401F0023E949000E838
:103DA1007401F09000E4F0A3F0023E949000E374FB
:103DB10001F0A3F0A3F0A3F09000E9F09000F0F07F
:103DC100023E949000E67401F0A3F0A3F09000E4A9
:103DD100F0A3F09000EBF0023E949000E37401F048
:103DE100A3F0A3F0A3F0023E949000E37401F0A3CA
:103DF100F0A3F0A3F0A3F0A3F0023E949000E674C8
:103E010001F0A3F0A3F09000E4F0A3F09000EBF038
:103E1100023E949000E57401F080789000E3740113
:103E2100F0A3F0A3F0806C9000E57401F080649041
:103E310000E37401F0A3F0A3F0A3F080569000E535
:103E41007401F0804E9000E47401F09000E6F0906F
:103E510000E5F09000E8F0803A9000E37401F09002
:103E610000E6F0A3F0A3F09000E4F0A3F09000E9E5
:103E7100F09000EBF0801C9000E37401F0A3F0A33C
:103E8100F080109000E47401F0A3F080069000E649
:103E91007401F09000E2E0701CA3E07018A3E070E0
:103EA10014A3E07010A3E0700CA3E07008A3E0700D
:0C3EB10004A3E060069000EA7401F02217
:041283007F0A7E0060
:08128700900238EEF0A3EFF035
:10128F00126337900238E0FEA3E0FF123CF19000AA
:10129F00C0E0FEA3E0FF900238E0FCA3E0FD6F701A
:1012AF0002EC6E60089000BBEEF0A3EFF09000C070
:1012BF00ECF0A3EDF012626C9000EEE090010AF0FA
:1012CF009000AD7402F07B13E4FD7F01125BDD1221
:1012DF005BD77B13E4FD7F03125BDD7B13E4FD7FA4
:1012EF0004125BDD900238E0FEA3E0FFEE60030224
:1012FF001954EF12087013510913710A13B614130E
:10130F00F21E142E28146132153D3C14914614BA66
:10131F005014EA5A156E6415A76E15D478163582D7
:10132F0016688C16919616C4A016E7AA1748B4171C
:10133F00C6BE1800C81898D218E1DC1934E60000B0
:10134F0019547BFF7A0C7986E4900246F07D0112E6
:10135F0050607B017A017992E4900246F07D03029E
:10136F0050609000BDE070069000BFF080069000C6
:10137F00BF7403F07BFF7A0D7969E4900246F07D2C
:10138F00011250607BFF7A0C79D3E4900246F07D16
:10139F00031250607BFF7A0C798FE4900246F07D48
:1013AF00041250600259887BFF7A0D79A4E49002F1
:1013BF0046F07D011250607BFF7A0D79F71250597C
:1013CF007BFF7A0D79CFE4900246F07D03125060D7
:1013DF007BFF7A0C798FE4900246F07D0412506007
:1013EF00025F0E7BFF7A0D79DAE4900246F07D0101
:1013FF001250607BFF7A0E79071250597BFF7A0EDD
:10140F00791CE4900246F07D031250607BFF7A0C4A
:10141F00798FE4900246F07D04125060025DB27B3A
:10142F00FF7A0D797DE4900246F07D011250607BCA
:10143F00FF7A0C79D3E4900246F07D031250607B63
:10144F00FF7A0C799FE4900246F07D0412506002FF
:10145F00591A7BFF7A0D798FE4900246F07D0112C5
:10146F0050607BFF7A0C79B2E4900246F07D041253
:10147F005060900115E0FBA3E0FAA3E0F97D0202B2
:10148F0058A47BFF7A0E7982E4900246F07D011218
:10149F0050607BFF7A0E79941250597BFF7A0C794A
:1014AF00B2E4900246F07D040250607BFF7A0E7921
:1014BF0082E4900246F07D011250607BFF7A0E7934
:1014CF00A6E4900246F07D011250607BFF7A0C7902
:1014DF00B2E4900246F07D040250607BFF7A0E79F1
:1014EF00B8E4900246F07D011250609001B1E0FF28
:1014FF00E4FCFDFE7B017A017948900254F0A3745D
:10150F0002F01251497B017A0179481250597BFF41
:10151F007A0E79CDE4900246F07D031250607BFF86
:10152F007A0C798FE4900246F07D040250607BFFC5
:10153F007A0D795C9002467404F07D011250607B45
:10154F00FF7A0E79E2E4900246F07D031250607B41
:10155F00FF7A0E79F7E4900246F07D040250607B2B
:10156F00FF7A0F790CE4900246F07D011250607BF8
:10157F00017A0079F21250597BFF7A0F7931E4909A
:10158F000246F07D031250607BFF7A0E79CDE49016
:10159F000246F07D040250607BFF7A0D7950900275
:1015AF00467404F07D011250607BFF7A0F79E812C8
:1015BF0050591260057BFF7A0F79FFE4900246F0D5
:1015CF007D040250607BFF7A0D79509002467404BF
:1015DF00F07D011250609001B3E0FF7E00E47026B1
:1015EF00EF14600C1460142402701B1250538016F9
:1015FF007BFF7A107970125059800B7BFF7A10792C
:10160F0070125059D2CA7BFF7A107927E4900246A4
:10161F00F07D031250607BFF7A107912E49002463E
:10162F00F07D040250607BFF7A0F791EE490024632
:10163F00F07D011250601250537BFF7A0F7931E425
:10164F00900246F07D031250607BFF7A0E79CDE455
:10165F00900246F07D040250607BFF7A10794CE4D3
:10166F00900246F07D011250607BFF7A0C79B2E454
:10167F00900246F07D041250607B017A01792B02B3
:10168F0050597BFF7A107998E4900246F07D011251
:10169F0050607BFF7A0C79D3E4900246F07D031201
:1016AF0050607BFF7A0C798FE4900246F07D041234
:1016BF0050600261877BFF7A1079ECE4900246F06C
:1016CF007D011250607BFF7A0C79B2E4900246F0F4
:1016DF007D041250600261877BFF7A0C79F79002CC
:1016EF00467404F07D011250607BFF7A0F79F5127A
:1016FF00505990021AE075F003A4247DF582E4346A
:10170F0012F583E493FB740193FA740293F9900238
:10171F0046740AF07D021250607BFF7A0C79D3E495
:10172F00900246F07D031250607BFF7A0C79C3E480
:10173F00900246F07D040250607BFF7A0D79039092
:10174F0002467401F0FD1250607BFF7A11792B1263
:10175F0050597BFF7A1179529002467406F07D0240
:10176F001250607BFF7A11791EE4900246F07D03E0
:10177F001250601251337B017A01794890024674FE
:10178F000DF07D031250607B0F7D037F2F125E5B88
:10179F009000AB1251367B017A0179489002467462
:1017AF0011F07D031250607BFF7A117962E4900291
:1017BF0046F07D040250607BFF7A0D791690024649
:1017CF007401F0FD1250607BFF7A11792B12505982
:1017DF007B017A0179809002467406F07D021250E7
:1017EF00607BFF7A0C79BAE4900246F07D040250D8
:1017FF00607BFF7A1179329002467403F07D0112FB
:10180F0050607BFF7A11793F1250599000B4E0FB82
:10181F00A3E0FAA3E0F9A3E0F58275830012055D5A
:10182F0090023BF09000BDE0B4012890023BE075C0
:10183F00F003A42441F582E43412F583E493FB749E
:10184F000193FA740293F9E4900246F07D0312506B
:10185F0060802690023BE075F003A42408F582E433
:10186F003412F583E493FB740193FA740293F9E451
:10187F00900246F07D031250607BFF7A0C79B2E440
:10188F00900246F07D040250601250537BFF7A1194
:10189F007988E4900246F07D031250607BFF7A0E48
:1018AF0079CDE4900246F07D041250607BFF7A11EF
:1018BF007975E4900246F07D011250607BFF7A113A
:1018CF00797B9002467409F07D011250607F01020E
:1018DF0057A77BFF7A0D79299002467401F0FD120C
:1018EF00506090021AE0701D7BFF7A11791E125022
:1018FF005A1251337B017A017948900246740DF0E8
:10190F007D021250607BFF7A11799CE4900246F0C1
:10191F007D031250607BFF7A1179B1E4900246F09B
:10192F007D040250607BFF7A0D793DE4900246F012
:10193F007D011250607BFF7A1179C6E4900246F068
:05194F007D0412506050
:011954002270
:10591A00125BD79000BDE0703290012AE0FFC39479
:10592A0000405AEF94135055EF75F003A42408F57C
:10593A0082E43412F583E493FB740193FA740293BC
:10594A00F9E4900246F07D0202506090012AE0FFDD
:10595A00C394004028EF94115023EF75F003A42458
:10596A0041F582E43412F583E493FB740193FA74EB
:0E597A000293F9E4900246F07D021250602282
:106005007B13E4FD7F03125BDD9001B3E0FFC394D6
:10601500004028EF94035023EF75F003A42474F592
:1060250082E43412F583E493FB740193FA740293CA
:0C603500F9E4900246F07D031250602256
:10598800125BD79000BFE014601E14602C14603ABC
:10599800146048240470557BFF7A0C79E89002461D
:1059A8007404F07D020250607BFF7A0D795C9002EE
:1059B800467404F07D020250607BFF7A0D795090A6
:1059C80002467404F07D020250607BFF7A0C79E88D
:1059D8009002467404F07D020250607BFF7A0C79D5
:0D59E800F79002467404F07D021250602218
:10618700125BD79000BDE01460140470227BFF7A85
:106197001079AC9002467404F07D020250607BFFD8
:1061A7007A1079B79002467404F07D02125060228B
:105F0E009001D0E024FE601D0470347B137D107F61
:105F1E0003125BDD7BFF7A0D79B7900246740CF0AD
:105F2E007D030250607B137D107F03125BDD7BFFD0
:105F3E007A0D79BC900246740CF07D0312506022EB
:105DB2007B137D107F03125BDD9001C8E014602825
:105DC2001460141470337BFF7A0D79E990024674E3
:105DD2000EF07D030250607BFF7A0D79ED90024652
:105DE200740EF07D030250607BFF7A0D79F290020F
:0A5DF20046740EF07D03125060228B
:1057A70090023CEFF07B077D05125BDD90023CE049
:1057B700FF7B117D0E125BDD9000AFE0B401187B1B
:1057C700FF7A11798190023CE0FD9002467405F062
:1057D700125060D28280167BFF7A11798490023C46
:1057E700E0FD9002467405F0125060C2829000B14D
:1057F700E0B401177BFF7A11798190023CE0FD90BC
:105807000246740EF0125060D283227BFF7A117920
:105817008490023CE0FD900246740EF0125060C284
:025827008322DA
:105D1D007F01C290E4FDFC0DBD00010CED64AF4CA4
:105D2D0070F5D290E4FCFD309013C3ED94E8EC6473
:105D3D008094835008000DBD00010C80EAC3ED94E2
:105D4D00E8EC648094834002E4FFE4FCFD0DBD00AB
:0A5D5D00010CED64AF4C70F5D2901C
:015D67002219
:025A5D00A90797
:105A5F00E4FFFEAB07E9A803088002C333D8FC308C
:105A6F00E726C290E4FCFD0DBD00010CED64014C76
:105A7F0070F5D290E4FCFD0DBD00010CED641A4CE5
:105A8F0070F5D29000008022C290E4FCFD0DBD00A5
:105A9F00010CED64014C70F5E4FCFD0DBD00010C33
:105AAF00ED641A4C70F5D29000000FBF00010EEF9D
:055ABF0064084E709E1A
:015AC40022BF
:104F5200E4900246F0FFFE900249F0A3F0C29000F6
:104F620000D290A290E4FD33900247CDF0A3EDF081
:104F7200900246E0FDC313F0A3E07004A3E06401D5
:104F82007007900246E04480F0E4FEFF0FBF00018C
:104F92000EEF641A4E70F5D290E4FEFF0FBF0001CF
:104FA2000EEF64014E70F590024AE004F070069034
:104FB2000249E004F0900249E07004A3E064087042
:104FC2009C900246E01205DFE4900246F09002490E
:104FD200F0A3F0C2900000D290A290E4FD339002C0
:104FE20047CDF0A3EDF0900246E0FDC313F0A3E03D
:104FF2007004A3E064017007900246E04480F0E48C
:10500200FEFF0FBF00010EEF641A4E70F5D290E45E
:10501200FEFF0FBF00010EEF64014E70F590024AD1
:10502200E004F07006900249E004F0900249E0705A
:1050320004A3E06408709C900246E0FF900243E003
:10504200FBA3E0FAA3E0F9EF1205DFE4900246F0D9
:01505200223B
:10521000900262EBF0A3EAF0A3E9F0A3E0FBA3E0C5
:10522000FAA3E0F9120544FFD394095008EF443083
:105230001205DF801874F712058A900265E0FBA35F
:10524000E0FAA3E0F912054444401205DF9002623F
:10525000E0FBA3E0FAA3E0F9120544FFD394095060
:1052600008EF44301205DF801874F712058A9002A7
:1052700062E0FBA3E0FAA3E0F91205444440120502
:10528000DF900268E0FBA3E0FAA3E0F9120544FF17
:10529000D394095008EF44301205DF801874F712D8
:1052A000058A900268E0FBA3E0FAA3E0F912054446
:1052B00044401205DF90026BE0FBA3E0FAA3E0F9A3
:1052C000120544FFD394095006EF44300205DF7401
:1052D000F712058A90026BE0FBA3E0FAA3E0F91253
:0852E000054444401205DF22E1
:0552E80090024DEFF003
:1052ED00A31207D000000000900252E4F0A3740353
:1052FD00F0900253E0FF90024DE07E00A807088079
:10530D0005C333CE33CED8F97E005408FF64087040
:10531D005B90024EE0F8A3E0F9A3E0FAA3E0FBC036
:10532D0000C001C002C003900253E02401FD9002B1
:10533D0052E03400FC1202C99002581207C47F00DB
:10534D007E007D007C401249A2A804A905AA06ABE7
:10535D0007E4FFFE7D807C3F120227D003D002D0F0
:10536D0001D00012002D90024E1207C4900253E09E
:10537D0024FFF0900252E034FFF0C3E0648094808B
:10538D0040030252FE90024EE0FCA3E0FDA3E0FEBE
:03539D00A3E0FF8B
:0153A00022EA
:103EBD00900240EFF0A3EDF0A3EBF0A3EAF0A3E93D
:013ECD00F004
:103ECE00E4A3F0A3F0ED5480FFC41313135401FFC9
:103EDE007E0064017042900242E0FBA3E0FAA3E090
:103EEE00F9A3E0F582758300742D1205F190024559
:103EFE00E004F0900241E0FE900240E0FDEEEDFFA6
:103F0E00F4FFEEF4FE0FBF00010EEE5407FEEF902D
:103F1E000240F0EEA3F0801D900242E0FBA3E0FA17
:103F2E00A3E0F9A3E0F582758300742B1205F190DE
:103F3E000245E004F0900241E05407FFC454F0FF44
:103F4E00900240E054F0FEC4540F4FFFE4FCFDFE1F
:103F5E00900242E0FBA3E0FAA3E02401F9E43AFA6E
:103F6E00900254E4F0A37403F0125149900245E01C
:103F7E002403F0900242E0FBA3E0FAA3E0F9A3E0F1
:103F8E00F582758300742E1205F1900245E004F05F
:103F9E00900240E0540FFF900246E04FFFF01252A5
:103FAE00E89002491207C4900249E0FCA3E0FDA389
:103FBE00E0FEA3E0FFE4FBFA7920784112011E90A7
:103FCE0002491207C4900249E0FCA3E0FDA3E0FE03
:103FDE00A3E0FF1203027C007D0A12062590024721
:103FEE00ECF0A3EDF0900245E0FF640860619002F2
:103FFE0048E02430FE900242E0FBA3E0FAA3E0F991
:10400E008F82758300EE1205F1900245E004F09068
:10401E000249E0FCA3E0FDA3E0FEA3E0FFE4FBFA0F
:10402E007920784112011E9002491207C49002496C
:10403E00E0FCA3E0FDA3E0FEA3E0FF1203027C0080
:10404E007D0A120625900247ECF0A3EDF0809690C3
:10405E000242E0FBA3E0FAA3E0F9A3E0F582758348
:0B406E0000E41205F1900245E004F0B0
:014079002224
:0B53A100900235EBF0A3EAF0A3E9F066
:1053AC00E490023DF0125D1D7E00A3EEF0A3EFF041
:1053BC0064016003E0FF227F33125A5D7F22125A90
:1053CC005DC290000000D29000A290E4FE33FFE496
:1053DC00FDFC0DBD00010CED641A4C70F5D290E48F
:1053EC00FCFD0DBD00010CED64014C70F5EF4E6041
:1053FC00D0E4FEFF125D1D90023EEEF0A3EFF064D0
:10540C00016003E0FF227F33125A5D7F7D125A5DEB
:10541C009002437401F0A37402F0A37439F07B0181
:10542C007A027938124F52900238E0FFA3E0FD90D7
:10543C000235E0FBA3E0FAA3E0F9123EBD90023F77
:02544C00E0FF7F
:01544E00223B
:10262D00E4900235F0125E86AD07E490021BF07B5C
:10263D00017A01791C7F4112621E7B017A01791C9E
:10264D007F5412621EAF05EFB411004003022B3D03
:10265D00902664F82828730226970226A00226E603
:10266D000228530229650229DE022A670226D502B5
:10267D002B260229230227470228730228E3022969
:10268D0003022985022A03022AA890021BE004F006
:10269D00022B3D7B017A01791C7F2B12621E7B017F
:1026AD007A01791C7F4712621E7B017A01791C7FAA
:1026BD004D12621E7B017A01791C7F5212621E90AF
:1026CD00021BE004F0022B3D7B017A01791C7F4552
:1026DD0012621E126216022B3D7B017A01791C7F5C
:1026ED002B12621E7B017A01791C7F4312621E7BC5
:1026FD00017A01791C7F5712621E7B017A01791CC8
:10270D007F4D12621E7B017A01791C7F4F12621E72
:10271D007B017A01791C7F4412621E7B017A01795B
:10272D001C7F4512621E7B017A01791C7F3F12626C
:10273D001E90021BE004F0022B3D7B017A01791CF7
:10274D007F2B12621E7B017A01791C7F5512621E4E
:10275D007B017A01791C7F4112621E7B017A01791E
:10276D001C7F5212621E7B017A01791C7F5412620A
:10277D001E7B017A01791C7F5F12621E7B017A013B
:10278D00791C7F4312621E7B017A01791C7F5512E1
:10279D00621E7B017A01791C7F5212621E7B017AC7
:1027AD0001791C7F3D12621E900108E024FE702904
:1027BD007B017A01791C7F3112621E7B017A0179CE
:1027CD001C7F3912621E7B017A01791C7F321262E5
:1027DD001E126216126216801C7B017A01791C7F13
:1027ED003912621E7B017A01791C7F3612621E122C
:1027FD0062161262167B017A01791C7F2C12621E01
:10280D007B017A01791C7F3812621E7B017A017976
:10281D001C7F2C12621E7B017A01791C7F311262A2
:10282D001E7B017A01791C7F2C12621E1262167BAF
:10283D00017A01791C7F2C12621E12621690021B06
:10284D00E004F0022B3D9002397401F0A37401F005
:10285D00A3741CF07BFF7A0C7900125AD990021BDD
:10286D00E004F0022B3D9002397401F0A37401F0E5
:10287D00A3741CF07BFF7A0C790C125AD990023993
:10288D007401F0A37401F0A3741CF07BFF7A11792D
:10289D0001125AD97B017A01791C7F2C12621E908C
:1028AD0002397401F0A37401F0A3741CF07BFF7A5C
:1028BD00117911125AD99002397401F0A37401F0F3
:1028CD00A3741CF07BFF7A0C7914125AD990021B59
:1028DD00E004F0022B3D9002397401F0A37401F075
:1028ED00A3741CF07BFF7A0C7919125AD990021B34
:1028FD00E004F0022B3D9002397401F0A37401F055
:10290D00A3741CF07BFF7A0C7923125AD990021B09
:10291D00E004F0022B3D9002397401F0A37401F034
:10292D00A3741CF07BFF7A0C7930125AD990021ADD
:10293D00E01460100470187B017A01791C7F33124A
:10294D00621E800B7B017A01791C7F3112621E9011
:10295D00021BE004F0022B3D9002397401F0A374C8
:10296D0001F0A3741CF07BFF7A0C7939125AD990BF
:10297D00021BE004F0022B3D9002397401F0A374A8
:10298D0001F0A3741CF07BFF7A0C7943125AD99095
:10299D0002397401F0A37401F0A3741CF07BFF7A6B
:1029AD00117901125AD97B017A01791C7F2C12629F
:1029BD001E9002397401F0A37401F0A3741CF07B16
:1029CD00FF7A117911125AD990021BE004F0022BF3
:1029DD003D9002397401F0A37401F0A3741CF07BD7
:1029ED00FF7A0C794F125AD9E490021CF090021B19
:1029FD00E004F0022B3D9002397401F0A37401F054
:102A0D00A3741CF07BFF7A0C7956125AD9900239B7
:102A1D007401F0A37401F0A3741CF07BFF7A11799B
:102A2D0052125AD97B017A01791C7F2212621E7BC8
:102A3D00017A01791C7F2C12621E9002397401F00B
:102A4D00A37401F0A3741CF07BFF7A11795E125A06
:102A5D00D990021BE004F0022B3D9002397401F075
:102A6D00A37401F0A3741CF07BFF7A0C7968125AE1
:102A7D00D990021AE0701B7B017A01791C7F3D12FF
:102A8D00621E900109E0242FFF7B017A01791C124F
:102A9D00621E90021BE004F0022B3D90023974017E
:102AAD00F0A37401F0A3741CF07BFF7A0C79721201
:102ABD005AD97B017A01791C7F3D12621E90021A50
:102ACD00E0701B900109E0242FFF7B017A01791C36
:102ADD0012621E7B017A01791C7F2C12621E7F14FB
:102AED00E4FCFDFE7B017A017948900254F0A37459
:102AFD0002F0125149900148E0FF7B017A01791CE7
:102B0D0012621E900149E0FF7B017A01791C12626D
:102B1D001E90021BE004F080179002397401F0A39F
:102B2D007401F0A3741CF07BFF7A0C797B125AD9D7
:102B3D007B017A01791C7F0D12621E7B017A01796E
:062B4D001C7F0A02621E5B
:102B5300125FC9EF7003022E549000B0E0FF7E00B5
:102B63007079EE7076900123E0FF6430600EEF64BD
:102B7300316009EF64326004EFB4330EEF24D09078
:102B8300009FF09000B0E004F022900FBEE493B5F4
:102B9300072490014374FFF0A3740FF0A374BEF0F5
:102BA3007E007F1E7D007B017A0179481208969092
:102BB30000B0E004F022900FA8E493FF900123E01B
:102BC3006F6003022F6E90014374FFF0A3740FF044
:102BD300A374A8F09000B0E004F02290009FE0F40A
:102BE30060529000B0E0900F9593FF900123E06F47
:102BF30070429000B0E004F07BFF7A0F79951200E9
:102C03000E9000B0E06F7001EE6003022F6E900033
:102C1300ABE004F090009FE024C9F582E43401F5B1
:102C2300837401F0900129F090009F74FFF0E49009
:102C330000B0F02290009FE0F460529000B0E0906A
:102C43000F9F93FF900123E06F70429000B0E00468
:102C5300F07BFF7A0F799F12000E9000B0E06F7047
:102C630001EE6003022F6E9000ABE014F090009F22
:102C7300E024C9F582E43401F583E4F090012904EA
:102C8300F090009F74FFF0E49000B0F022900143B5
:102C9300E0FBA3E0FAA3E0F9120544FF900FBEE4C2
:102CA300936F6003022DD912000E9000B0E06F7095
:102CB30001EE6003022DD9900123E0FFB42C0990AB
:102CC30000A0E4F0A304F022EFB43A2D9000A2E4B4
:102CD300F0A304F090022BF0A37401F0A37448F066
:102CE3009000A5E090022EF07B017A0079F1125753
:102CF30022E49000A4F0A3F022D39000A3E0940078
:102D03009000A2E064809480406E900123E0FF90E5
:102D130000A4E475F001120671FC744825F0F582F5
:102D230074013CF583EFF09000F1E014F0E06003F0
:102D3300022F6E9000A4E0FEA3E0FF64144E701E09
:102D430078B47C017D017B017A01794812051E7EEE
:102D5300007F1E7D007B017A017948120896E4907A
:102D630000A0F0A3F0A3F0A3F0A3F0A3F09000B0B1
:102D7300F09001297402F022D39000A1E094009016
:102D830000A0E064809480401E900123E0FF900047
:102D9300A4E475F001120671FC744825F0F5827401
:102DA300013CF583EFF02290021AE0700B900123AF
:102DB300E024D09000BEF022900123E0FF9000A415
:102DC300E475F001120671FC744825F0F582740174
:102DD3003CF583EFF022900143E0FBA3E0FAA3E08C
:102DE300F9120544FF900FBEE493B507179000B0A6
:102DF300E0900FBE93FE900123E0B506079000B06C
:102E0300E004F022900FA8E4936F70399000B0E0D3
:102E1300900FA893FF900123E0B507299000B0E03D
:102E230004F07BFF7A0F79A812000E9000B0E06FD8
:102E33007001EE6003022F6E900141E004F09001F7
:102E4300297401F022E49000B0F090009F74FFF029
:102E5300229001AEE0B40307E4F090009E04F01268
:102E63005ECABF10069001AE7404F09001AEE01488
:102E7300604D14606B24FE7003022F2F24FE700339
:102E8300022F4114606C24FE7003022F1B2409607F
:102E930003022F6E900123E0FFB40D089001AE747E
:102EA30001F08015EFB44F089001AE7406F080096D
:102EB3001261EC9001AE7407F0E490009EF0229052
:102EC3000123E0FFB40A079001AE7402F022EFB4CD
:102ED3000D079001AE7401F0229001AE7403F0224D
:102EE300900123E0FFB40D079001AE7409F02202B4
:102EF30061EC900123E0FDB40A117B017A0179159D
:102F03007F2A1261F2E49001AEF022ED640A605B65
:102F1300ED640D60560261E7900123E0B40A079067
:102F230001AE7403F022E49001AEF022900123E09D
:102F3300FFB43E031261EC9001AE7403F0229001E2
:102F430023E0FFB40A079001AE7403F022EF644B51
:102F53006019EF640D60149001AE7407F07B017A81
:0B2F63000179157F4F1261F21261E747
:012F6E002240
:104870009002367401F0E4A3F0125F8DEF60030242
:1048800049787B0190023B04F0A37402F0A37435D5
:10489000F07A017915125B269000A6E0602790025D
:1048A00035E0FF6422601E9000A8E0FBA3E0FAA3BD
:1048B000E0F99000A7E0F582758300EF1205F19012
:1048C00000A7E004F0900235E0FF643A600AEF646C
:1048D0002A6005EF64227055125E86EF24FB704D4E
:1048E000900235E0642270459000A6E0703A900294
:1048F0001CE014601304701E9000A87401F0A374EF
:1049000001F0A37480F0800E9000A87401F0A374ED
:1049100001F0A3746AF090021CE004F0E49000A798
:10492000F09000A604F08005E49000A6F090023715
:10493000E0FF900E4793FE900235E0FD6E600AEFB7
:10494000900E4D93FFEDB50727900237E004F0E09D
:1049500024FB600604600302487990017E7402F033
:104960009000B8E09000B7F0E490017FF002487941
:10497000E4900237F0024879900236E0B4012290C8
:10498000021BE0D394004003E014F090021BE0709F
:104990001012607CE4900101F090021EF09001CEB4
:0149A000F026
:0149A10022F3
:104ACD00E49001D1F090017EE0600F9000C0E070A5
:104ADD0004A3E064286003024BD39000C0E0FEA362
:104AED00E0FFEE6003024BF5EF24E26021248860C5
:104AFD001624EC602324CE603924B46003024BF5F8
:104B0D007F327E000212877F147E00021287C2AFB1
:104B1D001260EBD2AF02128390021AE070067FB4DE
:104B2D00FE0212877FBE7E00121287900141740132
:104B3D00F02290017FE064017051F07B019002380A
:104B4D0004F0A37401F0A3741CF0A37414F07A01A3
:104B5D0079B41245F37B13E4FD7F04125BDD7BFF1B
:104B6D007A1179DA9002467404F0FD1250609002C9
:104B7D003B1207D00000012C125C7F7BFF7A11796C
:104B8D00B1E4900246F07D0402506090021AE0708C
:104B9D0032900109E024C8F582E43401F583E4F094
:104BAD009000ABE014F0E0700C90010904F07FB4BC
:104BBD007E000212877FB47E001212877F077E006F
:104BCD000219550212839000C0E07004A3E06496B0
:104BDD0070067FA0FE0212877B13E4FD7F04125B3B
:094BED00DD7FC87E001212872250
:0D62F9009000BDE0700302201612262D2239
:0D6306009000BDE0700302407A1248702242
:0D6313009000BDE0700302473D124ACD220C
:103372009000C1E02FFF9000C0E03EFE60030237E4
:103382001DEF12087033CAAC33F7AD34A9AE342E38
:10339200AF350CB73596B8356FB934ACBB35A5C36C
:1033A20035EBD435F5D5360ED635ACD735CED83546
:1033B200F2D935F8DA363FDE3624DF3685E036A339
:1033C200E93698EA0000371D90021AE004F0E05452
:1033D20001F075F003A4247DF582E43412F583E450
:1033E20093FB740193FA740293F9900246740AF003
:1033F2007D0202506090021AE0700404F080069090
:10340200021AE014F090021AE075F003A4247DF58C
:1034120082E43412F583E493FB740193FA74029309
:10342200F9900246740AF07D020250609001D1E0E8
:10343200600302371D90021AE070397B017A00792D
:10344200B47F0912621E7B017A0079B47F0B12628B
:103452001E7B017A0079B47F0C12621E7B017A0016
:1034620079B47F0D12621E7B017A0079B47F041257
:10347200621E802C7B017A0079B47F0912621E7B66
:10348200017A0079B47F0E12621E7B017A0079B450
:103492007F0512621E7B017A0079B47F0F12621ED1
:1034A2009001D17401F0220212839000ABE0D39418
:1034B20000500302371D900109E0900237F090019D
:1034C20009E004F0E0D3940440037401F090010990
:1034D200E0FF24C8F582E43401F583E06401600969
:1034E200900237E0FEEFB506D5E4FCFDFE7B017AE3
:1034F2000179489002541251457B017A0179489032
:103502000246740DF07D030250609000ABE0D3944C
:1035120000500302371D900109E0900237F090013C
:1035220009E0B401057404F08006900109E014F08A
:10353200900109E0FF24C8F582E43401F583E064D8
:10354200016009900237E0FEEFB506D2E4FCFDFE11
:103552007B017A0179489002541251457B017A012C
:103562007948900246740DF07D030250609000ABE2
:10357200E0D39400500302371D900109E024C8F5FE
:1035820082E43401F583E06401600302371D7FD2D7
:10359200FE0212879000ABE0600302371D7F0AFE35
:1035A2000212877FD27E0002128790010AE004F0A5
:1035B2007B017A01799212000E90010AE0FD7C00F3
:1035C200CFCDCFCECCCE120625EDF02290010AE06F
:1035D20070107B017A01799212000EEF1490010AA9
:1035E200F02290010AE014F0227FDC7E00021287B2
:1035F20002434C024D1F9000AFE0B40104E4F0809E
:10360200069000AF7401F07F010257A79000B1E06D
:10361200B40104E4F080069000B17401F07F01026D
:1036220057A79001D1E0600302371D7B017A007930
:10363200B47F0612621E9001D17401F0229001D172
:10364200E0600302371D90017F04F0FB7A0079B439
:103652007F1012621E9000AFE024309001B4F0900F
:1036620000B1E024309001B5F078B67C017D017B99
:10367200017A0179927E007F1212051E9001D174A7
:1036820001F02290021AE070067FB4FE0212877FD8
:10369200BE7E000212879000BBE0FEA3E0FF021292
:1036A200877B017A01794812000EEF4E705D90011E
:1036B200B4E024D09000AFF09001B5E024D09000A7
:1036C200B1F078927C017D017B017A0179B67E00AE
:1036D2007F1212051E7BFF7A117975E4900246F083
:1036E2007D021250607BFF7A11797B900246740949
:1036F200F07D021250607F021257A77B017A017996
:1037020092E4900246F07D030250607B017A0179D7
:0B37120048E4900246F07D0312506076
:01371D002289
:103A0D001244A3124E3B12626C1262C41263201256
:103A1D0060EB125C2E90023B1207D0000000647F19
:103A2D00647E00125C837F097E0012128790023B38
:103A3D001207D0000001F47FF4125C817F967E00A6
:103A4D001212879000EBE0B4010D9000ADE0FF90F5
:103A5D00010AE0FD1262AB9000EAE0600B12371E26
:103A6D009000B2EEF0A3EFF09000B2E0FEA3E0FF05
:103A7D004E600312195590021EE0640170599001B9
:103A8D007EE064017051F09000BDE070117BFF7A13
:103A9D000E7934900246F07D0412506080107BFF49
:103AAD007A1079C3E4900246F07D041250609001C3
:103ABD00CEE004F0E0FFE4FCFDFE7B017A017948E5
:103ACD009002541251457B017A0179489002467457
:103ADD0013F07D041250609001CDE0B401249000EC
:103AED00C0E07004A3E0647870189001CDE004127A
:103AFD005BD67BFF7A107937E4900246F07D021297
:103B0D0050609001B3E0640270589000C0E0700402
:103B1D00A3E06478704C9001B0E0FF90021DE06F5F
:103B2D006040EF125BD690021DE0FFE4FCFDFE7BD2
:103B3D00017A017948900254F0A37402F0125149B0
:103B4D007B017A0179489002467408F07D0212508B
:103B5D00607BFF7A0C7980900246740EF07D021224
:103B6D0050609001B3E06401704D9000C0E07004AE
:103B7D00A3E064787041900124E064017039F07B1A
:103B8D00017A01790B1253A1EF6401702A7B13FDA9
:103B9D007F02125BDD7B017A01790B900246740482
:103BAD00F07D021250607BFF7A0C7983900246748F
:103BBD000EF07D02125060900129E0FFD394004079
:103BCD0057EFB402097FE67E001212878045900000
:103BDD00C0E07004A3E064B470289000ABE0FFE493
:103BED00FCFDFE7B017A0179489002541251457B10
:103BFD00017A0179489002467411F07D03125060EC
:103C0D008011900141E0D394014008E4F07FAAFEB9
:103C1D00121287E4900129F07B017A0079B4125FCA
:103C2D0093EF7020900101E0701AE004F01262F938
:103C3D00E490017EF09001AE7403F07B017A01797E
:103C4D0015125DFC125F8DEF70369001AEE06403CE
:103C5D00702E9000F0E06025125BD7900115E0FB0F
:103C6D00A3E0FAA3E0F9900119E0FF7E00E92FF936
:103C7D00EE3AFAE4900246F07D02125060126306AD
:103C8D007B017A01791C125F93EF702E9000F0E0AA
:103C9D006025125BD790011CE0FBA3E0FAA3E0F9CD
:103CAD00900119E0FF7E00E92FF9EE3AFAE4900257
:103CBD0046F07D021250601258299001D1E0B401F6
:103CCD000F7B017A0079B4125F93EF6003126313D7
:103CDD0090023B1207D00000000A7F0A7E00125CA2
:043CED0083023A50C4
:1000260002036EE86480F8E933E83360110460F097
:10003600ED33EC337009E8FCE9FDEAFEEBFF220440
:1000460060DED3EB9FEA9EE99DE8C2E78CF0C2F73B
:1000560095F0400CE8CCF8E9CDF9EACEFAEBCFFB07
:1000660012033985D0F05804700320D5B3E8047024
:10007600075002B2D502037892D5EC0460F7E4CCBF
:10008600C0E0C398F8603B94186008400DD0E0FBD0
:10009600020350E4FBFAC9FC8028E830E406E4C910
:1000A600FBE4CAFCE830E305E4C9CACBFCE8540724
:1000B6006010F8C3E913F9EA13FAEB13FBEC13FC2F
:1000C600D8F130F52FC3E49CFCEF9BFFEE9AFEEDD2
:1000D60099FDD0E0FBEF4E4D4C701222DB0302037C
:1000E60075EC2CFCEF33FFEE33FEED33FDED30E720
:1000F600EB020350EF2BFFEE3AFEED39FDD0E0FBAD
:1001060050130BBB0003020378ED13FDEE13FEEF55
:0801160013FFEC13FC0203507F
:10011E00EC4D6011E8497017ED33EC3304600DE4DB
:10012E00FCFFFEFD22E933E8330470F802036E1281
:10013E00033958046009E4CC248150062850090282
:10014E000378284003020375C0E0EB4A7044B9807F
:10015E0006D0E0FB020364EF4E701CBD8008EBFF7F
:10016E00EAFEE9FD80EBE98DF0A4FEE5F002020760
:10017E00E9CDF9EAFEEBFFEF89F0A4FCE5F0CE89BC
:10018E00F0A42EFFE435F0CD89F0A42DFEE435F079
:10019E008067EF4E7005BD80D780C3EF8BF0A4ACA7
:1001AE00F0EE8BF0A42CFCE435F0F8EF8AF0A42CE2
:1001BE00E5F038FCE433CB8DF0A42CFCE5F03BF8F5
:1001CE00EE8AF0A42CFCE5F038F8E433CF89F0A4E5
:1001DE002CFCE5F038CF3400CE89F0A42FFFE5F0EB
:1001EE003EFEE433C98DF0A42EFEE5F039CD8AF043
:1001FE00A42FFFE5F03EFEE43DFD33D0E0FB5007BB
:10020E000BBB000F020378EC2CFCEF33FFEE33FE3A
:06021E00ED33FD02035068
:10022400020378EC5D046005E85904700302036E70
:10023400120339580460F6EC4860F2EC7004FDFED9
:10024400FF22C860DB2481C85009C39860025006AD
:100254000203759850CAF582E9294B4A7005AB82AE
:1002640002036475F0007C1A7880C3EF9BEE9AED6C
:1002740099400DC3EF9BFFEE9AFEED99FDE842F025
:10028400DC23ACF0D0E0FFD0E0FED0E0FDAB822078
:10029400E7101BEB60BAEC2CFCEF33FFEE33FEED02
:1002A40033FD020350E803F830E705C0F075F000B1
:1002B400EF2FFFEE33FEED33FD40B830E7C280AAE6
:1002C40075F020800E75F010800575F0087D007EB5
:1002D400007F003392D530D503120755EC3340101C
:1002E400EF33FFEE33FEED33FDEC33FCD5F0ED22BE
