:0A000000025DD2E4FD7F800265FC82
:10000B000262C17BC0BF01027B80ED2BFFE4FD12BE
:10001B0065FCE47F0F0265FC025F687402F07FE60B
:10002B007E008E268F27126B43AF27AE26122C63D2
:10003B00AF27AE2612693D900100E0FFA3E09000D0
:10004B00FECFF0A3EFF0A3E526F0A3E527F0126AAD
:10005B004290012DE0900142F09000EB7402F07B96
:10006B0013E4FD7F011264EA1264E6E4FD7F0312E0
:10007B0064EAE4FD7F041264EAE5278526F0124367
:10008B002F0154000A017F001401B5001E01F1007D
:10009B0032020B003C02820046029C005002B6006A
:1000AB005A02FA00640316006E03350078035200FF
:1000BB0082037C008C0396009603B000A003FC0027
:1000CB00AA041A00B4043900BE044D00C804610030
:1000DB00D2047500DC04C400E6050D00F005320007
:1000EB00FA0581010405B4010E05F80118062B0170
:1000FB0022065E012C06ED01400707014A08E401C8
:10010B005E0721016807E401720A4B01860A2C0184
:10011B00900835019A085F01A40A1001AE09F60197
:10012B00B8088701C2093501CC095F01D609A901BD
:10013B00E007A301EA076201F408B101FE0A9E027F
:10014B00120AE2021C00000B151248CE7BFF7A0B41
:10015B00792EE4F52E7D011257147BFF7A0B79195A
:10016B00E4F52E7D031257147BFF7A0B7956125749
:10017B000F0269127BFF7A0B7986E4F52E7D011253
:10018B0057147BFF7A1079A5E4F52E7D02125714D4
:10019B007BFF7A1079B5E4F52E7D031257147BFFA4
:1001AB007A0B795612570F0266B47BFF7A0B79E004
:1001BB00E4F52E7D011257147BFF7A1079F0E4F5EC
:1001CB002E7D021257147BFF7A117913E4F52E7DE5
:1001DB00031257147BFF7A0B795612570F9002DEDE
:1001EB007402F00266387BFF7A0B79FDE4F52E7D05
:1001FB00011257141268297BFF7A1179BC02570F31
:10020B009002DAE0FFB4010690013B7401F0EFB409
:10021B00020690013B7402F09001DEE0FFB4010690
:10022B009002D97401F0EFB402069002D97402F077
:10023B00EFB403069002D97403F0C2AF1265C1D2BA
:10024B00AFE4FF7F119001587420F0A3DFFC7F1106
:10025B009001E27401F07BFF7A0C7927752E02FD79
:10026B001257141264E47B017A017912E4F52E7DA6
:10027B00021257140257097BFF7A0C7936E4F52EDC
:10028B007D011257141267937BFF7A0B7956025735
:10029B000F7BFF7A0C7956E4F52E7D011257141261
:1002AB0067C57BFF7A0B795602570F7BFF7A0C7968
:1002BB0078752E047D01125714E49002F6F090012C
:1002CB007D04F0E4900184F0900176F09001B2F09F
:1002DB009002FB7406F0E4A3F0A3F0A3F0A3F0A349
:1002EB00F0A3F0A3F090013804F09002DBF0227B36
:1002FB00FF7A0C7984752E027D011257147BFF7ADD
:10030B000C7994E4F52E7D020257147BFF7A0C795D
:10031B00A6752E047D011257149002E0E0FF1269BE
:10032B00D97BFF7A1179BC02570F7BFF7A0C79B618
:10033B00752E047D011257141262531267287BFF2E
:10034B007A0C79DA02570F7BFF7A0C79FB752E0248
:10035B007D011257147BFF7A0D790B752E027D02EE
:10036B001257147BFF7A0D791D752E027D030257F0
:10037B00147BFF7A0C79B6752E047D011257147B12
:10038B00FF7A0C79C512570F0262537BFF7A0D79F6
:10039B002CE4F52E7D011257147BFF7A0D7939125F
:1003AB00570F02688A9001857402F09002DEF0907C
:1003BB0001DFF07BFF7A0D794BE4F52E7D011257AF
:1003CB00147B007A007942752E047D011257147B41
:1003DB00FF7A0D7950E4F52E7D021257147BFF7ACC
:1003EB000D7965E4F52E7D03125714125709025A45
:1003FB00F3E49002D7F07BFF7A0D797AF52E7D012D
:10040B001257147BFF7A0E79C112570F02632E7BA2
:10041B00FF7A0D799D752E047D011257147BFF7A9F
:10042B000D79B8752E047D031257140264427BFFBD
:10043B007A0D79C5752E047D01125714126A630269
:10044B0057097BFF7A0D79CF752E047D0112571456
:10045B00126A820257097BFF7A0D79D9752E047DBA
:10046B000112571412652C0257097BFF7A0D79E59F
:10047B00E4F52E7D011257147BFF7A0D79F7E4F525
:10048B002E7D0212571490017D7401F0E4900184CB
:10049B00F09001DF04F0E4900176F09002F6F0901A
:1004AB0002FB04F0E4A3F0A3F0A3F0A3F0A3F0A3EA
:1004BB00F0A3F090013804F0229001857403F090C2
:1004CB0002DE14F07BFF7A0D794BE4F52E7D0112E1
:1004DB0057147B007A007942752E047D0112571454
:1004EB007BFF7A0D7950E4F52E7D021257147BFFBA
:1004FB007A0D7965E4F52E7D031257141257090214
:10050B005B877BFF7A0E7920E4F52E7D0212571460
:10051B007BFF7A0E7910E4F52E7D031257147BFFC7
:10052B007A0E79C102570F9001857401F09002DEAB
:10053B0004F07BFF7A0D794BE4F52E7D01125714F5
:10054B007B007A007942752E047D011257147BFFD4
:10055B007A0D7950E4F52E7D021257147BFF7A0D3C
:10056B007965E4F52E7D031257141257099001DFBC
:10057B007403F0025C1B7BFF7A0E7920E4F52E7D71
:10058B00011257147BFF7A0E794EE4F52E7D021281
:10059B0057147BFF7A0E7960E4F52E7D0312571406
:1005AB007BFF7A0E797502570F7BFF7A0E798AE4FF
:1005BB00F52E7D011257147BFF7A0E790BE4F52E85
:1005CB007D021257147BFF7A0E799FE4F52E7D0383
:1005DB001257147B017A0279E5752E047D021257AE
:1005EB00147BFF7A0E79C112570F025FE97BFF7AFA
:1005FB000F792EE4F52E7D011257147BFF7A0F79BC
:10060B0043E4F52E7D021257147BFF7A0F7905E434
:10061B00F52E7D031257147BFF7A0E79C102570F0B
:10062B007BFF7A0E79DDE4F52E7D011257147BFFEB
:10063B007A0E79F1E4F52E7D021257147BFF7A0FB7
:10064B00791AE4F52E7D031257147BFF7A0E79C1CC
:10065B0002570F7BFF7A0F7956E4F52E7D01125767
:10066B00149001DBE0640170287BFF7A0C796875CC
:10067B002E0A7D011257149000FA7401F090014577
:10068B00E075F01FA4240DF9E4FA7BFE12571080DD
:10069B00327BFF7A0C796F752E0A7D0112571490FD
:1006AB0001C7E09000FAF090017EE024A0F582E40F
:1006BB003401F583E075F01FA4240DF9E4FA7BFEF9
:1006CB001257107BFF7A0F796AE4F52E7D021257D1
:1006DB00147BFF7A0F797AE4F52E7D0312571402FF
:1006EB006A207BFF7A107912E4F52E7D01125714E4
:1006FB001267F77BFF7A1179BC02570F7BFF7A10D9
:10070B007926E4F52E7D011257141263927BFF7A42
:10071B001179BC02570F7BFF7A10794FE4F52E7DD0
:10072B00011257147BFF7A10795D752E0D7D011226
:10073B0057147B017A01798B752E037D02125714A6
:10074B007BFF7A107965E4F52E7D031257147BFF3E
:10075B007A0E793F02570F7BFF7A107933E4F52E2F
:10076B007D011257147BFF7A10795D752E087D0180
:10077B001257147B017A01798B752E037D02125768
:10078B00147BFF7A107965E4F52E7D031257147BE9
:10079B00FF7A0E793F02570F7BFF7A107947E4F50A
:1007AB002E7D011257147BFF7A10795D752E087D13
:1007BB00011257147B017A01798B752E037D02127E
:1007CB0057147BFF7A107965E4F52E7D03125714CD
:1007DB007BFF7A0E793F02570F9001817402F0E490
:1007EB00F528748B2528F582E43401F5837420F009
:1007FB000528E528B411EB7BFF7A107978E4F52E08
:10080B007D011257147B017A017912E4F52E7D02DA
:10081B001257147BFF7A1079C0E4F52E7D03125723
:10082B00147BFF7A10798702570F7BFF7A10793A86
:10083B00E4F52E7D011257147BFF7A117922E4F532
:10084B002E7D021257147BFF7A0E7930E4F52E7D44
:10085B00030257147BFF7A117937E4F52E7D0112D1
:10086B0057147BFF7A0B7919E4F52E7D031257147D
:10087B007BFF7A0B795612570F0269B47BFF7A1004
:10088B007933E4F52E7D011257147BFF7A11794CE5
:10089B00E4F52E7D021257147BFF7A0E7930E4F5C6
:1008AB002E7D030257147BFF7A1179D0E4F52E7D50
:1008BB00011257147B017A017958E4F52E7D02124F
:1008CB0057147BFF7A1179E1E4F52E7D031257144F
:1008DB007BFF7A0E793F02570F9001817401F0E490
:1008EB00F52874CA2528F582E43401F5837420F0C9
:1008FB000528E528B411EB7BFF7A0C7927E4F52E5C
:10090B007D011257147B017A017912E4F52E7D02D9
:10091B001257147BFF7A1079C0E4F52E7D03125722
:10092B00147BFF7A10798702570F7BFF7A10794778
:10093B00E4F52E7D011257147BFF7A117972E4F5E1
:10094B002E7D021257147BFF7A0E7930E4F52E7D43
:10095B00030257149001857404F07BFF7A0D794BD9
:10096B00E4F52E7D011257147B017A017958752E0F
:10097B00047D011257147BFF7A0D7950E4F52E7D1F
:10098B00021257147BFF7A0D7965E4F52E7D031265
:10099B0057147BFF7A0B797612570F025CAF7BFFF4
:1009AB007A0E798AE4F52E7D011257147BFF7A0EAD
:1009BB00790BE4F52E7D021257149002DCE0D394F0
:1009CB0000400E7B017A0279E5752E047D021257E9
:1009DB00147BFF7A0E79B4E4F52E7D031257147B4A
:1009EB00FF7A0E79C112570F025D437BFF7A0F79A5
:1009FB009CE4F52E7D011257147BFF7A0C79C512FE
:100A0B00570F02698F7BFF7A0C7984752E027D015B
:100A1B001257147BFF7A0E79C1E4F52E7D02025733
:100A2B00147BFF7A11799A752E047D01125714905D
:100A3B00017CE0FF1269D97BFF7A1179BC02570F59
:100A4B007BFF7A0C7978752E047D01125714E49094
:100A5B0002F6F090017D7406F0E4900184F09001B1
:100A6B00E37402F0E4900176F09002FB7415F0A3AE
:100A7B007423F0A3742FF0A3742AF0A304F0A374CF
:100A8B0024F0E4A3F0A3F0A3F090013804F090025B
:100A9B00DBF0227BFF7A0E790BE4F52E7D011257EA
:100AAB00147B017A0279E5752E047D011257147BB4
:100ABB00FF7A0D7950E4F52E7D021257147BFF7AE5
:100ACB000D7965E4F52E7D031257147BFF7A0E79B1
:100ADB00C112570F025A567BFF7A0F79AAE4F52EF3
:100AEB007D011257147BFF7A0E79CCE4F52E7D0233
:100AFB001257147BFF7A0F79BEE4F52E7D03125744
:100B0B00147BFF7A0F79CE12570F22487A0053329B
:100B1B003A496E63726D6E7453333A446563726D0A
:100B2B006E740053454C45435420572F4C20505264
:100B3B004F544F434F4C3A00424C55455F544F4F27
:100B4B005448005A49475F4245450053343A2053B5
:100B5B004156452026204E4558540053353A2053D4
:100B6B004156452026204E4558540053353A2053C4
:100B7B0041564520262053454E440053454C454392
:100B8B005420424155442D52415445203A003936A8
:100B9B003030003139323030003338343030004DA2
:100BAB0053472053454E54004D5347205243564410
:100BBB000053323A2053484F572052435644204D4E
:100BCB0053470041434B2053454E540041434B2068
:100BDB00524356440053454C4543542050415249CF
:100BEB0054593A004F4444004556454E004E4F4E23
:100BFB0045004254204D4F44554C452050524553CF
:100C0B00454E43453A004445544543544544004EF4
:100C1B004F545F444554454354454400454449545F
:100C2B0020444556204E414D453A0053454C2044F7
:100C3B00455620434F4E4E204D4F44453A004D41B3
:100C4B005354455200534C4156450053454C20429A
:100C5B005420434F4E4E204D4F44453A0053494E7E
:100C6B00474C45004D554C5449504C45005343415E
:100C7B004E4E494E472E2E2E004E4F204445564980
:100C8B00434520464F554E440053323A5363616EF1
:100C9B002053333A436F6E666967004254204445D4
:100CAB005620444554454354454400425420534533
:100CBB004C454354204445563A0053323A436F6EE9
:100CCB006E6563742053333A49676E6F72650053D8
:100CDB00323A436F6E6E53333A49676E7253343AFE
:100CEB004E787400436F6E6E20436F756E743A00CE
:100CFB00546F6F204665772044657620666F7200CF
:100D0B004D756C74694D6F646520425420436F6E52
:100D1B006E0053323A5265742053333A45786974F6
:100D2B000053454C45435420534C415645005332D8
:100D3B003A53454C4543542053333A4E455854008F
:100D4B00462F4E3A003A2020202020202020203A07
:100D5B00202020202020202020004C333A2020204F
:100D6B004C343A202020465245513A202020004551
:100D7B0052524F523A204D657373616765004E4F67
:100D8B002041434B20524356440054494D454F5547
:100D9B0054004C454433205354415455533A004F5F
:100DAB006E004F6E004F6666004F6666004C454402
:100DBB0034205354415455533A004D4553534147F6
:100DCB0045313A004D455353414745323A0046525F
:100DDB00455120434F554E543A00415741495453C6
:100DEB0020434F4E4E454354494F4E002E20202E4C
:100DFB0020202E20202E20202E20202E20202E00C2
:100E0B0053464E3A0053333A444953434F4E4E45A3
:100E1B004354203F0053323A5345452052435644E6
:100E2B00204D53470053343A594553202020533516
:100E3B003A4E4F0053343A4E4F20202053353A59F7
:100E4B0045530053333A53454C204F54485220538B
:100E5B004C4156450053343A444953434F4E20437B
:100E6B0055525220534C4156450053353A44495341
:100E7B00434F4E4E20414C4C20534C415645004263
:100E8B002F523A202020202020202020503A2020B2
:100E9B00202020004C494E4B514C54593A202020D5
:100EAB0020525353493A202000525353493A2020A1
:100EBB00202064426D0053343A2052455455524E13
:100ECB000053333A42726F616463617374207478B8
:100EDB002E004254204D554C544920434F4E4E202A
:100EEB004552524F520041746C6561737420747794
:100EFB006F2064657669636573006E656564732046
:100F0B00746F206265206465746563746564006E3C
:100F1B0065656420746F2062652064657465637415
:100F2B0065640042542053494E474C4520434F4E75
:100F3B004E204552524F520041746C6561737420C0
:100F4B006F6E652064657669636500434F4E4E2076
:100F5B004D4F44453A2020202020202020200044C3
:100F6B00455649434520434F554E543A20200043A4
:100F7B00555252454E5420434F4E4E3A0057616ED8
:100F8B007420746F206473637672206E6F64653F98
:100F9B000053454C454354204E4F4445203A005393
:100FAB00323A53656C2064657374692064657669A5
:100FBB0063650053343A446973636F6E6E65637493
:100FCB00203F0053353A2052455455524E00546938
:100FDB006D656F75742C636865636B2042544D3F70
:100FEB000054696D656F75742C636865636B205A6B
:100FFB00424D3F0042542072657475726E656420D9
:10100B006572726F7221005A42204D4F44554C4508
:10101B002050524553454E43453A005A42204445D1
:10102B005620545950453A00524F5554455200439F
:10103B004F2D4F5244494E41544F5200454E442D73
:10104B0044455600434F2D4F5244494E41544F5245
:10105B003A0050414E2D49443A0057616E7420744A
:10106B006F206368616E67652049443F00434841C8
:10107B004E47452050414E2049443A0053353A20C3
:10108B004150504C59204348414E4745005A42204D
:10109B004241554420524154450044454641554C2C
:1010AB00542042443A39363030004348414E47458C
:1010BB002042443A0053323A496E6353333A446503
:1010CB006353343A4D4F56450053343A4150504CCC
:1010DB005920202053353A204E4F005A4220504180
:1010EB00524954590044454641554C5420504152A5
:1010FB004954593A204E4F4E45004E4F4E450045F0
:10110B0056454E004F4444004348414E47452050FE
:10111B0041524954593A005343414E20464F5220B5
:10112B004E4557204E455457524B3F0053454C208C
:10113B004E4F204F4620434820544F205343414E9F
:10114B00005343414E20464F52204E455720434FAC
:10115B004E4E203F0053343A20434F4E4E20544FB7
:10116B00204649525354005343414E20464F522080
:10117B004E455720434F4E4E203F0053454C454361
:10118B00542044455354494E4154494F4E3A004E16
:10119B004F4445204445544543544544203A00535D
:1011AB0034203A2053484F57204D45535341474520
:1011BB00005334203A204E455854004D534720538A
:1011CB005441543A005A4220444556494345204E17
:1011DB00414D45203A0057616E7420746F2063684F
:1011EB00616E6765206E616D653F0000C0C101C314
:1011FB000302C2C60607C705C5C404CC0C0DCD0F30
:10120B00CFCE0E0ACACB0BC90908C8D81819D91BDF
:10121B00DBDA1A1EDEDF1FDD1D1CDC14D4D515D75F
:10122B001716D6D21213D311D1D010F03031F133AF
:10123B00F3F23236F6F737F53534F43CFCFD3DFF6F
:10124B003F3EFEFA3A3BFB39F9F83828E8E929EB3F
:10125B002B2AEAEE2E2FEF2DEDEC2CE42425E5279F
:10126B00E7E62622E2E323E12120E0A06061A1630F
:10127B00A3A26266A6A767A56564A46CACAD6DAFAF
:10128B006F6EAEAA6A6BAB69A9A86878B8B979BB5F
:10129B007B7ABABE7E7FBF7DBDBC7CB47475B577DF
:1012AB00B7B67672B2B373B17170B050909151936F
:1012BB0053529296565797559594549C5C5D9D5FEF
:1012CB009F9E5E5A9A9B5B99595898884849894BBF
:1012DB008B8A4A4E8E8F4F8D4D4C8C44848545871F
:1012EB00474686824243834181804000C0C101C38F
:1012FB000302C2C60607C705C5C404CC0C0DCD0F2F
:10130B00CFCE0E0ACACB0BC90908C8D81819D91BDE
:10131B00DBDA1A1EDEDF1FDD1D1CDC14D4D515D75E
:10132B001716D6D21213D311D1D010F03031F133AE
:10133B00F3F23236F6F737F53534F43CFCFD3DFF6E
:10134B003F3EFEFA3A3BFB39F9F83828E8E929EB3E
:10135B002B2AEAEE2E2FEF2DEDEC2CE42425E5279E
:10136B00E7E62622E2E323E12120E0A06061A1630E
:10137B00A3A26266A6A767A56564A46CACAD6DAFAE
:10138B006F6EAEAA6A6BAB69A9A86878B8B979BB5E
:10139B007B7ABABE7E7FBF7DBDBC7CB47475B577DE
:1013AB00B7B67672B2B373B17170B050909151936E
:1013BB0053529296565797559594549C5C5D9D5FEE
:1013CB009F9E5E5A9A9B5B99595898884849894BBE
:1013DB008B8A4A4E8E8F4F8D4D4C8C44848545871E
:1013EB004746868242438341818040EF8EF0124311
:1013FB002F15180036152D003E1536003F153F00F2
:10140B004015420041157D0048158F004915A1007C
:10141B004A16180052162A0053163C005416430065
:10142B0066164A00671651007216A6007A1723003B
:10143B007B173A007C1751008417580085175F0003
:10144B008E1792008F17BA0098182E009918460025
:10145B00A2184D00A3185400A4185B00A5186C002B
:10146B00A6187300A7187A00A8188100AE18B90047
:10147B00B718CB00B818DD00B9191500C019180042
:10148B00C1191B00C2191E00C3195600CA195F00EF
:10149B00CB196800CC196B00CD19A300D719DB0051
:1014AB00DE19E100E819E800E91A2C00EA1A33000A
:1014BB00EB1A4400EC1A4B00ED1A5200EE1A5900CD
:1014CB00F21A6C00F31A9B00F41A9E00FC1AA5008A
:1014DB00FD1AAC00FE1AB300FF1AC401001ACB01AF
:1014EB00011AD201021AD901061AEC01071AF301EB
:1014FB00081B2701091B5C01121B5F011C1B6601EA
:10150B00261B6D01301B89021600001BBD90013993
:10151B00E0B401077F3C7E0002002D7F0A7E0002B3
:10152B00002D7B017A0179580250D37B017A017926
:10153B00580253BD026ABFE49002F6F090017D742D
:10154B0002F0E4900184F0900176F09002E27402D4
:10155B00F09002FB7405F0A37401F0E4A3F0A3F088
:10156B00A3F0A3F0A3F0A3F090013804F09002DBFA
:10157B00F0229001E2E004F0E0D394024003740106
:10158B00F00267939001E2E014F0E0C39401500382
:10159B007402F00267939001E2E0640170349001F1
:1015AB007D7402F0E4900184F0900176F09002F6E5
:1015BB00F09002FB7413F0A37404F0E4A3F0A3F017
:1015CB00A3F0A3F0A3F0A3F090013804F09002DB9A
:1015DB00F02290017D7402F0E4900184F0900144BC
:1015EB007403F0E4900176F09002F6F09002FB7435
:1015FB0004F0A37407F0E4A3F0A3F0A3F0A3F0A30B
:10160B00F0A3F090013804F09002DBF0229001DBA4
:10161B00E004F0E0D3940240037401F00267C5903C
:10162B0001DBE014F0E0C3940150037402F0026795
:10163B00C57F5A7E0002002D7F507E0002002D7F59
:10164B00467E0002002D9001DBE0B402239002E005
:10165B00E0B401077F227E0112002D9002E0E0D35F
:10166B00940140077F787E0012002DE49001C7F0B3
:10167B009001DBE064016003021BBD9002E0E070AF
:10168B00077F187E0112002D9002E0E0C3940150F9
:10169B0003021BBD7F8C7E0002002D9001C7E0FF73
:1016AB00703390017D7402F0E4900184F09002F6A7
:1016BB00F0900176F09002FB7410F0A37409F0E443
:1016CB00A3F0A3F0A3F0A3F0A3F0A3F090013804D0
:1016DB00F09002DBF0EFD394005003021BBDEF64DC
:1016EB00047003021BBD90017D7401F0E490018432
:1016FB00F09002F6F0900176F09002FB7409F0E4A2
:10170B00A3F0A3F0A3F0A3F0A3F0A3F0A3F0900138
:10171B003804F09002DBF022900145E004F01262F5
:10172B00537BFF7A0C79DAE4F52E7D040257149083
:10173B0001C7E0D3940150077F827E0002002D7F0A
:10174B00967E0002002D7F787E0002002D7F467E64
:10175B000002002D90017D7402F0E4900184F09062
:10176B0002F6F0900176F09002FB7408F0A304F0FF
:10177B00E4A3F0A3F0A3F0A3F0A3F0A3F09001383F
:10178B0004F09002DBF0229001B2E0B40108E4F027
:10179B007F46FE02002D900145E004F09001B2E07F
:1017AB00FF900145E0D39F40037401F00262539018
:1017BB0001A5E0FF703090017D04F0E4900184F00E
:1017CB009002F6F0900176F09002FB7411F0E4A316
:1017DB00F0A3F0A3F0A3F0A3F0A3F0A3F0900138D3
:1017EB0004F09002DBF0EFD394005003021BBD908A
:1017FB00017D7402F0E4900184F09002F6F0900108
:10180B0076F09002FB740AF0A37411F0E4A3F0A33A
:10181B00F0A3F0A3F0A3F0A3F090013804F0900232
:10182B00DBF02290017EE004F09001C7E0FF900115
:10183B007EE0C39F4002E4F002688A7FF07E0002E4
:10184B00002D7F2C7E0102002D7FB47E0002002D27
:10185B00124FB89000F77401F0E49001DCF0A3F0A4
:10186B00227FD27E0002002D7FBE7E0002002D7FE4
:10187B00C87E0002002D900185E0B401077FFA7E3F
:10188B000012002D900185E0B402077FA07E0012AC
:10189B00002D900185E0B40303120029900185E02F
:1018AB0064046003021BBD7FD67E0102002D9000F5
:1018BB00F6E0700404F08005E49000F6F002644258
:1018CB009000F9E0700404F08005E49000F9F00258
:1018DB006442900185E0B401077FFA7E0012002D6F
:1018EB00900185E0B402077FA07E0012002D9001CD
:1018FB0085E0B40303120029900185E064046003C2
:10190B00021BBD7FD67E0102002D0250CD0253B7C4
:10191B00026ABF900185E0B401077FFA7E001200D6
:10192B002D900185E0B402077FA07E0012002D9060
:10193B000185E0B40303120029900185E064046083
:10194B0003021BBD7FD67E0102002D7B017A01793C
:10195B00B30250D37B017A0179B30253BD026ABF44
:10196B00900185E0B401077FFA7E0012002D9001F3
:10197B0085E0B402077FA07E0012002D900185E068
:10198B00B40303120029900185E064046003021B79
:10199B00BD7FD67E0102002D900185E0B401077F4B
:1019AB00FA7E0012002D900185E0B402077FA07E25
:1019BB000012002D900185E0B40303120029900161
:1019CB0085E064046003021BBD7FD67E0102002DFF
:1019DB009002DE0200267FF07E0002002D9001DBDC
:1019EB00E064016003021BBD90017D7404F0E49080
:1019FB000184F0900176F09002FB740AF0A3740D51
:101A0B00F0A3740FF0A314F0E4A3F0A3F0A3F0A3DE
:101A1B00F090013804F0E49002F6F09002DB04F051
:101A2B00227FB47E0002002D124FB89000F7740194
:101A3B00F0E49001DCF0A3F0227FD27E0002002DB7
:101A4B007FBE7E0002002D7FC87E0002002D90021B
:101A5B00DCE0D394005003021BBD7F127E02020018
:101A6B002D90017D7402F0E4900184F09002F6F069
:101A7B00900176F09002FB740AF0A304F0E4A3F05B
:101A8B00A3F0A3F0A3F0A3F0A3F090013804F0228D
:101A9B000200297F047E0102002D7F2C7E010200B3
:101AAB002D7FB47E0002002D124FB89000F7740109
:101ABB00F0E49001DCF0A3F0227FD27E0002002D37
:101ACB007FBE7E0002002D7FC87E0002002D90029B
:101ADB00DCE0D394005003021BBD7F127E02020098
:101AEB002D7F967E0002002D90017D7402F0E49014
:101AFB000184F09002F6F0900176F09002FB740AEC
:101B0B00F0A37412F0E4A3F0A3F0A3F0A3F0A3F0FE
:101B1B00A3F090013804F09002DBF02290017D7469
:101B2B0002F0E4900184F09002F6F0900176F090D0
:101B3B0002FB740AF0A304F0E4A3F0A3F0A3F0A358
:101B4B00F0A3F0A3F090013804F09001DF7403F0E0
:101B5B00220200297F507E0002002D7F507E000262
:101B6B00002D900185E0B401077FFA7E0012002D55
:101B7B00900185E06402703A7FA0FE02002D900177
:101B8B0085E0B401077FFA7E0012002D900185E0FD
:101B9B00B402077FA07E0012002D900185E0B403F4
:101BAB0003120029900185E0B404077FD67E011251
:101BBB00002D22EF8EF012432F205A00AE20920000
:101BCB00B720A400B820B600B920EE00C020F10069
:101BDB00C120F400C220F700C3212F00CA21380016
:101BEB00CB214100CC214400CD217C00D71CAC0182
:101BFB00441D05014E1DA901601DB201611DBB01F4
:101C0B00621DBE01631D2C016C1D33016D1D560140
:101C1B00741D5F01751D6801761D6B01771F8601B1
:101C2B00941E46019E1E4D019F1E5401A61E660169
:101C3B00A71E7801A81FC801B2200A01BA203901DA
:101C4B00BB1EC301C61ECA01C71ED101D01ED801BF
:101C5B00D11EDF01D81EF201D91F2401DA1F2B017F
:101C6B00DB1F3201DC1F3901DD1F4001DE1F470185
:101C7B00E41D4801EE1D4F01EF1D3A01F81D410116
:101C8B00F91DFE02021E3F02031F4E021621B40273
:101C9B001E21C4021F21FE0220223C022100002231
:101CAB004390014BE0B401077F0A7E0012002D9098
:101CBB00014BE0B402077F4A7E0112002D900131E7
:101CCB00E0643860030222439002F6F090017D74C9
:101CDB0003F0E4900184F0900176F09002FB741510
:101CEB00F0A3743CF0A37429F0E4A3F0A3F0A3F0E9
:101CFB00A3F0A3F090013804F0229002D6E024FE6A
:101D0B006011146015240260030222437F687E0178
:101D1B0002002D7FF47E0102002D7FEA7E0102007E
:101D2B002D7FFE7E0102002D7F727E0102002D7F32
:101D3B00FE7E0102002D7F727E0102002D7FFE7E52
:101D4B000102002D7F727E0102002D7B017A017949
:101D5B008B0250D37B017A01798B0253BD026ABF90
:101D6B00E49002F6F090017D7404F0E4900184F0AD
:101D7B009001A404F0E4900176F09002FB7415F04E
:101D8B00A37436F0A3742AF0A304F0E4A3F0A3F039
:101D9B00A3F0A3F090013804F09002DBF0227B015A
:101DAB007A0179CA0250D37B017A0179CA0253BDF9
:101DBB00026ABFE49002F6F090017D7408F0E490A3
:101DCB000184F0900176F09002FB7415F0A3741F60
:101DDB00F0A37437F0A304F0A304F0A3742AF0A3C8
:101DEB0004F0A3743AF0E4A3F090013804F09002ED
:101DFB00DBF022E49002F6F090017D7406F0E490A3
:101E0B000184F09001A47403F0E4900176F0900249
:101E1B00FB7415F0A37437F0A304F0A304F0A374C0
:101E2B002AF0A304F0E4A3F0A3F090013804F0909F
:101E3B0002DBF0227F5E7E0102002D7FA47E010279
:101E4B00002D7F687E0102002D9001E4E004F0E09C
:101E5B00D3940E40037401F00269B49001E4E014D2
:101E6B00F0E0C394015003740EF00269B41251D424
:101E7B00E49002F6F090017D7406F0E4900184F09A
:101E8B009001A47402F090013614F0E4900176F006
:101E9B009002FB7415F0A37433F0A37431F0A374A8
:101EAB0035F0A3742AF0A304F0E4A3F0A3F090019F
:101EBB003804F09002DBF0227FA47E0102002D7F1C
:101ECB00F47E0102002D7FA47E0102002D7FEA7EAD
:101EDB000102002D9002DCE0D39400500302224358
:101EEB007F127E0202002D90017D7402F0E49001BE
:101EFB0084F09002F6F0900176F09002FB7415F0EE
:101F0B00A3742EF0E4A3F0A3F0A3F0A3F0A3F0903E
:101F1B00013804F09002DBF0227FB47E0002002D2A
:101F2B007F1C7E0202002D7FD27E0002002D7FBE21
:101F3B007E0002002D7FC87E0002002D7FD67E0121
:101F4B0002002D900185E0B401077FFA7E0012009C
:101F5B002D900185E0B402077FA07E0012002D902A
:101F6B000185E0B40303120029900185E06404604D
:101F7B00030222437FD67E0102002DE49002F6F08D
:101F8B0090017D7404F0E4900184F09001E304F07F
:101F9B009001A47404F0E4900176F09002FB7415A8
:101FAB00F0A3742FF0A3742AF0A304F0E4A3F0A31E
:101FBB00F0A3F090013804F09002DBF022E49002E1
:101FCB00F6F090017D7404F0E4900184F09001E34D
:101FDB0004F09001A47405F0E4900176F09002FBFC
:101FEB007415F0A3742FF0A3742AF0A304F0E4A3E8
:101FFB00F0A3F0A3F090013804F09002DBF022E4A0
:10200B009002F6F090017D7402F0E4900184F09060
:10201B000176F09002FB7415F0A37425F0E4A3F0A5
:10202B00A3F0A3F090013804F09002DBF0229001B2
:10203B007BE0FFB40108E4A3F090017BF022900158
:10204B0045E004F0E0D39F40037401F002698F90E8
:10205B000185E0B401077FFA7E0012002D90018507
:10206B00E0B402077FA07E0012002D900185E0B442
:10207B000303120029900185E064046003022243EC
:10208B007FD67E0102002D9000F6E0700404F080F4
:10209B0005E49000F6F00264429000F9E07004044D
:1020AB00F08005E49000F9F0026442900185E0B401
:1020BB0001077FFA7E0012002D900185E0B4020724
:1020CB007FA07E0012002D900185E0B40303120067
:1020DB0029900185E0640460030222437FD67E01D0
:1020EB0002002D0250CD0253B7026ABF900185E06A
:1020FB00B401077FFA7E0012002D900185E0B40237
:10210B00077FA07E0012002D900185E0B40303121F
:10211B000029900185E0640460030222437FD67E90
:10212B000102002D7B017A0179B30250D37B017A36
:10213B000179B30253BD026ABF900185E0B4010778
:10214B007FFA7E0012002D900185E0B402077FA07C
:10215B007E0012002D900185E0B40303120029903C
:10216B000185E0640460030222437FD67E010200F6
:10217B002D900185E0B401077FFA7E0012002D90AF
:10218B000185E0B402077FA07E0012002D9001852F
:10219B00E0B40303120029900185E064046003029C
:1021AB0022437FD67E0102002DE490017CF090014A
:1021BB007BF07F867E0102002DE49002F6F0900109
:1021CB007D7404F0E4900184F09001BF04F0E4907E
:1021DB000176F09002FB7415F0A37417F0A304F0D2
:1021EB00A37429F0E4A3F0A3F090013804F090025B
:1021FB00DBF022E49002F6F090017D7403F0E490A2
:10220B000184F09001367402F09001A47406F0E49E
:10221B00900176F09002FB7415F0A37431F0A37467
:10222B002BF0E4A3F0A3F090013804F09002DBF064
:10223B00227FD67E0112002D228F22E4F523E52288
:10224B0012430922CD0122D80222E80423290523B7
:10225B00570623800723A60823D30923E10B23EC7E
:10226B000C23F70D242510243011245E13248E1417
:10227B0024BC1524DE1724EC1824FC1925161A256A
:10228B003921254923255924256925258826259873
:10229B002725A82925B82B25C82C25D82D25E82E90
:1022AB0025F830260831264832265833268E352617
:1022BB009E3726B73926D33A26E73B271C3E00002C
:1022CB002729126B207F5A12657B022729126B205C
:1022DB007F261265807F4612657B022729126B20B1
:1022EB007F2B1265807F551265807F411265807F41
:1022FB00521265807F541265807F431265807F4F39
:10230B001265801F1265807F461265807F491265BA
:10231B00807F471265807F2C126580022729126B04
:10232B00207F2B1265807F421265807F541265805F
:10233B007F491265807F4E1265807F461265807FD4
:10234B004F1265807F3F12657B022729126B207F1E
:10235B002B1265807F421265807F541265807F4906
:10236B001265807F4E1265807F511265807F3F1210
:10237B00657B022729126B207F2B1265807F42120F
:10238B0065807F541265807F521265800F126580C5
:10239B001265807F49126571022729126B207F2BF2
:1023AB001265807F421265807F541265807F4D12CB
:1023BB0065807F4F1265807F441265800F126580A8
:1023CB007F2C1265800227297F2B12658012658076
:1023DB0012657B022729126B207F4412658002272E
:1023EB0029126B207F48126580022729126B207FF0
:1023FB002B1265807F421265807F541265807F4E61
:10240B001265807F411265807F4D1265807F45127A
:10241B0065807F3D126580022729126B207F4F124A
:10242B006580022729126B207F2B1265807F4D124E
:10243B0065807F551265807F4C1265807F541265D5
:10244B00807F491265807F2C1265807F3012657BFF
:10245B00022729126B207F2B1265807F4212658029
:10246B007F541265807F521265800F126580126552
:10247B00807F491265807F2C1265807F3012657BCF
:10248B00022729126B207F2B1265807F4D126580EE
:10249B007F551265807F4C1265807F541265807F5B
:1024AB00491265807F2C1265807F3212657B022773
:1024BB0029126B207F531265807F33126580126562
:1024CB00807F3D1265807F311265807F3512657B81
:1024DB000227297F2B1265801265801265800227E7
:1024EB0029126B207F521265807F4512657B022774
:1024FB0029126B207F441265807F481265807F20F4
:10250B001265807F3012657B022729126B207F4476
:10251B001265807F4C1265807F201265807F46128A
:10252B00658012658012658012657B022729126B0C
:10253B00207F4E1265807F49126580022729126B1E
:10254B00207F491265807F44126580022729126B18
:10255B00207F421265807F4812657B022729126B10
:10256B00207F4E1265807F541265807F201265801C
:10257B007F331265807F4312657B022729126B2004
:10258B007F4E1265807F4412657B022729126B20D8
:10259B007F441265807F4E126580022729126B20C3
:1025AB007F421265807F44126580022729126B20BF
:1025BB007F431265807F4E12657B022729126B20A9
:1025CB007F571265807F5212657B022729126B2081
:1025DB007F411265807F4312657B022729126B2096
:1025EB007F4E1265807F42126580022729126B2075
:1025FB007F441265807F4212657B022729126B2074
:10260B007F431265807F541265807F201265809016
:10261B0001E3E0B4010CE4F07F311265807F4512D9
:10262B0065809001E3E0B4020CE4F07F3312658027
:10263B007F431265807F0D126580022729126B2064
:10264B007F561265807F5212657B022729126B2001
:10265B007F5A1265807F531265807F2012658090B0
:10266B000136E0B40107E4F07F301265809001364B
:10267B00E0B40207E4F07F311265807F0D126580B4
:10268B00022729126B207F531265807F43126580CE
:10269B00022729126B207F531265807F44126580BD
:1026AB007F201265807F3512657B8072126B207FD5
:1026BB004E1265807F4A1265807F201265807F46AF
:1026CB0012658012657B8056126B207F44126580E9
:1026DB007F351265807F201265768042126B207FDA
:1026EB004C1265807F541265807F201265809002AA
:1026FB00D6E0B4010C7F361265807F341265808082
:10270B00097F331265801F1265807F0D12658080F3
:10271B000D126B207F531265807F4D126576E4900E
:10272B0001DCF0A3F09001E5F0900135F075230189
:10273B00E52264066023E5226410601DE522641423
:10274B006017E52264266011E5226427600B900276
:10275B00F97401F0E490012FF0AF23221248CE124E
:10276B00563E126A42126AA190013B7401F090022C
:10277B00D9F01265C1E4900177F0A3F0900178E0F5
:10278B0004F07006900177E004F0900177E070049C
:10279B00A3E064C870E6C2B6E4900177F0A3F0E45E
:1027AB00900179F0A3F090017AE004F070069001AB
:1027BB0079E004F0900179E0B427EBA3E0B410E6E4
:1027CB00900178E004F07006900177E004F090013E
:1027DB0077E07004A3E0641470C5D2B67F0A7E0064
:1027EB0012002DD2AF90012AE0B4010D9000EBE066
:1027FB00FF900142E0FD12000E900100E07004A377
:10280B00E064D2701D900149E0B4011612652C7B77
:10281B00FF7A0B7966E4F52E7D04125714E49001D0
:10282B0049F0123A089000FBEEF0A3EFF04E600374
:10283B00124A4C900100E0FEA3E0FF9000FEE06E18
:10284B007003A3E06F600B9000FEEEF0A3EFF012AD
:10285B00002D900137E0B4010FE4F0FB7A007953BF
:10286B009000E1E0FD1269FD900138E0B4010C909D
:10287B00017DE0D39400400312323D90013AE064B5
:10288B00016003022A679001DFE06401705590013B
:10289B00E2E06402704D20B74A900177F0A3F0E4B8
:1028AB00900179F0A3F090017AE004F070069001AA
:1028BB0079E004F0900179E0B407EBA3E0B4D0E643
:1028CB00900178E004F07006900177E004F090013D
:1028DB0077E07004A3E0640A70C520B7069001DFAF
:1028EB001200269001DFE064026003022A0B20B77E
:1028FB0003022A0BD2B7900177F0A3F0E490017991
:10290B00F0A3F090017AE004F07006900179E004F6
:10291B00F0900179E0B407EBA3E0B4D0E690017836
:10292B00E004F07006900177E004F0900177E0701E
:10293B0004A3E0640A70C520B703022A0BE49001DC
:10294B00DFF09001E2E06402704FC2B6900177F0C5
:10295B00A3F0E4900179F0A3F090017AE004F07019
:10296B0006900179E004F0900179E0B427EBA3E045
:10297B00B410E6900178E004F07006900177E00463
:10298B00F0900177E07004A3E0641470C51265B594
:10299B007F0A7E0012002D80679002E0E0D3940145
:1029AB0040109001DBE0B402097F787E0012002D0D
:1029BB00804EC2B6E4900177F0A3F0E4900179F079
:1029CB00A3F090017AE004F07006900179E004F036
:1029DB00900179E0B427EBA3E0B410E6900178E026
:1029EB0004F07006900177E004F0900177E070043A
:1029FB00A3E0641470C51265B57F0A7E0012002D2A
:102A0B009001DFE06403705430B751D2B790017777
:102A1B00F0A3F0E4900179F0A3F090017AE004F0D8
:102A2B007006900179E004F0900179E0B407EBA314
:102A3B00E0B4D0E6900178E004F07006900177E006
:102A4B0004F0900177E07004A3E0640A70C530B71E
:102A5B000BE49001DFF07F14FE12002D9002F6E0E4
:102A6B00B4010A9002DBE0B40103122F7290013A19
:102A7B00E064016003022B1FD39001DDE094109002
:102A8B0001DCE09400405BE4F0A3F090019FE0B424
:102A9B000127900135E0C39401401E126164EF7071
:102AAB000C7F0612435CE49002FAF080129002FA5B
:102ABB007401F09002F6F080069002FA7401F0E4D3
:102ACB00900184F090019FF09002F604F090017653
:102ADB007414F0E4900138F09000F7F09001DCF002
:102AEB00A3F0900100E07004A3E0645A70269001FB
:102AFB00DCE0FEA3E0FFE4FCFDFB7A007983F52824
:102B0B00752902125EE47B007A007983752E0F7DA6
:102B1B000112571490013AE06402706C900100E0CE
:102B2B0064017004A3E064B8605ED39001DDE094AF
:102B3B00069001DCE09400404FE4F0A3F090019F7D
:102B4B00E0B4011890017BE0D39400400FE49001B6
:102B5B009FF0900184F09002FAF0800B9002FA74CF
:102B6B0001F0E490019FF09001847405F0900176E0
:102B7B007414F09002F67401F0E4900138F09000B8
:102B8B00F7F09001DCF0A3F09002D7E0FFB4012046
:102B9B00D39001DDE0940B9001DCE094004011EF49
:102BAB00B4010D9003057402F07FAA7E0012002D74
:102BBB0090019EE0B40117E4F09000F7E0B4010E31
:102BCB009001DDE004F070069001DCE004F090026F
:102BDB00F9E064017032900305E06403702A900100
:102BEB003AE0B40123E4900305F0900139E0701250
:102BFB007F32FE12002DE4900138F09002F9F002C2
:102C0B0027F012632E0227F09002F9E064016003B3
:102C1B000227F09000F8E0640360030227F09001B4
:102C2B003AE0640260030227F09000F8F090014B49
:102C3B00E0B401137F407E0112002DE4900138F0C7
:102C4B009002F9F00227F07BFF7A0F79ECE4F52E76
:102C5B007D041257140227F0AD07AC0612685AED2B
:102C6B008EF012432F2D30000A2D3B00142D460001
:102C7B001E2D5100322D58003C2D7800462D83001F
:102C8B00502D8E00642D97006E2D9E00782DA9007F
:102C9B00822DB2008C2DBB00962DC400A02DD70029
:102CAB00AA2DDE00B42DE900BE2E0900C82E290086
:102CBB00D22E3000DC2E3700E62E4A00F02E5500C7
:102CCB00FA2E6801042E75010E2E7C01182E83013D
:102CDB00222E8A012C2E9101402E98014A2F17018A
:102CEB005E2EA301682EAC01722F3E01902ECC01FB
:102CFB009A2EE701A42F4501AE2F4C01B82EF201FD
:102D0B00C22EFB01CC2F0401D62F3701E02EDE01A2
:102D1B00EA2ED501F42F6901FE2F5502122F5C020A
:102D2B001C00002F719001237401F0A3F0A3F0227B
:102D3B009001237401F0A3F0A3F0229001237401FE
:102D4B00F0A3F0A3F0229001257401F0229001234F
:102D5B007401F0A3F0A3F0A3F090012BF0E4900129
:102D6B002DF0A3740FF090012A7401F0229001232F
:102D7B007401F0A3F0A3F0229001237401F0A3F0EF
:102D8B00A3F0229001237401F0A3F022900125748B
:102D9B0001F0229001237401F0A3F0A3F022900123
:102DAB00237401F0A3F0229001237401F0A3F0220D
:102DBB009001237401F0A3F0229001237401F0A37E
:102DCB00F0A3F0A3F0A3F0A3F0A3F02290012574DD
:102DDB0001F0229001247401F0A3F0A3F0229001E2
:102DEB00237401F0A3F0A3F0A3F090012BF0E49077
:102DFB00012DF0A37407F090012A7401F0229001C9
:102E0B00237401F0A3F0A3F0A3F090012BF0E49056
:102E1B00012DF0A37407F090012A7401F0229001A8
:102E2B00267401F0229001237401F0229001237487
:102E3B0001F0A3F0A3F0A3F0A3F0A3F0A3F0229072
:102E4B0001237401F0A3F0A3F0229001237401F08D
:102E5B00A3F0A3F0A3F0A3F0A3F0A3F0229001231F
:102E6B007401F0A3F0A3F0A3F0229001257401F0FC
:102E7B00229001257401F0229001257401F022901B
:102E8B0001257401F0229001257401F02290012399
:102E9B007401F0A3F0A3F0229001257401F0A3F0CC
:102EAB00229001237401F0A3F0A3F0A3F090012B67
:102EBB00F0E490012DF0A3740FF090012A7401F04F
:102ECB00229001257401F0A3F0229001257401F0EA
:102EDB00A3F0229001257401F0A3F022900123743A
:102EEB0001F0A3F0A3F0229001257401F0A3F022CE
:102EFB009001257401F0A3F0229001237401F0A33B
:102F0B00F0A3F0A3F0A3F0A3F0A3F022900123749D
:102F1B0001F0A3F0A3F0A3F090012BF0E490012DAE
:102F2B00F0A37410F090012A7401F0229001257423
:102F3B0001F0229001257401F0229001257401F01B
:102F4B00229001237401F0A3F0229001257401F06B
:102F5B00229001237401F0A3F0A3F0A3F0229001BF
:102F6B00257401F0A3F022E49002F6F09002DBF05E
:102F7B009002DE7402F0900176E06414600302327A
:102F8B003C900184E024FBF582E43402F583E012EB
:102F9B0043092FCE0130010430080630A907302831
:102FAB000930A20E30B01130BE12310D24312C2558
:102FBB00314B2931642B31062E30D83A313D3B0051
:102FCB0000323C9002E2E0B40208E4F07F46FE12CD
:102FDB00002D9002E2E06401600302323CF09001AC
:102FEB0048F090013904F0A3E06401600302323C25
:102FFB007F32FE02002D7F507E0002002D9002FAE0
:10300B00E0700F9001B2E09002E0F07F6E7E000264
:10301B00002DE49002FAF07F64FE02002D9001DB9C
:10302B00E0B4010C900305E070067FA0FE12002DAA
:10303B009001DBE06402600302323C900305E06028
:10304B000302323C900145E0FF9001C7E024A0F55C
:10305B0082E43401F583EFF0EF75F01FA4241EF822
:10306B007401F29001C7E004F01267287BFF7A0C21
:10307B0079DAE4F52E7D041257149001C7E0B404FD
:10308B00077F967E0012002D126253EF600302320F
:10309B003C7F96FE02002D7F0E7E0102002D7FDC11
:1030AB007E0002002D7FFA7E0012002D9001A5E01C
:1030BB0004F0229001C7E014F0E0D3940040077FA6
:1030CB00967E0002002D7F147E0002002D9002D60A
:1030DB00E0B401077F9A7E0112002D9002D6E0B476
:1030EB0002077FC27E0112002D9002D6E0640360BE
:1030FB000302323C7FCC7E0102002D7FE07E010279
:10310B00002D9002FAE0700D90017BE0A3F07F9010
:10311B007E0102002DE49002FAF07FAE7E010200E8
:10312B002D124FB89000F77401F0E49001DCF0A37E
:10313B00F0229002DFE06401600302323C0259137B
:10314B00124FB89000F77401F0E49001DCF0A3F09B
:10315B001261DCE49001BFF0229001A4E014B407EB
:10316B00004003023237903178F828287302318DF2
:10317B000231970231A10231CE0231D70231E00286
:10318B0031E97FFE7E0112002D0232377FD67E01A0
:10319B0012002D0232379002D6E0B401077F9A7EDF
:1031AB000112002D9002D6E0B402077FC27E0112FD
:1031BB00002D9002D6E0640370727FCC7E0112006A
:1031CB002D80697FB87E0112002D80607FD67E0135
:1031DB0012002D80577F0A7E0012002D804E900228
:1031EB00DAE0FFB4010690013B7401F0EFB4020684
:1031FB0090013B7402F09001DEE0FFB401069002F7
:10320B00D97401F0EFB402069002D97402F0EFB456
:10321B0003069002D97403F0C2AF1265C1D2AF900E
:10322B00014B7402F07F407E0112002DE49001A44B
:10323B00F022900176E0FF6007641460030234E330
:10324B00E4900138F0EFB41405E4900176F09001AE
:10325B00A77414F09002DE7401F0900184E024FB5B
:10326B00F582E43402F583E0124309330401330C95
:10327B0002331403332104332905333606333E0757
:10328B00334B0833530933600A33680B33750D33F3
:10329B007D0E33960F339E1033A61133BF1233D2EC
:1032AB001333DA1533E216340417340C1833EA1FD0
:1032BB0033F721341422341C23342424342C2534A6
:1032CB003927344629344E2A34562B345D2C346935
:1032DB002E34702F347730347E313485333491353E
:1032EB0034983634A43734AB3834B23934B93A3431
:1032FB00C53B34D13C000034D67F01123ED302349F
:10330B00D67F02123ED30234D67F04123ED37F0403
:10331B001234E40234D67F05123ED30234D67F0D2D
:10332B00123ED37F0D1234E40234D67F06123ED305
:10333B000234D67F08123ED37F081234E40234D60F
:10334B007F11123ED30234D67F0B123ED37F0B126A
:10335B0034E40234D67F09123ED30234D67F0C12EA
:10336B003ED37F0D1265800234D67F07123ED30207
:10337B0034D67F10123ED37F0D1265809002F67407
:10338B0001F09001767414F00234D67F13123ED301
:10339B000234D67F14123ED30234D67F10123ED3A2
:1033AB007F101234E49002F67401F09001767414DD
:1033BB00F00234D67F0C123ED39002E47401F07FFE
:1033CB000C1234E40234D67F15123ED30234D67F6E
:1033DB0017123ED30234D67F18123ED30234D67F57
:1033EB0021123ED37F211234E40234D67F23123EC6
:1033FB00D37F0D1265800234D67F19123ED302346F
:10340B00D67F1A123ED30234D67F24123ED3023417
:10341B00D67F25123ED30234D67F26123ED30234FA
:10342B00D67F27123ED37F271234E40234D67F296E
:10343B00123ED37F291234E40234D67F2B123ED3B3
:10344B000234D67F2C123ED30234D67F2D123ED3BC
:10345B0080797F2E123ED37F2E1234E4806D7F3025
:10346B00123ED380667F31123ED3805F7F32123E95
:10347B00D380587F33123ED380517F35123ED37F9A
:10348B00351234E480457F37123ED3803E7F2312C2
:10349B003ED37F381234E480327F39123ED3802BF7
:1034AB007F3A123ED380247F3B123ED3801D7F2177
:1034BB00123ED37F0D12658080117F27123ED37F82
:1034CB003C1234E480057F3E123ED39000F774012A
:1034DB00F0E49001DCF0A3F022752101EF12430917
:1034EB0035160435800835B30B36200C35D20D3527
:1034FB00F710370621372F2736492936792E36E430
:10350B003536BA38374E3C0000376F9002DAE0247C
:10351B00FE601704702B7F391265807F3612658031
:10352B007F3012658012658080177F311265807F36
:10353B00391265807F321265807F3012658012658B
:10354B00807F2C1265809001DEE024FE60151460F4
:10355B000B240270137F4E126580800C7F4F126517
:10356B008080057F451265807F2C1265807F31122C
:10357B00657102376F900144E014601114601514EB
:10358B0060192403701A7F3012658080137F31120B
:10359B006580800C7F3212658080057F33126580D9
:1035AB007F0D12658002376FE4F9900145E075F0ED
:1035BB001FA4240029F8E2FF12658009B90CEB7FE8
:1035CB000D12658002376FE4F9745829F582E434E3
:1035DB0001F583E0FF642060061265800980EA7FB5
:1035EB000D126580E4900304F002376FE4F990014B
:1035FB007EE024A0F582E43401F583E075F01FA48E
:10360B00240029F8E2FF12658009B90CE17F0D1245
:10361B00658002376FE4F990017EE024A0F582E427
:10362B003401F583E075F01FA4240029F8E2FF12A2
:10363B00658009B90CE17F0D12658002376F7F2021
:10364B001265809002DAE024FE601004701890017D
:10365B003B7401F07F33126580800B90013B740249
:10366B00F07F341265807F0D12658002376F7F20EB
:10367B001265809001DEE024FE601414601E2402AB
:10368B0070259002D97401F07F30126580801890FC
:10369B0002D97402F07F31126580800B9002D974CD
:1036AB0003F07F321265807F0D12658002376F7FCA
:1036BB0020126580E4F9748B29F582E43401F583DB
:1036CB00E0FF642060061265800980EA7F0D1265B9
:1036DB0080E4900304F002376F7F20126580E4F9D9
:1036EB0074C029F582E43401F583E0FF60061265AE
:1036FB00800980EC7F0D12658080697F20126580C8
:10370B00E4F974CA29F582E43401F583E0FF6420FF
:10371B0060061265800980EA7F0D126580E49003D4
:10372B0004F08040E4F9900145E075F01FA4240DEE
:10373B0029F8E2FF60061265800980EA7F0D1265A9
:10374B00808021E4F974E529F582E43402F583E005
:10375B00FF600CE9C3941050061265800980E67F68
:10376B000D126580E49001DCF0A3F0AF21229002F2
:10377B00DEE0640160030239B6900184E024FBF5BE
:10378B0082E43402F583E0124309382301385D02E9
:10379B00386503386D04387505387D06388507386C
:1037AB008D08389509389D0A38A50B38AD0C38BBF8
:1037BB000D38C30E38CB0F38D31038DB1238E31368
:1037CB0038EB1538F31638FB1739031839871F39BF
:1037DB000B21391322391B23392324392B25393358
:1037EB0027393A2939412A39482B394F2C39562E4A
:1037FB00395D2F396430396B313972333979353959
:10380B008036398E37399538399C3939A33A39AAEC
:10381B003B39B13C000039B6900148E070087F019C
:10382B001258660239B69001767414F09002DE7469
:10383B0001F0E4900148F090012FF09002F9F09024
:10384B0001847402F09002F614F0E4900138F00257
:10385B0039B67F021258660239B67F0412586602D7
:10386B0039B67F051258660239B67F0D12586602BB
:10387B0039B67F061258660239B67F0812586602AF
:10388B0039B67F111258660239B67F0B1258660291
:10389B0039B67F091258660239B67F0C1258660288
:1038AB0039B690017D7401F07F121258660239B659
:1038BB007F071258660239B67F101258660239B666
:1038CB007F131258660239B67F141258660239B646
:1038DB007F0C1258660239B67F151258660239B63C
:1038EB007F171258660239B67F181258660239B61E
:1038FB007F191258660239B67F1A1258660239B60A
:10390B007F231258660239B67F241258660239B6E5
:10391B007F251258660239B67F261258660239B6D1
:10392B007F271258660239B67F29125866807C7F32
:10393B002B12586680757F2C125866806E7F2D1265
:10394B00586680677F2E12586680607F30125866EB
:10395B0080597F3112586680527F32125866804BE5
:10396B007F3312586680447F35125866803D7F370F
:10397B0012586680367F38125866802F7F21125876
:10398B006680287F3912586680217F3A12586680EC
:10399B001A7F3B12586680137F3D125866800C7F4E
:1039AB002712586680057F3E1258669002DEE0644F
:1039BB000270499002D7E0B4010512473980031217
:1039CB003C7490014AE0B401031261DC900180E089
:1039DB00B4011FE4F090013AE0B402051266EE80E8
:1039EB00031259139002D7E0B40104E4F0800312E0
:1039FB005E5E900169E0B40103125E5E229002E309
:103A0B00E07DFE70027DFF7590FFE4FFFE0FBF00AF
:103A1B00010EEF64144E70F5E490017FF09002E319
:103A2B00E0703D900122E064017035209032FEFF82
:103A3B000FBF00010EBE3AF8BF98F5E4FEFF0FBFB3
:103A4B0000010EBE3AF8BF98F5E4FEFF0FBF000170
:103A5B000EBE3AF8BF98F520900690017F7401F0E6
:103A6B00900123E0B4012220911FE4FEFF0FBF0061
:103A7B00010EBE3AF8BF98F520910690017F7402B3
:103A8B00F02091057590FF80F8900124E0B401229D
:103A9B0020921FE4FEFF0FBF00010EBE3AF8BF9845
:103AAB00F520920690017F7403F02092057590FF2C
:103ABB0080F8900125E0B4012220931FE4FEFF0F54
:103ACB00BF00010EBE3AF8BF98F520930690017F18
:103ADB007404F02093057590FF80F8900126E0B4F4
:103AEB00012220941FE4FEFF0FBF00010EBE3AF827
:103AFB00BF98F520940690017F7405F0209405750E
:103B0B0090FF80F8900127E0B4012220951FE4FE7E
:103B1B00FF0FBF00010EBE3AF8BF98F52095069037
:103B2B00017F7406F02095057590FF80F8900128B1
:103B3B00E064016003023BD230961130970EF53EE4
:103B4B00F53FF53A753B01F53C753D01209678E55F
:103B5B003F453E7072F53A753B01FEFF0FBF00010A
:103B6B000EBE3AF8BF98F5053BE53B7002053A648B
:103B7B0002453A7028E53D6401453C702090017F79
:103B8B007407F0053DE53D7002053CE53B153B70C8
:103B9B0002153A053FE53F7028053E8024E53B645E
:103BAB0001453A6008E53D6402453C701490017F85
:103BBB007405F0753C00753D01053FE53F7002054E
:103BCB003E2096037590FF900129E064016003028B
:103BDB003C6C30971130960EF53EF53FF53A753B40
:103BEB0001F53C753D01209778E53F453E7072F538
:103BFB003A753B01FEFF0FBF00010EBE3AF8BF98AE
:103C0B00F5053BE53B7002053A6402453A7028E541
:103C1B003D6401453C702090017F7408F0053DE543
:103C2B003D7002053CE53B153B7002153A053FE53F
:103C3B003F7028053E8024E53B6401453A6008E56A
:103C4B003D6402453C701490017F7405F0753C0097
:103C5B00753D01053FE53F7002053E2097037590CA
:103C6B00FF90017FE0FF7E0022E49002DCF09001E8
:103C7B004CE0F99000F5E0FF2494F8A601EFB42F87
:103C8B00004003023ECD903C98F8282873023D2556
:103C9B00023D36023D47023D58023D69023D7A0224
:103CAB003D8B023D9C023DAD023DC4023DC4023D35
:103CBB00C4023DC4023DC4023DC4023DC4023DC426
:103CCB00023DC4023DC4023DC4023DC4023DC402D8
:103CDB003DC4023DC4023DC4023DE5023DE5023D4B
:103CEB00E5023DE5023DE5023DE5023DE5023DE530
:103CFB00023E04023E04023E04023E04023E040263
:103D0B003E04023E04023E04023E20023E2C023ED2
:103D1B0038023E44023E53023E62E9B40307900070
:103D2B00F5E004F022E49000F5F022E9B4410790AD
:103D3B0000F5E004F022E49000F5F022E9B44E0720
:103D4B009000F5E004F022E49000F5F022E9B45382
:103D5B00079000F5E004F022E49000F5F022E9B4BE
:103D6B0048079000F5E004F022E49000F5F022E91A
:103D7B00B455079000F5E004F022E49000F5F02232
:103D8B00E9B44D079000F5E004F022E49000F5F063
:103D9B0022E9B441079000F5E004F022E49000F52D
:103DAB00F022E9B44E089000F5E004F08005E490B1
:103DBB0000F5F0E49000FDF0229000F5E004F090A7
:103DCB0000FDE024E5F582E43402F583E9F0900090
:103DDB00FDE004F0E4900187F0229000F5E004F0A0
:103DEB00900187E024E2F582E43400F583E9F0905A
:103DFB000187E004F0E4A3F0229000F5E004F090DA
:103E0B000188E024ECF582E43400F583E9F09001BD
:103E1B0088E004F0229000F5E004F090019CE9F0BA
:103E2B00229000F5E004F090013CE9F0229000F5BF
:103E3B00E004F0900143E9F0229000F5E004F090EB
:103E4B00014CE090018AF0229000F5E004F0900123
:103E5B004CE09002D8F0229000F5E004F090014C79
:103E6B00E09002E1F0E49000F5F0900169F0FB7A4C
:103E7B000079947D2D126679AD07AC06ED4C60068A
:103E8B007E007F0180047E007F00EEFF3395E0ED26
:103E9B004C7E0060027E019002D8E0B5071E9002B6
:103EAB00E1E0B5061790018AE0700690018004F0FE
:103EBB0022E4900180F090016904F022E49000F577
:103ECB00F022E49000F5F022E4900146F09001E539
:103EDB00F0FEF521749B2521F8E4F20521E521B4D0
:103EEB0046F2E4FEE4F521EE75F03CA424E6F582FF
:103EFB00E43401F583E5822521F582E43583F583EE
:103F0B00E4F00521E521B43CDE0EBE04D790013A66
:103F1B00E0B401089002F87401F080069002F87486
:103F2B0003F0E4F521EF1243093FB3013FBC023F1D
:103F3B00C5043FCE053FD7063FE6073FEF083FF8E6
:103F4B000940010B400A0C40130D401C104024117A
:103F5B00402D13403614403F154048174051184030
:103F6B005A1940631A406C21407523407E244087C8
:103F7B0025409026409E2740A62940AE2B40B62CCC
:103F8B0040BE2D40C62E40CE3040D63140DE3240B2
:103F9B00E63340EE3540F63740FE39410E3A4106E6
:103FAB003B41163E0000411C9002E47401F00241BB
:103FBB001C9002E47401F002411C9002E47401F0C5
:103FCB0002411C9002E47402F002411C90019F74A8
:103FDB0001F09002E4740FF002411C9002E47402B1
:103FEB00F002411C9002E47401F002411C9002E4C7
:103FFB007401F002411C9002E47402F002411C9027
:10400B0002E47402F002411C9002E47401F00241DC
:10401B001CE49002E4F002411C9002E47401F002F3
:10402B00411C9002E47401F002411C9002E4740103
:10403B00F002411C9002E47401F002411C9002E476
:10404B007401F002411C9002E47401F002411C90D7
:10405B0002E47401F002411C9002E47401F002418D
:10406B001C9002E47401F002411C9002E47401F014
:10407B0002411C9002E47401F002411C9002E474B2
:10408B0001F002411C90019F7401F09002E4740551
:10409B00F0807E9002E47401F080769002E474016B
:1040AB00F0806E9002E47401F080669002E474017B
:1040BB00F0805E9002E47401F080569002E474018B
:1040CB00F0804E9002E47401F080469002E474019B
:1040DB00F0803E9002E47401F080369002E47401AB
:1040EB00F0802E9002E47401F080269002E47401BB
:1040FB00F0801E9002E47401F080169002E47401CB
:10410B00F0800E9002E47401F080069002E47401DA
:10411B00F09000F77401F01222448F2122BB0106AC
:10412B0089828A83E0225002E722BBFE02E32289C6
:10413B00828A83E49322BB010CE58229F582E58315
:10414B003AF583E0225006E92582F8E622BBFE060B
:10415B00E92582F8E222E58229F582E5833AF583A7
:10416B00E49322BB010FF8E58229F582E5833AF54A
:10417B0083E028F0225009C58229F8E58226F62231
:10418B00BBFE09C58229F8E22582F222F8EA2583D3
:10419B00F583E9932822F8BB010DE58229F582E529
:1041AB00833AF583E8F0225006E92582C8F622BB54
:1041BB00FE05E92582C8F222EF8DF0A4A8F0CF8C82
:1041CB00F0A428CE8DF0A42EFE22BC000BBE00293D
:1041DB00EF8DF084FFADF022E4CCF875F008EF2FF3
:1041EB00FFEE33FEEC33FCEE9DEC984005FCEE9DB0
:1041FB00FE0FD5F0E9E4CEFD22EDF8F5F0EE8420CC
:10420B00D21CFEADF075F008EF2FFFED33FD40072C
:10421B00985006D5F0F222C398FD0FD5F0EA22751F
:10422B00F008758200EF2FFFEE33FECD33CDCC338C
:10423B00CCC58233C5829BED9AEC99E58298400CF4
:10424B00F582EE9BFEED9AFDEC99FC0FD5F0D6E4D2
:10425B00CEFBE4CDFAE4CCF9A88222B800C1B900B8
:10426B0059BA002DEC8BF084CFCECDFCE5F0CBF919
:10427B007818EF2FFFEE33FEED33FDEC33FCEB3311
:10428B00FB10D703994004EB99FB0FD8E5E4F9FA3F
:10429B00227818EF2FFFEE33FEED33FDEC33FCC924
:1042AB0033C910D7059BE99A4007EC9BFCE99AF9B7
:1042BB000FD8E0E4C9FAE4CCFB2275F010EF2FFF26
:1042CB00EE33FEED33FDCC33CCC833C810D7079B90
:1042DB00EC9AE899400AED9BFDEC9AFCE899F80FF3
:1042EB00D5F0DAE4CDFBE4CCFAE4C8F922EB9FF588
:1042FB00F0EA9E42F0E99D42F0E89C45F022D08323
:10430B00D082F8E4937012740193700DA3A393F809
:10431B00740193F5828883E4737402936860EFA34E
:10432B00A3A380DFD083D082F8E49370127401933F
:10433B00700DA3A393F8740193F5828883E47374CF
:10434B000293B5F0067403936860E9A3A3A3A3805B
:10435B00D8E4F521EF12430943E50143EB0243F1A6
:10436B000443F705440806441307442408442A0968
:10437B0044300B44410C44520D445811445E1244DA
:10438B006F13447514448615448C1744921844D407
:10439B001944DA1A44982144B92344E02544E6260B
:1043AB0044EF2744F52944FB2B45012C45062D45AD
:1043BB000B2E451030452A31452F32454933454E9A
:1043CB0035455337456D3845723945773A457C3B12
:1043DB00449E3D45813E0000458412557102458443
:1043EB001255710245841255710245847B017A0185
:1043FB0079E6900135E0FD124E650245849001355A
:10440B00E0FF126B4A0245847B017A0179E6900149
:10441B0035E0FD124BBA02458412557102458412E8
:10442B0055710245847B017A0179E6900135E0FDF7
:10443B001254970245847B017A0179E6900135E0AD
:10444B00FD1259B5024584125571024584125571FE
:10445B000245847B017A0179E6900135E0FD126318
:10446B00EB0245841255710245847B017A0179E692
:10447B00900135E0FD126495024584125571024599
:10448B00841255710245841255710245841255717F
:10449B000245847525017526017527E6900135E0E7
:1044AB00F5287B017A0179581255860245847525CA
:1044BB00017526017527E6900135E0F5287B017A19
:1044CB0001798B125586024584125571024584126F
:1044DB00557102458412557102458490017BE0A30E
:1044EB00F0024584125571024584125571024584C0
:1044FB00125571024584125571807E125571807967
:10450B0012557180747525017526017527E690018A
:10451B0035E0F5287B017A01793D125586805A12D8
:10452B00557180557525017526017527E690013566
:10453B00E0F5287B017A017930125586803B1255C4
:10454B0071803612557180317525017526017527DD
:10455B00E6900135E0F5287B017A0179301255861A
:10456B0080171255718012125571800D1255718082
:10457B00081255718003125571AF2122E4FE900190
:10458B0076E060030247369002F8E024FE602114C7
:10459B0060371460552403600302473690014CE0EA
:1045AB00640D60030247369002F87402F00247363E
:1045BB0090014CE0B40A099002F87403F0024736FC
:1045CB009002F87401F002473690014CE0FD640D47
:1045DB00600F900146E0249BF8EDF2E004F00247F7
:1045EB00369002F87404F002473690014CE0B40A9E
:1045FB00069001E5E004F09001E5E0FD900135F057
:10460B00EF640660030246AFEDC394055079E4FFF7
:10461B00FD900146E0FCEDC39C501C749B2DF8E211
:10462B00FC642C60129001E5E075F01FA424002FB0
:10463B00F8ECF20D0F80DA0D9001E5E075F01FA498
:10464B0024002FF8E4F2FF900146E0FCEDC39C50F0
:10465B001C749B2DF8E2FC642C60129001E5E07554
:10466B00F01FA4240D2FF8ECF20D0F80DA0D900142
:10467B00E5E0FD75F01FA4240D2FF8E4F2ED75F0C5
:10468B001FA4241EF8E4F29002E4E0FF9001E5E0A1
:10469B00C39F4003024736E4900146F09002F804B2
:1046AB00F0024736E49001A6F0900146E0FF90013E
:1046BB00A6E0FDC39F502C749B2DF8E2FF9001E503
:1046CB00E075F03CA424AAF582E5F03401F583E50E
:1046DB00822DF582E43583F583EFF09001A6E0049B
:1046EB00F080C69001E5E0FF75F03CA424AAF582AA
:1046FB00E5F03401F583E5822DF582E43583F5830E
:10470B00E4F09002E4E0FDEFC39D500CE490014611
:10471B00F09002F804F08013EFB5050F900176745A
:10472B0014F0E4900138F09000F7F0AF06229001FE
:10473B004CE0FF90016AE0FE24C4F8A607EEB41B20
:10474B000040030248C8904758F82828730247A92D
:10475B000247BA0247CB0247DC0247ED0247FE0293
:10476B00480F024820024831024848024848024894
:10477B00480248480248480248480248480248480C
:10478B000248480248480248480248480248480242
:10479B004848024848024848024864024870EFB44F
:1047AB00030790016AE004F022E490016AF022EF23
:1047BB00B4410790016AE004F022E490016AF02210
:1047CB00EFB44E0790016AE004F022E490016AF026
:1047DB0022EFB4530790016AE004F022E490016ADF
:1047EB00F022EFB4480790016AE004F022E4900154
:1047FB006AF022EFB4550790016AE004F022E490CE
:10480B00016AF022EFB44D0790016AE004F022E454
:10481B0090016AF022EFB4410790016AE004F022A4
:10482B00E490016AF022EFB44E0890016AE004F0C4
:10483B008005E490016AF0E49000FDF02290016A9B
:10484B00E004F09000FDE024E5F582E43402F5830A
:10485B00EFF09000FDE004F02290016AE004F0908C
:10486B0002D8EFF02290016AE004F09002E1EFF041
:10487B00E490016AF0FB7A0079C47D19126679AD78
:10488B0007AC06ED4C60067E007F0180047E007F46
:10489B0000EEFF3395E0ED4C7E0060027E0190024E
:1048AB00D8E0B507129002E1E0B5060B90014A740F
:1048BB0001F09002DDF022E490016AF022E4900115
:1048CB006AF022538EFCE49002E2F09001C5E09076
:1048DB0002F7F0E49002D7F09001BFF090018AF05C
:1048EB009000F5F090016AF0900144F09001DCF03B
:1048FB00A3F0900141F090019EF09001B2F0900175
:10490B0069F09000F7F09002DDF090014AF0900111
:10491B004504F090013AF0E49002DEF09002F804C6
:10492B00F09002DAF09001DEF09001E2F0E49002F8
:10493B00E0F09001E3F090017CF09001DB04F0E4F7
:10494B00900147F09001C7F090017BF09000FAF0D6
:10495B00900305F0900304F09000F6F090017EF0C8
:10496B009000F9F090018104F0E49000FBF0A3F0CB
:10497B009001A5F09002D8F09002E1F0900185042F
:10498B00F0E49002DCF09002E3F09002D604F09099
:10499B0001E4740EF0E49000F8F09001A87441F07B
:1049AB00A3744EF0A37453F0A37448F0A37455F0A2
:1049BB00A3744DF0A37441F0A3744EF0E4A3F090F4
:1049CB0001B37445F0A314F0A37455F0A314F0A332
:1049DB00744FF0A3F0A3744CF0A37453F0E4A3F062
:1049EB009000E27441F0A3744EF0A37453F0A374DF
:1049FB0048F0A37455F0A3744DF0A37441F0A37465
:104A0B004EF0E4A3F09000EC7445F0A314F0A37403
:104A1B0055F0A314F0A3744FF0A3F0A3744CF0A3C0
:104A2B007453F0E4A3F09001C6F09001DFF0900115
:104A3B002FF09002F9F0D2B7900136F0900148F0C8
:104A4B00229000FBE0FEA3E0FF900101E02FF52593
:104A5B00900100E03EF5246003024BA4E5251243D0
:104A6B00094A8B0C4A9D0D4AAF0E4AB6164AC81717
:104A7B004ADA184AE1204AF3214B052200004BA4E5
:104A8B0090013AE004F0E0D3940240037401F00289
:104A9B00691290013AE014F0E0C3940150037402E0
:104AAB00F00269127F147E0002002D9002DAE004FE
:104ABB00F0E0D3940240037401F00266B49002DA82
:104ACB00E014F0E0C3940150037402F00266B47F6B
:104ADB001E7E0002002D9001DEE004F0E0D3940373
:104AEB0040037401F00266389001DEE014F0E0C37D
:104AFB00940150037403F002663890013AE06401AC
:104B0B00704390017D7403F0E49002F6F090018401
:104B1B00F09002E204F0E4900176F0900139F0900D
:104B2B0002FB7402F0A304F0A37401F0E4A3F0A35E
:104B3B00F0A3F0A3F0A3F090013804F09002DBF0A7
:104B4B00900148F02290017D7409F0E49002F6F098
:104B5B00900184F09001E304F09001A47407F0E459
:104B6B00900176F090014B04F09002FB7415F0A3CA
:104B7B00742FF0A37427F0A3742CF0A3743AF0A352
:104B8B007421F0A37430F0A3742AF0A304F0900105
:104B9B00387401F09002DBF02290013AE0B4010787
:104BAB00AF25AE240213F6AF25AE24121BBE228B0B
:104BBB00228A2389248D25E4F528F526E526C3953D
:104BCB00254003024D11E526703CF527E528C394DB
:104BDB00024003024D0CE52675F03CA4AB222524C4
:104BEB00F9E52335F0FA7E00E92528F9EE3AFA12B9
:104BFB004128FF74BC2527F582E43401F583EFF0DF
:104C0B000528052780C6E4F527F528E52675F03C31
:104C1B00A4AB222524F9E52335F0FA7E00E92528FB
:104C2B00F9EE3AFA124128FF642C600D74832527A4
:104C3B00F8A6070528052780D2052874832527F8B1
:104C4B00E4F6F527E52675F03CA4AB222524F9E51F
:104C5B002335F0FA7E00E92528F9EE3AFA124128BD
:104C6B00FF642C6013743D2527F582E43401F58332
:104C7B00EFF00528052780CC0528743D2527F58204
:104C8B00E43401F583E4F0F527E52675F03CA4AB9D
:104C9B00222524F9E52335F0FA7E00E92528F9EEE3
:104CAB003AFA124128FF642C600D74832527F8A66D
:104CBB00070528052780D2052874832527F8E4F6F5
:104CCB00F527E52675F03CA4AB222524F9E5233521
:104CDB00F0FA7E00E92528F9EE3AFA124128FF6036
:104CEB001374E02527F582E43401F583EFF00528F2
:104CFB00052780CE74E02527F582E43401F583E4A3
:104D0B00F00526024BC722E4FE900176E060030219
:104D1B004E629002F8E024FD6003024E6290014C5B
:104D2B00E0FD640D600C900146E0249BF8EDF2E091
:104D3B0004F0ED640D6003024E629001E5E004F0B7
:104D4B00E0FD900135F0EF64266003024DDAED646F
:104D5B0004705590017BE004F0E4900179F0A3F02E
:104D6B00900146E0FDC390017AE09D900179E094BB
:104D7B00005024A3E0FF249BF8E2FDA3E075F01F95
:104D8B00A4240D2FF8EDF290017AE004F070D1908D
:104D9B000179E004F080C990017AE0FFA3E075F09F
:104DAB001FA4240D2FF8E4F29001E5E0B40A02E40D
:104DBB00F09002E4E0FF9001E5E0C39F4003024E58
:104DCB0062E4900146F09002F87403F0024E62E444
:104DDB009001A6F0900146E0FF9001A6E0FDC39F75
:104DEB00502C749B2DF8E2FF9001E5E075F03CA48C
:104DFB0024AAF582E5F03401F583E5822DF582E4F2
:104E0B003583F583EFF09001A6E004F080C69001A6
:104E1B00E5E0FF75F03CA424AAF582E5F03401F53A
:104E2B0083E5822DF582E43583F583E4F09002E48B
:104E3B00E0FDEFC39D500DE4900146F09002F87435
:104E4B0003F08013EFB5050F9001767414F0E49026
:104E5B000138F09000F7F0AF06228B228A238924C9
:104E6B008D25E4F528F526E526C395254003024F4D
:104E7B00B7E5266003024F67F528F527E52675F0A1
:104E8B003CA4AB222524F9E52335F0FA7E00E92575
:104E9B0028F9EE3AFA124128FF642C600D74832531
:104EAB0027F8A6070527052880D205287483252710
:104EBB00F8E4F6F527E52675F03CA4AB222524F99A
:104ECB00E52335F0FA7E00E92528F9EE3AFA12418E
:104EDB0028FF642C600D74422527F8A607052805CA
:104EEB002780D2052874422527F8E4F6F527E52616
:104EFB0075F03CA4AB222524F9E52335F0FA7E00AE
:104F0B00E92528F9EE3AFA124128FF642C600D745A
:104F1B00832527F8A6070528052780D20528748343
:104F2B002527F8E4F6F527E52675F03CA4AB2225FA
:104F3B0024F9E52335F0FA7E00E92528F9EE3AFA53
:104F4B00124128FF642C600D74832527F8A60705F2
:104F5B0028052780D274832527F8E4F6E52664011B
:104F6B007045F527F528E52675F03CA4AB222524E2
:104F7B00F9E52335F0FA7E00E92528F9EE3AFA1225
:104F8B004128FF601374BC2527F582E43401F583B7
:104F9B00EFF00528052780CE052774BC2527F58261
:104FAB00E43401F583E4F00526024E722278537641
:104FBB000308764108764E087653087648087655EE
:104FCB0008764D08764108764E900158E008F6A316
:104FDB00E008F6A3E008F6A3E008F6A3E008F6A3C2
:104FEB00E008F6A3E008F6A3E008F6A3E008F6A3B2
:104FFB00E008F6A3E008F6A3E008F6A3E008F6A3A2
:10500B00E008F6A3E008F6A3E008F69001A8E00894
:10501B00F6A3E008F6A3E008F6A3E008F6A3E00881
:10502B00F6A3E008F6A3E008F6A3E008F69001B3B8
:10503B00E008F6A3E008F6A3E008F6A3E008F6A361
:10504B00E008F6A3E008F6A3E008F6A3E008F69064
:10505B0002F7E008F69000F6E008F69000F9E00899
:10506B00F69001BFE008F67B007A0079537D2D1294
:10507B006679AD07AC06ED4C60067E007F018004BF
:10508B007E007F00EEFF3395E07880A607ED4C7F26
:10509B000060027F017881A607E49000F5F0900193
:1050AB0080F090014AF09000E1742FF09002D774D9
:1050BB0001F09002DE04F07B007A0079537D2F0221
:1050CB0069FD7B017A0179A88B268A2789289001B3
:1050DB0042E0FFF582758300124141FEC3943040DC
:1050EB0012EE9439500D8F82758300740112416E4C
:1050FB000251CBEEC394414066EE945A5061EEB42C
:10510B00461E900181E0B40117AB26AA27A928906F
:10511B000142E0F58275830074471241A10251CB25
:10512B00AB26AA27A928900142E0FFF582758300E0
:10513B00124141B44613900181E0B4020C8F827589
:10514B00830074301241A18077AB26AA27A928903F
:10515B000142E0F582758300740112416E8061ABF0
:10516B0026AA27A928900142E0FFF5827583001239
:10517B004141FEB4390C8F8275830074201241A11A
:10518B00803EEE64206003EE7016AB26AA27A9289A
:10519B00900142E0F58275830074411241A1802099
:1051AB00AB26AA27A928900142E0FFF58275830060
:1051BB00124141B45A0A8F8275830074301241A197
:1051CB00AB26AA27A9280268B99001E4E014B40E13
:1051DB000040030252D19051E8F828287302521272
:1051EB0002521C02522602523002523A025248021A
:1051FB005256025264025270025280025290025274
:10520B00A00252AE0252C09001C07431F0E4A3F080
:10521B00229001C07433F0E4A3F0229001C07437E4
:10522B00F0E4A3F0229001C07446F0E4A3F02290C6
:10523B0001C07431F0A37446F0E4A3F0229001C0D6
:10524B007433F0A37446F0E4A3F0229001C07437DA
:10525B00F0A37446F0E4A3F0229001C07446F0A3CF
:10526B00F0E4A3F0229001C07431F0A37446F0A3D4
:10527B00F0E4A3F0229001C07433F0A37446F0A3C2
:10528B00F0E4A3F0229001C07437F0A37446F0A3AE
:10529B00F0E4A3F0229001C07446F0A3F0A3F0E475
:1052AB00A3F0229001C07431F0A37446F0A3F0A3D5
:1052BB00F0E4A3F0229001C07433F0A37446F0A382
:1052CB00F0A3F0E4A3F0228F338E328D318C30E4D7
:1052DB00F535744D2535F582E43401F583E4F0059D
:1052EB0035E535B40AEC7539007538CA75379A75DA
:1052FB00363B90019D740AF0AF33AE32AD31AC301A
:10530B00AB39AA38A937A836D31242F84023AF39A4
:10531B00AE38AD37AC36E47B0AFAF9F81242668F39
:10532B00398E388D378C3690019DE014F0E0B53412
:10533B00C790019DE0244DF582E43401F58374FFA1
:10534B00F0E4F53590019DE0FFE535C39F505CAF70
:10535B0039AE38AD37AC36AB33AA32A931A830C32E
:10536B001242F84029744D2535F582E43401F5835A
:10537B00E004F0C3E5339539F533E5329538F53272
:10538B00E5319537F531E5309536F53080C1AF39DC
:10539B00AE38AD37AC36E47B0AFAF9F81242668FB9
:1053AB00398E388D378C3605358099227B017A0101
:1053BB0079A88B268A278928900142E0FFF5827510
:1053CB008300124141FED394304012EE943A500DBB
:1053DB008F8275830074FF12416E02548EEED3944C
:1053EB0041401CEE945B5017AB26AA27A9289001CD
:1053FB0042E0F58275830074FF12416E02548EAB4E
:10540B0026AA27A928900142E0FFF5827583001296
:10541B004141FEB43028900181E0FDB4010A8F8236
:10542B00758300745A1241A1ED64027056AB26AA23
:10543B0027A9288F82F58374461241A18045EE641B
:10544B00206016AB26AA27A928900142E0FFF5821F
:10545B00758300124141FE7016AB26AA27A928902E
:10546B000142E0F58275830074391241A18014EE7C
:10547B00B44110AB26AA27A9288F8275830074200C
:10548B001241A1AB26AA27A9280268B98B228A232D
:10549B0089248D25E4F528F526E526C395254003BB
:1054AB00025570E5267043F527F528E52675F03C87
:1054BB00A4AB222524F9E52335F0FA7E00E9252853
:1054CB00F9EE3AFA124128FF601374BC2527F582D6
:1054DB00E43401F583EFF00528052780CE74BC2555
:1054EB0027F582E43401F583E4F0E526640170705E
:1054FB00F527F528E52675F03CA4AB222524F9E524
:10550B002335F0FA7E00E92528F9EE3AFA12412804
:10551B00FF6420600D74832527F8A607052805274F
:10552B0080D2052874832527F8E4F6F527E5267540
:10553B00F03CA4AB222524F9E52335F0FA7E00E9F3
:10554B002528F9EE3AFA124128FF600D74832527BE
:10555B00F8A6070528052780D474832527F8E4F6D9
:10556B0005260254A4227525017526017527E690A0
:10557B000135E0F5287B017A0179BC8B228A2389DE
:10558B0024E4F529E529C39528504DE4F52AF52B9C
:10559B00E52975F03CA4AB252527F9E52635F0FA6E
:1055AB007E00E9252BF9EE3AFA124128FF6015AB84
:1055BB0022AA23A924852A827583001241A1052BD7
:1055CB00052A80CCAB22AA23A924852A82758300C5
:1055DB00E41241A1052980AC900184E0FF24FBF586
:1055EB0082E43402F583E0FEB407069001C6740131
:1055FB00F0EEB4013D9001C6E0B401369002DE74CA
:10560B0001F0E49001C6F0900146F09001E5F090B6
:10561B0001A77414F09002F87401F0E4900176F095
:10562B009002E404F074FB2FF582E43402F58374EA
:10563B000CF022E4F521F5220522E522700205216A
:10564B00B40CF5E521B46CF0E4F521F5220522E567
:10565B002270020521B40CF5E521B46CF0E4FD7F5A
:10566B00301265FCE4F521F5220522E522700205D6
:10567B0021B404F5E521B424F0E4F521F52205224B
:10568B00E52270020521B404F5E521B424F0E4FD14
:10569B007F301265FCE4F521F5220522E52270022C
:1056AB00052164DC452170F2E4F521F5220522E5A4
:1056BB00227002052164DC452170F2E4FD7F30127B
:1056CB0065FC126AF2E4FD7F381265FC126AF2E4A3
:1056DB00FD7F081265FC126AF2E4FD7F011265FC86
:1056EB00126AF2E4FD7F061265FC126AF27D017FFD
:1056FB000F1265FC120003E4FD7F0C0265FC7BFFBF
:10570B007A0B7966E4F52E7D048B2A8A2B892C8DF6
:10571B002DE4F531E52DB40110E52E2480F530E4B0
:10572B00FDAF301265FC752F93E52DB40210E52EFD
:10573B0024C0F530E4FDAF301265FC752FD3E52D99
:10574B00B40310E52E2494F530E4FDAF301265FC64
:10575B00752FA7E52DB40410E52E24D4F530E4FD08
:10576B00AF301265FC752FE7AB2AAA2BA92C12417F
:10577B0028FF6025F46022E531701E7D011265FC67
:10578B007401252CF52CE4352BF52B0530E530D3A6
:10579B00952F40D475310A80CFE52DB40107E4FD78
:1057AB007F800265FCE4FD7FC01265FC228F217BAC
:1057BB0013E4FD7F041264EAE52124FE602B1460E0
:1057CB0046146061240360030258637BFF7A1179EE
:1057DB00C6E4F52E7D041257147BFF7A0B79D7752F
:1057EB002E0A7D04125714806F7BFF7A1179C6E461
:1057FB00F52E7D041257147BFF7A0B79AA752E0AAE
:10580B007D0412571480517BFF7A1179C6E4F52E73
:10581B007D041257147BFF7A0B79CE752E0A7D040B
:10582B0012571480337B13E4FD7F031264EA7BFF72
:10583B007A1179C6E4F52E7D031257147BFF7A0B90
:10584B0079B3752E0A7D031257147BFF7A0B79BC43
:10585B00E4F52E7D041257140269678F089001A797
:10586B00E024EC600302590D90013AE0B40107AF5C
:10587B00081245878005AF08124D12900176E0643F
:10588B0014706E90012FF09002F9F0900305F01256
:10589B006164EF7007AF0812435C802A90030574B4
:1058AB0004F012632EE4900177F0A3F0900178E0FE
:1058BB0004F07006900177E004F0900177E0B427D4
:1058CB00EBA3E0B410E690017DE014F0900184E0CE
:1058DB0004F09001387401F090017DE07018900194
:1058EB0084E014F09002F67401F0E4900138F0803B
:1058FB0005E49001C9F0900176E0B4C805E490018D
:10590B00C9F09001C9E0FF2278537603087641086D
:10591B00764E08765308764808765508764D087605
:10592B004108764E9002E5E008F6A3E008F6A3E006
:10593B0008F6A3E008F6A3E008F6A3E008F6A3E058
:10594B0008F6A3E008F6A3E008F6A3E008F6A3E048
:10595B0008F6A3E008F6A3E008F6A3E008F6A3E038
:10596B0008F6A3E008F67B007A0079537D191266DE
:10597B0079AD07AC06ED4C60067E007F0180047E9E
:10598B00007F00EEFF3395E0786CA607ED4C7F00AF
:10599B0060027F01786DA6079000E1741BF0900206
:1059AB00DE7402F090013714F0228B228A238924B3
:1059BB008D25E4F528F526E526C395254003025AE7
:1059CB0055E5267043F527F528E52675F03CA4AB85
:1059DB00222524F9E52335F0FA7E00E92528F9EE96
:1059EB003AFA124128FF601374BC2527F582E43480
:1059FB0001F583EFF00528052780CE74BC2527F52C
:105A0B0082E43401F583E4F0E52664017037F52771
:105A1B00F528E52675F03CA4AB222524F9E52335C2
:105A2B00F0FA7E00E92528F9EE3AFA124128FF60D8
:105A3B000D74832527F8A6070528052780D47483C2
:105A4B002527F8E4F605260259C2227B017A007954
:105A5B00E2752E017D021257147B017A0079EC75E9
:105A6B002E0B7D0212571490019CE0FFE4FCFDFE0F
:105A7B00F52E752F02126B2A1267617B017A017961
:105A8B006B752E117D031257149000F6E0FF9001F9
:105A9B003CF09000F9E0900143F0BF01127BFF7ADC
:105AAB000D79AD752E037D03125714D28280107BB6
:105ABB00FF7A0D79B4752E037D03125714C28290B1
:105ACB000143E0B401117BFF7A0D79AD752E097D91
