:0A000000025E85E4FD7F800266BC0D
:10000B000263817BC0BF01027B80ED2BFFE4FD12FD
:10001B0066BCE47F0F0266BC02601B7402F07FE6D5
:10002B007E008E268F27126C09AF27AE26122C6905
:10003B00AF27AE26126A00900065E0FFA3E09000A8
:10004B0063CFF0A3EFF0A3E526F0A3E527F0126B47
:10005B0008900092E09000A7F09000507402F07BA3
:10006B0013E4FD7F011265AA1265A6E4FD7F03125E
:10007B0065AAE4FD7F041265AAE5278526F01243E5
:10008B007C0154000A017F001401B5001E01F10030
:10009B0032020B003C02820046029C005002B6006A
:1000AB005A02FA00640316006E03350078035200FF
:1000BB0082037C008C0396009603B000A003FC0027
:1000CB00AA041A00B4043900BE044D00C804610030
:1000DB00D2047500DC04C400E6050D00F005320007
:1000EB00FA0581010405B4010E05F80118062B0170
:1000FB0022065E012C06F30140070D014A08EA01B6
:10010B005E0727016807EA01720A5101860A32016C
:10011B0090083B019A086501A40A1601AE09FC017F
:10012B00B8088D01C2093B01CC096501D609AF01A5
:10013B00E007A901EA076801F408B701FE0AA40267
:10014B00120AE8021C00000B1B1249657BFF7A0B9D
:10015B007934E4F52E7D011257C77BFF7A0B791F9B
:10016B00E4F52E7D031257C77BFF7A0B795C125790
:10017B00C20269D57BFF7A0B798CE4F52E7D0112D7
:10018B0057C77BFF7A1079ABE4F52E7D021257C768
:10019B007BFF7A1079BBE4F52E7D031257C77BFFEB
:1001AB007A0B795C1257C20267747BFF7A0B79E684
:1001BB00E4F52E7D011257C77BFF7A1079F6E4F533
:1001CB002E7D021257C77BFF7A117919E4F52E7D2C
:1001DB00031257C77BFF7A0B795C1257C2900379D6
:1001EB007402F00266F87BFF7A0C7903E4F52E7D3E
:1001FB00011257C712691B7BFF7A1179C20257C2D2
:10020B00900375E0FFB401069000A07401F0EFB409
:10021B0002069000A07402F0900279E0FFB4010690
:10022B009003747401F0EFB402069003747402F03F
:10023B00EFB403069003747403F0C2AF126681D25D
:10024B00AFE4FF7F119000BD7420F0A3DFFC7F11A2
:10025B0090027D7401F07BFF7A0C792D752E02FDD7
:10026B001257C71265A47B017A007977E4F52E7DCE
:10027B00021257C70257BC7BFF7A0C793CE4F52E70
:10028B007D011257C71268857BFF7A0B795C025789
:10029B00C27BFF7A0C795CE4F52E7D011257C712F5
:1002AB0068B77BFF7A0B795C0257C27BFF7A0C79BC
:1002BB007E752E047D011257C7E4900391F09000D8
:1002CB00E204F0E490021FF09000DBF090024DF09E
:1002DB009003967406F0E4A3F0A3F0A3F0A3F0A3AD
:1002EB00F0A3F0A3F090009D04F0900376F0227B36
:1002FB00FF7A0C798A752E027D011257C77BFF7A24
:10030B000C799AE4F52E7D020257C77BFF7A0C79A4
:10031B00AC752E047D011257C790037BE0FF126A68
:10032B009F7BFF7A1179C20257C27BFF7A0C79BC93
:10033B00752E047D011257C712619C1267E87BFF73
:10034B007A0C79E00257C27BFF7A0D7901752E0288
:10035B007D011257C77BFF7A0D7911752E027D0235
:10036B001257C77BFF7A0D7923752E027D03025737
:10037B00C77BFF7A0C79BC752E047D011257C77BA6
:10038B00FF7A0C79CB1257C202619C7BFF7A0D79F5
:10039B0032E4F52E7D011257C77BFF7A0D793F12A0
:1003AB0057C20268539002207402F0900379F090C8
:1003BB00027AF07BFF7A0D7951E4F52E7D0112570D
:1003CB00C77B007A007942752E047D011257C77BDB
:1003DB00FF7A0D7956E4F52E7D021257C77BFF7A13
:1003EB000D796BE4F52E7D031257C71257BC025BD8
:1003FB00A6E4900372F07BFF7A0D7980F52E7D01D8
:10040B001257C77BFF7A0E79C71257C20263EE7B76
:10041B00FF7A0D79A3752E047D011257C77BFF7AE6
:10042B000D79BE752E047D031257C70265027BFF43
:10043B007A0D79CB752E047D011257C7126B2902E9
:10044B0057BC7BFF7A0D79D5752E047D011257C7EA
:10045B00126B480257BC7BFF7A0D79DF752E047D3A
:10046B00011257C71265EC0257BC7BFF7A0D79EB73
:10047B00E4F52E7D011257C77BFF7A0D79FDE4F56C
:10048B002E7D021257C79000E27401F0E490021F18
:10049B00F090027A04F0E49000DBF0900391F0907E
:1004AB00039604F0E4A3F0A3F0A3F0A3F0A3F0A34E
:1004BB00F0A3F090009D04F0229002207403F090C2
:1004CB00037914F07BFF7A0D7951E4F52E7D01123F
:1004DB0057C77B007A007942752E047D011257C7EE
:1004EB007BFF7A0D7956E4F52E7D021257C77BFF01
:1004FB007A0D796BE4F52E7D031257C71257BC02A8
:10050B005C3A7BFF7A0E7926E4F52E7D021257C7F3
:10051B007BFF7A0E7916E4F52E7D031257C77BFF0E
:10052B007A0E79C70257C29002207401F0900379BA
:10053B0004F07BFF7A0D7951E4F52E7D011257C73C
:10054B007B007A007942752E047D011257C77BFF21
:10055B007A0D7956E4F52E7D021257C77BFF7A0D83
:10056B00796BE4F52E7D031257C71257BC90027AB4
:10057B007403F0025CCE7BFF7A0E7926E4F52E7DB8
:10058B00011257C77BFF7A0E7954E4F52E7D0212C8
:10059B0057C77BFF7A0E7966E4F52E7D031257C79A
:1005AB007BFF7A0E797B0257C27BFF7A0E7990E440
:1005BB00F52E7D011257C77BFF7A0E7911E4F52ECC
:1005CB007D021257C77BFF7A0E79A5E4F52E7D03CA
:1005DB001257C77B017A037980752E047D0212575F
:1005EB00C77BFF7A0E79C71257C202609C7BFF7ADA
:1005FB000F7934E4F52E7D011257C77BFF7A0F7903
:10060B0049E4F52E7D021257C77BFF7A0F790BE475
:10061B00F52E7D031257C77BFF7A0E79C70257C29F
:10062B007BFF7A0E79E3E4F52E7D011257C77BFF32
:10063B007A0E79F7E4F52E7D021257C77BFF7A0FFE
:10064B007920E4F52E7D031257C77BFF7A0E79C70D
:10065B000257C27BFF7A0F795CE4F52E7D011257AE
:10066B00C7900276E06401702B7BFF7A0C796E7574
:10067B002E0A7D011257C790005F7401F09000AAFB
:10068B00E075F01FA424F4F9740035F0FA7B011225
:10069B0057C280357BFF7A0C7975752E0A7D011256
:1006AB0057C7900262E090005FF09000E3E0243BBC
:1006BB00F582E43402F583E075F01FA424F4F97499
:1006CB000035F0FA7B011257C27BFF7A0F7970E489
:1006DB00F52E7D021257C77BFF7A0F7980E4F52E3A
:1006EB007D031257C7026AE67BFF7A107918E4F58F
:1006FB002E7D011257C71268E97BFF7A1179C2026E
:10070B0057C27BFF7A10792CE4F52E7D011257C767
:10071B001264527BFF7A1179C20257C27BFF7A10A7
:10072B007955E4F52E7D011257C77BFF7A1079635B
:10073B00752E0D7D011257C77B017A027926752E16
:10074B00037D021257C77BFF7A10796BE4F52E7D80
:10075B00031257C77BFF7A0E79450257C27BFF7A8C
:10076B00107939E4F52E7D011257C77BFF7A10798A
:10077B0063752E087D011257C77B017A02792675A6
:10078B002E037D021257C77BFF7A10796BE4F52E8F
:10079B007D031257C77BFF7A0E79450257C27BFF49
:1007AB007A10794DE4F52E7D011257C77BFF7A1035
:1007BB007963752E087D011257C77B017A02792662
:1007CB00752E037D021257C77BFF7A10796BE4F508
:1007DB002E7D031257C77BFF7A0E79450257C290C5
:1007EB0000E67402F0E4F52874262528F582E4343B
:1007FB0002F5837420F00528E528B411EB7BFF7A12
:10080B0010797EE4F52E7D011257C77B017A0079B2
:10081B0077E4F52E7D021257C77BFF7A1079C6E479
:10082B00F52E7D031257C77BFF7A10798D0257C2C5
:10083B007BFF7A107940E4F52E7D011257C77BFFC1
:10084B007A117928E4F52E7D021257C77BFF7A0EB9
:10085B007936E4F52E7D030257C77BFF7A11793D7C
:10086B00E4F52E7D011257C77BFF7A0B791FE4F558
:10087B002E7D031257C77BFF7A0B795C1257C2028E
:10088B006A7A7BFF7A107939E4F52E7D011257C70E
:10089B007BFF7A117952E4F52E7D021257C77BFF4D
:1008AB007A0E7936E4F52E7D030257C77BFF7A115A
:1008BB0079D6E4F52E7D011257C77B017A0079BDFD
:1008CB00E4F52E7D021257C77BFF7A1179E7E4F529
:1008DB002E7D031257C77BFF7A0E79450257C290C4
:1008EB0000E67401F0E4F52874652528F582E434FC
:1008FB0002F5837420F00528E528B411EB7BFF7A11
:10090B000C792DE4F52E7D011257C77B017A007906
:10091B0077E4F52E7D021257C77BFF7A1079C6E478
:10092B00F52E7D031257C77BFF7A10798D0257C2C4
:10093B007BFF7A10794DE4F52E7D011257C77BFFB3
:10094B007A117978E4F52E7D021257C77BFF7A0E68
:10095B007936E4F52E7D030257C79002207404F01C
:10096B007BFF7A0D7951E4F52E7D011257C77B0180
:10097B007A0079BD752E047D011257C77BFF7A0D66
:10098B007956E4F52E7D021257C77BFF7A0D796BF2
:10099B00E4F52E7D031257C77BFF7A0B797C125738
:1009AB00C2025D627BFF7A0E7990E4F52E7D011217
:1009BB0057C77BFF7A0E7911E4F52E7D021257C7CC
:1009CB00900377E0D39400400E7B017A0379807516
:1009DB002E047D021257C77BFF7A0E79BAE4F52EEF
:1009EB007D031257C77BFF7A0E79C71257C2025D80
:1009FB00F67BFF7A0F79A2E4F52E7D011257C77BA8
:100A0B00FF7A0C79CB1257C2026A2A7BFF7A0C79D8
:100A1B008A752E027D011257C77BFF7A0E79C7E4C8
:100A2B00F52E7D020257C77BFF7A1179A0752E0434
:100A3B007D011257C79000E1E0FF126A9F7BFF7A9E
:100A4B001179C20257C27BFF7A0C797E752E047D19
:100A5B00011257C7E4900391F09000E27406F0E4A2
:100A6B0090021FF090027E7402F0E49000DBF09095
:100A7B0003967415F0A37423F0A3742FF0A3742AB8
:100A8B00F0A304F0A37424F0E4A3F0A3F0A3F0907C
:100A9B00009D04F0900376F0227BFF7A0E7911E42F
:100AAB00F52E7D011257C77B017A037980752E04D1
:100ABB007D011257C77BFF7A0D7956E4F52E7D0227
:100ACB001257C77BFF7A0D796BE4F52E7D03125716
:100ADB00C77BFF7A0E79C71257C2025B097BFF7A7D
:100AEB000F79B0E4F52E7D011257C77BFF7A0E7993
:100AFB00D2E4F52E7D021257C77BFF7A0F79C4E43F
:100B0B00F52E7D031257C77BFF7A0F79D41257C28C
:100B1B0022487A0053323A496E63726D6E745333C6
:100B2B003A446563726D6E740053454C45435420D3
:100B3B00572F4C2050524F544F434F4C3A00424C7E
:100B4B0055455F544F4F5448005A49475F424545FE
:100B5B000053343A20534156452026204E455854D5
:100B6B000053353A20534156452026204E455854C4
:100B7B000053353A205341564520262053454E44C9
:100B8B000053454C45435420424155442D5241544A
:100B9B0045203A00393630300031393230300033AD
:100BAB0038343030004D53472053454E54004D538D
:100BBB004720524356440053323A2053484F572054
:100BCB0052435644204D53470041434B2053454E0F
:100BDB00540041434B20524356440053454C45432C
:100BEB0054205041524954593A004F444400455601
:100BFB00454E004E4F4E45004254204D4F44554CF0
:100C0B00452050524553454E43453A0044455445C3
:100C1B0043544544004E4F545F444554454354455B
:100C2B0044004544495420444556204E414D453AD5
:100C3B000053454C2044455620434F4E4E204D4FBC
:100C4B0044453A004D415354455200534C4156458F
:100C5B000053454C20425420434F4E4E204D4F44A1
:100C6B00453A0053494E474C45004D554C5449505D
:100C7B004C45005343414E4E494E472E2E2E004EAF
:100C8B004F2044455649434520464F554E4400534B
:100C9B00323A5363616E2053333A436F6E66696722
:100CAB000042542044455620444554454354454442
:100CBB000042542053454C454354204445563A007A
:100CCB0053323A436F6E6E6563742053333A496700
:100CDB006E6F72650053323A436F6E6E53333A49FF
:100CEB00676E7253343A4E787400436F6E6E2043C6
:100CFB006F756E743A00546F6F20466577204465AC
:100D0B007620666F72004D756C74694D6F6465204B
:100D1B00425420436F6E6E0053323A526574205327
:100D2B00333A457869740053454C45435420534C32
:100D3B004156450053323A53454C454354205333A7
:100D4B003A4E45585400462F4E3A003A2020202068
:100D5B0020202020203A202020202020202020008E
:100D6B004C333A2020204C343A2020204652455117
:100D7B003A202020004552524F523A204D65737352
:100D8B00616765004E4F2041434B20524356440050
:100D9B0054494D454F5554004C4544332053544111
:100DAB005455533A004F6E004F6E004F6666004F1E
:100DBB006666004C454434205354415455533A0015
:100DCB004D455353414745313A004D4553534147E8
:100DDB0045323A004652455120434F554E543A0046
:100DEB0041574149545320434F4E4E454354494F6D
:100DFB004E002E20202E20202E20202E20202E2094
:100E0B00202E20202E0053464E3A0053333A4449AD
:100E1B0053434F4E4E454354203F0053323A5345B4
:100E2B00452052435644204D53470053343A5945BD
:100E3B005320202053353A4E4F0053343A4E4F2017
:100E4B00202053353A5945530053333A53454C20E0
:100E5B004F54485220534C4156450053343A444961
:100E6B0053434F4E204355525220534C415645004D
:100E7B0053353A444953434F4E4E20414C4C20532B
:100E8B004C41564500422F523A2020202020202052
:100E9B002020503A2020202020004C494E4B514C12
:100EAB0054593A20202020525353493A20200052C3
:100EBB005353493A2020202064426D0053343A208A
:100ECB0052455455524E0053333A42726F6164632C
:100EDB006173742074782E004254204D554C544944
:100EEB0020434F4E4E204552524F520041746C6579
:100EFB006173742074776F20646576696365730022
:100F0B006E6565647320746F20626520646574651B
:100F1B0063746564006E65656420746F2062652080
:100F2B0064657465637465640042542053494E478D
:100F3B004C4520434F4E4E204552524F5200417468
:100F4B006C65617374206F6E65206465766963658B
:100F5B0000434F4E4E204D4F44453A202020202039
:100F6B00202020200044455649434520434F554EF1
:100F7B00543A20200043555252454E5420434F4E75
:100F8B004E3A0057616E7420746F206473637672EF
:100F9B00206E6F64653F0053454C454354204E4FC4
:100FAB004445203A0053323A53656C2064657374A0
:100FBB0069206465766963650053343A44697363E9
:100FCB006F6E6E656374203F0053353A2052455463
:100FDB0055524E0054696D656F75742C636865636B
:100FEB006B2042544D3F0054696D656F75742C63D3
:100FFB006865636B205A424D3F0042542072657402
:10100B0075726E6564206572726F7221005A422090
:10101B004D4F44554C452050524553454E43453A50
:10102B00005A422044455620545950453A00524FDD
:10103B005554455200434F2D4F5244494E41544F46
:10104B005200454E442D44455600434F2D4F5244BC
:10105B00494E41544F523A0050414E2D49443A00AB
:10106B0057616E7420746F206368616E67652049E9
:10107B00443F004348414E47452050414E20494490
:10108B003A0053353A204150504C59204348414E79
:10109B004745005A42204241554420524154450095
:1010AB0044454641554C542042443A393630300081
:1010BB004348414E47452042443A0053323A496E29
:1010CB006353333A44656353343A4D4F564500539B
:1010DB00343A4150504C5920202053353A204E4F32
:1010EB00005A4220504152495459004445464155FB
:1010FB004C54205041524954593A204E4F4E4500C2
:10110B004E4F4E45004556454E004F444400434814
:10111B00414E4745205041524954593A005343419F
:10112B004E20464F52204E4557204E455457524B5A
:10113B003F0053454C204E4F204F462043482054F0
:10114B004F205343414E005343414E20464F5220B4
:10115B004E455720434F4E4E203F0053343A2043C9
:10116B004F4E4E20544F2046495253540053434147
:10117B004E20464F52204E455720434F4E4E203F58
:10118B000053454C4543542044455354494E415418
:10119B00494F4E3A004E4F44452044455445435425
:1011AB004544203A005334203A2053484F57204DA2
:1011BB00455353414745005334203A204E4558542C
:1011CB00004D534720535441543A005A4220444552
:1011DB0056494345204E414D45203A0057616E74A8
:1011EB0020746F206368616E6765206E616D653F6B
:1011FB000000C0C101C30302C2C60607C705C5C4B0
:10120B0004CC0C0DCD0FCFCE0E0ACACB0BC90908DF
:10121B00C8D81819D91BDBDA1A1EDEDF1FDD1D1C1F
:10122B00DC14D4D515D71716D6D21213D311D1D0AF
:10123B0010F03031F133F3F23236F6F737F535344F
:10124B00F43CFCFD3DFF3F3EFEFA3A3BFB39F9F81F
:10125B003828E8E929EB2B2AEAEE2E2FEF2DEDECBF
:10126B002CE42425E527E7E62622E2E323E12120EF
:10127B00E0A06061A163A3A26266A6A767A56564EF
:10128B00A46CACAD6DAF6F6EAEAA6A6BAB69A9A85F
:10129B006878B8B979BB7B7ABABE7E7FBF7DBDBC9F
:1012AB007CB47475B577B7B67672B2B373B171702F
:1012BB00B05090915193535292965657975595948F
:1012CB00549C5C5D9D5F9F9E5E5A9A9B5B9959589F
:1012DB0098884849894B8B8A4A4E8E8F4F8D4D4C3F
:1012EB008C4484854587474686824243834181806F
:1012FB004000C0C101C30302C2C60607C705C5C46F
:10130B0004CC0C0DCD0FCFCE0E0ACACB0BC90908DE
:10131B00C8D81819D91BDBDA1A1EDEDF1FDD1D1C1E
:10132B00DC14D4D515D71716D6D21213D311D1D0AE
:10133B0010F03031F133F3F23236F6F737F535344E
:10134B00F43CFCFD3DFF3F3EFEFA3A3BFB39F9F81E
:10135B003828E8E929EB2B2AEAEE2E2FEF2DEDECBE
:10136B002CE42425E527E7E62622E2E323E12120EE
:10137B00E0A06061A163A3A26266A6A767A56564EE
:10138B00A46CACAD6DAF6F6EAEAA6A6BAB69A9A85E
:10139B006878B8B979BB7B7ABABE7E7FBF7DBDBC9E
:1013AB007CB47475B577B7B67672B2B373B171702E
:1013BB00B05090915193535292965657975595948E
:1013CB00549C5C5D9D5F9F9E5E5A9A9B5B9959589E
:1013DB0098884849894B8B8A4A4E8E8F4F8D4D4C3E
:1013EB008C4484854587474686824243834181806E
:1013FB0040EF8EF012437C151E00361533003E1560
:10140B003C003F1545004015480041158300481529
:10141B0095004915A7004A161E00521630005316A8
:10142B004200541649006616500067165700721694
:10143B00AC007A1729007B1740007C1757008417E4
:10144B005E00851765008E1798008F17C0009818DF
:10145B00340099184C00A2185300A3185A00A41872
:10146B006100A5187200A6187900A7188000A818AB
:10147B008700AE18BF00B718D100B818E300B91930
:10148B001B00C0191E00C1192100C2192400C31969
:10149B005C00CA196500CB196E00CC197100CD190F
:1014AB00A900D719E100DE19E700E819EE00E91AE7
:1014BB003200EA1A3900EB1A4A00EC1A5100ED1A05
:1014CB005800EE1A5F00F21A7200F31AA100F41A18
:1014DB00A400FC1AAB00FD1AB200FE1AB900FF1AE9
:1014EB00CA01001AD101011AD801021ADF01061A2A
:1014FB00F201071AF901081B2D01091B6201121BCE
:10150B0065011C1B6C01261B7301301B8F0216001F
:10151B00001BC390009EE0B401077F3C7E000200DD
:10152B002D7F0A7E0002002D7B017A0079BD0251CE
:10153B00867B017A0079BD025470026B85E49003BF
:10154B0091F09000E27402F0E490021FF09000DB47
:10155B00F090037D7402F09003967405F0A3740170
:10156B00F0E4A3F0A3F0A3F0A3F0A3F0A3F090009A
:10157B009D04F0900376F02290027DE004F0E0D31E
:10158B00940240037401F002688590027DE014F030
:10159B00E0C3940150037402F002688590027DE071
:1015AB00640170349000E27402F0E490021FF0903A
:1015BB0000DBF0900391F09003967413F0A3740486
:1015CB00F0E4A3F0A3F0A3F0A3F0A3F0A3F090003A
:1015DB009D04F0900376F0229000E27402F0E49008
:1015EB00021FF09000A97403F0E49000DBF090036D
:1015FB0091F09003967404F0A37407F0E4A3F0A3A6
:10160B00F0A3F0A3F0A3F0A3F090009D04F09003DF
:10161B0076F022900276E004F0E0D394024003745B
:10162B0001F00268B7900276E014F0E0C394015029
:10163B00037402F00268B77F5A7E0002002D7F50C0
:10164B007E0002002D7F467E0002002D900276E088
:10165B00B4022390037BE0B401077F227E011200CA
:10166B002D90037BE0D3940140077F787E0012001E
:10167B002DE4900262F0900276E064016003021B9D
:10168B00C390037BE070077F187E0112002D90033F
:10169B007BE0C394015003021BC37F8C7E000200CE
:1016AB002D900262E0FF70339000E27402F0E49040
:1016BB00021FF0900391F09000DBF09003967410F2
:1016CB00F0A37409F0E4A3F0A3F0A3F0A3F0A3F04C
:1016DB00A3F090009D04F0900376F0EFD3940050AC
:1016EB0003021BC3EF64047003021BC39000E2747C
:1016FB0001F0E490021FF0900391F09000DBF0906A
:10170B0003967409F0E4A3F0A3F0A3F0A3F0A3F005
:10171B00A3F0A3F090009D04F0900376F0229000CC
:10172B00AAE004F012619C7BFF7A0C79E0E4F52EC1
:10173B007D040257C7900262E0D3940150077F8269
:10174B007E0002002D7F967E0002002D7F787E00AA
:10175B0002002D7F467E0002002D9000E27402F005
:10176B00E490021FF0900391F09000DBF090039651
:10177B007408F0A304F0E4A3F0A3F0A3F0A3F0A388
:10178B00F0A3F090009D04F0900376F02290024DB0
:10179B00E0B40108E4F07F46FE02002D9000AAE0C1
:1017AB0004F090024DE0FF9000AAE0D39F40037439
:1017BB0001F002619C900240E0FF70309000E20467
:1017CB00F0E490021FF0900391F09000DBF0900397
:1017DB00967411F0E4A3F0A3F0A3F0A3F0A3F0A38D
:1017EB00F0A3F090009D04F0900376F0EFD39400FB
:1017FB005003021BC39000E27402F0E490021FF04E
:10180B00900391F09000DBF0900396740AF0A374B0
:10181B0011F0E4A3F0A3F0A3F0A3F0A3F0A3F090D6
:10182B00009D04F0900376F0229000E3E004F0902A
:10183B000262E0FF9000E3E0C39F4002E4F0026825
:10184B00537FF07E0002002D7F2C7E0102002D7F46
:10185B00B47E0002002D12506B90005C7401F0E41A
:10186B00900277F0A3F0227FD27E0002002D7FBE84
:10187B007E0002002D7FC87E0002002D900220E02A
:10188B00B401077FFA7E0012002D900220E0B40213
:10189B00077FA07E0012002D900220E0B4030312FC
:1018AB000029900220E064046003021BC37FD67EF4
:1018BB000102002D90005BE0700404F08005E490C1
:1018CB00005BF002650290005EE0700404F080059E
:1018DB00E490005EF0026502900220E0B401077F05
:1018EB00FA7E0012002D900220E0B402077FA07E4A
:1018FB000012002D900220E0B40303120029900285
:10190B0020E064046003021BC37FD67E0102002D1E
:10191B0002518002546A026B85900220E0B40107E9
:10192B007FFA7E0012002D900220E0B402077FA008
:10193B007E0012002D900220E0B4030312002990C8
:10194B000220E064046003021BC37FD67E01020009
:10195B002D7B017A02794E0251867B017A02794EF8
:10196B00025470026B85900220E0B401077FFA7E6F
:10197B000012002D900220E0B402077FA07E00121F
:10198B00002D900220E0B40303120029900220E006
:10199B0064046003021BC37FD67E0102002D9002FC
:1019AB0020E0B401077FFA7E0012002D900220E0A8
:1019BB00B402077FA07E0012002D900220E0B4033A
:1019CB0003120029900220E064046003021BC37F12
:1019DB00D67E0102002D9003790200267FF07E0057
:1019EB0002002D900276E064016003021BC390009D
:1019FB00E27404F0E490021FF09000DBF090039689
:101A0B00740AF0A3740DF0A3740FF0A314F0E4A305
:101A1B00F0A3F0A3F0A3F090009D04F0E4900391E9
:101A2B00F090037604F0227FB47E0002002D12505A
:101A3B006B90005C7401F0E4900277F0A3F0227FCE
:101A4B00D27E0002002D7FBE7E0002002D7FC87E5D
:101A5B000002002D900377E0D394005003021BC3C8
:101A6B007F127E0202002D9000E27402F0E49002DD
:101A7B001FF0900391F09000DBF0900396740AF046
:101A8B00A304F0E4A3F0A3F0A3F0A3F0A3F0A3F05E
:101A9B0090009D04F0220200297F047E0102002D9C
:101AAB007F2C7E0102002D7FB47E0002002D125090
:101ABB006B90005C7401F0E4900277F0A3F0227F4E
:101ACB00D27E0002002D7FBE7E0002002D7FC87EDD
:101ADB000002002D900377E0D394005003021BC348
:101AEB007F127E0202002D7F967E0002002D900059
:101AFB00E27402F0E490021FF0900391F09000DB8F
:101B0B00F0900396740AF0A37412F0E4A3F0A3F020
:101B1B00A3F0A3F0A3F0A3F090009D04F090037644
:101B2B00F0229000E27402F0E490021FF090039117
:101B3B00F09000DBF0900396740AF0A304F0E4A39A
:101B4B00F0A3F0A3F0A3F0A3F0A3F090009D04F09A
:101B5B0090027A7403F0220200297F507E0002006B
:101B6B002D7F507E0002002D900220E0B401077FF4
:101B7B00FA7E0012002D900220E06402703A7FA0E2
:101B8B00FE02002D900220E0B401077FFA7E0012C6
:101B9B00002D900220E0B402077FA07E0012002DE2
:101BAB00900220E0B40303120029900220E0B40459
:101BBB00077FD67E0112002D22EF8EF012437C2080
:101BCB006000AE209800B720AA00B820BC00B92056
:101BDB00F400C020F700C120FA00C220FD00C32191
:101BEB003500CA213E00CB214700CC214A00CD2134
:101BFB008200D71CB201441D0B014E1DAF01601DAD
:101C0B00B801611DC101621DC401631D32016C1D50
:101C1B0039016D1D5C01741D6501751D6E01761D0D
:101C2B007101771F8C01941E4C019E1E53019F1E48
:101C3B005A01A61E6C01A71E7E01A81FCE01B22061
:101C4B001001BA203F01BB1EC901C61ED001C71E21
:101C5B00D701D01EDE01D11EE501D81EF801D91F18
:101C6B002A01DA1F3101DB1F3801DC1F3F01DD1FA9
:101C7B004601DE1F4D01E41D4E01EE1D5501EF1D0A
:101C8B004001F81D4701F91E0402021E4502031F05
:101C9B0054021621BA021E21CA021F22040220225C
:101CAB00420221000022499000B0E0B401077F0AF4
:101CBB007E0012002D9000B0E0B402077F4A7E0137
:101CCB0012002D900096E0643860030222499003C5
:101CDB0091F09000E27403F0E490021FF09000DBAF
:101CEB00F09003967415F0A3743CF0A37429F0E400
:101CFB00A3F0A3F0A3F0A3F0A3F090009D04F022B7
:101D0B00900371E024FE601114601524026003023D
:101D1B0022497F687E0102002D7FF47E0102002D97
:101D2B007FEA7E0102002D7FFE7E0102002D7F7275
:101D3B007E0102002D7FFE7E0102002D7F727E014F
:101D4B0002002D7FFE7E0102002D7F727E010200BC
:101D5B002D7B017A0279260251867B017A02792644
:101D6B00025470026B85E4900391F09000E27404CE
:101D7B00F0E490021FF090023F04F0E49000DBF0DF
:101D8B009003967415F0A37436F0A3742AF0A30491
:101D9B00F0E4A3F0A3F0A3F0A3F090009D04F09067
:101DAB000376F0227B017A0279650251867B017AF8
:101DBB00027965025470026B85E4900391F09000F8
:101DCB00E27408F0E490021FF09000DBF0900396B1
:101DDB007415F0A3741FF0A37437F0A304F0A304DD
:101DEB00F0A3742AF0A304F0A3743AF0E4A3F090E8
:101DFB00009D04F0900376F022E4900391F09000A4
:101E0B00E27406F0E490021FF090023F7403F0E4DA
:101E1B009000DBF09003967415F0A37437F0A304D5
:101E2B00F0A304F0A3742AF0A304F0E4A3F0A3F04E
:101E3B0090009D04F0900376F0227F5E7E010200FD
:101E4B002D7FA47E0102002D7F687E0102002D9064
:101E5B00027FE004F0E0D3940E40037401F0026AB9
:101E6B007A90027FE014F0E0C394015003740EF0FB
:101E7B00026A7A125287E4900391F09000E27406A2
:101E8B00F0E490021FF090023F7402F090009B145C
:101E9B00F0E49000DBF09003967415F0A37433F02C
:101EAB00A37431F0A37435F0A3742AF0A304F0E407
:101EBB00A3F0A3F090009D04F0900376F0227FA492
:101ECB007E0102002D7FF47E0102002D7FA47E0196
:101EDB0002002D7FEA7E0102002D900377E0D39460
:101EEB000050030222497F127E0202002D9000E275
:101EFB007402F0E490021FF0900391F09000DBF07D
:101F0B009003967415F0A3742EF0E4A3F0A3F0A342
:101F1B00F0A3F0A3F090009D04F0900376F0227FE5
:101F2B00B47E0002002D7F1C7E0202002D7FD27E2C
:101F3B000002002D7FBE7E0002002D7FC87E0002B6
:101F4B00002D7FD67E0102002D900220E0B4010708
:101F5B007FFA7E0012002D900220E0B402077FA0D2
:101F6B007E0012002D900220E0B403031200299092
:101F7B000220E0640460030222497FD67E01020046
:101F8B002DE4900391F09000E27404F0E490021FB2
:101F9B00F090027E04F090023F7404F0E49000DBBA
:101FAB00F09003967415F0A3742FF0A3742AF0A38A
:101FBB0004F0E4A3F0A3F0A3F090009D04F09003D1
:101FCB0076F022E4900391F09000E27404F0E49038
:101FDB00021FF090027E04F090023F7405F0E49033
:101FEB0000DBF09003967415F0A3742FF0A3742A02
:101FFB00F0A304F0E4A3F0A3F0A3F090009D04F091
:10200B00900376F022E4900391F09000E27402F0DA
:10201B00E490021FF09000DBF09003967415F0A390
:10202B007425F0E4A3F0A3F0A3F090009D04F090CE
:10203B000376F0229000E0E0FFB40108E4A3F090F7
:10204B0000E0F0229000AAE004F0E0D39F4003747C
:10205B0001F0026A2A900220E0B401077FFA7E00A9
:10206B0012002D900220E0B402077FA07E00120028
:10207B002D900220E0B40303120029900220E064AB
:10208B000460030222497FD67E0102002D90005B83
:10209B00E0700404F08005E490005BF002650290B0
:1020AB00005EE0700404F08005E490005EF00265D1
:1020BB0002900220E0B401077FFA7E0012002D90FF
:1020CB000220E0B402077FA07E0012002D900220B8
:1020DB00E0B40303120029900220E06404600302C1
:1020EB0022497FD67E0102002D02518002546A02E2
:1020FB006B85900220E0B401077FFA7E0012002D61
:10210B00900220E0B402077FA07E0012002D900207
:10211B0020E0B40303120029900220E06404600362
:10212B000222497FD67E0102002D7B017A02794E75
:10213B000251867B017A02794E025470026B8590B4
:10214B000220E0B401077FFA7E0012002D900220DE
:10215B00E0B402077FA07E0012002D900220E0B4B5
:10216B000303120029900220E06404600302224959
:10217B007FD67E0102002D900220E0B401077FFA8A
:10218B007E0012002D900220E0B402077FA07E009B
:10219B0012002D900220E0B40303120029900220BC
:1021AB00E0640460030222497FD67E0102002DE425
:1021BB009000E1F09000E0F07F867E0102002DE4BC
:1021CB00900391F09000E27404F0E490021FF09001
:1021DB00025A04F0E49000DBF09003967415F0A320
:1021EB007417F0A304F0A37429F0E4A3F0A3F09008
:1021FB00009D04F0900376F022E4900391F09000A0
:10220B00E27403F0E490021FF090009B7402F090D4
:10221B00023F7406F0E49000DBF09003967415F027
:10222B00A37431F0A3742BF0E4A3F0A3F090009D02
:10223B0004F0900376F0227FD67E0112002D228FC0
:10224B0022E4F523E52212435622D30122DE022299
:10225B00EE04232F05235D0623860723AC0823D921
:10226B000923E70B23F20C23FD0D242B102436112D
:10227B0024641324941424C21524E41724F218257F
:10228B000219251C1A253F21254F23255F24256F75
:10229B0025258E26259E2725AE2925BE2B25CE2C22
:1022AB0025DE2D25EE2E25FE30260E31264E32262E
:1022BB005E3326943526A43726BD3926D93A26ED2A
:1022CB003B27223E0000272F126BE67F5A12663BFC
:1022DB0002272F126BE67F261266407F4612663B63
:1022EB0002272F126BE67F2B1266407F551266403A
:1022FB007F411266407F521266407F541266407FC8
:10230B00431266407F4F1266401F1266407F461293
:10231B0066407F491266407F471266407F2C1266EB
:10232B004002272F126BE67F2B1266407F4212660C
:10233B00407F541266407F491266407F4E126640C2
:10234B007F461266407F4F1266407F3F12663B020C
:10235B00272F126BE67F2B1266407F421266407F5F
:10236B00541266407F491266407F4E1266407F5181
:10237B001266407F3F12663B02272F126BE67F2BC4
:10238B001266407F421266407F541266407F5212A3
:10239B0066400F1266401266407F49126631022773
:1023AB002F126BE67F2B1266407F421266407F54E2
:1023BB001266407F4D1266407F4F1266407F44127B
:1023CB0066400F1266407F2C12664002272F7F2B30
:1023DB0012664012664012663B02272F126BE67F95
:1023EB004412664002272F126BE67F4812664002AA
:1023FB00272F126BE67F2B1266407F421266407FBF
:10240B00541266407F4E1266407F411266407F4DEC
:10241B001266407F451266407F3D12664002272FB1
:10242B00126BE67F4F12664002272F126BE67F2B53
:10243B001266407F4D1266407F551266407F4C12EC
:10244B0066407F541266407F491266407F2C1266AD
:10245B00407F3012663B02272F126BE67F2B1266F2
:10246B00407F421266407F541266407F5212664094
:10247B000F1266401266407F491266407F2C12662F
:10248B00407F3012663B02272F126BE67F2B1266C2
:10249B00407F4D1266407F551266407F4C1266405E
:1024AB007F541266407F491266407F2C1266407F34
:1024BB003212663B02272F126BE67F531266407F68
:1024CB00331266401266407F3D1266407F311266C2
:1024DB00407F3512663B02272F7F2B126640126618
:1024EB004012664002272F126BE67F521266407F26
:1024FB004512663B02272F126BE67F441266407F24
:10250B00481266407F201266407F3012663B0227DE
:10251B002F126BE67F441266407F4C1266407F2081
:10252B001266407F46126640126640126640126683
:10253B003B02272F126BE67F4E1266407F491266D5
:10254B004002272F126BE67F491266407F441266CA
:10255B004002272F126BE67F421266407F481266BD
:10256B003B02272F126BE67F4E1266407F5412669A
:10257B00407F201266407F331266407F4312663BDA
:10258B0002272F126BE67F4E1266407F4412663B8A
:10259B0002272F126BE67F441266407F4E12664075
:1025AB0002272F126BE67F421266407F4412664071
:1025BB0002272F126BE67F431266407F4E12663B5B
:1025CB0002272F126BE67F571266407F5212663B33
:1025DB0002272F126BE67F411266407F4312663B48
:1025EB0002272F126BE67F4E1266407F4212664027
:1025FB0002272F126BE67F441266407F4212663B26
:10260B0002272F126BE67F431266407F54126640FF
:10261B007F2012664090027EE0B4010CE4F07F3123
:10262B001266407F4512664090027EE0B4020CE4D5
:10263B00F07F331266407F431266407F0D12664077
:10264B0002272F126BE67F561266407F5212663BB3
:10265B0002272F126BE67F5A1266407F5312664099
:10266B007F2012664090009BE0B40107E4F07F30BE
:10267B0012664090009BE0B40207E4F07F311266D3
:10268B00407F0D12664002272F126BE67F531266B6
:10269B00407F4312664002272F126BE67F53126670
:1026AB00407F441266407F201266407F3512663BA6
:1026BB008072126BE67F4E1266407F4A1266407F35
:1026CB00201266407F4612664012663B8056126BA4
:1026DB00E67F441266407F351266407F20126636D5
:1026EB008042126BE67F4C1266407F541266407F2D
:1026FB0020126640900371E0B4010C7F36126640E5
:10270B007F3412664080097F331266401F12664089
:10271B007F0D126640800D126BE67F531266407F71
:10272B004D126636E4900277F0A3F0900280F090A1
:10273B00009AF0752301E52264066023E5226410FC
:10274B00601DE52264146017E52264266011E52202
:10275B006427600B9003947401F0E4900094F0AF45
:10276B0023221249651256F1126B08126B67900007
:10277B00A07401F0900374F0126681E49000DCF019
:10278B00A3F09000DDE004F070069000DCE004F0B4
:10279B009000DCE07004A3E064C870E6C2B6E4907D
:1027AB0000DCF0A3F0E49000DEF0A3F09000DFE09B
:1027BB0004F070069000DEE004F09000DEE0B42739
:1027CB00EBA3E0B410E69000DDE004F0700690009F
:1027DB00DCE004F09000DCE07004A3E0641470C54E
:1027EB00D2B67F0A7E0012002DD2AF90008FE0B4DC
:1027FB00010D900050E0FF9000A7E0FD12000E903D
:10280B000065E07004A3E064D2701D9000AEE0B4EC
:10281B0001161265EC7BFF7A0B796CE4F52E7D04C7
:10282B001257C7E49000AEF0123A55900060EEF0EC
:10283B00A3EFF04E6003124C52900065E0FEA3E054
:10284B00FF900063E06E7003A3E06F600B9000637A
:10285B00EEF0A3EFF012002D90009CE0B4010FE41A
:10286B00F0FB7A007953900046E0FD126AC39000AA
:10287B009DE0B4010C9000E2E0D3940040031235CC
:10288B001F90009FE064016003022A6D90027AE0C2
:10289B006401705590027DE06402704D20B74A9040
:1028AB0000DCF0A3F0E49000DEF0A3F09000DFE09A
:1028BB0004F070069000DEE004F09000DEE0B40758
:1028CB00EBA3E0B4D0E69000DDE004F070069000DE
:1028DB00DCE004F09000DCE07004A3E0640A70C557
:1028EB0020B70690027A12002690027AE06402600A
:1028FB0003022A1120B703022A11D2B79000DCF091
:10290B00A3F0E49000DEF0A3F09000DFE004F070A1
:10291B00069000DEE004F09000DEE0B407EBA3E0ED
:10292B00B4D0E69000DDE004F070069000DCE0042B
:10293B00F09000DCE07004A3E0640A70C520B703DC
:10294B00022A11E490027AF090027DE06402704F4B
:10295B00C2B69000DCF0A3F0E49000DEF0A3F090A0
:10296B0000DFE004F070069000DEE004F09000DE83
:10297B00E0B427EBA3E0B410E69000DDE004F070C8
:10298B00069000DCE004F09000DCE07004A3E0644F
:10299B001470C51266757F0A7E0012002D80679039
:1029AB00037BE0D394014010900276E0B402097FE0
:1029BB00787E0012002D804EC2B6E49000DCF0A3AE
:1029CB00F0E49000DEF0A3F09000DFE004F070067E
:1029DB009000DEE004F09000DEE0B427EBA3E0B45F
:1029EB0010E69000DDE004F070069000DCE004F0EF
:1029FB009000DCE07004A3E0641470C51266757F70
:102A0B000A7E0012002D90027AE06403705430B7F6
:102A1B0051D2B79000DCF0A3F0E49000DEF0A3F00D
:102A2B009000DFE004F070069000DEE004F0900010
:102A3B00DEE0B407EBA3E0B4D0E69000DDE004F0F9
:102A4B0070069000DCE004F09000DCE07004A3E082
:102A5B00640A70C530B70BE490027AF07F14FE1253
:102A6B00002D900391E0B4010A900376E0B40103CA
:102A7B0012324D90009FE064016003022B25D3902E
:102A8B000278E09410900277E09400405BE4F0A3AE
:102A9B00F090023AE0B4012790009AE0C394014011
:102AAB001E126292EF700C7F061243A9E4900395FD
:102ABB00F080129003957401F0900391F0800690D2
:102ACB0003957401F0E490021FF090023AF090032A
:102ADB009104F09000DB7414F0E490009DF09000F2
:102AEB005CF0900277F0A3F0900065E07004A3E037
:102AFB00645A7026900277E0FEA3E0FFE4FCFDFB36
:102B0B007A007983F528752902125F977B007A008A
:102B1B007983752E0F7D011257C790009FE06402D9
:102B2B00706C900065E064017004A3E064B8605EB3
:102B3B00D3900278E09406900277E09400404FE443
:102B4B00F0A3F090023AE0B401189000E0E0D394C7
:102B5B0000400FE490023AF090021FF0900395F0C2
:102B6B00800B9003957401F0E490023AF090021FF1
:102B7B007405F09000DB7414F09003917401F0E491
:102B8B0090009DF090005CF0900277F0A3F0900322
:102B9B0072E0FFB40120D3900278E0940B9002779F
:102BAB00E094004011EFB4010D9003A07402F07F8C
:102BBB00AA7E0012002D900239E0B40117E4F090C8
:102BCB00005CE0B4010E900278E004F07006900215
:102BDB0077E004F0900394E0640170329003A0E07E
:102BEB006403702A90009FE0B40123E49003A0F0EB
:102BFB0090009EE070127F32FE12002DE490009D3B
:102C0B00F0900394F00227F61263EE0227F690037E
:102C1B0094E0640160030227F690005DE0640360BA
:102C2B00030227F690009FE0640260030227F690F0
:102C3B00005DF09000B0E0B401137F407E01120004
:102C4B002DE490009DF0900394F00227F67BFF7A21
:102C5B000F79F2E4F52E7D041257C70227F6AD0764
:102C6B00AC0612694CED8EF012437C2D36000A2D0A
:102C7B004100142D4C001E2D5700322D5E003C2DB3
:102C8B007E00462D8900502D9400642D9D006E2DE5
:102C9B00A400782DAF00822DB8008C2DC100962D8D
:102CAB00CA00A02DDD00AA2DE400B42DEF00BE2E2E
:102CBB000F00C82E2F00D22E3600DC2E3D00E62E44
:102CCB005000F02E5B00FA2E6E01042E7B010E2EAF
:102CDB008201182E8901222E90012C2E9701402E55
:102CEB009E014A2F1D015E2EA901682EB201722F83
:102CFB004401902ED2019A2EED01A42F4B01AE2F41
:102D0B005201B82EF801C22F0101CC2F0A01D62F88
:102D1B003D01E02EE401EA2EDB01F42F6F01FE2FC3
:102D2B005B02122F62021C00002F77900088740147
:102D3B00F0A3F0A3F0229000887401F0A3F0A3F0AD
:102D4B00229000887401F0A3F0A3F02290008A7403
:102D5B0001F0229000887401F0A3F0A3F0A3F0908F
:102D6B000090F0E4900092F0A3740FF090008F7439
:102D7B0001F0229000887401F0A3F0A3F0229000E0
:102D8B00887401F0A3F0A3F0229000887401F0A3E3
:102D9B00F02290008A7401F0229000887401F0A355
:102DAB00F0A3F0229000887401F0A3F02290008829
:102DBB007401F0A3F0229000887401F0A3F022902C
:102DCB0000887401F0A3F0A3F0A3F0A3F0A3F0A389
:102DDB00F02290008A7401F0229000897401F0A314
:102DEB00F0A3F0229000887401F0A3F0A3F0A3F0FD
:102DFB00900090F0E4900092F0A37407F090008F95
:102E0B007401F0229000887401F0A3F0A3F0A3F0FA
:102E1B00900090F0E4900092F0A37407F090008F74
:102E2B007401F02290008B7401F0229000887401E1
:102E3B00F0229000887401F0A3F0A3F0A3F0A3F0AC
:102E4B00A3F0A3F0229000887401F0A3F0A3F0226A
:102E5B009000887401F0A3F0A3F0A3F0A3F0A3F00B
:102E6B00A3F0229000887401F0A3F0A3F0A3F0224A
:102E7B0090008A7401F02290008A7401F022900075
:102E8B008A7401F02290008A7401F02290008A74F7
:102E9B0001F0229000887401F0A3F0A3F0229000BF
:102EAB008A7401F0A3F0229000887401F0A3F0A3C0
:102EBB00F0A3F0900090F0E4900092F0A3740FF068
:102ECB0090008F7401F02290008A7401F0A3F0221D
:102EDB0090008A7401F0A3F02290008A7401F0A391
:102EEB00F0229000887401F0A3F0A3F02290008AE6
:102EFB007401F0A3F02290008A7401F0A3F02290E9
:102F0B0000887401F0A3F0A3F0A3F0A3F0A3F0A347
:102F1B00F0229000887401F0A3F0A3F0A3F09000CE
:102F2B0090F0E4900092F0A37410F090008F740175
:102F3B00F02290008A7401F02290008A7401F02232
:102F4B0090008A7401F0229000887401F0A3F022A3
:102F5B0090008A7401F0229000887401F0A3F0A312
:102F6B00F0A3F02290008A7401F0A3F022752101E6
:102F7B00EF1243562FAA0430140830470B30D40CF1
:102F8B0030760D309B1031CA2131F327310D2931A9
:102F9B003D2E31A835317E3832223C000032439031
:102FAB000375E024FE601704702B7F391266407F97
:102FBB00361266407F3012664012664080177F31B2
:102FCB001266407F391266407F321266407F3012A4
:102FDB0066401266407F2C126640900279E024FE18
:102FEB00601514600B240270137F4E126640800C28
:102FFB007F4F12664080057F451266407F2C12661C
:10300B00407F311266310232439000A9E014601107
:10301B001460151460192403701A7F3012664080F7
:10302B00137F31126640800C7F3212664080057F21
:10303B00331266407F0D126640023243E4F9900072
:10304B00AAE075F01FA424E7F582E5F03400F583C0
:10305B00E58229F582E43583F583E0FF12664009AA
:10306B00B90CDB7F0D126640023243E4F974BD29C3
:10307B00F582E43400F583E0FF64206006126640BD
:10308B000980EA7F0D126640E490039FF002324301
:10309B00E4F99000E3E0243BF582E43402F583E0AD
:1030AB0075F01FA424E7F582E5F03400F583E58283
:1030BB0029F582E43583F583E0FF12664009B90CEC
:1030CB00D17F0D126640023243E4F99000E3E02415
:1030DB003BF582E43402F583E075F01FA424E7F599
:1030EB0082E5F03400F583E58229F582E43583F53A
:1030FB0083E0FF12664009B90CD17F0D12664002C6
:10310B0032437F20126640900375E024FE6010046A
:10311B0070189000A07401F07F33126640800B9002
:10312B0000A07402F07F341266407F0D12664002DD
:10313B0032437F20126640900279E024FE60141423
:10314B00601E240270259003747401F07F301266A8
:10315B004080189003747402F07F31126640800B2C
:10316B009003747403F07F321266407F0D12664039
:10317B000232437F20126640E4F9742629F582E47B
:10318B003402F583E0FF642060061266400980EA92
:10319B007F0D126640E490039FF00232437F2012B2
:1031AB006640E4F9745B29F582E43402F583E0FFB1
:1031BB0060061266400980EC7F0D12664080797FB5
:1031CB0020126640E4F9746529F582E43402F58334
:1031DB00E0FF642060061266400980EA7F0D1266EC
:1031EB0040E490039FF08050E4F99000AAE075F062
:1031FB001FA424F4F582E5F03400F583E58229F56C
:10320B0082E43583F583E0FF60061266400980DABD
:10321B007F0D1266408021E4F9748029F582E43435
:10322B0003F583E0FF600CE9C3941050061266406F
:10323B000980E67F0D126640E4900277F0A3F0AFB1
:10324B002122E4900391F0900376F09003797402BD
:10325B00F09000DBE06414600302351E90021FE067
:10326B002496F582E43403F583E012435632A90128
:10327B0032DC0432E306338B0733030933840E331A
:10328B00921133A01233EF24340E25342D293446FA
:10329B002B33E82E33BA3A341F3B0000351E900314
:1032AB007DE0B40208E4F07F46FE12002D90037D12
:1032BB00E06401600302351EF09000ADF090009EBB
:1032CB0004F0A3E06401600302351E7F32FE0200AE
:1032DB002D7F507E0002002D900395E0700F900221
:1032EB004DE090037BF07F6E7E0002002DE4900397
:1032FB0095F07F64FE02002D900276E0B4010C90F5
:10330B0003A0E070067FA0FE12002D900276E06411
:10331B0002600302351E9003A0E0600302351E908D
:10332B0000AAE0FF900262E0243BF582E43402F550
:10333B0083EFF075F01FEFA42405F582E5F034015F
:10334B00F5837401F0900262E004F01267E87BFFF2
:10335B007A0C79E0E4F52E7D041257C7900262E0F7
:10336B00B404077F967E0012002D12619CEF600360
:10337B0002351E7F96FE02002D7F0E7E0102002D70
:10338B007FDC7E0002002D7FFA7E0012002D900262
:10339B0040E004F022900262E014F0E0D39400408D
:1033AB00077F967E0002002D7F147E0002002D9079
:1033BB000371E0B401077F9A7E0112002D90037117
:1033CB00E0B402077FC27E0112002D900371E0640E
:1033DB0003600302351E7FCC7E0102002D7FE07E51
:1033EB000102002D900395E0700D9000E0E0A3F03A
:1033FB007F907E0102002DE4900395F07FAE7E015D
:10340B0002002D12506B90005C7401F0E490027777
:10341B00F0A3F02290037AE06401600302351E02F0
:10342B0059C612506B90005C7401F0E4900277F077
:10343B00A3F012630AE490025AF02290023FE014C8
:10344B00B40700400302351990345AF82828730248
:10345B00346F0234790234830234B00234B902344B
:10346B00C20234CB7FFE7E0112002D0235197FD6AE
:10347B007E0112002D023519900371E0B401077F14
:10348B009A7E0112002D900371E0B402077FC27E79
:10349B000112002D900371E0640370727FCC7E01EA
:1034AB0012002D80697FB87E0112002D80607FD6BF
:1034BB007E0112002D80577F0A7E0012002D804E58
:1034CB00900375E0FFB401069000A07401F0EFB417
:1034DB0002069000A07402F0900279E0FFB401069E
:1034EB009003747401F0EFB402069003747402F04D
:1034FB00EFB403069003747403F0C2AF126681D26B
:10350B00AF9000B07402F07F407E0112002DE4906A
:10351B00023FF0229000DBE0FF60076414600302BF
:10352B0037C5E490009DF0EFB41405E49000DBF098
:10353B009002427414F09003797401F090021FE032
:10354B002496F582E43403F583E012435635E60105
:10355B0035EE0235F603360304360B053618063600
:10356B002007362D0836350936420A364A0B3657B0
:10357B000D365F0E36780F36801036881136A11255
:10358B0036B41336BC1536C41636E61736EE183677
:10359B00CC1F36D92136F62236FE23370624370EBA
:1035AB0025371B2737282937302A37382B373F2C1D
:1035BB00374B2E37522F3759303760313767333708
:1035CB007335377A36378637378D38379439379B9B
:1035DB003A37A73B37B33C000037B87F01123F2087
:1035EB000237B87F02123F200237B87F04123F2008
:1035FB007F04122F780237B87F05123F200237B8AD
:10360B007F0D123F207F0D122F780237B87F0612E5
:10361B003F200237B87F08123F207F08122F780215
:10362B0037B87F11123F200237B87F0B123F207F34
:10363B000B122F780237B87F09123F200237B87F61
:10364B000C123F207F0D1266400237B87F07123FE6
:10365B00200237B87F10123F207F0D126640900377
:10366B00917401F09000DB7414F00237B87F1312E1
:10367B003F200237B87F14123F200237B87F101259
:10368B003F207F10122F789003917401F09000DB94
:10369B007414F00237B87F0C123F2090037F740133
:1036AB00F07F0C122F780237B87F15123F200237AC
:1036BB00B87F17123F200237B87F18123F2002370E
:1036CB00B87F21123F207F21122F780237B87F233A
:1036DB00123F207F0D1266400237B87F19123F2030
:1036EB000237B87F1A123F200237B87F24123F20CF
:1036FB000237B87F25123F200237B87F26123F20B2
:10370B000237B87F27123F207F27122F780237B856
:10371B007F29123F207F29122F780237B87F2B1277
:10372B003F200237B87F2C123F200237B87F2D1273
:10373B003F2080797F2E123F207F2E122F78806DB5
:10374B007F30123F2080667F31123F20805F7F32B7
:10375B00123F2080587F33123F2080517F35123F1C
:10376B00207F35122F7880457F37123F20803E7F98
:10377B0023123F207F38122F7880327F39123F205F
:10378B00802B7F3A123F2080247F3B123F20801DED
:10379B007F21123F207F0D12664080117F27123F41
:1037AB00207F3C122F7880057F3E123F2090005CDB
:1037BB007401F0E4900277F0A3F022900379E064B7
:1037CB00016003023A0390021FE02496F582E43471
:1037DB0003F583E012435638700138AA0238B2035E
:1037EB0038BA0438C20538CA0638D20738DA08386E
:1037FB00E20938EA0A38F20B38FA0C39080D39109D
:10380B000E39180F39201039281239301339381561
:10381B0039401639481739501839D41F39582139BE
:10382B006022396823397024397825398027398704
:10383B0029398E2A39952B399C2C39A32E39AA2F4D
:10384B0039B13039B83139BF3339C63539CD36395D
:10385B00DB3739E23839E93939F03A39F73B39FE98
:10386B003C00003A039000ADE070087F011259193B
:10387B00023A039000DB7414F09003797401F0E4C6
:10388B009000ADF0900094F0900394F090021F74B0
:10389B0002F090039114F0E490009DF0023A037F44
:1038AB0002125919023A037F04125919023A037F83
:1038BB0005125919023A037F0D125919023A037F67
:1038CB0006125919023A037F08125919023A037F5B
:1038DB0011125919023A037F0B125919023A037F3D
:1038EB0009125919023A037F0C125919023A039023
:1038FB0000E27401F07F12125919023A037F07128A
:10390B005919023A037F10125919023A037F131205
:10391B005919023A037F14125919023A037F0C12F8
:10392B005919023A037F15125919023A037F1712DC
:10393B005919023A037F18125919023A037F1912C7
:10394B005919023A037F1A125919023A037F2312AB
:10395B005919023A037F24125919023A037F25128F
:10396B005919023A037F26125919023A037F27127B
:10397B005919023A037F29125919807C7F2B12594E
:10398B001980757F2C125919806E7F2D1259198051
:10399B00677F2E12591980607F3012591980597F19
:1039AB003112591980527F32125919804B7F3312C1
:1039BB00591980447F35125919803D7F3712591997
:1039CB0080367F38125919802F7F21125919802880
:1039DB007F3912591980217F3A125919801A7F3B6E
:1039EB0012591980137F3D125919800C7F271259D8
:1039FB001980057F3E125919900379E064027049D2
:103A0B00900372E0B401051247D08003123CC190C1
:103A1B0000AFE0B4010312630A9000E5E0B4011FAC
:103A2B00E4F090009FE0B402051267AE80031259D8
:103A3B00C6900372E0B40104E4F08003125F1190AE
:103A4B0000CEE0B40103125F112290037EE07DFEF5
:103A5B0070027DFF7590FFE4FFFE0FBF00010EEFBC
:103A6B0064144E70F5E49000E4F090037EE0703D3A
:103A7B00900087E064017035209032FEFF0FBF008D
:103A8B00010EBE3AF8BF98F5E4FEFF0FBF00010E22
:103A9B00BE3AF8BF98F5E4FEFF0FBF00010EBE3A29
:103AAB00F8BF98F52090069000E47401F090008820
:103ABB00E0B4012220911FE4FEFF0FBF00010EBEF8
:103ACB003AF8BF98F52091069000E47402F020912B
:103ADB00057590FF80F8900089E0B4012220921FB9
:103AEB00E4FEFF0FBF00010EBE3AF8BF98F520921F
:103AFB00069000E47403F02092057590FF80F89017
:103B0B00008AE0B4012220931FE4FEFF0FBF0001E7
:103B1B000EBE3AF8BF98F52093069000E47404F0BB
:103B2B002093057590FF80F890008BE0B401222064
:103B3B00941FE4FEFF0FBF00010EBE3AF8BF98F5CD
:103B4B002094069000E47405F02094057590FF8096
:103B5B00F890008CE0B4012220951FE4FEFF0FBF0C
:103B6B0000010EBE3AF8BF98F52095069000E4745C
:103B7B0006F02095057590FF80F890008DE06401AC
:103B8B006003023C1F30961130970EF53EF53FF562
:103B9B003A753B01F53C753D01209678E53F453E76
:103BAB007072F53A753B01FEFF0FBF00010EBE3A76
:103BBB00F8BF98F5053BE53B7002053A6402453AC0
:103BCB007028E53D6401453C70209000E47407F0DB
:103BDB00053DE53D7002053CE53B153B7002153A92
:103BEB00053FE53F7028053E8024E53B6401453ADF
:103BFB006008E53D6402453C70149000E47405F0E8
:103C0B00753C00753D01053FE53F7002053E209672
:103C1B00037590FF90008EE064016003023CB930A5
:103C2B00971130960EF53EF53FF53A753B01F53C95
:103C3B00753D01209778E53F453E7072F53A753B2F
:103C4B0001FEFF0FBF00010EBE3AF8BF98F5053B12
:103C5B00E53B7002053A6402453A7028E53D640184
:103C6B00453C70209000E47408F0053DE53D700282
:103C7B00053CE53B153B7002153A053FE53F7028C7
:103C8B00053E8024E53B6401453A6008E53D64024E
:103C9B00453C70149000E47405F0753C00753D01D3
:103CAB00053FE53F7002053E2097037590FF90009E
:103CBB00E4E0FF7E0022E4900377F09000B1E0F99E
:103CCB0090005AE0FF2494F8A601EFB42F004003B4
:103CDB00023F1A903CE5F8282873023D72023D839F
:103CEB00023D94023DA5023DB6023DC7023DD802FE
:103CFB003DE9023DFA023E11023E11023E11023E27
:103D0B0011023E11023E11023E11023E11023E1102
:103D1B00023E11023E11023E11023E11023E110201
:103D2B003E11023E11023E32023E32023E32023E52
:103D3B0032023E32023E32023E32023E32023E51ED
:103D4B00023E51023E51023E51023E51023E510291
:103D5B003E51023E51023E6D023E79023E85023ECD
:103D6B0091023EA0023EAFE9B4030790005AE00473
:103D7B00F022E490005AF022E9B4410790005AE097
:103D8B0004F022E490005AF022E9B44E0790005A56
:103D9B00E004F022E490005AF022E9B453079000BB
:103DAB005AE004F022E490005AF022E9B44807905C
:103DBB00005AE004F022E490005AF022E9B45507CF
:103DCB0090005AE004F022E490005AF022E9B44D3E
:103DDB000790005AE004F022E490005AF022E9B474
:103DEB00410790005AE004F022E490005AF022E9D7
:103DFB00B44E0890005AE004F08005E490005AF0AD
:103E0B00E4900062F02290005AE004F0900062E02F
:103E1B002480F582E43403F583E9F0900062E0043A
:103E2B00F0E4900222F02290005AE004F09002227B
:103E3B00E02447F582E43400F583E9F0900222E0B8
:103E4B0004F0E4A3F02290005AE004F0900223E087
:103E5B002451F582E43400F583E9F0900223E00469
:103E6B00F02290005AE004F0900237E9F022900023
:103E7B005AE004F09000A1E9F02290005AE004F01F
:103E8B009000A8E9F02290005AE004F09000B1E015
:103E9B00900225F02290005AE004F09000B1E090DF
:103EAB000373F02290005AE004F09000B1E090030D
:103EBB007CF0E490005AF09000CEF0FB7A007994FD
:103ECB007D2D126739AD07AC06ED4C60067E007F89
:103EDB000180047E007F00EEFF3395E0ED4C7E0009
:103EEB0060027E01900373E0B5071E90037CE0B582
:103EFB000617900225E070069000E504F022E4908E
:103F0B0000E5F09000CE04F022E490005AF022E499
:103F1B0090005AF022E49000ABF0900280F0FEF596
:103F2B002174002521F8E4F20521E521B446F2E4E1
:103F3B00FEE4F521EE75F03CA42481F582E4340215
:103F4B00F583E5822521F582E43583F583E4F005DD
:103F5B0021E521B43CDE0EBE04D790009FE0B401F6
:103F6B00089003937401F080069003937403F0E4BC
:103F7B00F521EF1243564000014009024012044064
:103F8B001B05402406403307403C08404509404E82
:103F9B000B40570C40600D406910407111407A1373
:103FAB00408314408C15409517409E1840A719402C
:103FBB00B01A40B92140C22340CB2440D42540DD68
:103FCB002640EB2740F32940FB2B41032C410B2DC3
:103FDB0041132E411B30412331412B3241333341AD
:103FEB003B35414337414B39415B3A41533B41638D
:103FFB003E0000416990037F7401F0024169900318
:10400B007F7401F002416990037F7401F0024169F2
:10401B0090037F7402F002416990023A7401F090B0
:10402B00037F740FF002416990037F7402F0024129
:10403B006990037F7401F002416990037F7401F072
:10404B0002416990037F7402F002416990037F740F
:10405B0002F002416990037F7401F0024169E49020
:10406B00037FF002416990037F7401F00241699074
:10407B00037F7401F002416990037F7401F00241E8
:10408B006990037F7401F002416990037F7401F022
:10409B0002416990037F7401F002416990037F74C0
:1040AB0001F002416990037F7401F00241699003B2
:1040BB007F7401F002416990037F7401F002416942
:1040CB0090037F7401F002416990037F7401F00249
:1040DB00416990023A7401F090037F7405F0807E81
:1040EB0090037F7401F0807690037F7401F0806EF3
:1040FB0090037F7401F0806690037F7401F0805E03
:10410B0090037F7401F0805690037F7401F0804E12
:10411B0090037F7401F0804690037F7401F0803E22
:10412B0090037F7401F0803690037F7401F0802E32
:10413B0090037F7401F0802690037F7401F0801E42
:10414B0090037F7401F0801690037F7401F0800E52
:10415B0090037F7401F0800690037F7401F0900050
:10416B005C7401F012224A8F2122BB010689828ADC
:10417B0083E0225002E722BBFE02E32289828A837C
:10418B00E49322BB010CE58229F582E5833AF583A2
:10419B00E0225006E92582F8E622BBFE06E92582DD
:1041AB00F8E222E58229F582E5833AF583E493224E
:1041BB00BB010FF8E58229F582E5833AF583E02808
:1041CB00F0225009C58229F8E58226F622BBFE09AA
:1041DB00C58229F8E22582F222F8EA2583F583E9E4
:1041EB00932822F8BB010DE58229F582E5833AF588
:1041FB0083E8F0225006E92582C8F622BBFE05E9CA
:10420B002582C8F222EF8DF0A4A8F0CF8CF0A42861
:10421B00CE8DF0A42EFE22BC000BBE0029EF8DF03C
:10422B0084FFADF022E4CCF875F008EF2FFFEE33EE
:10423B00FEEC33FCEE9DEC984005FCEE9DFE0FD59D
:10424B00F0E9E4CEFD22EDF8F5F0EE8420D21CFE71
:10425B00ADF075F008EF2FFFED33FD4007985006DA
:10426B00D5F0F222C398FD0FD5F0EA2275F0087550
:10427B008200EF2FFFEE33FECD33CDCC33CCC58296
:10428B0033C5829BED9AEC99E58298400CF582EE52
:10429B009BFEED9AFDEC99FC0FD5F0D6E4CEFBE43A
:1042AB00CDFAE4CCF9A88222B800C1B90059BA0002
:1042BB002DEC8BF084CFCECDFCE5F0CBF97818EF5D
:1042CB002FFFEE33FEED33FDEC33FCEB33FB10D75E
:1042DB0003994004EB99FB0FD8E5E4F9FA2278181F
:1042EB00EF2FFFEE33FEED33FDEC33FCC933C9107A
:1042FB00D7059BE99A4007EC9BFCE99AF90FD8E0AC
:10430B00E4C9FAE4CCFB2275F010EF2FFFEE33FE7D
:10431B00ED33FDCC33CCC833C810D7079BEC9AE8F0
:10432B0099400AED9BFDEC9AFCE899F80FD5F0DA71
:10433B00E4CDFBE4CCFAE4C8F922EB9FF5F0EA9E5E
:10434B0042F0E99D42F0E89C45F022D083D082F800
:10435B00E4937012740193700DA3A393F8740193FB
:10436B00F5828883E4737402936860EFA3A3A38040
:10437B00DFD083D082F8E4937012740193700DA395
:10438B00A393F8740193F5828883E473740293B555
:10439B00F0067403936860E9A3A3A3A380D8E4F5A4
:1043AB0021EF124356443201443802443E04444444
:1043BB0005445506446007447108447709447D0B56
:1043CB00448E0C449F0D44A51144AB1244BC1344C2
:1043DB00C21444D31544D91744DF18452119452776
:1043EB001A44E521450623452D25453326453C2713
:1043FB0045422945482B454E2C45532D45582E45B6
:10440B005D30457731457C32459633459B3545A02C
:10441B003745BA3845BF3945C43A45C93B44EB3DEE
:10442B0045CE3E000045D11256240245D1125624EA
:10443B000245D11256240245D17B017A0279819033
:10444B00009AE0FD124F180245D190009AE0FF123E
:10445B006C100245D17B017A02798190009AE0FDC4
:10446B00124DC00245D11256240245D112562402D8
:10447B0045D17B017A02798190009AE0FD12554A71
:10448B000245D17B017A02798190009AE0FD125AA4
:10449B00680245D11256240245D11256240245D149
:1044AB007B017A02798190009AE0FD1264AB0245A0
:1044BB00D11256240245D17B017A02798190009A60
:1044CB00E0FD1265550245D11256240245D1125614
:1044DB00240245D11256240245D11256240245D14D
:1044EB0075250175260275278190009AE0F5287BCA
:1044FB00017A0079BD1256390245D1752501752611
:10450B000275278190009AE0F5287B017A027926C3
:10451B001256390245D11256240245D112562402A5
:10452B0045D11256240245D19000E0E0A3F002459C
:10453B00D11256240245D11256240245D1125624CB
:10454B000245D1125624807E1256248079125624AD
:10455B00807475250175260275278190009AE0F508
:10456B00287B017A0079A2125639805A1256248080
:10457B005575250175260275278190009AE0F5285F
:10458B007B017A007995125639803B12562480367E
:10459B0012562480317525017526027527819000EE
:1045AB009AE0F5287B017A0079951256398017121B
:1045BB0056248012125624800D125624800812564F
:1045CB00248003125624AF2122E4FE9000DBE0602E
:1045DB00030247CD900393E024FE6021146037144F
:1045EB006055240360030247CD9000B1E0640D6079
:1045FB00030247CD9003937402F00247CD9000B1B4
:10460B00E0B40A099003937403F00247CD9003932F
:10461B007401F00247CD9000B1E0FD640D600F9086
:10462B0000ABE02400F8EDF2E004F00247CD90037C
:10463B00937404F00247CD9000B1E0B40A069002E7
:10464B0080E004F0900280E0FD90009AF0EF6406A9
:10465B006003024746EDC3940A4003024729E4FF77
:10466B00FD9000ABE0FCEDC39C502C74002DF8E2E8
:10467B00FC642C6022900280E075F01FA424E7F507
:10468B0082E5F03400F583E5822FF582E43583F57E
:10469B0083ECF00D0F80CA0D900280E075F01FA423
:1046AB0024E7F582E5F03400F583E5822FF582E40B
:1046BB003583F583E4F0FF9000ABE0FCEDC39C5039
:1046CB002C74002DF8E2FC642C6022900280E075C3
:1046DB00F01FA424F4F582E5F03400F583E5822F76
:1046EB00F582E43583F583ECF00D0F80CA0D900253
:1046FB0080E0FD75F01FA424F4F582E5F03400F59D
:10470B0083E5822FF582E43583F583E4F075F01FA2
:10471B00EDA42405F582E5F03401F583E4F0900374
:10472B007FE0FF900280E0C39F40030247CDE490FF
:10473B0000ABF090039304F00247CDE4900241F0FC
:10474B009000ABE0FF900241E0FDC39F502C740042
:10475B002DF8E2FF900280E075F03CA42445F58231
:10476B00E5F03402F583E5822DF582E43583F5839C
:10477B00EFF0900241E004F080C6900280E0FF75FC
:10478B00F03CA42445F582E5F03402F583E5822D57
:10479B00F582E43583F583E4F090037FE0FDEFC30E
:1047AB009D500CE49000ABF090039304F08013EF5A
:1047BB00B5050F9000DB7414F0E490009DF09000B1
:1047CB005CF0AF06229000B1E0FF9000CFE0FE243A
:1047DB00C4F8A607EEB41B00400302495F9047EFF5
:1047EB00F828287302484002485102486202487375
:1047FB000248840248950248A60248B70248C802FC
:10480B0048DF0248DF0248DF0248DF0248DF024888
:10481B00DF0248DF0248DF0248DF0248DF0248DFE1
:10482B000248DF0248DF0248DF0248DF0248DF02AE
:10483B0048FB024907EFB403079000CFE004F022D6
:10484B00E49000CFF022EFB441079000CFE004F0EA
:10485B0022E49000CFF022EFB44E079000CFE0049B
:10486B00F022E49000CFF022EFB453079000CFE09A
:10487B0004F022E49000CFF022EFB448079000CF71
:10488B00E004F022E49000CFF022EFB45507900043
:10489B00CFE004F022E49000CFF022EFB44D07906C
:1048AB0000CFE004F022E49000CFF022EFB44107F8
:1048BB009000CFE004F022E49000CFF022EFB44E52
:1048CB00089000CFE004F08005E49000CFF0E49076
:1048DB000062F0229000CFE004F0900062E02480B0
:1048EB00F582E43403F583EFF0900062E004F022EC
:1048FB009000CFE004F0900373EFF0229000CFE034
:10490B0004F090037CEFF0E49000CFF0FB7A007999
:10491B00C47D19126739AD07AC06ED4C60067E00FD
:10492B007F0180047E007F00EEFF3395E0ED4C7E2F
:10493B000060027E01900373E0B5071290037CE0E8
:10494B00B5060B9000AF7401F0900378F022E49061
:10495B0000CFF022E49000CFF022538EFCE49003C2
:10496B007DF0900260E0900392F0E4900372F0907F
:10497B00025AF0900225F090005AF09000CFF09080
:10498B0000A9F0900277F0A3F09000A6F090023906
:10499B00F090024DF09000CEF090005CF090037818
:1049AB00F09000AFF09000AA04F090009FF0E4901C
:1049BB000379F090039304F0900375F0900279F073
:1049CB0090027DF0E490037BF090027EF09000E18A
:1049DB00F090027604F0E49000ACF0900262F0905C
:1049EB0000E0F090005FF09003A0F090039FF09038
:1049FB00005BF09000E3F090005EF09000E604F0B6
:104A0B00E4900060F0A3F0900240F0900373F090FC
:104A1B00037CF090022004F0E4900377F090037E87
:104A2B00F090037104F090027F740EF0E490005D3F
:104A3B00F09002437441F0A3744EF0A37453F0A3AF
:104A4B007448F0A37455F0A3744DF0A37441F0A314
:104A5B00744EF0E4A3F090024E7445F0A314F0A34F
:104A6B007455F0A314F0A3744FF0A3F0A3744CF09F
:104A7B00A37453F0E4A3F09000477441F0A3744E79
:104A8B00F0A37453F0A37448F0A37455F0A3744DC2
:104A9B00F0A37441F0A3744EF0E4A3F090005174B2
:104AAB0045F0A314F0A37455F0A314F0A3744FF0C6
:104ABB00A3F0A3744CF0A37453F0E4A3F090026141
:104ACB00F090027AF0900094F0900394F0D2B790AB
:104ADB00009BF09000ADF022E4FE9000DBE0600361
:104AEB00024C4F900393E024FD6003024C4F900067
:104AFB00B1E0FD640D600C9000ABE02400F8EDF22A
:104B0B00E004F0ED640D6003024C4F900280E00472
:104B1B00F0E0FD90009AF0EF64266003024BC7EDC6
:104B2B00640470719000E0E004F0E49000DEF0A308
:104B3B00F09000ABE0FD9000DEE0FAA3E0FBC39D3C
:104B4B00EA94005032E02400F8E2FFA3E075F01F76
:104B5B00A424F4F582E5F03400F583E5822BF5828D
:104B6B00E5833AF583EFF09000DFE004F070C2903C
:104B7B0000DEE004F080BA9000E0E075F01FA424A2
:104B8B00F4F582E5F03400F583E5822BF582E583BD
:104B9B003AF583E4F0900280E0B40A02E4F090036B
:104BAB007FE0FF900280E0C39F4003024C4FE490F4
:104BBB0000ABF09003937403F0024C4FE49002416E
:104BCB00F09000ABE0FF900241E0FDC39F502C74CE
:104BDB00002DF8E2FF900280E075F03CA42445F52F
:104BEB0082E5F03402F583E5822DF582E43583F519
:104BFB0083EFF0900241E004F080C6900280E0FF6A
:104C0B0075F03CA42445F582E5F03402F583E5828A
:104C1B002DF582E43583F583E4F090037FE0FDEF1F
:104C2B00C39D500DE49000ABF09003937403F080A0
:104C3B0013EFB5050F9000DB7414F0E490009DF0BA
:104C4B0090005CF0AF0622900060E0FEA3E0FF90C6
:104C5B000066E02FF525900065E03EF52460030229
:104C6B004DAAE5251243564C910C4CA30D4CB50E99
:104C7B004CBC164CCE174CE0184CE7204CF9214D90
:104C8B000B2200004DAA90009FE004F0E0D39402A9
:104C9B0040037401F00269D590009FE014F0E0C36B
:104CAB00940150037402F00269D57F147E00020058
:104CBB002D900375E004F0E0D3940240037401F0EF
:104CCB00026774900375E014F0E0C3940150037411
:104CDB0002F00267747F1E7E0002002D900279E0C5
:104CEB0004F0E0D3940340037401F00266F89002E1
:104CFB0079E014F0E0C3940150037403F00266F8FA
:104D0B0090009FE0640170439000E27403F0E49024
:104D1B000391F090021FF090037D04F0E49000DB10
:104D2B00F090009EF09003967402F0A304F0A3742D
:104D3B0001F0E4A3F0A3F0A3F0A3F0A3F090009D87
:104D4B0004F0900376F09000ADF0229000E274092D
:104D5B00F0E4900391F090021FF090027E04F0902B
:104D6B00023F7407F0E49000DBF09000B004F09089
:104D7B0003967415F0A3742FF0A37427F0A3742C6F
:104D8B00F0A3743AF0A37421F0A37430F0A3742A47
:104D9B00F0A304F090009D7401F0900376F0229044
:104DAB00009FE0B40107AF25AE240213FCAF25AE84
:104DBB0024121BC4228B228A2389248D25E4F528F7
:104DCB00F526E526C395254003024F17E526703CD3
:104DDB00F527E528C394024003024F12E52675F030
:104DEB003CA4AB222524F9E52335F0FA7E00E92516
:104DFB0028F9EE3AFA124175FF74572527F582E42C
:104E0B003402F583EFF00528052780C6E4F527F576
:104E1B0028E52675F03CA4AB222524F9E52335F0D3
:104E2B00FA7E00E92528F9EE3AFA124175FF642C57
:104E3B00600D74832527F8A6070528052780D20562
:104E4B002874832527F8E4F6F527E52675F03CA4AE
:104E5B00AB222524F9E52335F0FA7E00E92528F964
:104E6B00EE3AFA124175FF642C601374A22527F5F4
:104E7B0082E43400F583EFF00528052780CC052864
:104E8B0074A22527F582E43400F583E4F0F527E5D9
:104E9B002675F03CA4AB222524F9E52335F0FA7EE8
:104EAB0000E92528F9EE3AFA124175FF642C600DE2
:104EBB0074832527F8A6070528052780D2052874B3
:104ECB00832527F8E4F6F527E52675F03CA4AB22FD
:104EDB002524F9E52335F0FA7E00E92528F9EE3A89
:104EEB00FA124175FF6013747B2527F582E43402B7
:104EFB00F583EFF00528052780CE747B2527F582F7
:104F0B00E43402F583E4F00526024DCD228B228A90
:104F1B002389248D25E4F528F526E526C395254020
:104F2B000302506AE526600302501AF528F527E5BF
:104F3B002675F03CA4AB222524F9E52335F0FA7E47
:104F4B0000E92528F9EE3AFA124175FF642C600D41
:104F5B0074832527F8A6070527052880D205287412
:104F6B00832527F8E4F6F527E52675F03CA4AB225C
:104F7B002524F9E52335F0FA7E00E92528F9EE3AE8
:104F8B00FA124175FF642C600D74422527F8A607B1
:104F9B000528052780D2052874422527F8E4F6F565
:104FAB0027E52675F03CA4AB222524F9E52335F043
:104FBB00FA7E00E92528F9EE3AFA124175FF642CC6
:104FCB00600D74832527F8A6070528052780D205D1
:104FDB002874832527F8E4F6F527E52675F03CA41D
:104FEB00AB222524F9E52335F0FA7E00E92528F9D3
:104FFB00EE3AFA124175FF642C600D74832527F885
:10500B00A6070528052780D274832527F8E4F6E543
:10501B002664017045F527F528E52675F03CA4AB11
:10502B00222524F9E52335F0FA7E00E92528F9EE4F
:10503B003AFA124175FF601374572527F582E43451
:10504B0002F583EFF00528052780CE052774572539
:10505B0027F582E43402F583E4F00526024F25227E
:10506B007853760308764108764E087653087648CF
:10507B0008765508764D08764108764E9000BDE0CF
:10508B0008F6A3E008F6A3E008F6A3E008F6A3E011
:10509B0008F6A3E008F6A3E008F6A3E008F6A3E001
:1050AB0008F6A3E008F6A3E008F6A3E008F6A3E0F1
:1050BB0008F6A3E008F6A3E008F6A3E008F69002D2
:1050CB0043E008F6A3E008F6A3E008F6A3E008F631
:1050DB00A3E008F6A3E008F6A3E008F6A3E008F6C1
:1050EB0090024EE008F6A3E008F6A3E008F6A3E072
:1050FB0008F6A3E008F6A3E008F6A3E008F6A3E0A1
:10510B0008F6900392E008F690005BE008F690003A
:10511B005EE008F690025AE008F67B007A007953BD
:10512B007D2D126739AD07AC06ED4C60067E007F16
:10513B000180047E007F00EEFF3395E07880A607A8
:10514B00ED4C7F0060027F017881A607E490005A46
:10515B00F09000E5F09000AFF0900046742FF090C7
:10516B0003727401F090037904F07B007A00795399
:10517B007D2F026AC37B017A0279438B268A2789AA
:10518B00289000A7E0FFF58275830012418EFEC3C5
:10519B0094304012EE9439500D8F82758300740158
:1051AB001241BB02527EEEC394414066EE945A50BC
:1051BB0061EEB4461E9000E6E0B40117AB26AA27B9
:1051CB00A9289000A7E0F58275830074471241EE81
:1051DB0002527EAB26AA27A9289000A7E0FFF582F2
:1051EB0075830012418EB446139000E6E0B4020CB6
:1051FB008F8275830074301241EE8077AB26AA271D
:10520B00A9289000A7E0F58275830074011241BBB9
:10521B008061AB26AA27A9289000A7E0FFF582752D
:10522B00830012418EFEB4390C8F8275830074207B
:10523B001241EE803EEE64206003EE7016AB26AAA0
:10524B0027A9289000A7E0F58275830074411241CD
:10525B00EE8020AB26AA27A9289000A7E0FFF582B5
:10526B0075830012418EB45A0A8F82758300743095
:10527B001241EEAB26AA27A92802697C90027FE097
:10528B0014B40E00400302538490529BF8282873E9
:10529B000252C50252CF0252D90252E30252ED0220
:1052AB0052FB025309025317025323025333025387
:1052BB004302535302536102537390025B7431F0F8
:1052CB00E4A3F02290025B7433F0E4A3F02290028B
:1052DB005B7437F0E4A3F02290025B7446F0E4A316
:1052EB00F02290025B7431F0A37446F0E4A3F02239
:1052FB0090025B7433F0A37446F0E4A3F0229002A7
:10530B005B7437F0A37446F0E4A3F02290025B7455
:10531B0046F0A3F0E4A3F02290025B7431F0A37487
:10532B0046F0A3F0E4A3F02290025B7433F0A37475
:10533B0046F0A3F0E4A3F02290025B7437F0A37461
:10534B0046F0A3F0E4A3F02290025B7446F0A3F0C6
:10535B00A3F0E4A3F02290025B7431F0A37446F047
:10536B00A3F0A3F0E4A3F02290025B7433F0A374D8
:10537B0046F0A3F0A3F0E4A3F0228F338E328D31ED
:10538B008C30E4F53574B22535F582E43400F583C1
:10539B00E4F00535E535B40AEC7539007538CA7596
:1053AB00379A75363B900238740AF0AF33AE32AD94
:1053BB0031AC30AB39AA38A937A836D312434540A4
:1053CB0023AF39AE38AD37AC36E47B0AFAF9F812B5
:1053DB0042B38F398E388D378C36900238E014F00B
:1053EB00E0B534C7900238E024B2F582E43400F51E
:1053FB008374FFF0E4F535900238E0FFE535C39F89
:10540B00505CAF39AE38AD37AC36AB33AA32A931BD
:10541B00A830C3124345402974B22535F582E434D4
:10542B0000F583E004F0C3E5339539F533E53295A8
:10543B0038F532E5319537F531E5309536F5308075
:10544B00C1AF39AE38AD37AC36E47B0AFAF9F81296
:10545B0042B38F398E388D378C3605358099227B48
:10546B00017A0279438B268A2789289000A7E0FFCF
:10547B00F58275830012418EFED394304012EE9468
:10548B003A500D8F8275830074FF1241BB02554158
:10549B00EED39441401CEE945B5017AB26AA27A980
:1054AB00289000A7E0F58275830074FF1241BB02C0
:1054BB005541AB26AA27A9289000A7E0FFF58275D6
:1054CB00830012418EFEB430289000E6E0FDB4015B
:1054DB000A8F82758300745A1241EEED6402705686
:1054EB00AB26AA27A9288F82F58374461241EE803A
:1054FB0045EE64206016AB26AA27A9289000A7E0EA
:10550B00FFF58275830012418EFE7016AB26AA271B
:10551B00A9289000A7E0F58275830074391241EE3B
:10552B008014EEB44110AB26AA27A9288F8275836D
:10553B000074201241EEAB26AA27A92802697C8BA6
:10554B00228A2389248D25E4F528F526E526C395A3
:10555B00254003025623E5267043F527F528E5265B
:10556B0075F03CA4AB222524F9E52335F0FA7E0037
:10557B00E92528F9EE3AFA124175FF6013745725A5
:10558B0027F582E43402F583EFF00528052780CE5A
:10559B0074572527F582E43402F583E4F0E526649D
:1055AB00017070F527F528E52675F03CA4AB222594
:1055BB0024F9E52335F0FA7E00E92528F9EE3AFACD
:1055CB00124175FF6420600D74832527F8A607052B
:1055DB0028052780D2052874832527F8E4F6F527BC
:1055EB00E52675F03CA4AB222524F9E52335F0FA2A
:1055FB007E00E92528F9EE3AFA124175FF600D7429
:10560B00832527F8A6070528052780D4748325272B
:10561B00F8E4F60526025557227525017526027505
:10562B00278190009AE0F5287B017A0279578B222B
:10563B008A238924E4F529E529C39528504DE4F5FF
:10564B002AF52BE52975F03CA4AB252527F9E52692
:10565B0035F0FA7E00E9252BF9EE3AFA124175FF87
:10566B006015AB22AA23A924852A827583001241D7
:10567B00EE052B052A80CCAB22AA23A924852A82EE
:10568B00758300E41241EE052980AC90021FE0FF08
:10569B002496F582E43403F583E0FEB4070690020A
:1056AB00617401F0EEB4013D900261E0B4013690FB
:1056BB0003797401F0E4900261F09000ABF090027A
:1056CB0080F09002427414F09003937401F0E49014
:1056DB0000DBF090037F04F074962FF582E4340323
:1056EB00F583740CF022E4F521F5220522E52270F6
:1056FB00020521B40CF5E521B46CF0E4F521F5229B
:10570B000522E52270020521B40CF5E521B46CF0FD
:10571B00E4FD7F301266BCE4F521F5220522E5227B
:10572B0070020521B404F5E521B424F0E4F521F56C
:10573B00220522E52270020521B404F5E521B424EB
:10574B00F0E4FD7F301266BCE4F521F5220522E57D
:10575B00227002052164DC452170F2E4F521F5226B
:10576B000522E5227002052164DC452170F2E4FD7F
:10577B007F301266BC126BB8E4FD7F381266BC1228
:10578B006BB8E4FD7F081266BC126BB8E4FD7F01B9
:10579B001266BC126BB8E4FD7F061266BC126BB8C6
:1057AB007D017F0F1266BC120003E4FD7F0C0266C5
:1057BB00BC7BFF7A0B796CE4F52E7D048B2A8A2B4C
:1057CB00892C8D2DE4F531E52DB40110E52E2480C7
:1057DB00F530E4FDAF301266BC752F93E52DB402A6
:1057EB0010E52E24C0F530E4FDAF301266BC752FEA
:1057FB00D3E52DB40310E52E2494F530E4FDAF3042
:10580B001266BC752FA7E52DB40410E52E24D4F534
:10581B0030E4FDAF301266BC752FE7AB2AAA2BA97B
:10582B002C124175FF6025F46022E531701E7D015D
:10583B001266BC7401252CF52CE4352BF52B0530A9
:10584B00E530D3952F40D475310A80CFE52DB401C7
:10585B0007E4FD7F800266BCE4FD7FC01266BC22BC
:10586B008F217B13E4FD7F041265AAE52124FE60E2
:10587B002B146046146061240360030259167BFFEE
:10588B007A1179CCE4F52E7D041257C77BFF7A0B86
:10589B0079DD752E0A7D041257C7806F7BFF7A1155
:1058AB0079CCE4F52E7D041257C77BFF7A0B79B0C8
:1058BB00752E0A7D041257C780517BFF7A1179CC64
:1058CB00E4F52E7D041257C77BFF7A0B79D4752E26
:1058DB000A7D041257C780337B13E4FD7F031265E7
:1058EB00AA7BFF7A1179CCE4F52E7D031257C77B87
:1058FB00FF7A0B79B9752E0A7D031257C77BFF7A96
:10590B000B79C2E4F52E7D041257C7026A528F0839
:10591B00900242E024EC60030259C090009FE0B477
:10592B000107AF081245D48005AF08124AE3900077
:10593B00DBE06414706E900094F0900394F090038D
:10594B00A0F0126292EF7007AF081243A9802A9061
:10595B0003A07404F01263EEE49000DCF0A3F0906B
:10596B0000DDE004F070069000DCE004F09000DC59
:10597B00E0B427EBA3E0B410E69000E2E014F09063
:10598B00021FE004F090009D7401F09000E2E070C3
:10599B001890021FE014F09003917401F0E4900052
:1059AB009DF08005E4900264F09000DBE0B4C80544
:1059BB00E4900264F0900264E0FF227853760308CF
:1059CB00764108764E087653087648087655087661
:1059DB004D08764108764E900380E008F6A3E00868
:1059EB00F6A3E008F6A3E008F6A3E008F6A3E008A8
:1059FB00F6A3E008F6A3E008F6A3E008F6A3E00898
:105A0B00F6A3E008F6A3E008F6A3E008F6A3E00887
:105A1B00F6A3E008F6A3E008F67B007A0079537D45
:105A2B0019126739AD07AC06ED4C60067E007F019D
:105A3B0080047E007F00EEFF3395E0786CA607EDC7
:105A4B004C7F0060027F01786DA607900046741BA7
:105A5B00F09003797402F090009C14F0228B228A50
:105A6B002389248D25E4F528F526E526C3952540C5
:105A7B0003025B08E5267043F527F528E52675F04C
:105A8B003CA4AB222524F9E52335F0FA7E00E92569
:105A9B0028F9EE3AFA124175FF601374572527F572
:105AAB0082E43402F583EFF00528052780CE745786
:105ABB002527F582E43402F583E4F0E526640170D2
:105ACB0037F527F528E52675F03CA4AB222524F9FC
