:101A8F0057454C434F4D452020202020202020201B
:101A9F0020004672657175656E63792020202020C5
:101AAF0020202000416D706C6974756465202020C2
:101ABF002020202020004672657175656E637920A5
:101ACF005377656570202000494E54204D4F443A9E
:101ADF00202020202000455854204D4F443A2020EC
:101AEF0020202000412D4672657175656E63790067
:101AFF00422D4672657175656E6379205377656502
:101B0F007000432D416D706C6974756465004B2DC9
:101B1F00496E7465726E616C204D6F64756C617483
:101B2F00696F6E00512D45787465726E616C204D32
:101B3F006F64756C6174696F6E00452D4D656E75C0
:101B4F0020446973706C617920004573632D546F65
:101B5F002072657475726E20696E746F206B657973
:101B6F00626F61726420636F6E74726F6C00472DC9
:101B7F0046636F61727365205550004D2D46636F3C
:101B8F006172736520444E00482D4666696E65206C
:101B9F005550004E2D4666696E6520444E00492D06
:101BAF0041636F61727365205550004F2D41636F14
:101BBF006172736520444E004A2D4166696E65203F
:101BCF00555000502D4166696E6520444E00522DD0
:101BDF00464D0045736361706520746F20717569A0
:101BEF00742000507265737320666F6C6C6F776929
:101BFF006E67206B657920746F2073656C656374F5
:101C0F002066756E6374696F6E00412D4672657143
:101C1F0075656E6379204F4E00422D467265717562
:101C2F00656E6379205377656570204F4E00432DA5
:101C3F00416D706C6974756465204F4E004B2D4972
:101C4F006E7465726E616C204D6F64756C61746932
:101C5F006F6E204F4E004B2D496E7465726E616C26
:101C6F00204D6F64756C6174696F6E20414D204F0C
:101C7F004E004B2D496E7465726E616C204D6F6412
:101C8F00756C6174696F6E20464D204F4E00512D5B
:101C9F0045787465726E616C204D6F64756C6174FC
:101CAF00696F6E204F4E00512D45787465726E61CD
:101CBF006C204D6F64756C6174696F6E20414D209F
:101CCF004F4E00512D45787465726E616C204D6FCB
:101CDF0064756C6174696F6E20464D204F4E004CD9
:101CEF002D414D00412D4672657175656E637920EA
:101CFF004F464600422D4672657175656E637920B9
:101D0F005377656570204F464600432D416D706CCB
:101D1F006974756465204F4646004B2D496E746596
:101D2F00726E616C204D6F64756C6174696F6E209B
:101D3F004F464600512D45787465726E616C204D8B
:101D4F006F64756C6174696F6E204F464600FF209B
:101D5F002020202020202020202020202020200094
:101D6F00C0C0F9A4B0999282F88090FEFDFBF7EF06
:061D7F00DFBF7FDFBF7F24
:10002E0075B8027580FFD2A4D2A5901D70E493F529
:10003E003BF53CF53DF53EF53FE4F568F569F56EAB
:10004E00F56F7527FF7521FF7522FF7523FF752448
:10005E00FF7525FF7D38FF1226D97D0CE4FF122691
:10006E00D97D01E4FF1226D97FFA122BCC7BFF7AC1
:10007E001A798F1229A57FFA122BCC7FFA122BCC6C
:10008E007FFA122BCC12299F901D5DE4937005C24E
:10009E002B122755122B5ED288D2AFD2A8D2ABD25A
:1000AE008E7565FF752CFF7F0A122BCCE4F562F579
:1000BE0074FF12289FE4FF1228D712282E8F50E5C6
:1000CE005070057FFF122916E550B401057FFF120F
:1000DE002947E4F568F569F56EF56F7D01FF122687
:1000EE00D9D225D226D227D22A20261E7D80E4FF01
:1000FE001226D97BFF7A1A79C51229A57DC0E4FF95
:10010E001226D9D214C21502022D20251E7D80E49E
:10011E00FF1226D97BFF7A1A79B31229A5C214D2FF
:10012E00157DC0E4FF1226D902022D2027507D80B6
:10013E00E4FF1226D97BFF7A1A79D71229A5D21499
:10014E00C215201B177D8DE4FF1226D97D417F013C
:10015E001226D97D4D7F011226D980182012157DC9
:10016E008DE4FF1226D97D467F011226D97D4D7F63
:10017E00011226D97DC0E4FF1226D902022D202AB3
:10018E004F7D80E4FF1226D97BFF7A1A79E512297A
:10019E00A5D214C215201B177D8DE4FF1226D97D22
:1001AE00417F011226D97D4D7F011226D98018205C
:1001BE0012157D8DE4FF1226D97D467F011226D9B8
:1001CE007D4D7F011226D97DC0E4FF1226D9804FC6
:1001DE002024177D80E4FF1226D912299F7DC0E4CA
:1001EE00FF1226D9D214C215803520391D7D80E428
:1001FE00FF1226D97BFF7A1A79C51229A57DC0E494
:10020E00FF1226D9D214C21580157D80E4FF122666
:10021E00D912299F7DC0E4FF1226D9D214C215E54A
:10022E0074705912282E8F50E550700D122B128FAC
:10023E004F434F20AF4F122916E550B4010D122B2C
:10024E00388F4F434F20AF4F1229471220221228CA
:10025E002E8F50E550700D122B128F4F534FDFAF74
:10026E004F122916E550B4010D122B388F4F534FF4
:10027E00DFAF4F122947121D8502075AE574B401EC
:10028E000DAF3312220C7F64122BCC02075AE57489
:10029E00643270597D01FF1226D9C28EC2ACD218BB
:1002AE00122B5ED2AB7565FFE4F574FF12289FE446
:1002BE00FF1228D712282E8F50E55070057FFF129F
:1002CE002916E550B401057FFF122947D225D22603
:1002DE00D227D22AD2247527FF7521FF7522FF75EA
:1002EE0023FF7524FF7525FFD28E02075AE574642D
:1002FE004160030203A8300812122C018F50122CF9
:10030E00018F5085504B12289FC208202B24854BFD
:10031E0036E4F532122CBF8E688F697C007D0C128C
:10032E0016168E688F6985686E85696F12286F1232
:10033E00279E12282E8F50E5507013122B128F4FBE
:10034E00434F20434F04534FFEAF4F122916E55033
:10035E00B40113122B388F4F434F20434F04534F8A
:10036E00FEAF4F12294712202212282E8F50E55031
:10037E00700D122B128F4F534FDEAF4F122916E511
:10038E0050B4010D122B388F4F534FDEAF4F122941
:10039E0047121D85E4F57402075AE5746442705FD6
:1003AE0012282E8F50E5507010122B128F4F434F84
:1003BE0020534FFBAF4F122916E550B4010D122BEF
:1003CE00388F4F534FFBAF4F12294712202212285E
:1003DE002E8F50E550700D122B128F4F534FDBAFF7
:1003EE004F122916E550B4010D122B388F4F534F73
:1003FE00DBAF4F122947121D85E4F57402075AE54B
:10040E007464437079300914122C1B8F50122C1BFC
:10041E008F50855033AF331228D7C20912282E8F32
:10042E0050E5507010122B128F4F434F20534FFD3B
:10043E00AF4F122916E550B40110122B388F4F43CF
:10044E004F20534FFDAF4F12294712202212282E54
:10045E008F50E550700D122B128F4F534FDDAF4F53
:10046E00122916E550B4010D122B388F4F534FDD64
:10047E00AF4F122947121D8575740102075AE57494
:10048E00B44406E4F57402075AE574644560030249
:10049E00055D3018030205447BFF7A1B79F2122AA0
:1004AE00EF7F0D122C647F0A122C647BFF7A1A796F
:1004BE00F3122AEF7F0D122C647F0A122C647BFF3D
:1004CE007A1A79FF122AEF7F0D122C647F0A122CF2
:1004DE00647BFF7A1B7911122AEF7F0D122C647F39
:1004EE000A122C647BFF7A1B791D122AEF7F0D12E4
:1004FE002C647F0A122C647BFF7A1B7933122AEF4D
:10050E007F0D122C647F0A122C647BFF7A1B7949B3
:10051E00122AEF7F0D122C647F0A122C647BFF7A55
:10052E001B7959122AEF7F0D122C647F0A122C644C
:10053E00E4F57402075A208FFDC28EC2AB7F64129F
:10054E002BCC122539D2ACE4F574C28F02075AE5D2
:10055E0074644B702330191A12282E8F50E5507088
:10056E0006122B1212290FE550B40106122B381267
:10057E002940E4F57402075AE5746451702330176C
:10058E001A12282E8F50E5507006122B1212290FB8
:10059E00E550B40106122B38122940E4F574020717
:1005AE005AE574644C600302068520196212282EE7
:1005BE008F50E5507010122B128F4F434F20534F18
:1005CE00E7AF4F122916E550B40110122B388F4F9A
:1005DE00434F20534FE7AF4F1229471220221228C4
:1005EE002E8F50E550700D122B128F4F534FC7AFF9
:1005FE004F122916E550B4010D122B388F4F534F61
:10060E00C7AF4F122947121D85E4F57402075A3001
:10061E00170302075A12282E8F50E5507010122B16
:10062E00128F4F434F20534FEFAF4F122916E55005
:10063E00B40110122B388F4F434F20534FEFAF4F53
:10064E0012294712202212282E8F50E550700D12BB
:10065E002B128F4F534FCFAF4F122916E550B401C7
:10066E000D122B388F4F534FCFAF4F122947121DFC
:10067E0085E4F57402075AE5746452600302075A62
:10068E0020196D12282E8F50E5507013122B128FD9
:10069E004F434F10434F20534FF7AF4F122916E5DC
:1006AE0050B40113122B388F4F434F10434F20532A
:0D06BE004FF7AF4F12294712202212282EAD
:1006CB008F50E5507010122B128F4F434F10534F1A
:1006DB00D7AF4F122916E550B40110122B388F4F9C
:1006EB00434F10534FD7AF4F122947121D85E4F5D7
:1006FB0074805C20175912282E8F50E550700D1204
:10070B002B128F4F434F20AF4F122916E550B401D8
:10071B000D122B388F4F434F20AF4F12294712200A
:10072B002212282E8F50E550700D122B128F4F5323
:10073B004FDFAF4F122916E550B4010D122B388F36
:10074B004F534FDFAF4F122947121D85E4F574E568
:10075B006560030200F7D20CE56264416003020896
:01076B008A03
:10076C00D225D226D227D22AC224122AC08F62D2F4
:10077C00877F01122BCC122BC7E52C64417003022E
:10078C0011F7850F74D23BD23C201802B2382018D6
:10079C00582038557BFF7A1C7919122AEF7F0D12DD
:1007AC002C647F0A122C647BFF7A1B797D122AEF52
:1007BC007F20122C647BFF7A1B798A122AEF7F0D23
:1007CC00122C647F0A122C647BFF7A1B7997122AF5
:1007DC00EF7F20122C647BFF7A1B79A2122AEF7F09
:1007EC000D122C647F0A122C64203803020882D26A
:1007FC000812282B8F50E550700D122B128F4F437F
:10080C004F01AF4F122916E550B4010D122B388F42
:10081C004F434F01AF4F122947E4FF12289F201876
:10082C00557BFF7A1C79F3122AEF7F0D122C647F13
:10083C000A122C647BFF7A1B797D122AEF7F20121F
:10084C002C647BFF7A1B798A122AEF7F0D122C64A1
:10085C007F0A122C647BFF7A1B7997122AEF7F2078
:10086C00122C647BFF7A1B79A2122AEF7F0D122CBB
:0B087C00647F0A122C647565FFD20C2B
:0C0887000211F7E56264426003020940C0
:10089300D225C226D227D22AD224122A978F62D2F5
:1008A300867F01122BCC122BC7E52C644270030206
:1008B30011F7850F74D23BD23C201802B2392018AD
:1008C300162039137BFF7A1C7928122AEF7F0D1229
:1008D3002C647F0A122C6430395BE4F574D226123F
:1008E300282E8F50E5507019122B128F4F854F1001
:1008F300531001E5107002C238434F04AF4F122961
:1009030016E550B40119122B388F4F854F10531031
:1009130001E5107002C238434F04AF4F122947203C
:1009230018137BFF7A1D7903122AEF7F0D122C64B3
:0A0933007F0A122C647565FFD20CD8
:0C093D000211F7E56264436003020A71D6
:10094900C225D226D227D22AD224122A6E8F62D267
:10095900857F01122BCC122BC7E52C64437003024F
:1009690011F7850F74D23BD23C201802B23AC21457
:10097900D215201858203A557BFF7A1C793D122A46
:10098900EF7F0D122C647F0A122C647BFF7A1B798E
:10099900AD122AEF7F20122C647BFF7A1B79BA12E1
:1009A9002AEF7F0D122C647F0A122C647BFF7A1BBD
:1009B90079C7122AEF7F20122C647BFF7A1B79D228
:1009C900122AEF7F0D122C647F0A122C64203A033D
:1009D900020A6912282B8F50E550700D122B128FC5
:1009E9004F434F02AF4F122916E550B4010D122B98
:1009F900388F4F434F02AF4F122947C215D214E423
:100A0900FF1228D7D225D2092018557BFF7A1D79E4
:100A190019122AEF7F0D122C647F0A122C647BFFB6
:100A29007A1B79AD122AEF7F20122C647BFF7A1B87
:100A390079BA122AEF7F0D122C647F0A122C647B7B
:100A4900FF7A1B79C7122AEF7F20122C647BFF7A69
:100A59001B79D2122AEF7F0D122C647F0A122C64A3
:050A69007565FFD20CD1
:090A6E000211F7E56264447029ED
:100A7700122A458F62D2847F01122BCC122BC7E535
:100A87002C644470030211F7850F74D239D23AD21D
:060A970038D23C7565FF3A
:090A9D000211F7E56264457030B6
:100AA600122A1C8F62D2837F01122BCC122BC7E530
:100AB6002C644570030211F7850F74D239D23AD2ED
:0D0AC6003BD238B23C7565FF7F0A122BCC85
:0C0AD3000211F7E56264476003020B5E4D
:100ADF001229F38F62D2817F01122BCC122BC7E523
:100AEF002C644770030211F7203855202B2E856E8A
:100AFF0068856F69C21C746F2569F569E43568F5FF
:100B0F0068D3E5699400E5689410400675680F7521
:100B1F0069FA12286512279ED21C8024C21CC2D7E4
:100B2F00854B5074072550F55030D70A7FFF122898
:100B3F009F7550FF8005AF5012289FD21C85504BD8
:0C0B4F002038030211F7E4F5747565FF0F
:0C0B5B000211F7E562644D6003020BEE2E
:100B6700122A1C8F62D2837F01122BCC122BC7E56E
:100B77002C644D70030211F720385D202B30856EF1
:100B870068856F69C220D3E569946FE56894005062
:100B970007E4F568F569800C74912569F56974FFB8
:100BA7003568F56812286512279ED220802AC22050
:100BB700C2D7854B5085500FE50FD39407500AE4F1
:100BC700F550AF5012289F800A74F92550F550FF51
:100BD70012289FD22085504B2038030211F7E4F5E5
:040BE700747565FFBD
:090BEB000211F7E5626448707C18
:100BF4001229CA8F62D2807F01122BCC122BC7E537
:100C04002C644870030211F7203852202B2C856E77
:100C140068856F69C21D0569E56970020568D3942A
:100C240000E5689410400675680F7569FA12286526
:100C340012279ED21D7565FF8023C21DC2D7854B26
:100C440050055030D70A7550FFAF5012289F8005C9
:100C5400AF5012289FD21D85504B7565FF20380375
:090C64000211F7E4F5747565FF57
:0C0C6D000211F7E562644E6003020D0600
:100C790085620FC282C2A5D2A5122BA78F62D2822A
:100C89007F01122BCC122BC7E52C644E7003021185
:100C9900F720385A202B2F856E68856F69C221C3CA
:100CA900E5699403E56894005007E4F568F56980FF
:100CB90008E56915697002156812286512279ED220
:100CC900217565FF8028C221C2D7854B5085500FF9
:100CD900E50FB4010AE4F550AF5012289F800715BB
:100CE90050AF5012289FD22185504B7565FF20388F
:0A0CF900030211F7E4F5747565FFBE
:090D03000211F7E5626449704B2E
:100D0C00122AC08F62D2877F01122BCC122BC7E51F
:100D1C002C644970030211F7203A24C21EC2D785F5
:100D2C003350740F2550F55030D70A7FFF1228D757
:100D3C007550FF8005AF501228D7D21E8550332036
:080D4C003A030211F7E4F5740B
:090D54000211F7E562644F7051D1
:100D5D001229F38F62D2817F01122BCC122BC7E5A2
:100D6D002C644F70030211F7203A2AC222C2D78594
:100D7D00335085500FE50FC3940F500AE4F550AF73
:100D8D00501228D7800A74F12550F550FF1228D73C
:0E0D9D00D222855033203A030211F7E4F57498
:090DAB000211F7E562644A704888
:100DB400122A978F62D2867F01122BCC122BC7E5A1
:100DC4002C644A70030211F7203A21C21FC2D7854E
:100DD40033500550E550700A7550FFAF501228D7B4
:100DE4008005AF501228D7D21F855033203A030212
:050DF40011F7E4F574A5
:090DF9000211F7E5626450704E2E
:100E02001229CA8F62D2807F01122BCC122BC7E526
:100E12002C645070030211F7203A27C223C2D785EF
:100E2200335085500FE50FC39403500AE4F550AFD9
:100E3200501228D780071550AF501228D7D22385D9
:0B0E42005033203A030211F7E4F5746E
:0C0E4D000211F7E562644B6003020F55D0
:100E5900D225D226C227D22AD224D20C122A6E8FA8
:100E690062D2857F01122BCC122BC7E52C644B7003
:100E7900030211F7D20C850F74D23CD23BD21BD29C
:100E890012201802B21920183120192E7BFF7A1C62
:100E9900794C122AEF7F0D122C647F0A122C6412EE
:100EA9002AE97F20122C647BFF7A1B79DD122AEF55
:100EB9007F0D122C647F0A122C642019137D80E4A3
:100EC900FF1226D97BFF7A1D795E1229A5E4F574F4
:100ED900301952E4F57412282E8F50E5507006121D
:100EE9002B1212290FE550B40106122B3812294092
:100EF900D2272018527BFF7A1D7929122AEF7F0DFC
:100F0900122C647F0A122C64122AE97F20122C64A5
:100F19007BFF7A1B79DD122AEF7F0D122C647F0A81
:100F2900122C64802220171FE4F57412282E8F508A
:100F3900E5507006122B1212290FE550B401061262
:090F49002B38122940D217D20CFA
:0C0F52000211F7E56264516003021068B0
:100F5E00D225D226D227C22AD224D20C122AC08F50
:100F6E0062D2877F01122BCC122BC7E52C645170F5
:100F7E00030211F7D20C850F74D23CD23BD21BD296
:100F8E0012201802B21720183120172E7BFF7A1C60
:100F9E00799D122AEF7F0D122C647F0A122C641297
:100FAE002AE97F20122C647BFF7A1B79DD122AEF4F
:100FBE007F0D122C647F0A122C642017137D80E49F
:100FCE00FF1226D97BFF7A1D795E1229A5E4F574EE
:100FDE00301752E4F57412282E8F50E55070061219
:100FEE002B1212290FE550B40106122B381229408C
:100FFE00D22A2018607BFF7A1D7943122AEF7F0DCB
:10100E00122C647F0A122C64122AE97F20122C649F
:10101E007BFF7A1B79DD122AEF7F0D122C647F0A7B
:10102E00122C64803020192DE4F57412282E8F5066
:10103E00E550700D122B128F4F434F08AF4F1229F0
:10104E0016E550B4010D122B388F4F434F08AF4F9A
:07105E00122947D219D20C40
:0C1065000211F7E562644C6003021134D4
:10107100D23CD23BD2122017047F0180027F002094
:1010810019047E0180027E00EE4F6002C21B122A0B
:10109100458F62D2847F01122BCC122BC7E52C64C1
:1010A1004C70030211F72017047F0180027F00209A
:1010B10019047E0180027E00EE4F70030211F78554
:1010C1000F74D23CD23BD212C21B20182D201B2AF6
:1010D1002019277BFF7A1C7965122AEF7F0D122CCC
:1010E100647F0A122C64122AE97F20122C647BFF90
:1010F1007A1B79DD122AEF0211F73018030211F77A
:10110100301B030211F73017030211F77BFF7A1C22
:1011110079B6122AEF7F0D122C647F0A122C641209
:101121002AE97F20122C647BFF7A1B79DD122AEFDA
:101131000211F7E562645260030211E52017047F92
:101141000180027F002019047E0180027E00EE4FA3
:1011510070030211F7856274D23CD23BC212D21BDA
:1011610012282E8F50E550700D122B128F4F434FC6
:1011710010AF4F122916E550B4010D122B388F4FC5
:10118100434F10AF4F12294720182A201227201948
:10119100247BFF7A1C7981122AEF7F0D122C647F48
:1011A1000A122C64122AE97F20122C647BFF7A1B1D
:1011B10079DD122AEF20183E20123B2017387BFFE1
:1011C1007A1C79D2122AEF7F0D122C647F0A122C1D
:1011D10064122AE97F20122C647BFF7A1B79DD12CD
:1011E1002AEF8012E562B4320D757432AD747F015D
:0C11F1001226D97565FF7565FF02075ACC
:03001B00022708B1
:10270800C0E0C0F0C083C082C0D075D000C000C097
:1027180001C002C003C004C005C006C007C28E7B4A
:10272800007A00793B121770758D8A758BD0C28F2D
:10273800D28ED007D006D005D004D003D002D00165
:0D274800D000D0D0D082D083D0F0D0E032CD
:061770008B088A09890ABA
:10177600E4FFF582F5831215C7FE0F8F827583008D
:101786001215C7F50B0F8F827583001215C7F50C5E
:101796000F8F827583001215C7F50D0F8F82758323
:1017A600001215C7F50E8E80120006C2A41200069E
:1017B600D2A47580FFC280C2A5120006D2A5E56537
:1017C600B4FF051229D38F62D2807F02122C8D8539
:1017D6000B80120006C2A4120006D2A47580FFC2B6
:1017E60081C2A5120006D2A5E565B4FF051229FC43
:1017F6008F62D2817F02122C8D850C80120006C268
:10180600A4120006D2A47580FFC282C2A5120006E9
:10181600D2A5E565B4FF05122BA78F62D2827F029F
:10182600122C8D850D80120006C2A4120006D2A4C9
:101836007580FFC283C2A5120006D2A5E565B4FF76
:1018460005122A258F62D2837F02122C8D850E8087
:10185600120006C2A4120006D2A47580FFC284C27A
:10186600A5120006D2A5E565B4FF05122A4E8F62C1
:10187600D2847F02122C8D120003C2A4120006D25B
:10188600A47520FF200B02C200200D02C201200E0B
:1018960002C202203B02C203203C02C204203D02D7
:1018A600C205201C02C206201D02C2078520801226
:1018B6000006C2A4120006D2A47580FFC285C2A586
:1018C600120006D2A5E565B4FF05122A778F62D20B
:1018D600857F02122C9E120003C2A4120006D2A417
:1018E6007520FF201E02C200201F02C2012019021D
:1018F600C202201102C203202002C204202102C219
:1019060005202202C206202302C20785208012007B
:1019160006C2A4120006D2A47580FFC286C2A51212
:101926000006D2A5E565B4FF05122AA08F62D2860D
:101936007F02122C9E7580FF120006C2A4120006BA
:10194600D2A47520FF201002C200202C02C2012062
:101956003E02C202203F02C203201302C204201428
:1019660002C205201502C206201602C20785208083
:10197600120006C2A4120006D2A47580FFC287C256
:10198600A5120006D2A5E565B4FF05122AC98F6225
:10199600D2877F02122C9E7580FF120006C2A41207
:1019A6000006D2A47F02122C8D7F02122C8DE562D6
:1019B600B44705203802C21CE562B44D0520380242
:1019C600C220E562B44805203802C21DE562B44E65
:1019D60005203802C221E562B44905203A02C21E3A
:1019E600E562B44F05203A02C222E562B44A0520F8
:1019F6003A02C21FE562B45005203A02C223E562EC
:101A0600B4410B300C08B238D239C20C8038E562CA
:101A1600B4420B300C08B239D238C20C8028E562C9
:101A2600B44309300C06B23AC20C801AE562B44BD4
:101A360009300C06B219C20C800CE562B4510730AD
:101A46000C04B217C20C203804C20B8002D20B2041
:101A56003904C20D8002D20D203A04C20E8002D291
:101A66000E201906C20FD2108002D20F201706C20E
:101A760010D20F8002D210201B04C2118002D21194
:081A8600201203C22C22D22C15
:011A8E002235
:030003007580FF06
:040006007F641F1FD5
:01000A0022D3
:102C8D00E4FEEEC39F5009E4FD0DBDB4FC0E80F2D1
:012C9D002214
:052BC70085622C7F0176
:102BCC00E4FEEEC39F5011E4FDFC0DBD00010CBCF6
:082BDC0004F8BDFBF50E80EAD0
:012BE40022CE
:0929CA0085620FC280C2A5D2A5EE
:1029D300E4F56220A105756248F56520A2067562DB
:1029E30050E4F56520A306756258E4F565AF6222ED
:0929F30085620FC281C2A5D2A5C4
:1029FC00E4F56220A105756247F56520A2067562B3
:102A0C004FE4F56520A306756257E4F565AF6222C5
:102BA700E4F56220A105756246F56520A206756207
:102BB7004EE4F56520A306756256E4F565AF62221B
:092A1C0085620FC283C2A5D2A598
:102A2500E4F56220A105756245F56520A20675628B
:102A35004DE4F56520A306756255E4F565AF6222A0
:092A450085620FC284C2A5D2A56E
:102A4E00E4F56220A105756244F56520A206756263
:102A5E004CE4F56520A306756254E4F565AF622279
:092A6E0085620FC285C2A5D2A544
:102A7700E4F56220A105756243F56520A20675623B
:102A87004BE4F56520A306756253E4F565AF622252
:092A970085620FC286C2A5D2A51A
:102AA000E4F56220A105756242F56520A206756213
:102AB0004AE4F56520A306756252E4F565AF62222B
:092AC00085620FC287C2A5D2A5F0
:102AC900E4F56220A105756241F56520A2067562EB
:102AD90049E4F56520A306756251E4F565AF622204
:102B5E00E4F58DF58BC299C298C2ABC2A9758915E1
:102B6E0075CDB175CCE075CBB175CAE0F58CF58A33
:052B7E00F547F54822B7
:03282B00E4F5745D
:10282E00E4F511122C357F421227E78F12E5127054
:10283E0007F511122C81801C122C817F0A122BCCD1
:10284E00122C357F721227E78F12E51270D5751193
:06285E0001122C81AF11F4
:012864002251
:07290F008F4F434F18AF4F3B
:022916008F111F
:10291800122C357F421227E78F12E512B4010512F7
:102928002C81800FAF111227E78F12E512B4010333
:07293800122C81E51270D999
:01293F002275
:072940008F4F434F18AF4F0A
:022947008F11EE
:10294900122C357F721227E78F12E512B401051296
:102959002C81800FAF111227E78F12E512B4010302
:07296900122C81E51270D968
:012970002244
:102B1200122C357F431227E78F11E511B4010512FC
:102B22002C8180081229718F12122CDEE51170E0BF
:052B3200122C81AF121E
:012B3700227B
:102B3800122C357F731227E78F11E511B4010512A6
:102B48002C8180081229718F12122CDEE51170E099
:052B5800122C81AF12F8
:012B5D002255
:0B2BE500D2937F08122BF0D2927F08E1
:102BF000E4FEEEC39F50030E80F8E4FF0FBF80FC9D
:012C000022B1
:102C3500122BE5C2937F08122BF0C2927F08122B4C
:082C4500F0C2D77F08022BF05A
:082C79001229718F34122CDEC8
:0C2C8100C293122BE7D2937F08022BF0C5
:1027E700E4FD8F26FCA2379293E52625E0F5267FA8
:1027F70008122BF0D2927F04122BF0C2927F08129C
:102807002BF00CBC08DF7F08122BF0122BE5A293EC
:1028170030D7027D017F08122BF0C2927F08122B5E
:03282700F0AF050A
:01282A00228B
:10297100E4F526D2937F08122BF0E4FDE52625E04D
:10298100F526122BECD2937F08122BF0A2939230F2
:0D299100C2927F08122BF00DBD08E1AF26A9
:01299E002216
:0A2CDE00122BE5C2927F08022BF0D2
:1026B2007D207F011226D97D207F011226D97D201F
:1026C2007F011226D97D207F011226D97D207F012C
:0726D2001226D97D207F01D3
:1026D900AC05AB07301802C2AB7580FFC2A0D2B6F9
:1026E900C2B77F01122C8DD2B7BB0102D2A08C8058
:0F26F900C2B67F01122C8DC2B7301802D2AB22AD
:06299F007BFF7A1A79A10A
:0629A5008B118A12891358
:1029AB00E4F514AB11AA12A91385148275830012D6
:0E29BB0015C7FD60097F011226D9051480E5BD
:0129C90022EB
:062393009000081217641F
:10239900E4F52BF52AF529F528F573F572F571F5AC
:1023A90070F5C8C28C758CFF758AFFD2A9F547F5FF
:1023B90048F5CDF5CCF5CBF5CA7561013018032088
:1023C9008FFD301803208FFD301802C2ABD28CE587
:1023D90061640160FAD28CE56160FC301802D2AB0D
:1023E900E4F5C8C28C75610185CD34AF341225E599
:1023F90085CC34AF341225E57F01122BCC122CAFDA
:102409008E668F6785664985674AE549C313F5492D
:10241900E54A13F54AFFE4FCFDE52B2FF52BE52AE8
:102429003549F52AED3529F529EC3528F528E4F55E
:1024390047F548F5CDF5CCF5CBF5CAC28C758CFFBF
:10244900758AFFD28CF5C8C28C753550F58CF58A22
:10245900C28DF547F54875CDB175CCE075CBB17531
:10246900CAE0C2A9753550F5C8C28C7F05122BCCBC
:0C247900E4F54CAF2BAE2AAD29AC2822B4
:0E2650008F158E148D138C128B168A17891815
:10265E00E4F519F51AF519F51AE47B0AFAF9F8AF4B
:10266E0015AE14AD13AC121216B3EB2430AB16AA82
:10267E0017A918851A828519831215F4AF15AE1491
:10268E00AD13AC12E47B0AFAF9F81216B38F158E5D
:10269E00148D138C12051AE51A70020519640A4579
:0326AE001970B6EA
:0126B1002206
:03000B00022B8342
:102B8300C0E0C0D0C28CE561B4010E75C8047561A4
:102B930000758CFF758AE0800675C800756101D0E9
:042BA300D0D0E0327C
:0F2CAF0085CD1385CC14E5CDB513F5AE13AF1459
:012CBE0022F3
:03002B00022CCFD5
:0F2CCF00C0E00548E54870020547C2CFD0E032AB
:101D8500E4F511122399122393900000121764129F
:101D9500239990001012176412239990000C1217C2
:101DA50064900008E0FCA3E0FDA3E0FEA3E0FF9043
:101DB5000000E0F8A3E0F9A3E0FAA3E0FBEF2BFFB6
:101DC500EE3AFEED39FDEC38FC90000812176490F0
:101DD5000008E0FCA3E0FDA3E0FEA3E0FF900010F7
:101DE500E0F8A3E0F9A3E0FAA3E0FBEF2BFFEE3A5E
:101DF500FEED39FDEC38FC900008121764900008E0
:101E0500E0FCA3E0FDA3E0FEA3E0FFA3E0F8A3E070
:101E1500F9A3E0FAA3E0FBEF2BFFEE3AFEED39FD67
:101E2500EC38FC900008121764900008E0FCA3E071
:101E3500FDA3E0FEA3E0FFE47B04FAF9F81216B374
:101E4500900008121764900008E0FCA3E0FDA3E0F1
:101E5500FEA3E0FFE41215088F738E728D718C70EE
:101E6500AB73AA72A971A870E4FFFE7D807C3F1256
:101E750013FE8F738E728D718C70E4FBFAF97842C4
:101E85001212F58F738E728D718C708F3A8E398D1B
:101E9500388C37301803208FFDAF6DAE6CAD6BAC51
:101EA5006AAB3AAA39A938A83712149B600E400CC0
:101EB500853A6D85396C85386B85376AAB3AAA39B1
:101EC500A938A837AF6DAE6CAD6BAC6A1212008F36
:101ED500548E538D528C517F01122BCC85547385B2
:101EE5005372855271855170AF73AE72AD71AC701E
:101EF500E4FBFA798078421212F58F738E728D7138
:101F05008C707B007A40791C78461212F58F738E9F
:101F1500728D718C70E4FBFA79C878421212F58FD4
:101F2500738E728D718C701215468F308E2F8D2E9B
:101F35008C2D301803208FFDAF30AE2FAD2EAC2D7C
:101F45007B007A0079401226507DC0E4FF1226D925
:101F5500E54464306007AD447F011226D9AD437F67
:101F6500011226D9AD427F011226D97D2E7F01129D
:101F750026D9AD417F011226D9AD407F011226D960
:101F85007D4D7F011226D97D487F011226D97D7AA4
:101F95001226C9201838E54464306005AF44122C78
:101FA50064AF43122C64AF42122C647F2E122C6452
:101FB500AF41122C64AF40122C647F4D122C647F0C
:101FC50048122C647F7A122C647F0D122C64301811
:101FD50003208FFD53400F53410F53420F53430FBF
:101FE50053440F854031E531901D7093F53F854190
:101FF50031E53193F53E854231E53193F53D533D6C
:102005007F854331E53193F53C854431E5317004F5
:0C201500753BFF22E531901D7093F53BF8
:01202100229C
:10202200E4F511F5121223991223931223939000CF
:102032000812176412239912239390000012176456
:1020420012239990001012176412239990000C1217
:102052001764900008E0FCA3E0FDA3E0FEA3E0FF0C
:10206200900000E0F8A3E0F9A3E0FAA3E0FBEF2B75
:10207200FFEE3AFEED39FDEC38FC900008121764D1
:10208200900008E0FCA3E0FDA3E0FEA3E0FF9000C7
:1020920010E0F8A3E0F9A3E0FAA3E0FBEF2BFFEED8
:1020A2003AFEED39FDEC38FC9000081217649000FE
:1020B20008E0FCA3E0FDA3E0FEA3E0FFA3E0F8A399
:1020C200E0F9A3E0FAA3E0FBEF2BFFEE3AFEED39D5
:1020D200FDEC38FC900008121764900008E0FCA3A5
:1020E200E0FDA3E0FEA3E0FFE47B04FAF9F8121698
:1020F200B3900008121764E47F19FEFDFC900008FB
:10210200E0F8A3E0F9A3E0FAA3E0FB12162890009E
:1021120004121764900004E0FCA3E0FDA3E0FEA318
:10212200E0FFE47B64FAF9F81216B3900004121788
:1021320064900004E0FCA3E0FDA3E0FEA3E0FF90B6
:102142000000E0F8A3E0F9A3E0FAA3E02FFFEA3EE3
:10215200FEE93DFDE83CFC900008E0F8A3E0F9A3AD
:10216200E0FAA3E0FBD31217534005751101804337
:10217200900004E0F8A3E0F9A3E0FAA3E0FB9000EA
:1021820000E0FCA3E0FDA3E0FEA3E0C39BFFEE9A08
:10219200FEED99FDEC98FC900008E0F8A3E0F9A3AD
:1021A200E0FAA3E0FBC31217535005751101800337
:1021B200E4F511E51164017003022036900008E095
:1021C200FCA3E0FDA3E0FEA3E0FFE41215088F7379
:1021D2008E728D718C70AB73AA72A971A870E4FFB4
:1021E200FE7D807C3F1213FE8F738E728D718C7018
:1021F200E4FBFAF978421212F58F738E728D718CAC
:09220200708F6D8E6C8D6B8C6A7F
:01220B0022B0
:102C0100E4FB122C357F9F1227E7AB07BB010512AE
:092C11002C818003122C79AF34F0
:012C1A002297
:02289F00AB0785
:1028A100E4FA122C357F9E1227E7AA07BA01051216
:1028B1002C81800D7F421227E7AA07BA0103122C4F
:1028C10081EA70DEFAAF031227E7AA07BA01031201
:0528D1002C81EA70F00B
:0128D60022DF
:0228D700AB074D
:1028D900E4FA122C357F961227E7AA07BA010512E6
:1028E9002C81800D7F431227E7AA07BA0103122C16
:1028F90081EA70DEFAAF031227E7AA07BA010312C9
:052909002C81EA70F0D2
:01290E0022A6
:102C1B00E4FB122C357F971227E7AB07BB0105129C
:092C2B002C818003122C79AF34D6
:012C3400227D
:0F2CBF00853212853613E532B512F5AE12AF131A
:012CCE0022E3
:0A28650085686E85696FAF69AE6883
:10286F008E118F12851132851236AF32EFC454F0AC
:10287F00FF5307F0AE36EEC4540FFE53060FEE2F84
:0F288F00FFAE36EEC454F0FE5306F08E368F3295
:01289E002217
:10220C00AE07301803208FFDAE07E4F5118E36F5BE
:10221C0032122CBF8E478F487C007D641216168EAE
:10222C00478F48E48F2B8E2AF529F528AF2BAE2A41
:10223C00AD29AC287BE87A03F9F81216288F2B8E7F
:10224C002A8D298C28E41215088F738E728D718C4F
:10225C0070E4FBFA797F78431213FE8F738E728DC4
:10226C00718C701215468F2B8E2A8D298C28E4F5D3
:10227C0011E47B0AFAF9F8AF2BAE2AAD29AC28127F
:10228C0016B3EB2430FF74552511F8A607AF2BAE0F
:10229C002AAD29AC28E47B0AFAF9F81216B38F2B75
:1022AC008E2A8D298C280511E511B40AC485564057
:1022BC00855741855842855943855A4453400F539D
:1022CC00410F53420F53430F53440F301803208FC9
:1022DC00FD854031E531901D7093F53F854131E529
:1022EC003193F53E854231E53193F53D533D7F8584
:1022FC004331E53193F53C854431E5317005753B4F
:10230C00FF8008E531901D7093F53B7DC0E4FF1212
:10231C0026D9E55A64306007AD5A7F011226D9AD33
:10232C00597F011226D9AD587F011226D97D2E7FF7
:10233C00011226D9AD577F011226D9AD567F011255
:10234C0026D9AD557F011226D97D257F011226D9BC
:10235C001226B21226B220182DAF5A122C64AF5985
:10236C00122C64AF58122C647F2E122C64AF5712AF
:10237C002C64AF56122C64AF55122C647F25122C92
:06238C00647F0D122C64B9
:012392002228
:102C4D00C2AB759850758925758DE6758BE6C29961
:072C5D00C298C2ABD28E2227
:10253900C28EC2AB122C4DD28E7FFA122BCC7BFFEE
:102549007A1B79F2122AEF7F0D122C647F0A122C62
:10255900647BFF7A1A79F3122AEF7F0D122C647FBC
:102569000A122C647BFF7A1A79FF122AEF7F0D1267
:102579002C647F0A122C647BFF7A1B7911122AEFD3
:102589007F0D122C647F0A122C647BFF7A1B791D44
:10259900122AEF7F0D122C647F0A122C647BFF7ABA
:1025A9001B7933122AEF7F0D122C647F0A122C64D7
:1025B9007BFF7A1B7949122AEF7F0D122C647F0A5F
:1025C900122C647BFF7A1B7959122AEF7F0D122C8A
:0C25D900647F0A122C64E4F574C218221E
:062AE9007BFF7A1C79EE70
:062AEF008B118A1289130D
:102AF500E4F514AB11AA12A913851482758300128B
:0C2B050015C7FF6007122C64051480E760
:012B110022A1
:102C6400AB07C2AC7F01122BCCC2998B993099FD72
:052C7400C299D2AC2260
:030023000224852F
:07248500C0D075D000C007B4
:10248C00AF99C2ACC299C298C28E756500BF4106A5
:10249C0075624102252EBF420675624202252EBF8F
:1024AC004305756243807BBF44057562448073BFEE
:1024BC004705756247806BBF48057562488063BFEE
:1024CC004D0575624D805BBF4E0575624E8053BFE6
:1024DC004905756249804BBF4F0575624F8043BFFC
:1024EC004A0575624A803BBF50057562508033BF08
:1024FC004B0575624B802BBF51057562518023BF14
:10250C004C0575624C801BBF52057562528013BF1F
:10251C001B05756232800BBF4505756245800375DE
:08252C006200C218D28ED2AC8D
:05253400D007D0D032F9
:1025E500AE07EEC4540FFE53060F43063053070FD4
:1025F500430730EED394394028BE3A047E4180210A
:10260500BE3B047E42801ABE3C047E438013BE3D21
:10261500047E44800CBE3E047E458005BE3F027E9E
:1026250046EFD394394023BF3A037F4122BF3B0392
:102635007F4222BF3C037F4322BF3D037F4422BF2D
:0A2645003E037F4522BF3F027F469F
:01264F002268
:102C9E00E4FEEEC39F5009E4FD0DBDC8FC0E80F2AC
:012CAE002203
:10275500901D6FE493FB122C35AF031227E7AA07F0
:10276500BA0105122C81802B7F401227E7AA07BAF0
:102775000105122C81801CE4FF1227E7AA07BA0184
:1027850005122C81800DE4FF1227E7AA07BA010381
:09279500122C81EA70C0022C81B3
:10279E00901D6FE493FB122C35AF031227E7AA07A7
:1027AE00BA0105122C81802B7F401227E7AA07BAA7
:1027BE000105122C81801CAF321227E7AA07BA013D
:1027CE0005122C81800DAF361227E7AA07BA010336
:0927DE00122C81EA70C0022C816A
:1011FD000215B2E86480F8E933E83360110460F059
:10120D00ED33EC337009E8FCE9FDEAFEEBFF220457
:10121D0060DED3EB9FEA9EE99DE8C2E78CF0C2F752
:10122D0095F0400CE8CCF8E9CDF9EACEFAEBCFFB1E
:10123D0012157D85D0F05804700320D5B3E80470E5
:10124D00075002B2D50215BC92D5EC0460F7E4CC80
:10125D00C0E0C398F8603B94186008400DD0E0FBE7
:10126D00021594E4FBFAC9FC8028E830E406E4C9D1
:10127D00FBE4CAFCE830E305E4C9CACBFCE854073B
:10128D006010F8C3E913F9EA13FAEB13FBEC13FC46
:10129D00D8F130F52FC3E49CFCEF9BFFEE9AFEEDE9
:1012AD0099FDD0E0FBEF4E4D4C701222DB03021581
:1012BD00B9EC2CFCEF33FFEE33FEED33FDED30E7F3
:1012CD00EB021594EF2BFFEE3AFEED39FDD0E0FB6E
:1012DD0050130BBB00030215BCED13FDEE13FEEF17
:0812ED0013FFEC13FC02159441
:1012F500EC4D6011E8497017ED33EC3304600DE4F3
:10130500FCFFFEFD22E933E8330470F80215B21242
:10131500157D58046009E4CC248150062850090243
:1013250015BC2840030215B9C0E0EB4A7044B980EA
:1013350006D0E0FB0215A8EF4E701CBD8008EBFF40
:10134500EAFEE9FD80EBE98DF0A4FEE5F00213DE8F
:10135500E9CDF9EAFEEBFFEF89F0A4FCE5F0CE89D3
:10136500F0A42EFFE435F0CD89F0A42DFEE435F090
:101375008067EF4E7005BD80D780C3EF8BF0A4ACBE
:10138500F0EE8BF0A42CFCE435F0F8EF8AF0A42CF9
:10139500E5F038FCE433CB8DF0A42CFCE5F03BF80C
:1013A500EE8AF0A42CFCE5F038F8E433CF89F0A4FC
:1013B5002CFCE5F038CF3400CE89F0A42FFFE5F002
:1013C5003EFEE433C98DF0A42EFEE5F039CD8AF05A
:1013D500A42FFFE5F03EFEE43DFD33D0E0FB5007D2
:1013E5000BBB000F0215BCEC2CFCEF33FFEE33FEFC
:0613F500ED33FD0215942A
:1013FB000215BCEC5D046005E8590470030215B2DC
:10140B0012157D580460F6EC4860F2EC7004FDFE9A
:10141B00FF22C860DB2481C85009C39860025006C4
:10142B000215B99850CAF582E9294B4A7005AB826F
:10143B000215A875F0007C1A7880C3EF9BEE9AED2D
:10144B0099400DC3EF9BFFEE9AFEED99FDE842F03C
:10145B00DC23ACF0D0E0FFD0E0FED0E0FDAB82208F
:10146B00E7101BEB60BAEC2CFCEF33FFEE33FEED19
:10147B0033FD021594E803F830E705C0F075F00072
:10148B00EF2FFFEE33FEED33FD40B830E7C280AAFD
:10149B0074F8CC6480CCC86480C8F582046043C304
:1014AB00EB9FF5F0EA9E42F0E99D42F0E89C45F097
:1014BB0060305018E5825FFFE582F42B5582FB50BC
:1014CB00210ABA001D09B90019088016E5825BFBD9
:1014DB00E582F42F5582FF50090EBE00050DBD00AD
:1014EB00010CC3EB9FF5F0EA9E42F0E99D42F0E858
:0D14FB009C45F06007CC4820E701B3EC22CF
:1015080075F020800E75F010800575F0087D007E5E
:10151800007F003392D530D503121745EC334010C5
:10152800EF33FFEE33FEED33FDEC33FCD5F0ED2267
:0E153800E5F0247EA2D513CC92E7CDCEFF22A3
:10154600EDD2E7CD33EC3392D524814006E4FFFE9D
:10155600FDFC22FCE4CFCECDCC24E0501174FF80FC
:10156600EDC3CC13CCCD13CDCE13CECF13CF047099
:07157600F030D5DE0217453D
:10157D00E9D2E7C933E833F892D5EDD2E7CD33ECB4
:07158D0033FC5002B2D5222D
:10159400EC30E7100FBF000C0EBE00080DBD0004B8
:1015A4000BEB6014A2D5EB13FCED92E7FD2274FF64
:1015B400FCFDFEFF22E480F8A2D574FF13FC7D80BD
:0315C400E480EFD1
:0300000002000EED
:0C000E00787FE4F6D8FD75817402002EA6
:1015C700BB010CE58229F582E5833AF583E02250D9
:1015D70006E92582F8E622BBFE06E92582F8E22223
:0D15E700E58229F582E5833AF583E493223D
:1015F400F8BB010DE58229F582E5833AF583E8F02D
:10160400225006E92582C8F622BBFE05E92582C8D8
:02161400F222C0
:10161600EF8DF0A4A8F0CF8CF0A428CE8DF0A42EE8
:02162600FE22A2
:10162800E88FF0A4CC8BF0A42CFCE98EF0A42CFC61
:101638008AF0EDA42CFCEA8EF0A4CDA8F08BF0A4DF
:101648002DCC3825F0FDE98FF0A42CCD35F0FCEB3E
:101658008EF0A4FEA9F0EB8FF0A4CFC5F02ECD3903
:0F166800FEE43CFCEAA42DCE35F0FDE43CFC2270
:1016770075F008758200EF2FFFEE33FECD33CDCC2A
:1016870033CCC58233C5829BED9AEC99E5829840AD
:101697000CF582EE9BFEED9AFDEC99FC0FD5F0D68A
:1016A700E4CEFBE4CDFAE4CCF9A88222B800C1B9B4
:1016B7000059BA002DEC8BF084CFCECDFCE5F0CBF2
:1016C700F97818EF2FFFEE33FEED33FDEC33FCEB2B
:1016D70033FB10D703994004EB99FB0FD8E5E4F9E6
:1016E700FA227818EF2FFFEE33FEED33FDEC33FCD3
:1016F700C933C910D7059BE99A4007EC9BFCE99AC7
:10170700F90FD8E0E4C9FAE4CCFB2275F010EF2F0B
:10171700FFEE33FEED33FDCC33CCC833C810D7070B
:101727009BEC9AE899400AED9BFDEC9AFCE899F846
:0E1737000FD5F0DAE4CDFBE4CCFAE4C8F922D9
:0E174500C3E49FFFE49EFEE49DFDE49CFC22B5
:10175300EB9FF5F0EA9E42F0E99D42F0E89C45F0EC
:011763002263
:0C176400ECF0A3EDF0A3EEF0A3EFF022F8
:00000001FF
